{
	"contracts/no_forma.sol": {
		"SimplifiedNoForma": {
			"abi": [
				{
					"anonymous": false,
					"inputs": [
						{
							"indexed": true,
							"internalType": "uint256",
							"name": "id",
							"type": "uint256"
						},
						{
							"indexed": false,
							"internalType": "string",
							"name": "name",
							"type": "string"
						},
						{
							"indexed": false,
							"internalType": "string",
							"name": "email",
							"type": "string"
						},
						{
							"indexed": false,
							"internalType": "string",
							"name": "phone",
							"type": "string"
						}
					],
					"name": "CustomerCreated",
					"type": "event"
				},
				{
					"anonymous": false,
					"inputs": [
						{
							"indexed": true,
							"internalType": "uint256",
							"name": "id",
							"type": "uint256"
						}
					],
					"name": "CustomerDeleted",
					"type": "event"
				},
				{
					"anonymous": false,
					"inputs": [
						{
							"indexed": true,
							"internalType": "uint256",
							"name": "id",
							"type": "uint256"
						},
						{
							"indexed": false,
							"internalType": "string",
							"name": "name",
							"type": "string"
						},
						{
							"indexed": false,
							"internalType": "string",
							"name": "email",
							"type": "string"
						},
						{
							"indexed": false,
							"internalType": "string",
							"name": "phone",
							"type": "string"
						}
					],
					"name": "CustomerUpdated",
					"type": "event"
				},
				{
					"anonymous": false,
					"inputs": [
						{
							"indexed": true,
							"internalType": "uint256",
							"name": "id",
							"type": "uint256"
						},
						{
							"indexed": false,
							"internalType": "string",
							"name": "title",
							"type": "string"
						},
						{
							"indexed": false,
							"internalType": "string",
							"name": "group",
							"type": "string"
						}
					],
					"name": "KnowledgeBaseCreated",
					"type": "event"
				},
				{
					"anonymous": false,
					"inputs": [
						{
							"indexed": true,
							"internalType": "uint256",
							"name": "id",
							"type": "uint256"
						}
					],
					"name": "KnowledgeBaseDeleted",
					"type": "event"
				},
				{
					"anonymous": false,
					"inputs": [
						{
							"indexed": true,
							"internalType": "uint256",
							"name": "id",
							"type": "uint256"
						},
						{
							"indexed": false,
							"internalType": "string",
							"name": "title",
							"type": "string"
						},
						{
							"indexed": false,
							"internalType": "string",
							"name": "group",
							"type": "string"
						}
					],
					"name": "KnowledgeBaseUpdated",
					"type": "event"
				},
				{
					"anonymous": false,
					"inputs": [
						{
							"indexed": true,
							"internalType": "uint256",
							"name": "id",
							"type": "uint256"
						},
						{
							"indexed": false,
							"internalType": "string",
							"name": "name",
							"type": "string"
						},
						{
							"indexed": false,
							"internalType": "string",
							"name": "customer",
							"type": "string"
						},
						{
							"indexed": false,
							"internalType": "string",
							"name": "status",
							"type": "string"
						}
					],
					"name": "ProjectCreated",
					"type": "event"
				},
				{
					"anonymous": false,
					"inputs": [
						{
							"indexed": true,
							"internalType": "uint256",
							"name": "id",
							"type": "uint256"
						}
					],
					"name": "ProjectDeleted",
					"type": "event"
				},
				{
					"anonymous": false,
					"inputs": [
						{
							"indexed": true,
							"internalType": "uint256",
							"name": "id",
							"type": "uint256"
						},
						{
							"indexed": false,
							"internalType": "string",
							"name": "name",
							"type": "string"
						},
						{
							"indexed": false,
							"internalType": "string",
							"name": "customer",
							"type": "string"
						},
						{
							"indexed": false,
							"internalType": "string",
							"name": "status",
							"type": "string"
						}
					],
					"name": "ProjectUpdated",
					"type": "event"
				},
				{
					"inputs": [
						{
							"internalType": "string",
							"name": "_name",
							"type": "string"
						},
						{
							"internalType": "string",
							"name": "_email",
							"type": "string"
						},
						{
							"internalType": "string",
							"name": "_phone",
							"type": "string"
						}
					],
					"name": "createCustomer",
					"outputs": [
						{
							"internalType": "uint256",
							"name": "",
							"type": "uint256"
						}
					],
					"stateMutability": "nonpayable",
					"type": "function"
				},
				{
					"inputs": [
						{
							"internalType": "string",
							"name": "_title",
							"type": "string"
						},
						{
							"internalType": "string",
							"name": "_group",
							"type": "string"
						},
						{
							"internalType": "string",
							"name": "_content",
							"type": "string"
						}
					],
					"name": "createKnowledgeBase",
					"outputs": [
						{
							"internalType": "uint256",
							"name": "",
							"type": "uint256"
						}
					],
					"stateMutability": "nonpayable",
					"type": "function"
				},
				{
					"inputs": [
						{
							"internalType": "string",
							"name": "_name",
							"type": "string"
						},
						{
							"internalType": "string",
							"name": "_customer",
							"type": "string"
						},
						{
							"internalType": "string",
							"name": "_status",
							"type": "string"
						},
						{
							"internalType": "string",
							"name": "_details",
							"type": "string"
						}
					],
					"name": "createProject",
					"outputs": [
						{
							"internalType": "uint256",
							"name": "",
							"type": "uint256"
						}
					],
					"stateMutability": "nonpayable",
					"type": "function"
				},
				{
					"inputs": [
						{
							"internalType": "uint256",
							"name": "",
							"type": "uint256"
						}
					],
					"name": "customerIds",
					"outputs": [
						{
							"internalType": "uint256",
							"name": "",
							"type": "uint256"
						}
					],
					"stateMutability": "view",
					"type": "function"
				},
				{
					"inputs": [
						{
							"internalType": "uint256",
							"name": "",
							"type": "uint256"
						}
					],
					"name": "customers",
					"outputs": [
						{
							"internalType": "uint256",
							"name": "id",
							"type": "uint256"
						},
						{
							"internalType": "string",
							"name": "name",
							"type": "string"
						},
						{
							"internalType": "string",
							"name": "email",
							"type": "string"
						},
						{
							"internalType": "string",
							"name": "phone",
							"type": "string"
						},
						{
							"internalType": "bool",
							"name": "exists",
							"type": "bool"
						}
					],
					"stateMutability": "view",
					"type": "function"
				},
				{
					"inputs": [
						{
							"internalType": "uint256",
							"name": "_id",
							"type": "uint256"
						}
					],
					"name": "deleteCustomer",
					"outputs": [],
					"stateMutability": "nonpayable",
					"type": "function"
				},
				{
					"inputs": [
						{
							"internalType": "uint256",
							"name": "_id",
							"type": "uint256"
						}
					],
					"name": "deleteKnowledgeBase",
					"outputs": [],
					"stateMutability": "nonpayable",
					"type": "function"
				},
				{
					"inputs": [
						{
							"internalType": "uint256",
							"name": "_id",
							"type": "uint256"
						}
					],
					"name": "deleteProject",
					"outputs": [],
					"stateMutability": "nonpayable",
					"type": "function"
				},
				{
					"inputs": [],
					"name": "getAllCustomerIds",
					"outputs": [
						{
							"internalType": "uint256[]",
							"name": "",
							"type": "uint256[]"
						}
					],
					"stateMutability": "view",
					"type": "function"
				},
				{
					"inputs": [],
					"name": "getAllCustomers",
					"outputs": [
						{
							"internalType": "uint256[]",
							"name": "ids",
							"type": "uint256[]"
						},
						{
							"internalType": "string[]",
							"name": "names",
							"type": "string[]"
						},
						{
							"internalType": "string[]",
							"name": "emails",
							"type": "string[]"
						},
						{
							"internalType": "string[]",
							"name": "phones",
							"type": "string[]"
						}
					],
					"stateMutability": "view",
					"type": "function"
				},
				{
					"inputs": [],
					"name": "getAllKnowledgeBase",
					"outputs": [
						{
							"internalType": "uint256[]",
							"name": "ids",
							"type": "uint256[]"
						},
						{
							"internalType": "string[]",
							"name": "titles",
							"type": "string[]"
						},
						{
							"internalType": "string[]",
							"name": "groups",
							"type": "string[]"
						},
						{
							"internalType": "string[]",
							"name": "contents",
							"type": "string[]"
						}
					],
					"stateMutability": "view",
					"type": "function"
				},
				{
					"inputs": [],
					"name": "getAllKnowledgeBaseIds",
					"outputs": [
						{
							"internalType": "uint256[]",
							"name": "",
							"type": "uint256[]"
						}
					],
					"stateMutability": "view",
					"type": "function"
				},
				{
					"inputs": [],
					"name": "getAllProjectIds",
					"outputs": [
						{
							"internalType": "uint256[]",
							"name": "",
							"type": "uint256[]"
						}
					],
					"stateMutability": "view",
					"type": "function"
				},
				{
					"inputs": [],
					"name": "getAllProjectsWithCustomerInformation",
					"outputs": [
						{
							"internalType": "uint256[]",
							"name": "ids",
							"type": "uint256[]"
						},
						{
							"internalType": "string[]",
							"name": "names",
							"type": "string[]"
						},
						{
							"internalType": "string[]",
							"name": "customerNames",
							"type": "string[]"
						},
						{
							"internalType": "string[]",
							"name": "statuses",
							"type": "string[]"
						},
						{
							"internalType": "string[]",
							"name": "details",
							"type": "string[]"
						}
					],
					"stateMutability": "view",
					"type": "function"
				},
				{
					"inputs": [],
					"name": "getCounts",
					"outputs": [
						{
							"internalType": "uint256",
							"name": "knowledgeBaseCount",
							"type": "uint256"
						},
						{
							"internalType": "uint256",
							"name": "customerCount",
							"type": "uint256"
						},
						{
							"internalType": "uint256",
							"name": "projectCount",
							"type": "uint256"
						}
					],
					"stateMutability": "view",
					"type": "function"
				},
				{
					"inputs": [
						{
							"internalType": "uint256",
							"name": "_id",
							"type": "uint256"
						}
					],
					"name": "getCustomer",
					"outputs": [
						{
							"internalType": "uint256",
							"name": "id",
							"type": "uint256"
						},
						{
							"internalType": "string",
							"name": "name",
							"type": "string"
						},
						{
							"internalType": "string",
							"name": "email",
							"type": "string"
						},
						{
							"internalType": "string",
							"name": "phone",
							"type": "string"
						}
					],
					"stateMutability": "view",
					"type": "function"
				},
				{
					"inputs": [
						{
							"internalType": "uint256",
							"name": "_id",
							"type": "uint256"
						}
					],
					"name": "getKnowledgeBase",
					"outputs": [
						{
							"internalType": "uint256",
							"name": "id",
							"type": "uint256"
						},
						{
							"internalType": "string",
							"name": "title",
							"type": "string"
						},
						{
							"internalType": "string",
							"name": "group",
							"type": "string"
						},
						{
							"internalType": "string",
							"name": "content",
							"type": "string"
						}
					],
					"stateMutability": "view",
					"type": "function"
				},
				{
					"inputs": [
						{
							"internalType": "uint256",
							"name": "_id",
							"type": "uint256"
						}
					],
					"name": "getProject",
					"outputs": [
						{
							"internalType": "uint256",
							"name": "id",
							"type": "uint256"
						},
						{
							"internalType": "string",
							"name": "name",
							"type": "string"
						},
						{
							"internalType": "string",
							"name": "customer",
							"type": "string"
						},
						{
							"internalType": "string",
							"name": "status",
							"type": "string"
						},
						{
							"internalType": "string",
							"name": "details",
							"type": "string"
						}
					],
					"stateMutability": "view",
					"type": "function"
				},
				{
					"inputs": [
						{
							"internalType": "uint256",
							"name": "",
							"type": "uint256"
						}
					],
					"name": "knowledgeBase",
					"outputs": [
						{
							"internalType": "uint256",
							"name": "id",
							"type": "uint256"
						},
						{
							"internalType": "string",
							"name": "title",
							"type": "string"
						},
						{
							"internalType": "string",
							"name": "group",
							"type": "string"
						},
						{
							"internalType": "string",
							"name": "content",
							"type": "string"
						},
						{
							"internalType": "bool",
							"name": "exists",
							"type": "bool"
						}
					],
					"stateMutability": "view",
					"type": "function"
				},
				{
					"inputs": [
						{
							"internalType": "uint256",
							"name": "",
							"type": "uint256"
						}
					],
					"name": "knowledgeBaseIds",
					"outputs": [
						{
							"internalType": "uint256",
							"name": "",
							"type": "uint256"
						}
					],
					"stateMutability": "view",
					"type": "function"
				},
				{
					"inputs": [
						{
							"internalType": "uint256",
							"name": "",
							"type": "uint256"
						}
					],
					"name": "projectIds",
					"outputs": [
						{
							"internalType": "uint256",
							"name": "",
							"type": "uint256"
						}
					],
					"stateMutability": "view",
					"type": "function"
				},
				{
					"inputs": [
						{
							"internalType": "uint256",
							"name": "",
							"type": "uint256"
						}
					],
					"name": "projects",
					"outputs": [
						{
							"internalType": "uint256",
							"name": "id",
							"type": "uint256"
						},
						{
							"internalType": "string",
							"name": "name",
							"type": "string"
						},
						{
							"internalType": "string",
							"name": "customer",
							"type": "string"
						},
						{
							"internalType": "string",
							"name": "status",
							"type": "string"
						},
						{
							"internalType": "string",
							"name": "details",
							"type": "string"
						},
						{
							"internalType": "bool",
							"name": "exists",
							"type": "bool"
						}
					],
					"stateMutability": "view",
					"type": "function"
				},
				{
					"inputs": [
						{
							"internalType": "uint256",
							"name": "_id",
							"type": "uint256"
						},
						{
							"internalType": "string",
							"name": "_name",
							"type": "string"
						},
						{
							"internalType": "string",
							"name": "_email",
							"type": "string"
						},
						{
							"internalType": "string",
							"name": "_phone",
							"type": "string"
						}
					],
					"name": "updateCustomer",
					"outputs": [],
					"stateMutability": "nonpayable",
					"type": "function"
				},
				{
					"inputs": [
						{
							"internalType": "uint256",
							"name": "_id",
							"type": "uint256"
						},
						{
							"internalType": "string",
							"name": "_title",
							"type": "string"
						},
						{
							"internalType": "string",
							"name": "_group",
							"type": "string"
						},
						{
							"internalType": "string",
							"name": "_content",
							"type": "string"
						}
					],
					"name": "updateKnowledgeBase",
					"outputs": [],
					"stateMutability": "nonpayable",
					"type": "function"
				},
				{
					"inputs": [
						{
							"internalType": "uint256",
							"name": "_id",
							"type": "uint256"
						},
						{
							"internalType": "string",
							"name": "_name",
							"type": "string"
						},
						{
							"internalType": "string",
							"name": "_customer",
							"type": "string"
						},
						{
							"internalType": "string",
							"name": "_status",
							"type": "string"
						},
						{
							"internalType": "string",
							"name": "_details",
							"type": "string"
						}
					],
					"name": "updateProject",
					"outputs": [],
					"stateMutability": "nonpayable",
					"type": "function"
				}
			],
			"devdoc": {
				"details": "A simplified contract for managing knowledge base, customers, and projects",
				"kind": "dev",
				"methods": {
					"createCustomer(string,string,string)": {
						"details": "Create a new customer"
					},
					"createKnowledgeBase(string,string,string)": {
						"details": "Create a new knowledge base entry"
					},
					"createProject(string,string,string,string)": {
						"details": "Create a new project"
					},
					"deleteCustomer(uint256)": {
						"details": "Delete a customer"
					},
					"deleteKnowledgeBase(uint256)": {
						"details": "Delete a knowledge base entry"
					},
					"deleteProject(uint256)": {
						"details": "Delete a project"
					},
					"getAllCustomerIds()": {
						"details": "Get all customer IDs"
					},
					"getAllCustomers()": {
						"details": "Get all customers"
					},
					"getAllKnowledgeBase()": {
						"details": "Get all knowledge base entries"
					},
					"getAllKnowledgeBaseIds()": {
						"details": "Get all knowledge base IDs"
					},
					"getAllProjectIds()": {
						"details": "Get all project IDs"
					},
					"getAllProjectsWithCustomerInformation()": {
						"details": "Get all projects with customer information"
					},
					"getCounts()": {
						"details": "Get total counts"
					},
					"getCustomer(uint256)": {
						"details": "Get a customer by ID"
					},
					"getKnowledgeBase(uint256)": {
						"details": "Get a knowledge base entry by ID"
					},
					"getProject(uint256)": {
						"details": "Get a project by ID"
					},
					"updateCustomer(uint256,string,string,string)": {
						"details": "Update an existing customer"
					},
					"updateKnowledgeBase(uint256,string,string,string)": {
						"details": "Update an existing knowledge base entry"
					},
					"updateProject(uint256,string,string,string,string)": {
						"details": "Update an existing project"
					}
				},
				"title": "SimplifiedNoForma",
				"version": 1
			},
			"evm": {
				"assembly": "    /* \"contracts/no_forma.sol\":177:12531  contract SimplifiedNoForma {... */\n  mstore(0x40, 0x80)\n  callvalue\n  dup1\n  iszero\n  tag_1\n  jumpi\n  revert(0x00, 0x00)\ntag_1:\n  pop\n  dataSize(sub_0)\n  dup1\n  dataOffset(sub_0)\n  0x00\n  codecopy\n  0x00\n  return\nstop\n\nsub_0: assembly {\n        /* \"contracts/no_forma.sol\":177:12531  contract SimplifiedNoForma {... */\n      mstore(0x40, 0x80)\n      callvalue\n      dup1\n      iszero\n      tag_1\n      jumpi\n      revert(0x00, 0x00)\n    tag_1:\n      pop\n      jumpi(tag_2, lt(calldatasize, 0x04))\n      shr(0xe0, calldataload(0x00))\n      dup1\n      0x7da67ba8\n      gt\n      tag_28\n      jumpi\n      dup1\n      0xddaa91e1\n      gt\n      tag_29\n      jumpi\n      dup1\n      0xeb876f27\n      gt\n      tag_30\n      jumpi\n      dup1\n      0xeb876f27\n      eq\n      tag_24\n      jumpi\n      dup1\n      0xebf898f2\n      eq\n      tag_25\n      jumpi\n      dup1\n      0xed8de1af\n      eq\n      tag_26\n      jumpi\n      dup1\n      0xf0f3f2c8\n      eq\n      tag_27\n      jumpi\n      jump(tag_2)\n    tag_30:\n      dup1\n      0xddaa91e1\n      eq\n      tag_21\n      jumpi\n      dup1\n      0xe0dc79e6\n      eq\n      tag_22\n      jumpi\n      dup1\n      0xe35d1472\n      eq\n      tag_23\n      jumpi\n      jump(tag_2)\n    tag_29:\n      dup1\n      0x7da67ba8\n      eq\n      tag_15\n      jumpi\n      dup1\n      0xa26ac375\n      eq\n      tag_16\n      jumpi\n      dup1\n      0xa5373899\n      eq\n      tag_17\n      jumpi\n      dup1\n      0xb1a76029\n      eq\n      tag_18\n      jumpi\n      dup1\n      0xbef9549c\n      eq\n      tag_19\n      jumpi\n      dup1\n      0xc0abda2a\n      eq\n      tag_20\n      jumpi\n      jump(tag_2)\n    tag_28:\n      dup1\n      0x4cd0cb28\n      gt\n      tag_31\n      jumpi\n      dup1\n      0x4cd0cb28\n      eq\n      tag_9\n      jumpi\n      dup1\n      0x5580288b\n      eq\n      tag_10\n      jumpi\n      dup1\n      0x55b059e8\n      eq\n      tag_11\n      jumpi\n      dup1\n      0x56d7548f\n      eq\n      tag_12\n      jumpi\n      dup1\n      0x582dc196\n      eq\n      tag_13\n      jumpi\n      dup1\n      0x6f4afa08\n      eq\n      tag_14\n      jumpi\n      jump(tag_2)\n    tag_31:\n      dup1\n      0x05708f1f\n      eq\n      tag_3\n      jumpi\n      dup1\n      0x107046bd\n      eq\n      tag_4\n      jumpi\n      dup1\n      0x1f5fdd0b\n      eq\n      tag_5\n      jumpi\n      dup1\n      0x44480784\n      eq\n      tag_6\n      jumpi\n      dup1\n      0x48c35ad4\n      eq\n      tag_7\n      jumpi\n      dup1\n      0x4ac64766\n      eq\n      tag_8\n      jumpi\n    tag_2:\n      revert(0x00, 0x00)\n        /* \"contracts/no_forma.sol\":4159:4478  function getKnowledgeBase(uint256 _id) external view knowledgeBaseExists(_id) returns (... */\n    tag_3:\n      tag_32\n      0x04\n      dup1\n      calldatasize\n      sub\n      dup2\n      add\n      swap1\n      tag_33\n      swap2\n      swap1\n      tag_34\n      jump\t// in\n    tag_33:\n      tag_35\n      jump\t// in\n    tag_32:\n      mload(0x40)\n      tag_36\n      swap5\n      swap4\n      swap3\n      swap2\n      swap1\n      tag_37\n      jump\t// in\n    tag_36:\n      mload(0x40)\n      dup1\n      swap2\n      sub\n      swap1\n      return\n        /* \"contracts/no_forma.sol\":817:860  mapping(uint256 => Project) public projects */\n    tag_4:\n      tag_38\n      0x04\n      dup1\n      calldatasize\n      sub\n      dup2\n      add\n      swap1\n      tag_39\n      swap2\n      swap1\n      tag_34\n      jump\t// in\n    tag_39:\n      tag_40\n      jump\t// in\n    tag_38:\n      mload(0x40)\n      tag_41\n      swap7\n      swap6\n      swap5\n      swap4\n      swap3\n      swap2\n      swap1\n      tag_42\n      jump\t// in\n    tag_41:\n      mload(0x40)\n      dup1\n      swap2\n      sub\n      swap1\n      return\n        /* \"contracts/no_forma.sol\":2241:2911  function createKnowledgeBase(... */\n    tag_5:\n      tag_43\n      0x04\n      dup1\n      calldatasize\n      sub\n      dup2\n      add\n      swap1\n      tag_44\n      swap2\n      swap1\n      tag_45\n      jump\t// in\n    tag_44:\n      tag_46\n      jump\t// in\n    tag_43:\n      mload(0x40)\n      tag_47\n      swap2\n      swap1\n      tag_48\n      jump\t// in\n    tag_47:\n      mload(0x40)\n      dup1\n      swap2\n      sub\n      swap1\n      return\n        /* \"contracts/no_forma.sol\":706:760  mapping(uint256 => KnowledgeBase) public knowledgeBase */\n    tag_6:\n      tag_49\n      0x04\n      dup1\n      calldatasize\n      sub\n      dup2\n      add\n      swap1\n      tag_50\n      swap2\n      swap1\n      tag_34\n      jump\t// in\n    tag_50:\n      tag_51\n      jump\t// in\n    tag_49:\n      mload(0x40)\n      tag_52\n      swap6\n      swap5\n      swap4\n      swap3\n      swap2\n      swap1\n      tag_53\n      jump\t// in\n    tag_52:\n      mload(0x40)\n      dup1\n      swap2\n      sub\n      swap1\n      return\n        /* \"contracts/no_forma.sol\":975:1002  uint256[] public projectIds */\n    tag_7:\n      tag_54\n      0x04\n      dup1\n      calldatasize\n      sub\n      dup2\n      add\n      swap1\n      tag_55\n      swap2\n      swap1\n      tag_34\n      jump\t// in\n    tag_55:\n      tag_56\n      jump\t// in\n    tag_54:\n      mload(0x40)\n      tag_57\n      swap2\n      swap1\n      tag_48\n      jump\t// in\n    tag_57:\n      mload(0x40)\n      dup1\n      swap2\n      sub\n      swap1\n      return\n        /* \"contracts/no_forma.sol\":11095:11198  function getAllProjectIds() external view returns (uint256[] memory) {... */\n    tag_8:\n      tag_58\n      tag_59\n      jump\t// in\n    tag_58:\n      mload(0x40)\n      tag_60\n      swap2\n      swap1\n      tag_61\n      jump\t// in\n    tag_60:\n      mload(0x40)\n      dup1\n      swap2\n      sub\n      swap1\n      return\n        /* \"contracts/no_forma.sol\":10172:10608  function deleteProject(uint256 _id) external projectExists(_id) {... */\n    tag_9:\n      tag_62\n      0x04\n      dup1\n      calldatasize\n      sub\n      dup2\n      add\n      swap1\n      tag_63\n      swap2\n      swap1\n      tag_34\n      jump\t// in\n    tag_63:\n      tag_64\n      jump\t// in\n    tag_62:\n      stop\n        /* \"contracts/no_forma.sol\":941:969  uint256[] public customerIds */\n    tag_10:\n      tag_65\n      0x04\n      dup1\n      calldatasize\n      sub\n      dup2\n      add\n      swap1\n      tag_66\n      swap2\n      swap1\n      tag_34\n      jump\t// in\n    tag_66:\n      tag_67\n      jump\t// in\n    tag_65:\n      mload(0x40)\n      tag_68\n      swap2\n      swap1\n      tag_48\n      jump\t// in\n    tag_68:\n      mload(0x40)\n      dup1\n      swap2\n      sub\n      swap1\n      return\n        /* \"contracts/no_forma.sol\":5585:6223  function createCustomer(... */\n    tag_11:\n      tag_69\n      0x04\n      dup1\n      calldatasize\n      sub\n      dup2\n      add\n      swap1\n      tag_70\n      swap2\n      swap1\n      tag_45\n      jump\t// in\n    tag_70:\n      tag_71\n      jump\t// in\n    tag_69:\n      mload(0x40)\n      tag_72\n      swap2\n      swap1\n      tag_48\n      jump\t// in\n    tag_72:\n      mload(0x40)\n      dup1\n      swap2\n      sub\n      swap1\n      return\n        /* \"contracts/no_forma.sol\":6846:7292  function deleteCustomer(uint256 _id) external customerExists(_id) {... */\n    tag_12:\n      tag_73\n      0x04\n      dup1\n      calldatasize\n      sub\n      dup2\n      add\n      swap1\n      tag_74\n      swap2\n      swap1\n      tag_34\n      jump\t// in\n    tag_74:\n      tag_75\n      jump\t// in\n    tag_73:\n      stop\n        /* \"contracts/no_forma.sol\":4727:5488  function getAllKnowledgeBase() external view returns (... */\n    tag_13:\n      tag_76\n      tag_77\n      jump\t// in\n    tag_76:\n      mload(0x40)\n      tag_78\n      swap5\n      swap4\n      swap3\n      swap2\n      swap1\n      tag_79\n      jump\t// in\n    tag_78:\n      mload(0x40)\n      dup1\n      swap2\n      sub\n      swap1\n      return\n        /* \"contracts/no_forma.sol\":2989:3525  function updateKnowledgeBase(... */\n    tag_14:\n      tag_80\n      0x04\n      dup1\n      calldatasize\n      sub\n      dup2\n      add\n      swap1\n      tag_81\n      swap2\n      swap1\n      tag_82\n      jump\t// in\n    tag_81:\n      tag_83\n      jump\t// in\n    tag_80:\n      stop\n        /* \"contracts/no_forma.sol\":7895:8648  function getAllCustomers() external view returns (... */\n    tag_15:\n      tag_84\n      tag_85\n      jump\t// in\n    tag_84:\n      mload(0x40)\n      tag_86\n      swap5\n      swap4\n      swap3\n      swap2\n      swap1\n      tag_79\n      jump\t// in\n    tag_86:\n      mload(0x40)\n      dup1\n      swap2\n      sub\n      swap1\n      return\n        /* \"contracts/no_forma.sol\":8743:9461  function createProject(... */\n    tag_16:\n      tag_87\n      0x04\n      dup1\n      calldatasize\n      sub\n      dup2\n      add\n      swap1\n      tag_88\n      swap2\n      swap1\n      tag_89\n      jump\t// in\n    tag_88:\n      tag_90\n      jump\t// in\n    tag_87:\n      mload(0x40)\n      tag_91\n      swap2\n      swap1\n      tag_48\n      jump\t// in\n    tag_91:\n      mload(0x40)\n      dup1\n      swap2\n      sub\n      swap1\n      return\n        /* \"contracts/no_forma.sol\":12294:12529  function getCounts() external view returns (... */\n    tag_17:\n      tag_92\n      tag_93\n      jump\t// in\n    tag_92:\n      mload(0x40)\n      tag_94\n      swap4\n      swap3\n      swap2\n      swap1\n      tag_95\n      jump\t// in\n    tag_94:\n      mload(0x40)\n      dup1\n      swap2\n      sub\n      swap1\n      return\n        /* \"contracts/no_forma.sol\":4543:4658  function getAllKnowledgeBaseIds() external view returns (uint256[] memory) {... */\n    tag_18:\n      tag_96\n      tag_97\n      jump\t// in\n    tag_96:\n      mload(0x40)\n      tag_98\n      swap2\n      swap1\n      tag_61\n      jump\t// in\n    tag_98:\n      mload(0x40)\n      dup1\n      swap2\n      sub\n      swap1\n      return\n        /* \"contracts/no_forma.sol\":9526:10117  function updateProject(... */\n    tag_19:\n      tag_99\n      0x04\n      dup1\n      calldatasize\n      sub\n      dup2\n      add\n      swap1\n      tag_100\n      swap2\n      swap1\n      tag_101\n      jump\t// in\n    tag_100:\n      tag_102\n      jump\t// in\n    tag_99:\n      stop\n        /* \"contracts/no_forma.sol\":766:811  mapping(uint256 => Customer) public customers */\n    tag_20:\n      tag_103\n      0x04\n      dup1\n      calldatasize\n      sub\n      dup2\n      add\n      swap1\n      tag_104\n      swap2\n      swap1\n      tag_34\n      jump\t// in\n    tag_104:\n      tag_105\n      jump\t// in\n    tag_103:\n      mload(0x40)\n      tag_106\n      swap6\n      swap5\n      swap4\n      swap3\n      swap2\n      swap1\n      tag_53\n      jump\t// in\n    tag_106:\n      mload(0x40)\n      dup1\n      swap2\n      sub\n      swap1\n      return\n        /* \"contracts/no_forma.sol\":7734:7839  function getAllCustomerIds() external view returns (uint256[] memory) {... */\n    tag_21:\n      tag_107\n      tag_108\n      jump\t// in\n    tag_107:\n      mload(0x40)\n      tag_109\n      swap2\n      swap1\n      tag_61\n      jump\t// in\n    tag_109:\n      mload(0x40)\n      dup1\n      swap2\n      sub\n      swap1\n      return\n        /* \"contracts/no_forma.sol\":11279:12209  function getAllProjectsWithCustomerInformation() external view returns (... */\n    tag_22:\n      tag_110\n      tag_111\n      jump\t// in\n    tag_110:\n      mload(0x40)\n      tag_112\n      swap6\n      swap5\n      swap4\n      swap3\n      swap2\n      swap1\n      tag_113\n      jump\t// in\n    tag_112:\n      mload(0x40)\n      dup1\n      swap2\n      sub\n      swap1\n      return\n        /* \"contracts/no_forma.sol\":902:935  uint256[] public knowledgeBaseIds */\n    tag_23:\n      tag_114\n      0x04\n      dup1\n      calldatasize\n      sub\n      dup2\n      add\n      swap1\n      tag_115\n      swap2\n      swap1\n      tag_34\n      jump\t// in\n    tag_115:\n      tag_116\n      jump\t// in\n    tag_114:\n      mload(0x40)\n      tag_117\n      swap2\n      swap1\n      tag_48\n      jump\t// in\n    tag_117:\n      mload(0x40)\n      dup1\n      swap2\n      sub\n      swap1\n      return\n        /* \"contracts/no_forma.sol\":7351:7675  function getCustomer(uint256 _id) external view customerExists(_id) returns (... */\n    tag_24:\n      tag_118\n      0x04\n      dup1\n      calldatasize\n      sub\n      dup2\n      add\n      swap1\n      tag_119\n      swap2\n      swap1\n      tag_34\n      jump\t// in\n    tag_119:\n      tag_120\n      jump\t// in\n    tag_118:\n      mload(0x40)\n      tag_121\n      swap5\n      swap4\n      swap3\n      swap2\n      swap1\n      tag_37\n      jump\t// in\n    tag_121:\n      mload(0x40)\n      dup1\n      swap2\n      sub\n      swap1\n      return\n        /* \"contracts/no_forma.sol\":6289:6790  function updateCustomer(... */\n    tag_25:\n      tag_122\n      0x04\n      dup1\n      calldatasize\n      sub\n      dup2\n      add\n      swap1\n      tag_123\n      swap2\n      swap1\n      tag_82\n      jump\t// in\n    tag_123:\n      tag_124\n      jump\t// in\n    tag_122:\n      stop\n        /* \"contracts/no_forma.sol\":3593:4088  function deleteKnowledgeBase(uint256 _id) external knowledgeBaseExists(_id) {... */\n    tag_26:\n      tag_125\n      0x04\n      dup1\n      calldatasize\n      sub\n      dup2\n      add\n      swap1\n      tag_126\n      swap2\n      swap1\n      tag_34\n      jump\t// in\n    tag_126:\n      tag_127\n      jump\t// in\n    tag_125:\n      stop\n        /* \"contracts/no_forma.sol\":10666:11037  function getProject(uint256 _id) external view projectExists(_id) returns (... */\n    tag_27:\n      tag_128\n      0x04\n      dup1\n      calldatasize\n      sub\n      dup2\n      add\n      swap1\n      tag_129\n      swap2\n      swap1\n      tag_34\n      jump\t// in\n    tag_129:\n      tag_130\n      jump\t// in\n    tag_128:\n      mload(0x40)\n      tag_131\n      swap6\n      swap5\n      swap4\n      swap3\n      swap2\n      swap1\n      tag_132\n      jump\t// in\n    tag_131:\n      mload(0x40)\n      dup1\n      swap2\n      sub\n      swap1\n      return\n        /* \"contracts/no_forma.sol\":4159:4478  function getKnowledgeBase(uint256 _id) external view knowledgeBaseExists(_id) returns (... */\n    tag_35:\n        /* \"contracts/no_forma.sol\":4255:4265  uint256 id */\n      0x00\n        /* \"contracts/no_forma.sol\":4275:4294  string memory title */\n      0x60\n        /* \"contracts/no_forma.sol\":4304:4323  string memory group */\n      dup1\n        /* \"contracts/no_forma.sol\":4333:4354  string memory content */\n      0x60\n        /* \"contracts/no_forma.sol\":4232:4235  _id */\n      dup5\n        /* \"contracts/no_forma.sol\":1782:1795  knowledgeBase */\n      0x00\n        /* \"contracts/no_forma.sol\":1782:1800  knowledgeBase[_id] */\n      0x00\n        /* \"contracts/no_forma.sol\":1796:1799  _id */\n      dup3\n        /* \"contracts/no_forma.sol\":1782:1800  knowledgeBase[_id] */\n      dup2\n      mstore\n      0x20\n      add\n      swap1\n      dup2\n      mstore\n      0x20\n      add\n      0x00\n      keccak256\n        /* \"contracts/no_forma.sol\":1782:1807  knowledgeBase[_id].exists */\n      0x04\n      add\n      0x00\n      swap1\n      sload\n      swap1\n      0x0100\n      exp\n      swap1\n      div\n      0xff\n      and\n        /* \"contracts/no_forma.sol\":1774:1847  require(knowledgeBase[_id].exists, \"Knowledge base entry does not exist\") */\n      tag_134\n      jumpi\n      mload(0x40)\n      0x08c379a000000000000000000000000000000000000000000000000000000000\n      dup2\n      mstore\n      0x04\n      add\n      tag_135\n      swap1\n      tag_136\n      jump\t// in\n    tag_135:\n      mload(0x40)\n      dup1\n      swap2\n      sub\n      swap1\n      revert\n    tag_134:\n        /* \"contracts/no_forma.sol\":4371:4394  KnowledgeBase memory kb */\n      0x00\n        /* \"contracts/no_forma.sol\":4397:4410  knowledgeBase */\n      0x00\n        /* \"contracts/no_forma.sol\":4397:4415  knowledgeBase[_id] */\n      0x00\n        /* \"contracts/no_forma.sol\":4411:4414  _id */\n      dup9\n        /* \"contracts/no_forma.sol\":4397:4415  knowledgeBase[_id] */\n      dup2\n      mstore\n      0x20\n      add\n      swap1\n      dup2\n      mstore\n      0x20\n      add\n      0x00\n      keccak256\n        /* \"contracts/no_forma.sol\":4371:4415  KnowledgeBase memory kb = knowledgeBase[_id] */\n      mload(0x40)\n      dup1\n      0xa0\n      add\n      0x40\n      mstore\n      swap1\n      dup2\n      0x00\n      dup3\n      add\n      sload\n      dup2\n      mstore\n      0x20\n      add\n      0x01\n      dup3\n      add\n      dup1\n      sload\n      tag_138\n      swap1\n      tag_139\n      jump\t// in\n    tag_138:\n      dup1\n      0x1f\n      add\n      0x20\n      dup1\n      swap2\n      div\n      mul\n      0x20\n      add\n      mload(0x40)\n      swap1\n      dup2\n      add\n      0x40\n      mstore\n      dup1\n      swap3\n      swap2\n      swap1\n      dup2\n      dup2\n      mstore\n      0x20\n      add\n      dup3\n      dup1\n      sload\n      tag_140\n      swap1\n      tag_139\n      jump\t// in\n    tag_140:\n      dup1\n      iszero\n      tag_141\n      jumpi\n      dup1\n      0x1f\n      lt\n      tag_142\n      jumpi\n      0x0100\n      dup1\n      dup4\n      sload\n      div\n      mul\n      dup4\n      mstore\n      swap2\n      0x20\n      add\n      swap2\n      jump(tag_141)\n    tag_142:\n      dup3\n      add\n      swap2\n      swap1\n      0x00\n      mstore\n      keccak256(0x00, 0x20)\n      swap1\n    tag_143:\n      dup2\n      sload\n      dup2\n      mstore\n      swap1\n      0x01\n      add\n      swap1\n      0x20\n      add\n      dup1\n      dup4\n      gt\n      tag_143\n      jumpi\n      dup3\n      swap1\n      sub\n      0x1f\n      and\n      dup3\n      add\n      swap2\n    tag_141:\n      pop\n      pop\n      pop\n      pop\n      pop\n      dup2\n      mstore\n      0x20\n      add\n      0x02\n      dup3\n      add\n      dup1\n      sload\n      tag_144\n      swap1\n      tag_139\n      jump\t// in\n    tag_144:\n      dup1\n      0x1f\n      add\n      0x20\n      dup1\n      swap2\n      div\n      mul\n      0x20\n      add\n      mload(0x40)\n      swap1\n      dup2\n      add\n      0x40\n      mstore\n      dup1\n      swap3\n      swap2\n      swap1\n      dup2\n      dup2\n      mstore\n      0x20\n      add\n      dup3\n      dup1\n      sload\n      tag_145\n      swap1\n      tag_139\n      jump\t// in\n    tag_145:\n      dup1\n      iszero\n      tag_146\n      jumpi\n      dup1\n      0x1f\n      lt\n      tag_147\n      jumpi\n      0x0100\n      dup1\n      dup4\n      sload\n      div\n      mul\n      dup4\n      mstore\n      swap2\n      0x20\n      add\n      swap2\n      jump(tag_146)\n    tag_147:\n      dup3\n      add\n      swap2\n      swap1\n      0x00\n      mstore\n      keccak256(0x00, 0x20)\n      swap1\n    tag_148:\n      dup2\n      sload\n      dup2\n      mstore\n      swap1\n      0x01\n      add\n      swap1\n      0x20\n      add\n      dup1\n      dup4\n      gt\n      tag_148\n      jumpi\n      dup3\n      swap1\n      sub\n      0x1f\n      and\n      dup3\n      add\n      swap2\n    tag_146:\n      pop\n      pop\n      pop\n      pop\n      pop\n      dup2\n      mstore\n      0x20\n      add\n      0x03\n      dup3\n      add\n      dup1\n      sload\n      tag_149\n      swap1\n      tag_139\n      jump\t// in\n    tag_149:\n      dup1\n      0x1f\n      add\n      0x20\n      dup1\n      swap2\n      div\n      mul\n      0x20\n      add\n      mload(0x40)\n      swap1\n      dup2\n      add\n      0x40\n      mstore\n      dup1\n      swap3\n      swap2\n      swap1\n      dup2\n      dup2\n      mstore\n      0x20\n      add\n      dup3\n      dup1\n      sload\n      tag_150\n      swap1\n      tag_139\n      jump\t// in\n    tag_150:\n      dup1\n      iszero\n      tag_151\n      jumpi\n      dup1\n      0x1f\n      lt\n      tag_152\n      jumpi\n      0x0100\n      dup1\n      dup4\n      sload\n      div\n      mul\n      dup4\n      mstore\n      swap2\n      0x20\n      add\n      swap2\n      jump(tag_151)\n    tag_152:\n      dup3\n      add\n      swap2\n      swap1\n      0x00\n      mstore\n      keccak256(0x00, 0x20)\n      swap1\n    tag_153:\n      dup2\n      sload\n      dup2\n      mstore\n      swap1\n      0x01\n      add\n      swap1\n      0x20\n      add\n      dup1\n      dup4\n      gt\n      tag_153\n      jumpi\n      dup3\n      swap1\n      sub\n      0x1f\n      and\n      dup3\n      add\n      swap2\n    tag_151:\n      pop\n      pop\n      pop\n      pop\n      pop\n      dup2\n      mstore\n      0x20\n      add\n      0x04\n      dup3\n      add\n      0x00\n      swap1\n      sload\n      swap1\n      0x0100\n      exp\n      swap1\n      div\n      0xff\n      and\n      iszero\n      iszero\n      iszero\n      iszero\n      dup2\n      mstore\n      pop\n      pop\n      swap1\n      pop\n        /* \"contracts/no_forma.sol\":4433:4435  kb */\n      dup1\n        /* \"contracts/no_forma.sol\":4433:4438  kb.id */\n      0x00\n      add\n      mload\n        /* \"contracts/no_forma.sol\":4440:4442  kb */\n      dup2\n        /* \"contracts/no_forma.sol\":4440:4448  kb.title */\n      0x20\n      add\n      mload\n        /* \"contracts/no_forma.sol\":4450:4452  kb */\n      dup3\n        /* \"contracts/no_forma.sol\":4450:4458  kb.group */\n      0x40\n      add\n      mload\n        /* \"contracts/no_forma.sol\":4460:4462  kb */\n      dup4\n        /* \"contracts/no_forma.sol\":4460:4470  kb.content */\n      0x60\n      add\n      mload\n        /* \"contracts/no_forma.sol\":4425:4471  return (kb.id, kb.title, kb.group, kb.content) */\n      swap6\n      pop\n      swap6\n      pop\n      swap6\n      pop\n      swap6\n      pop\n      pop\n        /* \"contracts/no_forma.sol\":4159:4478  function getKnowledgeBase(uint256 _id) external view knowledgeBaseExists(_id) returns (... */\n      pop\n      swap2\n      swap4\n      pop\n      swap2\n      swap4\n      jump\t// out\n        /* \"contracts/no_forma.sol\":817:860  mapping(uint256 => Project) public projects */\n    tag_40:\n      mstore(0x20, 0x02)\n      dup1\n      0x00\n      mstore\n      keccak256(0x00, 0x40)\n      0x00\n      swap2\n      pop\n      swap1\n      pop\n      dup1\n      0x00\n      add\n      sload\n      swap1\n      dup1\n      0x01\n      add\n      dup1\n      sload\n      tag_154\n      swap1\n      tag_139\n      jump\t// in\n    tag_154:\n      dup1\n      0x1f\n      add\n      0x20\n      dup1\n      swap2\n      div\n      mul\n      0x20\n      add\n      mload(0x40)\n      swap1\n      dup2\n      add\n      0x40\n      mstore\n      dup1\n      swap3\n      swap2\n      swap1\n      dup2\n      dup2\n      mstore\n      0x20\n      add\n      dup3\n      dup1\n      sload\n      tag_155\n      swap1\n      tag_139\n      jump\t// in\n    tag_155:\n      dup1\n      iszero\n      tag_156\n      jumpi\n      dup1\n      0x1f\n      lt\n      tag_157\n      jumpi\n      0x0100\n      dup1\n      dup4\n      sload\n      div\n      mul\n      dup4\n      mstore\n      swap2\n      0x20\n      add\n      swap2\n      jump(tag_156)\n    tag_157:\n      dup3\n      add\n      swap2\n      swap1\n      0x00\n      mstore\n      keccak256(0x00, 0x20)\n      swap1\n    tag_158:\n      dup2\n      sload\n      dup2\n      mstore\n      swap1\n      0x01\n      add\n      swap1\n      0x20\n      add\n      dup1\n      dup4\n      gt\n      tag_158\n      jumpi\n      dup3\n      swap1\n      sub\n      0x1f\n      and\n      dup3\n      add\n      swap2\n    tag_156:\n      pop\n      pop\n      pop\n      pop\n      pop\n      swap1\n      dup1\n      0x02\n      add\n      dup1\n      sload\n      tag_159\n      swap1\n      tag_139\n      jump\t// in\n    tag_159:\n      dup1\n      0x1f\n      add\n      0x20\n      dup1\n      swap2\n      div\n      mul\n      0x20\n      add\n      mload(0x40)\n      swap1\n      dup2\n      add\n      0x40\n      mstore\n      dup1\n      swap3\n      swap2\n      swap1\n      dup2\n      dup2\n      mstore\n      0x20\n      add\n      dup3\n      dup1\n      sload\n      tag_160\n      swap1\n      tag_139\n      jump\t// in\n    tag_160:\n      dup1\n      iszero\n      tag_161\n      jumpi\n      dup1\n      0x1f\n      lt\n      tag_162\n      jumpi\n      0x0100\n      dup1\n      dup4\n      sload\n      div\n      mul\n      dup4\n      mstore\n      swap2\n      0x20\n      add\n      swap2\n      jump(tag_161)\n    tag_162:\n      dup3\n      add\n      swap2\n      swap1\n      0x00\n      mstore\n      keccak256(0x00, 0x20)\n      swap1\n    tag_163:\n      dup2\n      sload\n      dup2\n      mstore\n      swap1\n      0x01\n      add\n      swap1\n      0x20\n      add\n      dup1\n      dup4\n      gt\n      tag_163\n      jumpi\n      dup3\n      swap1\n      sub\n      0x1f\n      and\n      dup3\n      add\n      swap2\n    tag_161:\n      pop\n      pop\n      pop\n      pop\n      pop\n      swap1\n      dup1\n      0x03\n      add\n      dup1\n      sload\n      tag_164\n      swap1\n      tag_139\n      jump\t// in\n    tag_164:\n      dup1\n      0x1f\n      add\n      0x20\n      dup1\n      swap2\n      div\n      mul\n      0x20\n      add\n      mload(0x40)\n      swap1\n      dup2\n      add\n      0x40\n      mstore\n      dup1\n      swap3\n      swap2\n      swap1\n      dup2\n      dup2\n      mstore\n      0x20\n      add\n      dup3\n      dup1\n      sload\n      tag_165\n      swap1\n      tag_139\n      jump\t// in\n    tag_165:\n      dup1\n      iszero\n      tag_166\n      jumpi\n      dup1\n      0x1f\n      lt\n      tag_167\n      jumpi\n      0x0100\n      dup1\n      dup4\n      sload\n      div\n      mul\n      dup4\n      mstore\n      swap2\n      0x20\n      add\n      swap2\n      jump(tag_166)\n    tag_167:\n      dup3\n      add\n      swap2\n      swap1\n      0x00\n      mstore\n      keccak256(0x00, 0x20)\n      swap1\n    tag_168:\n      dup2\n      sload\n      dup2\n      mstore\n      swap1\n      0x01\n      add\n      swap1\n      0x20\n      add\n      dup1\n      dup4\n      gt\n      tag_168\n      jumpi\n      dup3\n      swap1\n      sub\n      0x1f\n      and\n      dup3\n      add\n      swap2\n    tag_166:\n      pop\n      pop\n      pop\n      pop\n      pop\n      swap1\n      dup1\n      0x04\n      add\n      dup1\n      sload\n      tag_169\n      swap1\n      tag_139\n      jump\t// in\n    tag_169:\n      dup1\n      0x1f\n      add\n      0x20\n      dup1\n      swap2\n      div\n      mul\n      0x20\n      add\n      mload(0x40)\n      swap1\n      dup2\n      add\n      0x40\n      mstore\n      dup1\n      swap3\n      swap2\n      swap1\n      dup2\n      dup2\n      mstore\n      0x20\n      add\n      dup3\n      dup1\n      sload\n      tag_170\n      swap1\n      tag_139\n      jump\t// in\n    tag_170:\n      dup1\n      iszero\n      tag_171\n      jumpi\n      dup1\n      0x1f\n      lt\n      tag_172\n      jumpi\n      0x0100\n      dup1\n      dup4\n      sload\n      div\n      mul\n      dup4\n      mstore\n      swap2\n      0x20\n      add\n      swap2\n      jump(tag_171)\n    tag_172:\n      dup3\n      add\n      swap2\n      swap1\n      0x00\n      mstore\n      keccak256(0x00, 0x20)\n      swap1\n    tag_173:\n      dup2\n      sload\n      dup2\n      mstore\n      swap1\n      0x01\n      add\n      swap1\n      0x20\n      add\n      dup1\n      dup4\n      gt\n      tag_173\n      jumpi\n      dup3\n      swap1\n      sub\n      0x1f\n      and\n      dup3\n      add\n      swap2\n    tag_171:\n      pop\n      pop\n      pop\n      pop\n      pop\n      swap1\n      dup1\n      0x05\n      add\n      0x00\n      swap1\n      sload\n      swap1\n      0x0100\n      exp\n      swap1\n      div\n      0xff\n      and\n      swap1\n      pop\n      dup7\n      jump\t// out\n        /* \"contracts/no_forma.sol\":2241:2911  function createKnowledgeBase(... */\n    tag_46:\n        /* \"contracts/no_forma.sol\":2386:2393  uint256 */\n      0x00\n        /* \"contracts/no_forma.sol\":2436:2437  0 */\n      0x00\n        /* \"contracts/no_forma.sol\":2419:2425  _title */\n      dup5\n        /* \"contracts/no_forma.sol\":2413:2433  bytes(_title).length */\n      mload\n        /* \"contracts/no_forma.sol\":2413:2437  bytes(_title).length > 0 */\n      gt\n        /* \"contracts/no_forma.sol\":2405:2463  require(bytes(_title).length > 0, \"Title cannot be empty\") */\n      tag_175\n      jumpi\n      mload(0x40)\n      0x08c379a000000000000000000000000000000000000000000000000000000000\n      dup2\n      mstore\n      0x04\n      add\n      tag_176\n      swap1\n      tag_177\n      jump\t// in\n    tag_176:\n      mload(0x40)\n      dup1\n      swap2\n      sub\n      swap1\n      revert\n    tag_175:\n        /* \"contracts/no_forma.sol\":2506:2507  0 */\n      0x00\n        /* \"contracts/no_forma.sol\":2487:2495  _content */\n      dup3\n        /* \"contracts/no_forma.sol\":2481:2503  bytes(_content).length */\n      mload\n        /* \"contracts/no_forma.sol\":2481:2507  bytes(_content).length > 0 */\n      gt\n        /* \"contracts/no_forma.sol\":2473:2535  require(bytes(_content).length > 0, \"Content cannot be empty\") */\n      tag_178\n      jumpi\n      mload(0x40)\n      0x08c379a000000000000000000000000000000000000000000000000000000000\n      dup2\n      mstore\n      0x04\n      add\n      tag_179\n      swap1\n      tag_180\n      jump\t// in\n    tag_179:\n      mload(0x40)\n      dup1\n      swap2\n      sub\n      swap1\n      revert\n    tag_178:\n        /* \"contracts/no_forma.sol\":2554:2564  uint256 id */\n      0x00\n        /* \"contracts/no_forma.sol\":2567:2582  block.timestamp */\n      timestamp\n        /* \"contracts/no_forma.sol\":2554:2582  uint256 id = block.timestamp */\n      swap1\n      pop\n        /* \"contracts/no_forma.sol\":2621:2777  KnowledgeBase({... */\n      mload(0x40)\n      dup1\n      0xa0\n      add\n      0x40\n      mstore\n      dup1\n        /* \"contracts/no_forma.sol\":2653:2655  id */\n      dup3\n        /* \"contracts/no_forma.sol\":2621:2777  KnowledgeBase({... */\n      dup2\n      mstore\n      0x20\n      add\n        /* \"contracts/no_forma.sol\":2676:2682  _title */\n      dup7\n        /* \"contracts/no_forma.sol\":2621:2777  KnowledgeBase({... */\n      dup2\n      mstore\n      0x20\n      add\n        /* \"contracts/no_forma.sol\":2703:2709  _group */\n      dup6\n        /* \"contracts/no_forma.sol\":2621:2777  KnowledgeBase({... */\n      dup2\n      mstore\n      0x20\n      add\n        /* \"contracts/no_forma.sol\":2732:2740  _content */\n      dup5\n        /* \"contracts/no_forma.sol\":2621:2777  KnowledgeBase({... */\n      dup2\n      mstore\n      0x20\n      add\n        /* \"contracts/no_forma.sol\":2762:2766  true */\n      0x01\n        /* \"contracts/no_forma.sol\":2621:2777  KnowledgeBase({... */\n      iszero\n      iszero\n      dup2\n      mstore\n      pop\n        /* \"contracts/no_forma.sol\":2601:2614  knowledgeBase */\n      0x00\n        /* \"contracts/no_forma.sol\":2601:2618  knowledgeBase[id] */\n      0x00\n        /* \"contracts/no_forma.sol\":2615:2617  id */\n      dup4\n        /* \"contracts/no_forma.sol\":2601:2618  knowledgeBase[id] */\n      dup2\n      mstore\n      0x20\n      add\n      swap1\n      dup2\n      mstore\n      0x20\n      add\n      0x00\n      keccak256\n        /* \"contracts/no_forma.sol\":2601:2777  knowledgeBase[id] = KnowledgeBase({... */\n      0x00\n      dup3\n      add\n      mload\n      dup2\n      0x00\n      add\n      sstore\n      0x20\n      dup3\n      add\n      mload\n      dup2\n      0x01\n      add\n      swap1\n      dup2\n      tag_181\n      swap2\n      swap1\n      tag_182\n      jump\t// in\n    tag_181:\n      pop\n      0x40\n      dup3\n      add\n      mload\n      dup2\n      0x02\n      add\n      swap1\n      dup2\n      tag_183\n      swap2\n      swap1\n      tag_182\n      jump\t// in\n    tag_183:\n      pop\n      0x60\n      dup3\n      add\n      mload\n      dup2\n      0x03\n      add\n      swap1\n      dup2\n      tag_184\n      swap2\n      swap1\n      tag_182\n      jump\t// in\n    tag_184:\n      pop\n      0x80\n      dup3\n      add\n      mload\n      dup2\n      0x04\n      add\n      exp(0x0100, 0x00)\n      dup2\n      sload\n      dup2\n      0xff\n      mul\n      not\n      and\n      swap1\n      dup4\n      iszero\n      iszero\n      mul\n      or\n      swap1\n      sstore\n      pop\n      swap1\n      pop\n      pop\n        /* \"contracts/no_forma.sol\":2796:2812  knowledgeBaseIds */\n      0x03\n        /* \"contracts/no_forma.sol\":2818:2820  id */\n      dup2\n        /* \"contracts/no_forma.sol\":2796:2821  knowledgeBaseIds.push(id) */\n      swap1\n      dup1\n      0x01\n      dup2\n      sload\n      add\n      dup1\n      dup3\n      sstore\n      dup1\n      swap2\n      pop\n      pop\n      0x01\n      swap1\n      sub\n      swap1\n      0x00\n      mstore\n      keccak256(0x00, 0x20)\n      add\n      0x00\n      swap1\n      swap2\n      swap1\n      swap2\n      swap1\n      swap2\n      pop\n      sstore\n        /* \"contracts/no_forma.sol\":2866:2868  id */\n      dup1\n        /* \"contracts/no_forma.sol\":2845:2885  KnowledgeBaseCreated(id, _title, _group) */\n      0x391061d00bbcacb4737f35e1aad1f0ba1bd5dded6872f8ead8df4a01752fcce5\n        /* \"contracts/no_forma.sol\":2870:2876  _title */\n      dup7\n        /* \"contracts/no_forma.sol\":2878:2884  _group */\n      dup7\n        /* \"contracts/no_forma.sol\":2845:2885  KnowledgeBaseCreated(id, _title, _group) */\n      mload(0x40)\n      tag_186\n      swap3\n      swap2\n      swap1\n      tag_187\n      jump\t// in\n    tag_186:\n      mload(0x40)\n      dup1\n      swap2\n      sub\n      swap1\n      log2\n        /* \"contracts/no_forma.sol\":2902:2904  id */\n      dup1\n        /* \"contracts/no_forma.sol\":2895:2904  return id */\n      swap2\n      pop\n      pop\n        /* \"contracts/no_forma.sol\":2241:2911  function createKnowledgeBase(... */\n      swap4\n      swap3\n      pop\n      pop\n      pop\n      jump\t// out\n        /* \"contracts/no_forma.sol\":706:760  mapping(uint256 => KnowledgeBase) public knowledgeBase */\n    tag_51:\n      mstore(0x20, 0x00)\n      dup1\n      0x00\n      mstore\n      keccak256(0x00, 0x40)\n      0x00\n      swap2\n      pop\n      swap1\n      pop\n      dup1\n      0x00\n      add\n      sload\n      swap1\n      dup1\n      0x01\n      add\n      dup1\n      sload\n      tag_188\n      swap1\n      tag_139\n      jump\t// in\n    tag_188:\n      dup1\n      0x1f\n      add\n      0x20\n      dup1\n      swap2\n      div\n      mul\n      0x20\n      add\n      mload(0x40)\n      swap1\n      dup2\n      add\n      0x40\n      mstore\n      dup1\n      swap3\n      swap2\n      swap1\n      dup2\n      dup2\n      mstore\n      0x20\n      add\n      dup3\n      dup1\n      sload\n      tag_189\n      swap1\n      tag_139\n      jump\t// in\n    tag_189:\n      dup1\n      iszero\n      tag_190\n      jumpi\n      dup1\n      0x1f\n      lt\n      tag_191\n      jumpi\n      0x0100\n      dup1\n      dup4\n      sload\n      div\n      mul\n      dup4\n      mstore\n      swap2\n      0x20\n      add\n      swap2\n      jump(tag_190)\n    tag_191:\n      dup3\n      add\n      swap2\n      swap1\n      0x00\n      mstore\n      keccak256(0x00, 0x20)\n      swap1\n    tag_192:\n      dup2\n      sload\n      dup2\n      mstore\n      swap1\n      0x01\n      add\n      swap1\n      0x20\n      add\n      dup1\n      dup4\n      gt\n      tag_192\n      jumpi\n      dup3\n      swap1\n      sub\n      0x1f\n      and\n      dup3\n      add\n      swap2\n    tag_190:\n      pop\n      pop\n      pop\n      pop\n      pop\n      swap1\n      dup1\n      0x02\n      add\n      dup1\n      sload\n      tag_193\n      swap1\n      tag_139\n      jump\t// in\n    tag_193:\n      dup1\n      0x1f\n      add\n      0x20\n      dup1\n      swap2\n      div\n      mul\n      0x20\n      add\n      mload(0x40)\n      swap1\n      dup2\n      add\n      0x40\n      mstore\n      dup1\n      swap3\n      swap2\n      swap1\n      dup2\n      dup2\n      mstore\n      0x20\n      add\n      dup3\n      dup1\n      sload\n      tag_194\n      swap1\n      tag_139\n      jump\t// in\n    tag_194:\n      dup1\n      iszero\n      tag_195\n      jumpi\n      dup1\n      0x1f\n      lt\n      tag_196\n      jumpi\n      0x0100\n      dup1\n      dup4\n      sload\n      div\n      mul\n      dup4\n      mstore\n      swap2\n      0x20\n      add\n      swap2\n      jump(tag_195)\n    tag_196:\n      dup3\n      add\n      swap2\n      swap1\n      0x00\n      mstore\n      keccak256(0x00, 0x20)\n      swap1\n    tag_197:\n      dup2\n      sload\n      dup2\n      mstore\n      swap1\n      0x01\n      add\n      swap1\n      0x20\n      add\n      dup1\n      dup4\n      gt\n      tag_197\n      jumpi\n      dup3\n      swap1\n      sub\n      0x1f\n      and\n      dup3\n      add\n      swap2\n    tag_195:\n      pop\n      pop\n      pop\n      pop\n      pop\n      swap1\n      dup1\n      0x03\n      add\n      dup1\n      sload\n      tag_198\n      swap1\n      tag_139\n      jump\t// in\n    tag_198:\n      dup1\n      0x1f\n      add\n      0x20\n      dup1\n      swap2\n      div\n      mul\n      0x20\n      add\n      mload(0x40)\n      swap1\n      dup2\n      add\n      0x40\n      mstore\n      dup1\n      swap3\n      swap2\n      swap1\n      dup2\n      dup2\n      mstore\n      0x20\n      add\n      dup3\n      dup1\n      sload\n      tag_199\n      swap1\n      tag_139\n      jump\t// in\n    tag_199:\n      dup1\n      iszero\n      tag_200\n      jumpi\n      dup1\n      0x1f\n      lt\n      tag_201\n      jumpi\n      0x0100\n      dup1\n      dup4\n      sload\n      div\n      mul\n      dup4\n      mstore\n      swap2\n      0x20\n      add\n      swap2\n      jump(tag_200)\n    tag_201:\n      dup3\n      add\n      swap2\n      swap1\n      0x00\n      mstore\n      keccak256(0x00, 0x20)\n      swap1\n    tag_202:\n      dup2\n      sload\n      dup2\n      mstore\n      swap1\n      0x01\n      add\n      swap1\n      0x20\n      add\n      dup1\n      dup4\n      gt\n      tag_202\n      jumpi\n      dup3\n      swap1\n      sub\n      0x1f\n      and\n      dup3\n      add\n      swap2\n    tag_200:\n      pop\n      pop\n      pop\n      pop\n      pop\n      swap1\n      dup1\n      0x04\n      add\n      0x00\n      swap1\n      sload\n      swap1\n      0x0100\n      exp\n      swap1\n      div\n      0xff\n      and\n      swap1\n      pop\n      dup6\n      jump\t// out\n        /* \"contracts/no_forma.sol\":975:1002  uint256[] public projectIds */\n    tag_56:\n      0x05\n      dup2\n      dup2\n      sload\n      dup2\n      lt\n      tag_203\n      jumpi\n      0x00\n      dup1\n      revert\n    tag_203:\n      swap1\n      0x00\n      mstore\n      keccak256(0x00, 0x20)\n      add\n      0x00\n      swap2\n      pop\n      swap1\n      pop\n      sload\n      dup2\n      jump\t// out\n        /* \"contracts/no_forma.sol\":11095:11198  function getAllProjectIds() external view returns (uint256[] memory) {... */\n    tag_59:\n        /* \"contracts/no_forma.sol\":11146:11162  uint256[] memory */\n      0x60\n        /* \"contracts/no_forma.sol\":11181:11191  projectIds */\n      0x05\n        /* \"contracts/no_forma.sol\":11174:11191  return projectIds */\n      dup1\n      sload\n      dup1\n      0x20\n      mul\n      0x20\n      add\n      mload(0x40)\n      swap1\n      dup2\n      add\n      0x40\n      mstore\n      dup1\n      swap3\n      swap2\n      swap1\n      dup2\n      dup2\n      mstore\n      0x20\n      add\n      dup3\n      dup1\n      sload\n      dup1\n      iszero\n      tag_206\n      jumpi\n      0x20\n      mul\n      dup3\n      add\n      swap2\n      swap1\n      0x00\n      mstore\n      keccak256(0x00, 0x20)\n      swap1\n    tag_207:\n      dup2\n      sload\n      dup2\n      mstore\n      0x20\n      add\n      swap1\n      0x01\n      add\n      swap1\n      dup1\n      dup4\n      gt\n      tag_207\n      jumpi\n    tag_206:\n      pop\n      pop\n      pop\n      pop\n      pop\n      swap1\n      pop\n        /* \"contracts/no_forma.sol\":11095:11198  function getAllProjectIds() external view returns (uint256[] memory) {... */\n      swap1\n      jump\t// out\n        /* \"contracts/no_forma.sol\":10172:10608  function deleteProject(uint256 _id) external projectExists(_id) {... */\n    tag_64:\n        /* \"contracts/no_forma.sol\":10231:10234  _id */\n      dup1\n        /* \"contracts/no_forma.sol\":2061:2069  projects */\n      0x02\n        /* \"contracts/no_forma.sol\":2061:2074  projects[_id] */\n      0x00\n        /* \"contracts/no_forma.sol\":2070:2073  _id */\n      dup3\n        /* \"contracts/no_forma.sol\":2061:2074  projects[_id] */\n      dup2\n      mstore\n      0x20\n      add\n      swap1\n      dup2\n      mstore\n      0x20\n      add\n      0x00\n      keccak256\n        /* \"contracts/no_forma.sol\":2061:2081  projects[_id].exists */\n      0x05\n      add\n      0x00\n      swap1\n      sload\n      swap1\n      0x0100\n      exp\n      swap1\n      div\n      0xff\n      and\n        /* \"contracts/no_forma.sol\":2053:2108  require(projects[_id].exists, \"Project does not exist\") */\n      tag_209\n      jumpi\n      mload(0x40)\n      0x08c379a000000000000000000000000000000000000000000000000000000000\n      dup2\n      mstore\n      0x04\n      add\n      tag_210\n      swap1\n      tag_211\n      jump\t// in\n    tag_210:\n      mload(0x40)\n      dup1\n      swap2\n      sub\n      swap1\n      revert\n    tag_209:\n        /* \"contracts/no_forma.sol\":10269:10274  false */\n      0x00\n        /* \"contracts/no_forma.sol\":10246:10254  projects */\n      0x02\n        /* \"contracts/no_forma.sol\":10246:10259  projects[_id] */\n      0x00\n        /* \"contracts/no_forma.sol\":10255:10258  _id */\n      dup5\n        /* \"contracts/no_forma.sol\":10246:10259  projects[_id] */\n      dup2\n      mstore\n      0x20\n      add\n      swap1\n      dup2\n      mstore\n      0x20\n      add\n      0x00\n      keccak256\n        /* \"contracts/no_forma.sol\":10246:10266  projects[_id].exists */\n      0x05\n      add\n      0x00\n        /* \"contracts/no_forma.sol\":10246:10274  projects[_id].exists = false */\n      0x0100\n      exp\n      dup2\n      sload\n      dup2\n      0xff\n      mul\n      not\n      and\n      swap1\n      dup4\n      iszero\n      iszero\n      mul\n      or\n      swap1\n      sstore\n      pop\n        /* \"contracts/no_forma.sol\":10327:10336  uint256 i */\n      0x00\n        /* \"contracts/no_forma.sol\":10339:10340  0 */\n      0x00\n        /* \"contracts/no_forma.sol\":10327:10340  uint256 i = 0 */\n      swap1\n      pop\n        /* \"contracts/no_forma.sol\":10322:10559  for (uint256 i = 0; i < projectIds.length; i++) {... */\n    tag_213:\n        /* \"contracts/no_forma.sol\":10346:10356  projectIds */\n      0x05\n        /* \"contracts/no_forma.sol\":10346:10363  projectIds.length */\n      dup1\n      sload\n      swap1\n      pop\n        /* \"contracts/no_forma.sol\":10342:10343  i */\n      dup2\n        /* \"contracts/no_forma.sol\":10342:10363  i < projectIds.length */\n      lt\n        /* \"contracts/no_forma.sol\":10322:10559  for (uint256 i = 0; i < projectIds.length; i++) {... */\n      iszero\n      tag_214\n      jumpi\n        /* \"contracts/no_forma.sol\":10405:10408  _id */\n      dup3\n        /* \"contracts/no_forma.sol\":10388:10398  projectIds */\n      0x05\n        /* \"contracts/no_forma.sol\":10399:10400  i */\n      dup3\n        /* \"contracts/no_forma.sol\":10388:10401  projectIds[i] */\n      dup2\n      sload\n      dup2\n      lt\n      tag_216\n      jumpi\n      tag_217\n      tag_218\n      jump\t// in\n    tag_217:\n    tag_216:\n      swap1\n      0x00\n      mstore\n      keccak256(0x00, 0x20)\n      add\n      sload\n        /* \"contracts/no_forma.sol\":10388:10408  projectIds[i] == _id */\n      sub\n        /* \"contracts/no_forma.sol\":10384:10549  if (projectIds[i] == _id) {... */\n      tag_220\n      jumpi\n        /* \"contracts/no_forma.sol\":10444:10454  projectIds */\n      0x05\n        /* \"contracts/no_forma.sol\":10475:10476  1 */\n      0x01\n        /* \"contracts/no_forma.sol\":10455:10465  projectIds */\n      0x05\n        /* \"contracts/no_forma.sol\":10455:10472  projectIds.length */\n      dup1\n      sload\n      swap1\n      pop\n        /* \"contracts/no_forma.sol\":10455:10476  projectIds.length - 1 */\n      tag_221\n      swap2\n      swap1\n      tag_222\n      jump\t// in\n    tag_221:\n        /* \"contracts/no_forma.sol\":10444:10477  projectIds[projectIds.length - 1] */\n      dup2\n      sload\n      dup2\n      lt\n      tag_223\n      jumpi\n      tag_224\n      tag_218\n      jump\t// in\n    tag_224:\n    tag_223:\n      swap1\n      0x00\n      mstore\n      keccak256(0x00, 0x20)\n      add\n      sload\n        /* \"contracts/no_forma.sol\":10428:10438  projectIds */\n      0x05\n        /* \"contracts/no_forma.sol\":10439:10440  i */\n      dup3\n        /* \"contracts/no_forma.sol\":10428:10441  projectIds[i] */\n      dup2\n      sload\n      dup2\n      lt\n      tag_226\n      jumpi\n      tag_227\n      tag_218\n      jump\t// in\n    tag_227:\n    tag_226:\n      swap1\n      0x00\n      mstore\n      keccak256(0x00, 0x20)\n      add\n        /* \"contracts/no_forma.sol\":10428:10477  projectIds[i] = projectIds[projectIds.length - 1] */\n      dup2\n      swap1\n      sstore\n      pop\n        /* \"contracts/no_forma.sol\":10495:10505  projectIds */\n      0x05\n        /* \"contracts/no_forma.sol\":10495:10511  projectIds.pop() */\n      dup1\n      sload\n      dup1\n      tag_229\n      jumpi\n      tag_230\n      tag_231\n      jump\t// in\n    tag_230:\n    tag_229:\n      0x01\n      swap1\n      sub\n      dup2\n      dup2\n      swap1\n      0x00\n      mstore\n      keccak256(0x00, 0x20)\n      add\n      0x00\n      swap1\n      sstore\n      swap1\n      sstore\n        /* \"contracts/no_forma.sol\":10529:10534  break */\n      jump(tag_214)\n        /* \"contracts/no_forma.sol\":10384:10549  if (projectIds[i] == _id) {... */\n    tag_220:\n        /* \"contracts/no_forma.sol\":10365:10368  i++ */\n      dup1\n      dup1\n      0x01\n      add\n      swap2\n      pop\n      pop\n        /* \"contracts/no_forma.sol\":10322:10559  for (uint256 i = 0; i < projectIds.length; i++) {... */\n      jump(tag_213)\n    tag_214:\n      pop\n        /* \"contracts/no_forma.sol\":10597:10600  _id */\n      dup2\n        /* \"contracts/no_forma.sol\":10582:10601  ProjectDeleted(_id) */\n      0x8c2a9a6341bba6c545de035fe1175518191d1ec50716506635b641372af17c5f\n      mload(0x40)\n      mload(0x40)\n      dup1\n      swap2\n      sub\n      swap1\n      log2\n        /* \"contracts/no_forma.sol\":10172:10608  function deleteProject(uint256 _id) external projectExists(_id) {... */\n      pop\n      pop\n      jump\t// out\n        /* \"contracts/no_forma.sol\":941:969  uint256[] public customerIds */\n    tag_67:\n      0x04\n      dup2\n      dup2\n      sload\n      dup2\n      lt\n      tag_233\n      jumpi\n      0x00\n      dup1\n      revert\n    tag_233:\n      swap1\n      0x00\n      mstore\n      keccak256(0x00, 0x20)\n      add\n      0x00\n      swap2\n      pop\n      swap1\n      pop\n      sload\n      dup2\n      jump\t// out\n        /* \"contracts/no_forma.sol\":5585:6223  function createCustomer(... */\n    tag_71:\n        /* \"contracts/no_forma.sol\":5722:5729  uint256 */\n      0x00\n        /* \"contracts/no_forma.sol\":5771:5772  0 */\n      0x00\n        /* \"contracts/no_forma.sol\":5755:5760  _name */\n      dup5\n        /* \"contracts/no_forma.sol\":5749:5768  bytes(_name).length */\n      mload\n        /* \"contracts/no_forma.sol\":5749:5772  bytes(_name).length > 0 */\n      gt\n        /* \"contracts/no_forma.sol\":5741:5797  require(bytes(_name).length > 0, \"Name cannot be empty\") */\n      tag_236\n      jumpi\n      mload(0x40)\n      0x08c379a000000000000000000000000000000000000000000000000000000000\n      dup2\n      mstore\n      0x04\n      add\n      tag_237\n      swap1\n      tag_238\n      jump\t// in\n    tag_237:\n      mload(0x40)\n      dup1\n      swap2\n      sub\n      swap1\n      revert\n    tag_236:\n        /* \"contracts/no_forma.sol\":5838:5839  0 */\n      0x00\n        /* \"contracts/no_forma.sol\":5821:5827  _email */\n      dup4\n        /* \"contracts/no_forma.sol\":5815:5835  bytes(_email).length */\n      mload\n        /* \"contracts/no_forma.sol\":5815:5839  bytes(_email).length > 0 */\n      gt\n        /* \"contracts/no_forma.sol\":5807:5865  require(bytes(_email).length > 0, \"Email cannot be empty\") */\n      tag_239\n      jumpi\n      mload(0x40)\n      0x08c379a000000000000000000000000000000000000000000000000000000000\n      dup2\n      mstore\n      0x04\n      add\n      tag_240\n      swap1\n      tag_241\n      jump\t// in\n    tag_240:\n      mload(0x40)\n      dup1\n      swap2\n      sub\n      swap1\n      revert\n    tag_239:\n        /* \"contracts/no_forma.sol\":5884:5894  uint256 id */\n      0x00\n        /* \"contracts/no_forma.sol\":5897:5912  block.timestamp */\n      timestamp\n        /* \"contracts/no_forma.sol\":5884:5912  uint256 id = block.timestamp */\n      swap1\n      pop\n        /* \"contracts/no_forma.sol\":5947:6092  Customer({... */\n      mload(0x40)\n      dup1\n      0xa0\n      add\n      0x40\n      mstore\n      dup1\n        /* \"contracts/no_forma.sol\":5974:5976  id */\n      dup3\n        /* \"contracts/no_forma.sol\":5947:6092  Customer({... */\n      dup2\n      mstore\n      0x20\n      add\n        /* \"contracts/no_forma.sol\":5996:6001  _name */\n      dup7\n        /* \"contracts/no_forma.sol\":5947:6092  Customer({... */\n      dup2\n      mstore\n      0x20\n      add\n        /* \"contracts/no_forma.sol\":6022:6028  _email */\n      dup6\n        /* \"contracts/no_forma.sol\":5947:6092  Customer({... */\n      dup2\n      mstore\n      0x20\n      add\n        /* \"contracts/no_forma.sol\":6049:6055  _phone */\n      dup5\n        /* \"contracts/no_forma.sol\":5947:6092  Customer({... */\n      dup2\n      mstore\n      0x20\n      add\n        /* \"contracts/no_forma.sol\":6077:6081  true */\n      0x01\n        /* \"contracts/no_forma.sol\":5947:6092  Customer({... */\n      iszero\n      iszero\n      dup2\n      mstore\n      pop\n        /* \"contracts/no_forma.sol\":5931:5940  customers */\n      0x01\n        /* \"contracts/no_forma.sol\":5931:5944  customers[id] */\n      0x00\n        /* \"contracts/no_forma.sol\":5941:5943  id */\n      dup4\n        /* \"contracts/no_forma.sol\":5931:5944  customers[id] */\n      dup2\n      mstore\n      0x20\n      add\n      swap1\n      dup2\n      mstore\n      0x20\n      add\n      0x00\n      keccak256\n        /* \"contracts/no_forma.sol\":5931:6092  customers[id] = Customer({... */\n      0x00\n      dup3\n      add\n      mload\n      dup2\n      0x00\n      add\n      sstore\n      0x20\n      dup3\n      add\n      mload\n      dup2\n      0x01\n      add\n      swap1\n      dup2\n      tag_242\n      swap2\n      swap1\n      tag_182\n      jump\t// in\n    tag_242:\n      pop\n      0x40\n      dup3\n      add\n      mload\n      dup2\n      0x02\n      add\n      swap1\n      dup2\n      tag_243\n      swap2\n      swap1\n      tag_182\n      jump\t// in\n    tag_243:\n      pop\n      0x60\n      dup3\n      add\n      mload\n      dup2\n      0x03\n      add\n      swap1\n      dup2\n      tag_244\n      swap2\n      swap1\n      tag_182\n      jump\t// in\n    tag_244:\n      pop\n      0x80\n      dup3\n      add\n      mload\n      dup2\n      0x04\n      add\n      exp(0x0100, 0x00)\n      dup2\n      sload\n      dup2\n      0xff\n      mul\n      not\n      and\n      swap1\n      dup4\n      iszero\n      iszero\n      mul\n      or\n      swap1\n      sstore\n      pop\n      swap1\n      pop\n      pop\n        /* \"contracts/no_forma.sol\":6111:6122  customerIds */\n      0x04\n        /* \"contracts/no_forma.sol\":6128:6130  id */\n      dup2\n        /* \"contracts/no_forma.sol\":6111:6131  customerIds.push(id) */\n      swap1\n      dup1\n      0x01\n      dup2\n      sload\n      add\n      dup1\n      dup3\n      sstore\n      dup1\n      swap2\n      pop\n      pop\n      0x01\n      swap1\n      sub\n      swap1\n      0x00\n      mstore\n      keccak256(0x00, 0x20)\n      add\n      0x00\n      swap1\n      swap2\n      swap1\n      swap2\n      swap1\n      swap2\n      pop\n      sstore\n        /* \"contracts/no_forma.sol\":6171:6173  id */\n      dup1\n        /* \"contracts/no_forma.sol\":6155:6197  CustomerCreated(id, _name, _email, _phone) */\n      0x464ed6364245d5262890ad9c3aceb68d236653cc6792bf198b7f3e362c90fe9b\n        /* \"contracts/no_forma.sol\":6175:6180  _name */\n      dup7\n        /* \"contracts/no_forma.sol\":6182:6188  _email */\n      dup7\n        /* \"contracts/no_forma.sol\":6190:6196  _phone */\n      dup7\n        /* \"contracts/no_forma.sol\":6155:6197  CustomerCreated(id, _name, _email, _phone) */\n      mload(0x40)\n      tag_246\n      swap4\n      swap3\n      swap2\n      swap1\n      tag_247\n      jump\t// in\n    tag_246:\n      mload(0x40)\n      dup1\n      swap2\n      sub\n      swap1\n      log2\n        /* \"contracts/no_forma.sol\":6214:6216  id */\n      dup1\n        /* \"contracts/no_forma.sol\":6207:6216  return id */\n      swap2\n      pop\n      pop\n        /* \"contracts/no_forma.sol\":5585:6223  function createCustomer(... */\n      swap4\n      swap3\n      pop\n      pop\n      pop\n      jump\t// out\n        /* \"contracts/no_forma.sol\":6846:7292  function deleteCustomer(uint256 _id) external customerExists(_id) {... */\n    tag_75:\n        /* \"contracts/no_forma.sol\":6907:6910  _id */\n      dup1\n        /* \"contracts/no_forma.sol\":1930:1939  customers */\n      0x01\n        /* \"contracts/no_forma.sol\":1930:1944  customers[_id] */\n      0x00\n        /* \"contracts/no_forma.sol\":1940:1943  _id */\n      dup3\n        /* \"contracts/no_forma.sol\":1930:1944  customers[_id] */\n      dup2\n      mstore\n      0x20\n      add\n      swap1\n      dup2\n      mstore\n      0x20\n      add\n      0x00\n      keccak256\n        /* \"contracts/no_forma.sol\":1930:1951  customers[_id].exists */\n      0x04\n      add\n      0x00\n      swap1\n      sload\n      swap1\n      0x0100\n      exp\n      swap1\n      div\n      0xff\n      and\n        /* \"contracts/no_forma.sol\":1922:1979  require(customers[_id].exists, \"Customer does not exist\") */\n      tag_249\n      jumpi\n      mload(0x40)\n      0x08c379a000000000000000000000000000000000000000000000000000000000\n      dup2\n      mstore\n      0x04\n      add\n      tag_250\n      swap1\n      tag_251\n      jump\t// in\n    tag_250:\n      mload(0x40)\n      dup1\n      swap2\n      sub\n      swap1\n      revert\n    tag_249:\n        /* \"contracts/no_forma.sol\":6946:6951  false */\n      0x00\n        /* \"contracts/no_forma.sol\":6922:6931  customers */\n      0x01\n        /* \"contracts/no_forma.sol\":6922:6936  customers[_id] */\n      0x00\n        /* \"contracts/no_forma.sol\":6932:6935  _id */\n      dup5\n        /* \"contracts/no_forma.sol\":6922:6936  customers[_id] */\n      dup2\n      mstore\n      0x20\n      add\n      swap1\n      dup2\n      mstore\n      0x20\n      add\n      0x00\n      keccak256\n        /* \"contracts/no_forma.sol\":6922:6943  customers[_id].exists */\n      0x04\n      add\n      0x00\n        /* \"contracts/no_forma.sol\":6922:6951  customers[_id].exists = false */\n      0x0100\n      exp\n      dup2\n      sload\n      dup2\n      0xff\n      mul\n      not\n      and\n      swap1\n      dup4\n      iszero\n      iszero\n      mul\n      or\n      swap1\n      sstore\n      pop\n        /* \"contracts/no_forma.sol\":7004:7013  uint256 i */\n      0x00\n        /* \"contracts/no_forma.sol\":7016:7017  0 */\n      0x00\n        /* \"contracts/no_forma.sol\":7004:7017  uint256 i = 0 */\n      swap1\n      pop\n        /* \"contracts/no_forma.sol\":6999:7242  for (uint256 i = 0; i < customerIds.length; i++) {... */\n    tag_253:\n        /* \"contracts/no_forma.sol\":7023:7034  customerIds */\n      0x04\n        /* \"contracts/no_forma.sol\":7023:7041  customerIds.length */\n      dup1\n      sload\n      swap1\n      pop\n        /* \"contracts/no_forma.sol\":7019:7020  i */\n      dup2\n        /* \"contracts/no_forma.sol\":7019:7041  i < customerIds.length */\n      lt\n        /* \"contracts/no_forma.sol\":6999:7242  for (uint256 i = 0; i < customerIds.length; i++) {... */\n      iszero\n      tag_254\n      jumpi\n        /* \"contracts/no_forma.sol\":7084:7087  _id */\n      dup3\n        /* \"contracts/no_forma.sol\":7066:7077  customerIds */\n      0x04\n        /* \"contracts/no_forma.sol\":7078:7079  i */\n      dup3\n        /* \"contracts/no_forma.sol\":7066:7080  customerIds[i] */\n      dup2\n      sload\n      dup2\n      lt\n      tag_256\n      jumpi\n      tag_257\n      tag_218\n      jump\t// in\n    tag_257:\n    tag_256:\n      swap1\n      0x00\n      mstore\n      keccak256(0x00, 0x20)\n      add\n      sload\n        /* \"contracts/no_forma.sol\":7066:7087  customerIds[i] == _id */\n      sub\n        /* \"contracts/no_forma.sol\":7062:7232  if (customerIds[i] == _id) {... */\n      tag_259\n      jumpi\n        /* \"contracts/no_forma.sol\":7124:7135  customerIds */\n      0x04\n        /* \"contracts/no_forma.sol\":7157:7158  1 */\n      0x01\n        /* \"contracts/no_forma.sol\":7136:7147  customerIds */\n      0x04\n        /* \"contracts/no_forma.sol\":7136:7154  customerIds.length */\n      dup1\n      sload\n      swap1\n      pop\n        /* \"contracts/no_forma.sol\":7136:7158  customerIds.length - 1 */\n      tag_260\n      swap2\n      swap1\n      tag_222\n      jump\t// in\n    tag_260:\n        /* \"contracts/no_forma.sol\":7124:7159  customerIds[customerIds.length - 1] */\n      dup2\n      sload\n      dup2\n      lt\n      tag_261\n      jumpi\n      tag_262\n      tag_218\n      jump\t// in\n    tag_262:\n    tag_261:\n      swap1\n      0x00\n      mstore\n      keccak256(0x00, 0x20)\n      add\n      sload\n        /* \"contracts/no_forma.sol\":7107:7118  customerIds */\n      0x04\n        /* \"contracts/no_forma.sol\":7119:7120  i */\n      dup3\n        /* \"contracts/no_forma.sol\":7107:7121  customerIds[i] */\n      dup2\n      sload\n      dup2\n      lt\n      tag_264\n      jumpi\n      tag_265\n      tag_218\n      jump\t// in\n    tag_265:\n    tag_264:\n      swap1\n      0x00\n      mstore\n      keccak256(0x00, 0x20)\n      add\n        /* \"contracts/no_forma.sol\":7107:7159  customerIds[i] = customerIds[customerIds.length - 1] */\n      dup2\n      swap1\n      sstore\n      pop\n        /* \"contracts/no_forma.sol\":7177:7188  customerIds */\n      0x04\n        /* \"contracts/no_forma.sol\":7177:7194  customerIds.pop() */\n      dup1\n      sload\n      dup1\n      tag_267\n      jumpi\n      tag_268\n      tag_231\n      jump\t// in\n    tag_268:\n    tag_267:\n      0x01\n      swap1\n      sub\n      dup2\n      dup2\n      swap1\n      0x00\n      mstore\n      keccak256(0x00, 0x20)\n      add\n      0x00\n      swap1\n      sstore\n      swap1\n      sstore\n        /* \"contracts/no_forma.sol\":7212:7217  break */\n      jump(tag_254)\n        /* \"contracts/no_forma.sol\":7062:7232  if (customerIds[i] == _id) {... */\n    tag_259:\n        /* \"contracts/no_forma.sol\":7043:7046  i++ */\n      dup1\n      dup1\n      0x01\n      add\n      swap2\n      pop\n      pop\n        /* \"contracts/no_forma.sol\":6999:7242  for (uint256 i = 0; i < customerIds.length; i++) {... */\n      jump(tag_253)\n    tag_254:\n      pop\n        /* \"contracts/no_forma.sol\":7281:7284  _id */\n      dup2\n        /* \"contracts/no_forma.sol\":7265:7285  CustomerDeleted(_id) */\n      0x327dfee2f9edce80488b1d1c2717031edb90a8862cf2ca9a363d40ddb55d72bf\n      mload(0x40)\n      mload(0x40)\n      dup1\n      swap2\n      sub\n      swap1\n      log2\n        /* \"contracts/no_forma.sol\":6846:7292  function deleteCustomer(uint256 _id) external customerExists(_id) {... */\n      pop\n      pop\n      jump\t// out\n        /* \"contracts/no_forma.sol\":4727:5488  function getAllKnowledgeBase() external view returns (... */\n    tag_77:\n        /* \"contracts/no_forma.sol\":4790:4810  uint256[] memory ids */\n      0x60\n        /* \"contracts/no_forma.sol\":4820:4842  string[] memory titles */\n      dup1\n        /* \"contracts/no_forma.sol\":4852:4874  string[] memory groups */\n      0x60\n        /* \"contracts/no_forma.sol\":4884:4908  string[] memory contents */\n      dup1\n        /* \"contracts/no_forma.sol\":4925:4939  uint256 length */\n      0x00\n        /* \"contracts/no_forma.sol\":4942:4958  knowledgeBaseIds */\n      0x03\n        /* \"contracts/no_forma.sol\":4942:4965  knowledgeBaseIds.length */\n      dup1\n      sload\n      swap1\n      pop\n        /* \"contracts/no_forma.sol\":4925:4965  uint256 length = knowledgeBaseIds.length */\n      swap1\n      pop\n        /* \"contracts/no_forma.sol\":4995:5001  length */\n      dup1\n        /* \"contracts/no_forma.sol\":4981:5002  new uint256[](length) */\n      0xffffffffffffffff\n      dup2\n      gt\n      iszero\n      tag_271\n      jumpi\n      tag_272\n      tag_273\n      jump\t// in\n    tag_272:\n    tag_271:\n      mload(0x40)\n      swap1\n      dup1\n      dup3\n      mstore\n      dup1\n      0x20\n      mul\n      0x20\n      add\n      dup3\n      add\n      0x40\n      mstore\n      dup1\n      iszero\n      tag_274\n      jumpi\n      dup2\n      0x20\n      add\n      0x20\n      dup3\n      mul\n      dup1\n      calldatasize\n      dup4\n      calldatacopy\n      dup1\n      dup3\n      add\n      swap2\n      pop\n      pop\n      swap1\n      pop\n    tag_274:\n      pop\n        /* \"contracts/no_forma.sol\":4975:5002  ids = new uint256[](length) */\n      swap5\n      pop\n        /* \"contracts/no_forma.sol\":5034:5040  length */\n      dup1\n        /* \"contracts/no_forma.sol\":5021:5041  new string[](length) */\n      0xffffffffffffffff\n      dup2\n      gt\n      iszero\n      tag_275\n      jumpi\n      tag_276\n      tag_273\n      jump\t// in\n    tag_276:\n    tag_275:\n      mload(0x40)\n      swap1\n      dup1\n      dup3\n      mstore\n      dup1\n      0x20\n      mul\n      0x20\n      add\n      dup3\n      add\n      0x40\n      mstore\n      dup1\n      iszero\n      tag_277\n      jumpi\n      dup2\n      0x20\n      add\n    tag_278:\n      0x60\n      dup2\n      mstore\n      0x20\n      add\n      swap1\n      0x01\n      swap1\n      sub\n      swap1\n      dup2\n      tag_278\n      jumpi\n      swap1\n      pop\n    tag_277:\n      pop\n        /* \"contracts/no_forma.sol\":5012:5041  titles = new string[](length) */\n      swap4\n      pop\n        /* \"contracts/no_forma.sol\":5073:5079  length */\n      dup1\n        /* \"contracts/no_forma.sol\":5060:5080  new string[](length) */\n      0xffffffffffffffff\n      dup2\n      gt\n      iszero\n      tag_279\n      jumpi\n      tag_280\n      tag_273\n      jump\t// in\n    tag_280:\n    tag_279:\n      mload(0x40)\n      swap1\n      dup1\n      dup3\n      mstore\n      dup1\n      0x20\n      mul\n      0x20\n      add\n      dup3\n      add\n      0x40\n      mstore\n      dup1\n      iszero\n      tag_281\n      jumpi\n      dup2\n      0x20\n      add\n    tag_282:\n      0x60\n      dup2\n      mstore\n      0x20\n      add\n      swap1\n      0x01\n      swap1\n      sub\n      swap1\n      dup2\n      tag_282\n      jumpi\n      swap1\n      pop\n    tag_281:\n      pop\n        /* \"contracts/no_forma.sol\":5051:5080  groups = new string[](length) */\n      swap3\n      pop\n        /* \"contracts/no_forma.sol\":5114:5120  length */\n      dup1\n        /* \"contracts/no_forma.sol\":5101:5121  new string[](length) */\n      0xffffffffffffffff\n      dup2\n      gt\n      iszero\n      tag_283\n      jumpi\n      tag_284\n      tag_273\n      jump\t// in\n    tag_284:\n    tag_283:\n      mload(0x40)\n      swap1\n      dup1\n      dup3\n      mstore\n      dup1\n      0x20\n      mul\n      0x20\n      add\n      dup3\n      add\n      0x40\n      mstore\n      dup1\n      iszero\n      tag_285\n      jumpi\n      dup2\n      0x20\n      add\n    tag_286:\n      0x60\n      dup2\n      mstore\n      0x20\n      add\n      swap1\n      0x01\n      swap1\n      sub\n      swap1\n      dup2\n      tag_286\n      jumpi\n      swap1\n      pop\n    tag_285:\n      pop\n        /* \"contracts/no_forma.sol\":5090:5121  contents = new string[](length) */\n      swap2\n      pop\n        /* \"contracts/no_forma.sol\":5145:5154  uint256 i */\n      0x00\n        /* \"contracts/no_forma.sol\":5157:5158  0 */\n      0x00\n        /* \"contracts/no_forma.sol\":5145:5158  uint256 i = 0 */\n      swap1\n      pop\n        /* \"contracts/no_forma.sol\":5140:5425  for (uint256 i = 0; i < length; i++) {... */\n    tag_287:\n        /* \"contracts/no_forma.sol\":5164:5170  length */\n      dup2\n        /* \"contracts/no_forma.sol\":5160:5161  i */\n      dup2\n        /* \"contracts/no_forma.sol\":5160:5170  i < length */\n      lt\n        /* \"contracts/no_forma.sol\":5140:5425  for (uint256 i = 0; i < length; i++) {... */\n      iszero\n      tag_288\n      jumpi\n        /* \"contracts/no_forma.sol\":5191:5201  uint256 id */\n      0x00\n        /* \"contracts/no_forma.sol\":5204:5220  knowledgeBaseIds */\n      0x03\n        /* \"contracts/no_forma.sol\":5221:5222  i */\n      dup3\n        /* \"contracts/no_forma.sol\":5204:5223  knowledgeBaseIds[i] */\n      dup2\n      sload\n      dup2\n      lt\n      tag_290\n      jumpi\n      tag_291\n      tag_218\n      jump\t// in\n    tag_291:\n    tag_290:\n      swap1\n      0x00\n      mstore\n      keccak256(0x00, 0x20)\n      add\n      sload\n        /* \"contracts/no_forma.sol\":5191:5223  uint256 id = knowledgeBaseIds[i] */\n      swap1\n      pop\n        /* \"contracts/no_forma.sol\":5237:5260  KnowledgeBase memory kb */\n      0x00\n        /* \"contracts/no_forma.sol\":5263:5276  knowledgeBase */\n      0x00\n        /* \"contracts/no_forma.sol\":5263:5280  knowledgeBase[id] */\n      0x00\n        /* \"contracts/no_forma.sol\":5277:5279  id */\n      dup4\n        /* \"contracts/no_forma.sol\":5263:5280  knowledgeBase[id] */\n      dup2\n      mstore\n      0x20\n      add\n      swap1\n      dup2\n      mstore\n      0x20\n      add\n      0x00\n      keccak256\n        /* \"contracts/no_forma.sol\":5237:5280  KnowledgeBase memory kb = knowledgeBase[id] */\n      mload(0x40)\n      dup1\n      0xa0\n      add\n      0x40\n      mstore\n      swap1\n      dup2\n      0x00\n      dup3\n      add\n      sload\n      dup2\n      mstore\n      0x20\n      add\n      0x01\n      dup3\n      add\n      dup1\n      sload\n      tag_293\n      swap1\n      tag_139\n      jump\t// in\n    tag_293:\n      dup1\n      0x1f\n      add\n      0x20\n      dup1\n      swap2\n      div\n      mul\n      0x20\n      add\n      mload(0x40)\n      swap1\n      dup2\n      add\n      0x40\n      mstore\n      dup1\n      swap3\n      swap2\n      swap1\n      dup2\n      dup2\n      mstore\n      0x20\n      add\n      dup3\n      dup1\n      sload\n      tag_294\n      swap1\n      tag_139\n      jump\t// in\n    tag_294:\n      dup1\n      iszero\n      tag_295\n      jumpi\n      dup1\n      0x1f\n      lt\n      tag_296\n      jumpi\n      0x0100\n      dup1\n      dup4\n      sload\n      div\n      mul\n      dup4\n      mstore\n      swap2\n      0x20\n      add\n      swap2\n      jump(tag_295)\n    tag_296:\n      dup3\n      add\n      swap2\n      swap1\n      0x00\n      mstore\n      keccak256(0x00, 0x20)\n      swap1\n    tag_297:\n      dup2\n      sload\n      dup2\n      mstore\n      swap1\n      0x01\n      add\n      swap1\n      0x20\n      add\n      dup1\n      dup4\n      gt\n      tag_297\n      jumpi\n      dup3\n      swap1\n      sub\n      0x1f\n      and\n      dup3\n      add\n      swap2\n    tag_295:\n      pop\n      pop\n      pop\n      pop\n      pop\n      dup2\n      mstore\n      0x20\n      add\n      0x02\n      dup3\n      add\n      dup1\n      sload\n      tag_298\n      swap1\n      tag_139\n      jump\t// in\n    tag_298:\n      dup1\n      0x1f\n      add\n      0x20\n      dup1\n      swap2\n      div\n      mul\n      0x20\n      add\n      mload(0x40)\n      swap1\n      dup2\n      add\n      0x40\n      mstore\n      dup1\n      swap3\n      swap2\n      swap1\n      dup2\n      dup2\n      mstore\n      0x20\n      add\n      dup3\n      dup1\n      sload\n      tag_299\n      swap1\n      tag_139\n      jump\t// in\n    tag_299:\n      dup1\n      iszero\n      tag_300\n      jumpi\n      dup1\n      0x1f\n      lt\n      tag_301\n      jumpi\n      0x0100\n      dup1\n      dup4\n      sload\n      div\n      mul\n      dup4\n      mstore\n      swap2\n      0x20\n      add\n      swap2\n      jump(tag_300)\n    tag_301:\n      dup3\n      add\n      swap2\n      swap1\n      0x00\n      mstore\n      keccak256(0x00, 0x20)\n      swap1\n    tag_302:\n      dup2\n      sload\n      dup2\n      mstore\n      swap1\n      0x01\n      add\n      swap1\n      0x20\n      add\n      dup1\n      dup4\n      gt\n      tag_302\n      jumpi\n      dup3\n      swap1\n      sub\n      0x1f\n      and\n      dup3\n      add\n      swap2\n    tag_300:\n      pop\n      pop\n      pop\n      pop\n      pop\n      dup2\n      mstore\n      0x20\n      add\n      0x03\n      dup3\n      add\n      dup1\n      sload\n      tag_303\n      swap1\n      tag_139\n      jump\t// in\n    tag_303:\n      dup1\n      0x1f\n      add\n      0x20\n      dup1\n      swap2\n      div\n      mul\n      0x20\n      add\n      mload(0x40)\n      swap1\n      dup2\n      add\n      0x40\n      mstore\n      dup1\n      swap3\n      swap2\n      swap1\n      dup2\n      dup2\n      mstore\n      0x20\n      add\n      dup3\n      dup1\n      sload\n      tag_304\n      swap1\n      tag_139\n      jump\t// in\n    tag_304:\n      dup1\n      iszero\n      tag_305\n      jumpi\n      dup1\n      0x1f\n      lt\n      tag_306\n      jumpi\n      0x0100\n      dup1\n      dup4\n      sload\n      div\n      mul\n      dup4\n      mstore\n      swap2\n      0x20\n      add\n      swap2\n      jump(tag_305)\n    tag_306:\n      dup3\n      add\n      swap2\n      swap1\n      0x00\n      mstore\n      keccak256(0x00, 0x20)\n      swap1\n    tag_307:\n      dup2\n      sload\n      dup2\n      mstore\n      swap1\n      0x01\n      add\n      swap1\n      0x20\n      add\n      dup1\n      dup4\n      gt\n      tag_307\n      jumpi\n      dup3\n      swap1\n      sub\n      0x1f\n      and\n      dup3\n      add\n      swap2\n    tag_305:\n      pop\n      pop\n      pop\n      pop\n      pop\n      dup2\n      mstore\n      0x20\n      add\n      0x04\n      dup3\n      add\n      0x00\n      swap1\n      sload\n      swap1\n      0x0100\n      exp\n      swap1\n      div\n      0xff\n      and\n      iszero\n      iszero\n      iszero\n      iszero\n      dup2\n      mstore\n      pop\n      pop\n      swap1\n      pop\n        /* \"contracts/no_forma.sol\":5303:5305  kb */\n      dup1\n        /* \"contracts/no_forma.sol\":5303:5308  kb.id */\n      0x00\n      add\n      mload\n        /* \"contracts/no_forma.sol\":5294:5297  ids */\n      dup9\n        /* \"contracts/no_forma.sol\":5298:5299  i */\n      dup5\n        /* \"contracts/no_forma.sol\":5294:5300  ids[i] */\n      dup2\n      mload\n      dup2\n      lt\n      tag_308\n      jumpi\n      tag_309\n      tag_218\n      jump\t// in\n    tag_309:\n    tag_308:\n      0x20\n      mul\n      0x20\n      add\n      add\n        /* \"contracts/no_forma.sol\":5294:5308  ids[i] = kb.id */\n      dup2\n      dup2\n      mstore\n      pop\n      pop\n        /* \"contracts/no_forma.sol\":5334:5336  kb */\n      dup1\n        /* \"contracts/no_forma.sol\":5334:5342  kb.title */\n      0x20\n      add\n      mload\n        /* \"contracts/no_forma.sol\":5322:5328  titles */\n      dup8\n        /* \"contracts/no_forma.sol\":5329:5330  i */\n      dup5\n        /* \"contracts/no_forma.sol\":5322:5331  titles[i] */\n      dup2\n      mload\n      dup2\n      lt\n      tag_310\n      jumpi\n      tag_311\n      tag_218\n      jump\t// in\n    tag_311:\n    tag_310:\n      0x20\n      mul\n      0x20\n      add\n      add\n        /* \"contracts/no_forma.sol\":5322:5342  titles[i] = kb.title */\n      dup2\n      swap1\n      mstore\n      pop\n        /* \"contracts/no_forma.sol\":5368:5370  kb */\n      dup1\n        /* \"contracts/no_forma.sol\":5368:5376  kb.group */\n      0x40\n      add\n      mload\n        /* \"contracts/no_forma.sol\":5356:5362  groups */\n      dup7\n        /* \"contracts/no_forma.sol\":5363:5364  i */\n      dup5\n        /* \"contracts/no_forma.sol\":5356:5365  groups[i] */\n      dup2\n      mload\n      dup2\n      lt\n      tag_312\n      jumpi\n      tag_313\n      tag_218\n      jump\t// in\n    tag_313:\n    tag_312:\n      0x20\n      mul\n      0x20\n      add\n      add\n        /* \"contracts/no_forma.sol\":5356:5376  groups[i] = kb.group */\n      dup2\n      swap1\n      mstore\n      pop\n        /* \"contracts/no_forma.sol\":5404:5406  kb */\n      dup1\n        /* \"contracts/no_forma.sol\":5404:5414  kb.content */\n      0x60\n      add\n      mload\n        /* \"contracts/no_forma.sol\":5390:5398  contents */\n      dup6\n        /* \"contracts/no_forma.sol\":5399:5400  i */\n      dup5\n        /* \"contracts/no_forma.sol\":5390:5401  contents[i] */\n      dup2\n      mload\n      dup2\n      lt\n      tag_314\n      jumpi\n      tag_315\n      tag_218\n      jump\t// in\n    tag_315:\n    tag_314:\n      0x20\n      mul\n      0x20\n      add\n      add\n        /* \"contracts/no_forma.sol\":5390:5414  contents[i] = kb.content */\n      dup2\n      swap1\n      mstore\n      pop\n        /* \"contracts/no_forma.sol\":5177:5425  {... */\n      pop\n      pop\n        /* \"contracts/no_forma.sol\":5172:5175  i++ */\n      dup1\n      dup1\n      0x01\n      add\n      swap2\n      pop\n      pop\n        /* \"contracts/no_forma.sol\":5140:5425  for (uint256 i = 0; i < length; i++) {... */\n      jump(tag_287)\n    tag_288:\n      pop\n        /* \"contracts/no_forma.sol\":5443:5481  return (ids, titles, groups, contents) */\n      pop\n        /* \"contracts/no_forma.sol\":4727:5488  function getAllKnowledgeBase() external view returns (... */\n      swap1\n      swap2\n      swap3\n      swap4\n      jump\t// out\n        /* \"contracts/no_forma.sol\":2989:3525  function updateKnowledgeBase(... */\n    tag_83:\n        /* \"contracts/no_forma.sol\":3166:3169  _id */\n      dup4\n        /* \"contracts/no_forma.sol\":1782:1795  knowledgeBase */\n      0x00\n        /* \"contracts/no_forma.sol\":1782:1800  knowledgeBase[_id] */\n      0x00\n        /* \"contracts/no_forma.sol\":1796:1799  _id */\n      dup3\n        /* \"contracts/no_forma.sol\":1782:1800  knowledgeBase[_id] */\n      dup2\n      mstore\n      0x20\n      add\n      swap1\n      dup2\n      mstore\n      0x20\n      add\n      0x00\n      keccak256\n        /* \"contracts/no_forma.sol\":1782:1807  knowledgeBase[_id].exists */\n      0x04\n      add\n      0x00\n      swap1\n      sload\n      swap1\n      0x0100\n      exp\n      swap1\n      div\n      0xff\n      and\n        /* \"contracts/no_forma.sol\":1774:1847  require(knowledgeBase[_id].exists, \"Knowledge base entry does not exist\") */\n      tag_317\n      jumpi\n      mload(0x40)\n      0x08c379a000000000000000000000000000000000000000000000000000000000\n      dup2\n      mstore\n      0x04\n      add\n      tag_318\n      swap1\n      tag_136\n      jump\t// in\n    tag_318:\n      mload(0x40)\n      dup1\n      swap2\n      sub\n      swap1\n      revert\n    tag_317:\n        /* \"contracts/no_forma.sol\":3212:3213  0 */\n      0x00\n        /* \"contracts/no_forma.sol\":3195:3201  _title */\n      dup5\n        /* \"contracts/no_forma.sol\":3189:3209  bytes(_title).length */\n      mload\n        /* \"contracts/no_forma.sol\":3189:3213  bytes(_title).length > 0 */\n      gt\n        /* \"contracts/no_forma.sol\":3181:3239  require(bytes(_title).length > 0, \"Title cannot be empty\") */\n      tag_320\n      jumpi\n      mload(0x40)\n      0x08c379a000000000000000000000000000000000000000000000000000000000\n      dup2\n      mstore\n      0x04\n      add\n      tag_321\n      swap1\n      tag_177\n      jump\t// in\n    tag_321:\n      mload(0x40)\n      dup1\n      swap2\n      sub\n      swap1\n      revert\n    tag_320:\n        /* \"contracts/no_forma.sol\":3282:3283  0 */\n      0x00\n        /* \"contracts/no_forma.sol\":3263:3271  _content */\n      dup3\n        /* \"contracts/no_forma.sol\":3257:3279  bytes(_content).length */\n      mload\n        /* \"contracts/no_forma.sol\":3257:3283  bytes(_content).length > 0 */\n      gt\n        /* \"contracts/no_forma.sol\":3249:3311  require(bytes(_content).length > 0, \"Content cannot be empty\") */\n      tag_322\n      jumpi\n      mload(0x40)\n      0x08c379a000000000000000000000000000000000000000000000000000000000\n      dup2\n      mstore\n      0x04\n      add\n      tag_323\n      swap1\n      tag_180\n      jump\t// in\n    tag_323:\n      mload(0x40)\n      dup1\n      swap2\n      sub\n      swap1\n      revert\n    tag_322:\n        /* \"contracts/no_forma.sol\":3357:3363  _title */\n      dup4\n        /* \"contracts/no_forma.sol\":3330:3343  knowledgeBase */\n      0x00\n        /* \"contracts/no_forma.sol\":3330:3348  knowledgeBase[_id] */\n      0x00\n        /* \"contracts/no_forma.sol\":3344:3347  _id */\n      dup8\n        /* \"contracts/no_forma.sol\":3330:3348  knowledgeBase[_id] */\n      dup2\n      mstore\n      0x20\n      add\n      swap1\n      dup2\n      mstore\n      0x20\n      add\n      0x00\n      keccak256\n        /* \"contracts/no_forma.sol\":3330:3354  knowledgeBase[_id].title */\n      0x01\n      add\n        /* \"contracts/no_forma.sol\":3330:3363  knowledgeBase[_id].title = _title */\n      swap1\n      dup2\n      tag_324\n      swap2\n      swap1\n      tag_182\n      jump\t// in\n    tag_324:\n      pop\n        /* \"contracts/no_forma.sol\":3400:3406  _group */\n      dup3\n        /* \"contracts/no_forma.sol\":3373:3386  knowledgeBase */\n      0x00\n        /* \"contracts/no_forma.sol\":3373:3391  knowledgeBase[_id] */\n      0x00\n        /* \"contracts/no_forma.sol\":3387:3390  _id */\n      dup8\n        /* \"contracts/no_forma.sol\":3373:3391  knowledgeBase[_id] */\n      dup2\n      mstore\n      0x20\n      add\n      swap1\n      dup2\n      mstore\n      0x20\n      add\n      0x00\n      keccak256\n        /* \"contracts/no_forma.sol\":3373:3397  knowledgeBase[_id].group */\n      0x02\n      add\n        /* \"contracts/no_forma.sol\":3373:3406  knowledgeBase[_id].group = _group */\n      swap1\n      dup2\n      tag_325\n      swap2\n      swap1\n      tag_182\n      jump\t// in\n    tag_325:\n      pop\n        /* \"contracts/no_forma.sol\":3445:3453  _content */\n      dup2\n        /* \"contracts/no_forma.sol\":3416:3429  knowledgeBase */\n      0x00\n        /* \"contracts/no_forma.sol\":3416:3434  knowledgeBase[_id] */\n      0x00\n        /* \"contracts/no_forma.sol\":3430:3433  _id */\n      dup8\n        /* \"contracts/no_forma.sol\":3416:3434  knowledgeBase[_id] */\n      dup2\n      mstore\n      0x20\n      add\n      swap1\n      dup2\n      mstore\n      0x20\n      add\n      0x00\n      keccak256\n        /* \"contracts/no_forma.sol\":3416:3442  knowledgeBase[_id].content */\n      0x03\n      add\n        /* \"contracts/no_forma.sol\":3416:3453  knowledgeBase[_id].content = _content */\n      swap1\n      dup2\n      tag_326\n      swap2\n      swap1\n      tag_182\n      jump\t// in\n    tag_326:\n      pop\n        /* \"contracts/no_forma.sol\":3498:3501  _id */\n      dup5\n        /* \"contracts/no_forma.sol\":3477:3518  KnowledgeBaseUpdated(_id, _title, _group) */\n      0x4c8cde21320ba24d72b5ec50e9d79d85585b33dd8166079e2b7360e24925bb4a\n        /* \"contracts/no_forma.sol\":3503:3509  _title */\n      dup6\n        /* \"contracts/no_forma.sol\":3511:3517  _group */\n      dup6\n        /* \"contracts/no_forma.sol\":3477:3518  KnowledgeBaseUpdated(_id, _title, _group) */\n      mload(0x40)\n      tag_327\n      swap3\n      swap2\n      swap1\n      tag_187\n      jump\t// in\n    tag_327:\n      mload(0x40)\n      dup1\n      swap2\n      sub\n      swap1\n      log2\n        /* \"contracts/no_forma.sol\":2989:3525  function updateKnowledgeBase(... */\n      pop\n      pop\n      pop\n      pop\n      pop\n      jump\t// out\n        /* \"contracts/no_forma.sol\":7895:8648  function getAllCustomers() external view returns (... */\n    tag_85:\n        /* \"contracts/no_forma.sol\":7954:7974  uint256[] memory ids */\n      0x60\n        /* \"contracts/no_forma.sol\":7984:8005  string[] memory names */\n      dup1\n        /* \"contracts/no_forma.sol\":8015:8037  string[] memory emails */\n      0x60\n        /* \"contracts/no_forma.sol\":8047:8069  string[] memory phones */\n      dup1\n        /* \"contracts/no_forma.sol\":8086:8100  uint256 length */\n      0x00\n        /* \"contracts/no_forma.sol\":8103:8114  customerIds */\n      0x04\n        /* \"contracts/no_forma.sol\":8103:8121  customerIds.length */\n      dup1\n      sload\n      swap1\n      pop\n        /* \"contracts/no_forma.sol\":8086:8121  uint256 length = customerIds.length */\n      swap1\n      pop\n        /* \"contracts/no_forma.sol\":8151:8157  length */\n      dup1\n        /* \"contracts/no_forma.sol\":8137:8158  new uint256[](length) */\n      0xffffffffffffffff\n      dup2\n      gt\n      iszero\n      tag_329\n      jumpi\n      tag_330\n      tag_273\n      jump\t// in\n    tag_330:\n    tag_329:\n      mload(0x40)\n      swap1\n      dup1\n      dup3\n      mstore\n      dup1\n      0x20\n      mul\n      0x20\n      add\n      dup3\n      add\n      0x40\n      mstore\n      dup1\n      iszero\n      tag_331\n      jumpi\n      dup2\n      0x20\n      add\n      0x20\n      dup3\n      mul\n      dup1\n      calldatasize\n      dup4\n      calldatacopy\n      dup1\n      dup3\n      add\n      swap2\n      pop\n      pop\n      swap1\n      pop\n    tag_331:\n      pop\n        /* \"contracts/no_forma.sol\":8131:8158  ids = new uint256[](length) */\n      swap5\n      pop\n        /* \"contracts/no_forma.sol\":8189:8195  length */\n      dup1\n        /* \"contracts/no_forma.sol\":8176:8196  new string[](length) */\n      0xffffffffffffffff\n      dup2\n      gt\n      iszero\n      tag_332\n      jumpi\n      tag_333\n      tag_273\n      jump\t// in\n    tag_333:\n    tag_332:\n      mload(0x40)\n      swap1\n      dup1\n      dup3\n      mstore\n      dup1\n      0x20\n      mul\n      0x20\n      add\n      dup3\n      add\n      0x40\n      mstore\n      dup1\n      iszero\n      tag_334\n      jumpi\n      dup2\n      0x20\n      add\n    tag_335:\n      0x60\n      dup2\n      mstore\n      0x20\n      add\n      swap1\n      0x01\n      swap1\n      sub\n      swap1\n      dup2\n      tag_335\n      jumpi\n      swap1\n      pop\n    tag_334:\n      pop\n        /* \"contracts/no_forma.sol\":8168:8196  names = new string[](length) */\n      swap4\n      pop\n        /* \"contracts/no_forma.sol\":8228:8234  length */\n      dup1\n        /* \"contracts/no_forma.sol\":8215:8235  new string[](length) */\n      0xffffffffffffffff\n      dup2\n      gt\n      iszero\n      tag_336\n      jumpi\n      tag_337\n      tag_273\n      jump\t// in\n    tag_337:\n    tag_336:\n      mload(0x40)\n      swap1\n      dup1\n      dup3\n      mstore\n      dup1\n      0x20\n      mul\n      0x20\n      add\n      dup3\n      add\n      0x40\n      mstore\n      dup1\n      iszero\n      tag_338\n      jumpi\n      dup2\n      0x20\n      add\n    tag_339:\n      0x60\n      dup2\n      mstore\n      0x20\n      add\n      swap1\n      0x01\n      swap1\n      sub\n      swap1\n      dup2\n      tag_339\n      jumpi\n      swap1\n      pop\n    tag_338:\n      pop\n        /* \"contracts/no_forma.sol\":8206:8235  emails = new string[](length) */\n      swap3\n      pop\n        /* \"contracts/no_forma.sol\":8267:8273  length */\n      dup1\n        /* \"contracts/no_forma.sol\":8254:8274  new string[](length) */\n      0xffffffffffffffff\n      dup2\n      gt\n      iszero\n      tag_340\n      jumpi\n      tag_341\n      tag_273\n      jump\t// in\n    tag_341:\n    tag_340:\n      mload(0x40)\n      swap1\n      dup1\n      dup3\n      mstore\n      dup1\n      0x20\n      mul\n      0x20\n      add\n      dup3\n      add\n      0x40\n      mstore\n      dup1\n      iszero\n      tag_342\n      jumpi\n      dup2\n      0x20\n      add\n    tag_343:\n      0x60\n      dup2\n      mstore\n      0x20\n      add\n      swap1\n      0x01\n      swap1\n      sub\n      swap1\n      dup2\n      tag_343\n      jumpi\n      swap1\n      pop\n    tag_342:\n      pop\n        /* \"contracts/no_forma.sol\":8245:8274  phones = new string[](length) */\n      swap2\n      pop\n        /* \"contracts/no_forma.sol\":8298:8307  uint256 i */\n      0x00\n        /* \"contracts/no_forma.sol\":8310:8311  0 */\n      0x00\n        /* \"contracts/no_forma.sol\":8298:8311  uint256 i = 0 */\n      swap1\n      pop\n        /* \"contracts/no_forma.sol\":8293:8588  for (uint256 i = 0; i < length; i++) {... */\n    tag_344:\n        /* \"contracts/no_forma.sol\":8317:8323  length */\n      dup2\n        /* \"contracts/no_forma.sol\":8313:8314  i */\n      dup2\n        /* \"contracts/no_forma.sol\":8313:8323  i < length */\n      lt\n        /* \"contracts/no_forma.sol\":8293:8588  for (uint256 i = 0; i < length; i++) {... */\n      iszero\n      tag_345\n      jumpi\n        /* \"contracts/no_forma.sol\":8344:8354  uint256 id */\n      0x00\n        /* \"contracts/no_forma.sol\":8357:8368  customerIds */\n      0x04\n        /* \"contracts/no_forma.sol\":8369:8370  i */\n      dup3\n        /* \"contracts/no_forma.sol\":8357:8371  customerIds[i] */\n      dup2\n      sload\n      dup2\n      lt\n      tag_347\n      jumpi\n      tag_348\n      tag_218\n      jump\t// in\n    tag_348:\n    tag_347:\n      swap1\n      0x00\n      mstore\n      keccak256(0x00, 0x20)\n      add\n      sload\n        /* \"contracts/no_forma.sol\":8344:8371  uint256 id = customerIds[i] */\n      swap1\n      pop\n        /* \"contracts/no_forma.sol\":8385:8409  Customer memory customer */\n      0x00\n        /* \"contracts/no_forma.sol\":8412:8421  customers */\n      0x01\n        /* \"contracts/no_forma.sol\":8412:8425  customers[id] */\n      0x00\n        /* \"contracts/no_forma.sol\":8422:8424  id */\n      dup4\n        /* \"contracts/no_forma.sol\":8412:8425  customers[id] */\n      dup2\n      mstore\n      0x20\n      add\n      swap1\n      dup2\n      mstore\n      0x20\n      add\n      0x00\n      keccak256\n        /* \"contracts/no_forma.sol\":8385:8425  Customer memory customer = customers[id] */\n      mload(0x40)\n      dup1\n      0xa0\n      add\n      0x40\n      mstore\n      swap1\n      dup2\n      0x00\n      dup3\n      add\n      sload\n      dup2\n      mstore\n      0x20\n      add\n      0x01\n      dup3\n      add\n      dup1\n      sload\n      tag_350\n      swap1\n      tag_139\n      jump\t// in\n    tag_350:\n      dup1\n      0x1f\n      add\n      0x20\n      dup1\n      swap2\n      div\n      mul\n      0x20\n      add\n      mload(0x40)\n      swap1\n      dup2\n      add\n      0x40\n      mstore\n      dup1\n      swap3\n      swap2\n      swap1\n      dup2\n      dup2\n      mstore\n      0x20\n      add\n      dup3\n      dup1\n      sload\n      tag_351\n      swap1\n      tag_139\n      jump\t// in\n    tag_351:\n      dup1\n      iszero\n      tag_352\n      jumpi\n      dup1\n      0x1f\n      lt\n      tag_353\n      jumpi\n      0x0100\n      dup1\n      dup4\n      sload\n      div\n      mul\n      dup4\n      mstore\n      swap2\n      0x20\n      add\n      swap2\n      jump(tag_352)\n    tag_353:\n      dup3\n      add\n      swap2\n      swap1\n      0x00\n      mstore\n      keccak256(0x00, 0x20)\n      swap1\n    tag_354:\n      dup2\n      sload\n      dup2\n      mstore\n      swap1\n      0x01\n      add\n      swap1\n      0x20\n      add\n      dup1\n      dup4\n      gt\n      tag_354\n      jumpi\n      dup3\n      swap1\n      sub\n      0x1f\n      and\n      dup3\n      add\n      swap2\n    tag_352:\n      pop\n      pop\n      pop\n      pop\n      pop\n      dup2\n      mstore\n      0x20\n      add\n      0x02\n      dup3\n      add\n      dup1\n      sload\n      tag_355\n      swap1\n      tag_139\n      jump\t// in\n    tag_355:\n      dup1\n      0x1f\n      add\n      0x20\n      dup1\n      swap2\n      div\n      mul\n      0x20\n      add\n      mload(0x40)\n      swap1\n      dup2\n      add\n      0x40\n      mstore\n      dup1\n      swap3\n      swap2\n      swap1\n      dup2\n      dup2\n      mstore\n      0x20\n      add\n      dup3\n      dup1\n      sload\n      tag_356\n      swap1\n      tag_139\n      jump\t// in\n    tag_356:\n      dup1\n      iszero\n      tag_357\n      jumpi\n      dup1\n      0x1f\n      lt\n      tag_358\n      jumpi\n      0x0100\n      dup1\n      dup4\n      sload\n      div\n      mul\n      dup4\n      mstore\n      swap2\n      0x20\n      add\n      swap2\n      jump(tag_357)\n    tag_358:\n      dup3\n      add\n      swap2\n      swap1\n      0x00\n      mstore\n      keccak256(0x00, 0x20)\n      swap1\n    tag_359:\n      dup2\n      sload\n      dup2\n      mstore\n      swap1\n      0x01\n      add\n      swap1\n      0x20\n      add\n      dup1\n      dup4\n      gt\n      tag_359\n      jumpi\n      dup3\n      swap1\n      sub\n      0x1f\n      and\n      dup3\n      add\n      swap2\n    tag_357:\n      pop\n      pop\n      pop\n      pop\n      pop\n      dup2\n      mstore\n      0x20\n      add\n      0x03\n      dup3\n      add\n      dup1\n      sload\n      tag_360\n      swap1\n      tag_139\n      jump\t// in\n    tag_360:\n      dup1\n      0x1f\n      add\n      0x20\n      dup1\n      swap2\n      div\n      mul\n      0x20\n      add\n      mload(0x40)\n      swap1\n      dup2\n      add\n      0x40\n      mstore\n      dup1\n      swap3\n      swap2\n      swap1\n      dup2\n      dup2\n      mstore\n      0x20\n      add\n      dup3\n      dup1\n      sload\n      tag_361\n      swap1\n      tag_139\n      jump\t// in\n    tag_361:\n      dup1\n      iszero\n      tag_362\n      jumpi\n      dup1\n      0x1f\n      lt\n      tag_363\n      jumpi\n      0x0100\n      dup1\n      dup4\n      sload\n      div\n      mul\n      dup4\n      mstore\n      swap2\n      0x20\n      add\n      swap2\n      jump(tag_362)\n    tag_363:\n      dup3\n      add\n      swap2\n      swap1\n      0x00\n      mstore\n      keccak256(0x00, 0x20)\n      swap1\n    tag_364:\n      dup2\n      sload\n      dup2\n      mstore\n      swap1\n      0x01\n      add\n      swap1\n      0x20\n      add\n      dup1\n      dup4\n      gt\n      tag_364\n      jumpi\n      dup3\n      swap1\n      sub\n      0x1f\n      and\n      dup3\n      add\n      swap2\n    tag_362:\n      pop\n      pop\n      pop\n      pop\n      pop\n      dup2\n      mstore\n      0x20\n      add\n      0x04\n      dup3\n      add\n      0x00\n      swap1\n      sload\n      swap1\n      0x0100\n      exp\n      swap1\n      div\n      0xff\n      and\n      iszero\n      iszero\n      iszero\n      iszero\n      dup2\n      mstore\n      pop\n      pop\n      swap1\n      pop\n        /* \"contracts/no_forma.sol\":8448:8456  customer */\n      dup1\n        /* \"contracts/no_forma.sol\":8448:8459  customer.id */\n      0x00\n      add\n      mload\n        /* \"contracts/no_forma.sol\":8439:8442  ids */\n      dup9\n        /* \"contracts/no_forma.sol\":8443:8444  i */\n      dup5\n        /* \"contracts/no_forma.sol\":8439:8445  ids[i] */\n      dup2\n      mload\n      dup2\n      lt\n      tag_365\n      jumpi\n      tag_366\n      tag_218\n      jump\t// in\n    tag_366:\n    tag_365:\n      0x20\n      mul\n      0x20\n      add\n      add\n        /* \"contracts/no_forma.sol\":8439:8459  ids[i] = customer.id */\n      dup2\n      dup2\n      mstore\n      pop\n      pop\n        /* \"contracts/no_forma.sol\":8484:8492  customer */\n      dup1\n        /* \"contracts/no_forma.sol\":8484:8497  customer.name */\n      0x20\n      add\n      mload\n        /* \"contracts/no_forma.sol\":8473:8478  names */\n      dup8\n        /* \"contracts/no_forma.sol\":8479:8480  i */\n      dup5\n        /* \"contracts/no_forma.sol\":8473:8481  names[i] */\n      dup2\n      mload\n      dup2\n      lt\n      tag_367\n      jumpi\n      tag_368\n      tag_218\n      jump\t// in\n    tag_368:\n    tag_367:\n      0x20\n      mul\n      0x20\n      add\n      add\n        /* \"contracts/no_forma.sol\":8473:8497  names[i] = customer.name */\n      dup2\n      swap1\n      mstore\n      pop\n        /* \"contracts/no_forma.sol\":8523:8531  customer */\n      dup1\n        /* \"contracts/no_forma.sol\":8523:8537  customer.email */\n      0x40\n      add\n      mload\n        /* \"contracts/no_forma.sol\":8511:8517  emails */\n      dup7\n        /* \"contracts/no_forma.sol\":8518:8519  i */\n      dup5\n        /* \"contracts/no_forma.sol\":8511:8520  emails[i] */\n      dup2\n      mload\n      dup2\n      lt\n      tag_369\n      jumpi\n      tag_370\n      tag_218\n      jump\t// in\n    tag_370:\n    tag_369:\n      0x20\n      mul\n      0x20\n      add\n      add\n        /* \"contracts/no_forma.sol\":8511:8537  emails[i] = customer.email */\n      dup2\n      swap1\n      mstore\n      pop\n        /* \"contracts/no_forma.sol\":8563:8571  customer */\n      dup1\n        /* \"contracts/no_forma.sol\":8563:8577  customer.phone */\n      0x60\n      add\n      mload\n        /* \"contracts/no_forma.sol\":8551:8557  phones */\n      dup6\n        /* \"contracts/no_forma.sol\":8558:8559  i */\n      dup5\n        /* \"contracts/no_forma.sol\":8551:8560  phones[i] */\n      dup2\n      mload\n      dup2\n      lt\n      tag_371\n      jumpi\n      tag_372\n      tag_218\n      jump\t// in\n    tag_372:\n    tag_371:\n      0x20\n      mul\n      0x20\n      add\n      add\n        /* \"contracts/no_forma.sol\":8551:8577  phones[i] = customer.phone */\n      dup2\n      swap1\n      mstore\n      pop\n        /* \"contracts/no_forma.sol\":8330:8588  {... */\n      pop\n      pop\n        /* \"contracts/no_forma.sol\":8325:8328  i++ */\n      dup1\n      dup1\n      0x01\n      add\n      swap2\n      pop\n      pop\n        /* \"contracts/no_forma.sol\":8293:8588  for (uint256 i = 0; i < length; i++) {... */\n      jump(tag_344)\n    tag_345:\n      pop\n        /* \"contracts/no_forma.sol\":8606:8641  return (ids, names, emails, phones) */\n      pop\n        /* \"contracts/no_forma.sol\":7895:8648  function getAllCustomers() external view returns (... */\n      swap1\n      swap2\n      swap3\n      swap4\n      jump\t// out\n        /* \"contracts/no_forma.sol\":8743:9461  function createProject(... */\n    tag_90:\n        /* \"contracts/no_forma.sol\":8915:8922  uint256 */\n      0x00\n        /* \"contracts/no_forma.sol\":8964:8965  0 */\n      0x00\n        /* \"contracts/no_forma.sol\":8948:8953  _name */\n      dup6\n        /* \"contracts/no_forma.sol\":8942:8961  bytes(_name).length */\n      mload\n        /* \"contracts/no_forma.sol\":8942:8965  bytes(_name).length > 0 */\n      gt\n        /* \"contracts/no_forma.sol\":8934:8990  require(bytes(_name).length > 0, \"Name cannot be empty\") */\n      tag_374\n      jumpi\n      mload(0x40)\n      0x08c379a000000000000000000000000000000000000000000000000000000000\n      dup2\n      mstore\n      0x04\n      add\n      tag_375\n      swap1\n      tag_238\n      jump\t// in\n    tag_375:\n      mload(0x40)\n      dup1\n      swap2\n      sub\n      swap1\n      revert\n    tag_374:\n        /* \"contracts/no_forma.sol\":9034:9035  0 */\n      0x00\n        /* \"contracts/no_forma.sol\":9014:9023  _customer */\n      dup5\n        /* \"contracts/no_forma.sol\":9008:9031  bytes(_customer).length */\n      mload\n        /* \"contracts/no_forma.sol\":9008:9035  bytes(_customer).length > 0 */\n      gt\n        /* \"contracts/no_forma.sol\":9000:9064  require(bytes(_customer).length > 0, \"Customer cannot be empty\") */\n      tag_376\n      jumpi\n      mload(0x40)\n      0x08c379a000000000000000000000000000000000000000000000000000000000\n      dup2\n      mstore\n      0x04\n      add\n      tag_377\n      swap1\n      tag_378\n      jump\t// in\n    tag_377:\n      mload(0x40)\n      dup1\n      swap2\n      sub\n      swap1\n      revert\n    tag_376:\n        /* \"contracts/no_forma.sol\":9083:9093  uint256 id */\n      0x00\n        /* \"contracts/no_forma.sol\":9096:9111  block.timestamp */\n      timestamp\n        /* \"contracts/no_forma.sol\":9083:9111  uint256 id = block.timestamp */\n      swap1\n      pop\n        /* \"contracts/no_forma.sol\":9145:9328  Project({... */\n      mload(0x40)\n      dup1\n      0xc0\n      add\n      0x40\n      mstore\n      dup1\n        /* \"contracts/no_forma.sol\":9171:9173  id */\n      dup3\n        /* \"contracts/no_forma.sol\":9145:9328  Project({... */\n      dup2\n      mstore\n      0x20\n      add\n        /* \"contracts/no_forma.sol\":9193:9198  _name */\n      dup8\n        /* \"contracts/no_forma.sol\":9145:9328  Project({... */\n      dup2\n      mstore\n      0x20\n      add\n        /* \"contracts/no_forma.sol\":9222:9231  _customer */\n      dup7\n        /* \"contracts/no_forma.sol\":9145:9328  Project({... */\n      dup2\n      mstore\n      0x20\n      add\n        /* \"contracts/no_forma.sol\":9253:9260  _status */\n      dup6\n        /* \"contracts/no_forma.sol\":9145:9328  Project({... */\n      dup2\n      mstore\n      0x20\n      add\n        /* \"contracts/no_forma.sol\":9283:9291  _details */\n      dup5\n        /* \"contracts/no_forma.sol\":9145:9328  Project({... */\n      dup2\n      mstore\n      0x20\n      add\n        /* \"contracts/no_forma.sol\":9313:9317  true */\n      0x01\n        /* \"contracts/no_forma.sol\":9145:9328  Project({... */\n      iszero\n      iszero\n      dup2\n      mstore\n      pop\n        /* \"contracts/no_forma.sol\":9130:9138  projects */\n      0x02\n        /* \"contracts/no_forma.sol\":9130:9142  projects[id] */\n      0x00\n        /* \"contracts/no_forma.sol\":9139:9141  id */\n      dup4\n        /* \"contracts/no_forma.sol\":9130:9142  projects[id] */\n      dup2\n      mstore\n      0x20\n      add\n      swap1\n      dup2\n      mstore\n      0x20\n      add\n      0x00\n      keccak256\n        /* \"contracts/no_forma.sol\":9130:9328  projects[id] = Project({... */\n      0x00\n      dup3\n      add\n      mload\n      dup2\n      0x00\n      add\n      sstore\n      0x20\n      dup3\n      add\n      mload\n      dup2\n      0x01\n      add\n      swap1\n      dup2\n      tag_379\n      swap2\n      swap1\n      tag_182\n      jump\t// in\n    tag_379:\n      pop\n      0x40\n      dup3\n      add\n      mload\n      dup2\n      0x02\n      add\n      swap1\n      dup2\n      tag_380\n      swap2\n      swap1\n      tag_182\n      jump\t// in\n    tag_380:\n      pop\n      0x60\n      dup3\n      add\n      mload\n      dup2\n      0x03\n      add\n      swap1\n      dup2\n      tag_381\n      swap2\n      swap1\n      tag_182\n      jump\t// in\n    tag_381:\n      pop\n      0x80\n      dup3\n      add\n      mload\n      dup2\n      0x04\n      add\n      swap1\n      dup2\n      tag_382\n      swap2\n      swap1\n      tag_182\n      jump\t// in\n    tag_382:\n      pop\n      0xa0\n      dup3\n      add\n      mload\n      dup2\n      0x05\n      add\n      exp(0x0100, 0x00)\n      dup2\n      sload\n      dup2\n      0xff\n      mul\n      not\n      and\n      swap1\n      dup4\n      iszero\n      iszero\n      mul\n      or\n      swap1\n      sstore\n      pop\n      swap1\n      pop\n      pop\n        /* \"contracts/no_forma.sol\":9347:9357  projectIds */\n      0x05\n        /* \"contracts/no_forma.sol\":9363:9365  id */\n      dup2\n        /* \"contracts/no_forma.sol\":9347:9366  projectIds.push(id) */\n      swap1\n      dup1\n      0x01\n      dup2\n      sload\n      add\n      dup1\n      dup3\n      sstore\n      dup1\n      swap2\n      pop\n      pop\n      0x01\n      swap1\n      sub\n      swap1\n      0x00\n      mstore\n      keccak256(0x00, 0x20)\n      add\n      0x00\n      swap1\n      swap2\n      swap1\n      swap2\n      swap1\n      swap2\n      pop\n      sstore\n        /* \"contracts/no_forma.sol\":9405:9407  id */\n      dup1\n        /* \"contracts/no_forma.sol\":9390:9435  ProjectCreated(id, _name, _customer, _status) */\n      0xd435653848bbfa44a9136b793e660753873e5b87ee80e7289d257538214bd3e0\n        /* \"contracts/no_forma.sol\":9409:9414  _name */\n      dup8\n        /* \"contracts/no_forma.sol\":9416:9425  _customer */\n      dup8\n        /* \"contracts/no_forma.sol\":9427:9434  _status */\n      dup8\n        /* \"contracts/no_forma.sol\":9390:9435  ProjectCreated(id, _name, _customer, _status) */\n      mload(0x40)\n      tag_384\n      swap4\n      swap3\n      swap2\n      swap1\n      tag_247\n      jump\t// in\n    tag_384:\n      mload(0x40)\n      dup1\n      swap2\n      sub\n      swap1\n      log2\n        /* \"contracts/no_forma.sol\":9452:9454  id */\n      dup1\n        /* \"contracts/no_forma.sol\":9445:9454  return id */\n      swap2\n      pop\n      pop\n        /* \"contracts/no_forma.sol\":8743:9461  function createProject(... */\n      swap5\n      swap4\n      pop\n      pop\n      pop\n      pop\n      jump\t// out\n        /* \"contracts/no_forma.sol\":12294:12529  function getCounts() external view returns (... */\n    tag_93:\n        /* \"contracts/no_forma.sol\":12347:12373  uint256 knowledgeBaseCount */\n      0x00\n        /* \"contracts/no_forma.sol\":12383:12404  uint256 customerCount */\n      0x00\n        /* \"contracts/no_forma.sol\":12414:12434  uint256 projectCount */\n      0x00\n        /* \"contracts/no_forma.sol\":12459:12475  knowledgeBaseIds */\n      0x03\n        /* \"contracts/no_forma.sol\":12459:12482  knowledgeBaseIds.length */\n      dup1\n      sload\n      swap1\n      pop\n        /* \"contracts/no_forma.sol\":12484:12495  customerIds */\n      0x04\n        /* \"contracts/no_forma.sol\":12484:12502  customerIds.length */\n      dup1\n      sload\n      swap1\n      pop\n        /* \"contracts/no_forma.sol\":12504:12514  projectIds */\n      0x05\n        /* \"contracts/no_forma.sol\":12504:12521  projectIds.length */\n      dup1\n      sload\n      swap1\n      pop\n        /* \"contracts/no_forma.sol\":12451:12522  return (knowledgeBaseIds.length, customerIds.length, projectIds.length) */\n      swap3\n      pop\n      swap3\n      pop\n      swap3\n      pop\n        /* \"contracts/no_forma.sol\":12294:12529  function getCounts() external view returns (... */\n      swap1\n      swap2\n      swap3\n      jump\t// out\n        /* \"contracts/no_forma.sol\":4543:4658  function getAllKnowledgeBaseIds() external view returns (uint256[] memory) {... */\n    tag_97:\n        /* \"contracts/no_forma.sol\":4600:4616  uint256[] memory */\n      0x60\n        /* \"contracts/no_forma.sol\":4635:4651  knowledgeBaseIds */\n      0x03\n        /* \"contracts/no_forma.sol\":4628:4651  return knowledgeBaseIds */\n      dup1\n      sload\n      dup1\n      0x20\n      mul\n      0x20\n      add\n      mload(0x40)\n      swap1\n      dup2\n      add\n      0x40\n      mstore\n      dup1\n      swap3\n      swap2\n      swap1\n      dup2\n      dup2\n      mstore\n      0x20\n      add\n      dup3\n      dup1\n      sload\n      dup1\n      iszero\n      tag_387\n      jumpi\n      0x20\n      mul\n      dup3\n      add\n      swap2\n      swap1\n      0x00\n      mstore\n      keccak256(0x00, 0x20)\n      swap1\n    tag_388:\n      dup2\n      sload\n      dup2\n      mstore\n      0x20\n      add\n      swap1\n      0x01\n      add\n      swap1\n      dup1\n      dup4\n      gt\n      tag_388\n      jumpi\n    tag_387:\n      pop\n      pop\n      pop\n      pop\n      pop\n      swap1\n      pop\n        /* \"contracts/no_forma.sol\":4543:4658  function getAllKnowledgeBaseIds() external view returns (uint256[] memory) {... */\n      swap1\n      jump\t// out\n        /* \"contracts/no_forma.sol\":9526:10117  function updateProject(... */\n    tag_102:\n        /* \"contracts/no_forma.sol\":9724:9727  _id */\n      dup5\n        /* \"contracts/no_forma.sol\":2061:2069  projects */\n      0x02\n        /* \"contracts/no_forma.sol\":2061:2074  projects[_id] */\n      0x00\n        /* \"contracts/no_forma.sol\":2070:2073  _id */\n      dup3\n        /* \"contracts/no_forma.sol\":2061:2074  projects[_id] */\n      dup2\n      mstore\n      0x20\n      add\n      swap1\n      dup2\n      mstore\n      0x20\n      add\n      0x00\n      keccak256\n        /* \"contracts/no_forma.sol\":2061:2081  projects[_id].exists */\n      0x05\n      add\n      0x00\n      swap1\n      sload\n      swap1\n      0x0100\n      exp\n      swap1\n      div\n      0xff\n      and\n        /* \"contracts/no_forma.sol\":2053:2108  require(projects[_id].exists, \"Project does not exist\") */\n      tag_390\n      jumpi\n      mload(0x40)\n      0x08c379a000000000000000000000000000000000000000000000000000000000\n      dup2\n      mstore\n      0x04\n      add\n      tag_391\n      swap1\n      tag_211\n      jump\t// in\n    tag_391:\n      mload(0x40)\n      dup1\n      swap2\n      sub\n      swap1\n      revert\n    tag_390:\n        /* \"contracts/no_forma.sol\":9769:9770  0 */\n      0x00\n        /* \"contracts/no_forma.sol\":9753:9758  _name */\n      dup6\n        /* \"contracts/no_forma.sol\":9747:9766  bytes(_name).length */\n      mload\n        /* \"contracts/no_forma.sol\":9747:9770  bytes(_name).length > 0 */\n      gt\n        /* \"contracts/no_forma.sol\":9739:9795  require(bytes(_name).length > 0, \"Name cannot be empty\") */\n      tag_393\n      jumpi\n      mload(0x40)\n      0x08c379a000000000000000000000000000000000000000000000000000000000\n      dup2\n      mstore\n      0x04\n      add\n      tag_394\n      swap1\n      tag_238\n      jump\t// in\n    tag_394:\n      mload(0x40)\n      dup1\n      swap2\n      sub\n      swap1\n      revert\n    tag_393:\n        /* \"contracts/no_forma.sol\":9839:9840  0 */\n      0x00\n        /* \"contracts/no_forma.sol\":9819:9828  _customer */\n      dup5\n        /* \"contracts/no_forma.sol\":9813:9836  bytes(_customer).length */\n      mload\n        /* \"contracts/no_forma.sol\":9813:9840  bytes(_customer).length > 0 */\n      gt\n        /* \"contracts/no_forma.sol\":9805:9869  require(bytes(_customer).length > 0, \"Customer cannot be empty\") */\n      tag_395\n      jumpi\n      mload(0x40)\n      0x08c379a000000000000000000000000000000000000000000000000000000000\n      dup2\n      mstore\n      0x04\n      add\n      tag_396\n      swap1\n      tag_378\n      jump\t// in\n    tag_396:\n      mload(0x40)\n      dup1\n      swap2\n      sub\n      swap1\n      revert\n    tag_395:\n        /* \"contracts/no_forma.sol\":9909:9914  _name */\n      dup5\n        /* \"contracts/no_forma.sol\":9888:9896  projects */\n      0x02\n        /* \"contracts/no_forma.sol\":9888:9901  projects[_id] */\n      0x00\n        /* \"contracts/no_forma.sol\":9897:9900  _id */\n      dup9\n        /* \"contracts/no_forma.sol\":9888:9901  projects[_id] */\n      dup2\n      mstore\n      0x20\n      add\n      swap1\n      dup2\n      mstore\n      0x20\n      add\n      0x00\n      keccak256\n        /* \"contracts/no_forma.sol\":9888:9906  projects[_id].name */\n      0x01\n      add\n        /* \"contracts/no_forma.sol\":9888:9914  projects[_id].name = _name */\n      swap1\n      dup2\n      tag_397\n      swap2\n      swap1\n      tag_182\n      jump\t// in\n    tag_397:\n      pop\n        /* \"contracts/no_forma.sol\":9949:9958  _customer */\n      dup4\n        /* \"contracts/no_forma.sol\":9924:9932  projects */\n      0x02\n        /* \"contracts/no_forma.sol\":9924:9937  projects[_id] */\n      0x00\n        /* \"contracts/no_forma.sol\":9933:9936  _id */\n      dup9\n        /* \"contracts/no_forma.sol\":9924:9937  projects[_id] */\n      dup2\n      mstore\n      0x20\n      add\n      swap1\n      dup2\n      mstore\n      0x20\n      add\n      0x00\n      keccak256\n        /* \"contracts/no_forma.sol\":9924:9946  projects[_id].customer */\n      0x02\n      add\n        /* \"contracts/no_forma.sol\":9924:9958  projects[_id].customer = _customer */\n      swap1\n      dup2\n      tag_398\n      swap2\n      swap1\n      tag_182\n      jump\t// in\n    tag_398:\n      pop\n        /* \"contracts/no_forma.sol\":9991:9998  _status */\n      dup3\n        /* \"contracts/no_forma.sol\":9968:9976  projects */\n      0x02\n        /* \"contracts/no_forma.sol\":9968:9981  projects[_id] */\n      0x00\n        /* \"contracts/no_forma.sol\":9977:9980  _id */\n      dup9\n        /* \"contracts/no_forma.sol\":9968:9981  projects[_id] */\n      dup2\n      mstore\n      0x20\n      add\n      swap1\n      dup2\n      mstore\n      0x20\n      add\n      0x00\n      keccak256\n        /* \"contracts/no_forma.sol\":9968:9988  projects[_id].status */\n      0x03\n      add\n        /* \"contracts/no_forma.sol\":9968:9998  projects[_id].status = _status */\n      swap1\n      dup2\n      tag_399\n      swap2\n      swap1\n      tag_182\n      jump\t// in\n    tag_399:\n      pop\n        /* \"contracts/no_forma.sol\":10032:10040  _details */\n      dup2\n        /* \"contracts/no_forma.sol\":10008:10016  projects */\n      0x02\n        /* \"contracts/no_forma.sol\":10008:10021  projects[_id] */\n      0x00\n        /* \"contracts/no_forma.sol\":10017:10020  _id */\n      dup9\n        /* \"contracts/no_forma.sol\":10008:10021  projects[_id] */\n      dup2\n      mstore\n      0x20\n      add\n      swap1\n      dup2\n      mstore\n      0x20\n      add\n      0x00\n      keccak256\n        /* \"contracts/no_forma.sol\":10008:10029  projects[_id].details */\n      0x04\n      add\n        /* \"contracts/no_forma.sol\":10008:10040  projects[_id].details = _details */\n      swap1\n      dup2\n      tag_400\n      swap2\n      swap1\n      tag_182\n      jump\t// in\n    tag_400:\n      pop\n        /* \"contracts/no_forma.sol\":10079:10082  _id */\n      dup6\n        /* \"contracts/no_forma.sol\":10064:10110  ProjectUpdated(_id, _name, _customer, _status) */\n      0x8c3999a987c45c0d01fbc63d2bbcbbc000fbef413680ea70285750d9cc577ab0\n        /* \"contracts/no_forma.sol\":10084:10089  _name */\n      dup7\n        /* \"contracts/no_forma.sol\":10091:10100  _customer */\n      dup7\n        /* \"contracts/no_forma.sol\":10102:10109  _status */\n      dup7\n        /* \"contracts/no_forma.sol\":10064:10110  ProjectUpdated(_id, _name, _customer, _status) */\n      mload(0x40)\n      tag_401\n      swap4\n      swap3\n      swap2\n      swap1\n      tag_247\n      jump\t// in\n    tag_401:\n      mload(0x40)\n      dup1\n      swap2\n      sub\n      swap1\n      log2\n        /* \"contracts/no_forma.sol\":9526:10117  function updateProject(... */\n      pop\n      pop\n      pop\n      pop\n      pop\n      pop\n      jump\t// out\n        /* \"contracts/no_forma.sol\":766:811  mapping(uint256 => Customer) public customers */\n    tag_105:\n      mstore(0x20, 0x01)\n      dup1\n      0x00\n      mstore\n      keccak256(0x00, 0x40)\n      0x00\n      swap2\n      pop\n      swap1\n      pop\n      dup1\n      0x00\n      add\n      sload\n      swap1\n      dup1\n      0x01\n      add\n      dup1\n      sload\n      tag_402\n      swap1\n      tag_139\n      jump\t// in\n    tag_402:\n      dup1\n      0x1f\n      add\n      0x20\n      dup1\n      swap2\n      div\n      mul\n      0x20\n      add\n      mload(0x40)\n      swap1\n      dup2\n      add\n      0x40\n      mstore\n      dup1\n      swap3\n      swap2\n      swap1\n      dup2\n      dup2\n      mstore\n      0x20\n      add\n      dup3\n      dup1\n      sload\n      tag_403\n      swap1\n      tag_139\n      jump\t// in\n    tag_403:\n      dup1\n      iszero\n      tag_404\n      jumpi\n      dup1\n      0x1f\n      lt\n      tag_405\n      jumpi\n      0x0100\n      dup1\n      dup4\n      sload\n      div\n      mul\n      dup4\n      mstore\n      swap2\n      0x20\n      add\n      swap2\n      jump(tag_404)\n    tag_405:\n      dup3\n      add\n      swap2\n      swap1\n      0x00\n      mstore\n      keccak256(0x00, 0x20)\n      swap1\n    tag_406:\n      dup2\n      sload\n      dup2\n      mstore\n      swap1\n      0x01\n      add\n      swap1\n      0x20\n      add\n      dup1\n      dup4\n      gt\n      tag_406\n      jumpi\n      dup3\n      swap1\n      sub\n      0x1f\n      and\n      dup3\n      add\n      swap2\n    tag_404:\n      pop\n      pop\n      pop\n      pop\n      pop\n      swap1\n      dup1\n      0x02\n      add\n      dup1\n      sload\n      tag_407\n      swap1\n      tag_139\n      jump\t// in\n    tag_407:\n      dup1\n      0x1f\n      add\n      0x20\n      dup1\n      swap2\n      div\n      mul\n      0x20\n      add\n      mload(0x40)\n      swap1\n      dup2\n      add\n      0x40\n      mstore\n      dup1\n      swap3\n      swap2\n      swap1\n      dup2\n      dup2\n      mstore\n      0x20\n      add\n      dup3\n      dup1\n      sload\n      tag_408\n      swap1\n      tag_139\n      jump\t// in\n    tag_408:\n      dup1\n      iszero\n      tag_409\n      jumpi\n      dup1\n      0x1f\n      lt\n      tag_410\n      jumpi\n      0x0100\n      dup1\n      dup4\n      sload\n      div\n      mul\n      dup4\n      mstore\n      swap2\n      0x20\n      add\n      swap2\n      jump(tag_409)\n    tag_410:\n      dup3\n      add\n      swap2\n      swap1\n      0x00\n      mstore\n      keccak256(0x00, 0x20)\n      swap1\n    tag_411:\n      dup2\n      sload\n      dup2\n      mstore\n      swap1\n      0x01\n      add\n      swap1\n      0x20\n      add\n      dup1\n      dup4\n      gt\n      tag_411\n      jumpi\n      dup3\n      swap1\n      sub\n      0x1f\n      and\n      dup3\n      add\n      swap2\n    tag_409:\n      pop\n      pop\n      pop\n      pop\n      pop\n      swap1\n      dup1\n      0x03\n      add\n      dup1\n      sload\n      tag_412\n      swap1\n      tag_139\n      jump\t// in\n    tag_412:\n      dup1\n      0x1f\n      add\n      0x20\n      dup1\n      swap2\n      div\n      mul\n      0x20\n      add\n      mload(0x40)\n      swap1\n      dup2\n      add\n      0x40\n      mstore\n      dup1\n      swap3\n      swap2\n      swap1\n      dup2\n      dup2\n      mstore\n      0x20\n      add\n      dup3\n      dup1\n      sload\n      tag_413\n      swap1\n      tag_139\n      jump\t// in\n    tag_413:\n      dup1\n      iszero\n      tag_414\n      jumpi\n      dup1\n      0x1f\n      lt\n      tag_415\n      jumpi\n      0x0100\n      dup1\n      dup4\n      sload\n      div\n      mul\n      dup4\n      mstore\n      swap2\n      0x20\n      add\n      swap2\n      jump(tag_414)\n    tag_415:\n      dup3\n      add\n      swap2\n      swap1\n      0x00\n      mstore\n      keccak256(0x00, 0x20)\n      swap1\n    tag_416:\n      dup2\n      sload\n      dup2\n      mstore\n      swap1\n      0x01\n      add\n      swap1\n      0x20\n      add\n      dup1\n      dup4\n      gt\n      tag_416\n      jumpi\n      dup3\n      swap1\n      sub\n      0x1f\n      and\n      dup3\n      add\n      swap2\n    tag_414:\n      pop\n      pop\n      pop\n      pop\n      pop\n      swap1\n      dup1\n      0x04\n      add\n      0x00\n      swap1\n      sload\n      swap1\n      0x0100\n      exp\n      swap1\n      div\n      0xff\n      and\n      swap1\n      pop\n      dup6\n      jump\t// out\n        /* \"contracts/no_forma.sol\":7734:7839  function getAllCustomerIds() external view returns (uint256[] memory) {... */\n    tag_108:\n        /* \"contracts/no_forma.sol\":7786:7802  uint256[] memory */\n      0x60\n        /* \"contracts/no_forma.sol\":7821:7832  customerIds */\n      0x04\n        /* \"contracts/no_forma.sol\":7814:7832  return customerIds */\n      dup1\n      sload\n      dup1\n      0x20\n      mul\n      0x20\n      add\n      mload(0x40)\n      swap1\n      dup2\n      add\n      0x40\n      mstore\n      dup1\n      swap3\n      swap2\n      swap1\n      dup2\n      dup2\n      mstore\n      0x20\n      add\n      dup3\n      dup1\n      sload\n      dup1\n      iszero\n      tag_418\n      jumpi\n      0x20\n      mul\n      dup3\n      add\n      swap2\n      swap1\n      0x00\n      mstore\n      keccak256(0x00, 0x20)\n      swap1\n    tag_419:\n      dup2\n      sload\n      dup2\n      mstore\n      0x20\n      add\n      swap1\n      0x01\n      add\n      swap1\n      dup1\n      dup4\n      gt\n      tag_419\n      jumpi\n    tag_418:\n      pop\n      pop\n      pop\n      pop\n      pop\n      swap1\n      pop\n        /* \"contracts/no_forma.sol\":7734:7839  function getAllCustomerIds() external view returns (uint256[] memory) {... */\n      swap1\n      jump\t// out\n        /* \"contracts/no_forma.sol\":11279:12209  function getAllProjectsWithCustomerInformation() external view returns (... */\n    tag_111:\n        /* \"contracts/no_forma.sol\":11360:11380  uint256[] memory ids */\n      0x60\n        /* \"contracts/no_forma.sol\":11390:11411  string[] memory names */\n      dup1\n        /* \"contracts/no_forma.sol\":11421:11450  string[] memory customerNames */\n      0x60\n        /* \"contracts/no_forma.sol\":11460:11484  string[] memory statuses */\n      dup1\n        /* \"contracts/no_forma.sol\":11494:11517  string[] memory details */\n      0x60\n        /* \"contracts/no_forma.sol\":11534:11548  uint256 length */\n      0x00\n        /* \"contracts/no_forma.sol\":11551:11561  projectIds */\n      0x05\n        /* \"contracts/no_forma.sol\":11551:11568  projectIds.length */\n      dup1\n      sload\n      swap1\n      pop\n        /* \"contracts/no_forma.sol\":11534:11568  uint256 length = projectIds.length */\n      swap1\n      pop\n        /* \"contracts/no_forma.sol\":11598:11604  length */\n      dup1\n        /* \"contracts/no_forma.sol\":11584:11605  new uint256[](length) */\n      0xffffffffffffffff\n      dup2\n      gt\n      iszero\n      tag_421\n      jumpi\n      tag_422\n      tag_273\n      jump\t// in\n    tag_422:\n    tag_421:\n      mload(0x40)\n      swap1\n      dup1\n      dup3\n      mstore\n      dup1\n      0x20\n      mul\n      0x20\n      add\n      dup3\n      add\n      0x40\n      mstore\n      dup1\n      iszero\n      tag_423\n      jumpi\n      dup2\n      0x20\n      add\n      0x20\n      dup3\n      mul\n      dup1\n      calldatasize\n      dup4\n      calldatacopy\n      dup1\n      dup3\n      add\n      swap2\n      pop\n      pop\n      swap1\n      pop\n    tag_423:\n      pop\n        /* \"contracts/no_forma.sol\":11578:11605  ids = new uint256[](length) */\n      swap6\n      pop\n        /* \"contracts/no_forma.sol\":11636:11642  length */\n      dup1\n        /* \"contracts/no_forma.sol\":11623:11643  new string[](length) */\n      0xffffffffffffffff\n      dup2\n      gt\n      iszero\n      tag_424\n      jumpi\n      tag_425\n      tag_273\n      jump\t// in\n    tag_425:\n    tag_424:\n      mload(0x40)\n      swap1\n      dup1\n      dup3\n      mstore\n      dup1\n      0x20\n      mul\n      0x20\n      add\n      dup3\n      add\n      0x40\n      mstore\n      dup1\n      iszero\n      tag_426\n      jumpi\n      dup2\n      0x20\n      add\n    tag_427:\n      0x60\n      dup2\n      mstore\n      0x20\n      add\n      swap1\n      0x01\n      swap1\n      sub\n      swap1\n      dup2\n      tag_427\n      jumpi\n      swap1\n      pop\n    tag_426:\n      pop\n        /* \"contracts/no_forma.sol\":11615:11643  names = new string[](length) */\n      swap5\n      pop\n        /* \"contracts/no_forma.sol\":11682:11688  length */\n      dup1\n        /* \"contracts/no_forma.sol\":11669:11689  new string[](length) */\n      0xffffffffffffffff\n      dup2\n      gt\n      iszero\n      tag_428\n      jumpi\n      tag_429\n      tag_273\n      jump\t// in\n    tag_429:\n    tag_428:\n      mload(0x40)\n      swap1\n      dup1\n      dup3\n      mstore\n      dup1\n      0x20\n      mul\n      0x20\n      add\n      dup3\n      add\n      0x40\n      mstore\n      dup1\n      iszero\n      tag_430\n      jumpi\n      dup2\n      0x20\n      add\n    tag_431:\n      0x60\n      dup2\n      mstore\n      0x20\n      add\n      swap1\n      0x01\n      swap1\n      sub\n      swap1\n      dup2\n      tag_431\n      jumpi\n      swap1\n      pop\n    tag_430:\n      pop\n        /* \"contracts/no_forma.sol\":11653:11689  customerNames = new string[](length) */\n      swap4\n      pop\n        /* \"contracts/no_forma.sol\":11723:11729  length */\n      dup1\n        /* \"contracts/no_forma.sol\":11710:11730  new string[](length) */\n      0xffffffffffffffff\n      dup2\n      gt\n      iszero\n      tag_432\n      jumpi\n      tag_433\n      tag_273\n      jump\t// in\n    tag_433:\n    tag_432:\n      mload(0x40)\n      swap1\n      dup1\n      dup3\n      mstore\n      dup1\n      0x20\n      mul\n      0x20\n      add\n      dup3\n      add\n      0x40\n      mstore\n      dup1\n      iszero\n      tag_434\n      jumpi\n      dup2\n      0x20\n      add\n    tag_435:\n      0x60\n      dup2\n      mstore\n      0x20\n      add\n      swap1\n      0x01\n      swap1\n      sub\n      swap1\n      dup2\n      tag_435\n      jumpi\n      swap1\n      pop\n    tag_434:\n      pop\n        /* \"contracts/no_forma.sol\":11699:11730  statuses = new string[](length) */\n      swap3\n      pop\n        /* \"contracts/no_forma.sol\":11763:11769  length */\n      dup1\n        /* \"contracts/no_forma.sol\":11750:11770  new string[](length) */\n      0xffffffffffffffff\n      dup2\n      gt\n      iszero\n      tag_436\n      jumpi\n      tag_437\n      tag_273\n      jump\t// in\n    tag_437:\n    tag_436:\n      mload(0x40)\n      swap1\n      dup1\n      dup3\n      mstore\n      dup1\n      0x20\n      mul\n      0x20\n      add\n      dup3\n      add\n      0x40\n      mstore\n      dup1\n      iszero\n      tag_438\n      jumpi\n      dup2\n      0x20\n      add\n    tag_439:\n      0x60\n      dup2\n      mstore\n      0x20\n      add\n      swap1\n      0x01\n      swap1\n      sub\n      swap1\n      dup2\n      tag_439\n      jumpi\n      swap1\n      pop\n    tag_438:\n      pop\n        /* \"contracts/no_forma.sol\":11740:11770  details = new string[](length) */\n      swap2\n      pop\n        /* \"contracts/no_forma.sol\":11794:11803  uint256 i */\n      0x00\n        /* \"contracts/no_forma.sol\":11806:11807  0 */\n      0x00\n        /* \"contracts/no_forma.sol\":11794:11807  uint256 i = 0 */\n      swap1\n      pop\n        /* \"contracts/no_forma.sol\":11789:12131  for (uint256 i = 0; i < length; i++) {... */\n    tag_440:\n        /* \"contracts/no_forma.sol\":11813:11819  length */\n      dup2\n        /* \"contracts/no_forma.sol\":11809:11810  i */\n      dup2\n        /* \"contracts/no_forma.sol\":11809:11819  i < length */\n      lt\n        /* \"contracts/no_forma.sol\":11789:12131  for (uint256 i = 0; i < length; i++) {... */\n      iszero\n      tag_441\n      jumpi\n        /* \"contracts/no_forma.sol\":11840:11850  uint256 id */\n      0x00\n        /* \"contracts/no_forma.sol\":11853:11863  projectIds */\n      0x05\n        /* \"contracts/no_forma.sol\":11864:11865  i */\n      dup3\n        /* \"contracts/no_forma.sol\":11853:11866  projectIds[i] */\n      dup2\n      sload\n      dup2\n      lt\n      tag_443\n      jumpi\n      tag_444\n      tag_218\n      jump\t// in\n    tag_444:\n    tag_443:\n      swap1\n      0x00\n      mstore\n      keccak256(0x00, 0x20)\n      add\n      sload\n        /* \"contracts/no_forma.sol\":11840:11866  uint256 id = projectIds[i] */\n      swap1\n      pop\n        /* \"contracts/no_forma.sol\":11880:11902  Project memory project */\n      0x00\n        /* \"contracts/no_forma.sol\":11905:11913  projects */\n      0x02\n        /* \"contracts/no_forma.sol\":11905:11917  projects[id] */\n      0x00\n        /* \"contracts/no_forma.sol\":11914:11916  id */\n      dup4\n        /* \"contracts/no_forma.sol\":11905:11917  projects[id] */\n      dup2\n      mstore\n      0x20\n      add\n      swap1\n      dup2\n      mstore\n      0x20\n      add\n      0x00\n      keccak256\n        /* \"contracts/no_forma.sol\":11880:11917  Project memory project = projects[id] */\n      mload(0x40)\n      dup1\n      0xc0\n      add\n      0x40\n      mstore\n      swap1\n      dup2\n      0x00\n      dup3\n      add\n      sload\n      dup2\n      mstore\n      0x20\n      add\n      0x01\n      dup3\n      add\n      dup1\n      sload\n      tag_446\n      swap1\n      tag_139\n      jump\t// in\n    tag_446:\n      dup1\n      0x1f\n      add\n      0x20\n      dup1\n      swap2\n      div\n      mul\n      0x20\n      add\n      mload(0x40)\n      swap1\n      dup2\n      add\n      0x40\n      mstore\n      dup1\n      swap3\n      swap2\n      swap1\n      dup2\n      dup2\n      mstore\n      0x20\n      add\n      dup3\n      dup1\n      sload\n      tag_447\n      swap1\n      tag_139\n      jump\t// in\n    tag_447:\n      dup1\n      iszero\n      tag_448\n      jumpi\n      dup1\n      0x1f\n      lt\n      tag_449\n      jumpi\n      0x0100\n      dup1\n      dup4\n      sload\n      div\n      mul\n      dup4\n      mstore\n      swap2\n      0x20\n      add\n      swap2\n      jump(tag_448)\n    tag_449:\n      dup3\n      add\n      swap2\n      swap1\n      0x00\n      mstore\n      keccak256(0x00, 0x20)\n      swap1\n    tag_450:\n      dup2\n      sload\n      dup2\n      mstore\n      swap1\n      0x01\n      add\n      swap1\n      0x20\n      add\n      dup1\n      dup4\n      gt\n      tag_450\n      jumpi\n      dup3\n      swap1\n      sub\n      0x1f\n      and\n      dup3\n      add\n      swap2\n    tag_448:\n      pop\n      pop\n      pop\n      pop\n      pop\n      dup2\n      mstore\n      0x20\n      add\n      0x02\n      dup3\n      add\n      dup1\n      sload\n      tag_451\n      swap1\n      tag_139\n      jump\t// in\n    tag_451:\n      dup1\n      0x1f\n      add\n      0x20\n      dup1\n      swap2\n      div\n      mul\n      0x20\n      add\n      mload(0x40)\n      swap1\n      dup2\n      add\n      0x40\n      mstore\n      dup1\n      swap3\n      swap2\n      swap1\n      dup2\n      dup2\n      mstore\n      0x20\n      add\n      dup3\n      dup1\n      sload\n      tag_452\n      swap1\n      tag_139\n      jump\t// in\n    tag_452:\n      dup1\n      iszero\n      tag_453\n      jumpi\n      dup1\n      0x1f\n      lt\n      tag_454\n      jumpi\n      0x0100\n      dup1\n      dup4\n      sload\n      div\n      mul\n      dup4\n      mstore\n      swap2\n      0x20\n      add\n      swap2\n      jump(tag_453)\n    tag_454:\n      dup3\n      add\n      swap2\n      swap1\n      0x00\n      mstore\n      keccak256(0x00, 0x20)\n      swap1\n    tag_455:\n      dup2\n      sload\n      dup2\n      mstore\n      swap1\n      0x01\n      add\n      swap1\n      0x20\n      add\n      dup1\n      dup4\n      gt\n      tag_455\n      jumpi\n      dup3\n      swap1\n      sub\n      0x1f\n      and\n      dup3\n      add\n      swap2\n    tag_453:\n      pop\n      pop\n      pop\n      pop\n      pop\n      dup2\n      mstore\n      0x20\n      add\n      0x03\n      dup3\n      add\n      dup1\n      sload\n      tag_456\n      swap1\n      tag_139\n      jump\t// in\n    tag_456:\n      dup1\n      0x1f\n      add\n      0x20\n      dup1\n      swap2\n      div\n      mul\n      0x20\n      add\n      mload(0x40)\n      swap1\n      dup2\n      add\n      0x40\n      mstore\n      dup1\n      swap3\n      swap2\n      swap1\n      dup2\n      dup2\n      mstore\n      0x20\n      add\n      dup3\n      dup1\n      sload\n      tag_457\n      swap1\n      tag_139\n      jump\t// in\n    tag_457:\n      dup1\n      iszero\n      tag_458\n      jumpi\n      dup1\n      0x1f\n      lt\n      tag_459\n      jumpi\n      0x0100\n      dup1\n      dup4\n      sload\n      div\n      mul\n      dup4\n      mstore\n      swap2\n      0x20\n      add\n      swap2\n      jump(tag_458)\n    tag_459:\n      dup3\n      add\n      swap2\n      swap1\n      0x00\n      mstore\n      keccak256(0x00, 0x20)\n      swap1\n    tag_460:\n      dup2\n      sload\n      dup2\n      mstore\n      swap1\n      0x01\n      add\n      swap1\n      0x20\n      add\n      dup1\n      dup4\n      gt\n      tag_460\n      jumpi\n      dup3\n      swap1\n      sub\n      0x1f\n      and\n      dup3\n      add\n      swap2\n    tag_458:\n      pop\n      pop\n      pop\n      pop\n      pop\n      dup2\n      mstore\n      0x20\n      add\n      0x04\n      dup3\n      add\n      dup1\n      sload\n      tag_461\n      swap1\n      tag_139\n      jump\t// in\n    tag_461:\n      dup1\n      0x1f\n      add\n      0x20\n      dup1\n      swap2\n      div\n      mul\n      0x20\n      add\n      mload(0x40)\n      swap1\n      dup2\n      add\n      0x40\n      mstore\n      dup1\n      swap3\n      swap2\n      swap1\n      dup2\n      dup2\n      mstore\n      0x20\n      add\n      dup3\n      dup1\n      sload\n      tag_462\n      swap1\n      tag_139\n      jump\t// in\n    tag_462:\n      dup1\n      iszero\n      tag_463\n      jumpi\n      dup1\n      0x1f\n      lt\n      tag_464\n      jumpi\n      0x0100\n      dup1\n      dup4\n      sload\n      div\n      mul\n      dup4\n      mstore\n      swap2\n      0x20\n      add\n      swap2\n      jump(tag_463)\n    tag_464:\n      dup3\n      add\n      swap2\n      swap1\n      0x00\n      mstore\n      keccak256(0x00, 0x20)\n      swap1\n    tag_465:\n      dup2\n      sload\n      dup2\n      mstore\n      swap1\n      0x01\n      add\n      swap1\n      0x20\n      add\n      dup1\n      dup4\n      gt\n      tag_465\n      jumpi\n      dup3\n      swap1\n      sub\n      0x1f\n      and\n      dup3\n      add\n      swap2\n    tag_463:\n      pop\n      pop\n      pop\n      pop\n      pop\n      dup2\n      mstore\n      0x20\n      add\n      0x05\n      dup3\n      add\n      0x00\n      swap1\n      sload\n      swap1\n      0x0100\n      exp\n      swap1\n      div\n      0xff\n      and\n      iszero\n      iszero\n      iszero\n      iszero\n      dup2\n      mstore\n      pop\n      pop\n      swap1\n      pop\n        /* \"contracts/no_forma.sol\":11940:11947  project */\n      dup1\n        /* \"contracts/no_forma.sol\":11940:11950  project.id */\n      0x00\n      add\n      mload\n        /* \"contracts/no_forma.sol\":11931:11934  ids */\n      dup10\n        /* \"contracts/no_forma.sol\":11935:11936  i */\n      dup5\n        /* \"contracts/no_forma.sol\":11931:11937  ids[i] */\n      dup2\n      mload\n      dup2\n      lt\n      tag_466\n      jumpi\n      tag_467\n      tag_218\n      jump\t// in\n    tag_467:\n    tag_466:\n      0x20\n      mul\n      0x20\n      add\n      add\n        /* \"contracts/no_forma.sol\":11931:11950  ids[i] = project.id */\n      dup2\n      dup2\n      mstore\n      pop\n      pop\n        /* \"contracts/no_forma.sol\":11975:11982  project */\n      dup1\n        /* \"contracts/no_forma.sol\":11975:11987  project.name */\n      0x20\n      add\n      mload\n        /* \"contracts/no_forma.sol\":11964:11969  names */\n      dup9\n        /* \"contracts/no_forma.sol\":11970:11971  i */\n      dup5\n        /* \"contracts/no_forma.sol\":11964:11972  names[i] */\n      dup2\n      mload\n      dup2\n      lt\n      tag_468\n      jumpi\n      tag_469\n      tag_218\n      jump\t// in\n    tag_469:\n    tag_468:\n      0x20\n      mul\n      0x20\n      add\n      add\n        /* \"contracts/no_forma.sol\":11964:11987  names[i] = project.name */\n      dup2\n      swap1\n      mstore\n      pop\n        /* \"contracts/no_forma.sol\":12020:12027  project */\n      dup1\n        /* \"contracts/no_forma.sol\":12020:12036  project.customer */\n      0x40\n      add\n      mload\n        /* \"contracts/no_forma.sol\":12001:12014  customerNames */\n      dup8\n        /* \"contracts/no_forma.sol\":12015:12016  i */\n      dup5\n        /* \"contracts/no_forma.sol\":12001:12017  customerNames[i] */\n      dup2\n      mload\n      dup2\n      lt\n      tag_470\n      jumpi\n      tag_471\n      tag_218\n      jump\t// in\n    tag_471:\n    tag_470:\n      0x20\n      mul\n      0x20\n      add\n      add\n        /* \"contracts/no_forma.sol\":12001:12036  customerNames[i] = project.customer */\n      dup2\n      swap1\n      mstore\n      pop\n        /* \"contracts/no_forma.sol\":12064:12071  project */\n      dup1\n        /* \"contracts/no_forma.sol\":12064:12078  project.status */\n      0x60\n      add\n      mload\n        /* \"contracts/no_forma.sol\":12050:12058  statuses */\n      dup7\n        /* \"contracts/no_forma.sol\":12059:12060  i */\n      dup5\n        /* \"contracts/no_forma.sol\":12050:12061  statuses[i] */\n      dup2\n      mload\n      dup2\n      lt\n      tag_472\n      jumpi\n      tag_473\n      tag_218\n      jump\t// in\n    tag_473:\n    tag_472:\n      0x20\n      mul\n      0x20\n      add\n      add\n        /* \"contracts/no_forma.sol\":12050:12078  statuses[i] = project.status */\n      dup2\n      swap1\n      mstore\n      pop\n        /* \"contracts/no_forma.sol\":12105:12112  project */\n      dup1\n        /* \"contracts/no_forma.sol\":12105:12120  project.details */\n      0x80\n      add\n      mload\n        /* \"contracts/no_forma.sol\":12092:12099  details */\n      dup6\n        /* \"contracts/no_forma.sol\":12100:12101  i */\n      dup5\n        /* \"contracts/no_forma.sol\":12092:12102  details[i] */\n      dup2\n      mload\n      dup2\n      lt\n      tag_474\n      jumpi\n      tag_475\n      tag_218\n      jump\t// in\n    tag_475:\n    tag_474:\n      0x20\n      mul\n      0x20\n      add\n      add\n        /* \"contracts/no_forma.sol\":12092:12120  details[i] = project.details */\n      dup2\n      swap1\n      mstore\n      pop\n        /* \"contracts/no_forma.sol\":11826:12131  {... */\n      pop\n      pop\n        /* \"contracts/no_forma.sol\":11821:11824  i++ */\n      dup1\n      dup1\n      0x01\n      add\n      swap2\n      pop\n      pop\n        /* \"contracts/no_forma.sol\":11789:12131  for (uint256 i = 0; i < length; i++) {... */\n      jump(tag_440)\n    tag_441:\n      pop\n        /* \"contracts/no_forma.sol\":12149:12202  return (ids, names, customerNames, statuses, details) */\n      pop\n        /* \"contracts/no_forma.sol\":11279:12209  function getAllProjectsWithCustomerInformation() external view returns (... */\n      swap1\n      swap2\n      swap3\n      swap4\n      swap5\n      jump\t// out\n        /* \"contracts/no_forma.sol\":902:935  uint256[] public knowledgeBaseIds */\n    tag_116:\n      0x03\n      dup2\n      dup2\n      sload\n      dup2\n      lt\n      tag_476\n      jumpi\n      0x00\n      dup1\n      revert\n    tag_476:\n      swap1\n      0x00\n      mstore\n      keccak256(0x00, 0x20)\n      add\n      0x00\n      swap2\n      pop\n      swap1\n      pop\n      sload\n      dup2\n      jump\t// out\n        /* \"contracts/no_forma.sol\":7351:7675  function getCustomer(uint256 _id) external view customerExists(_id) returns (... */\n    tag_120:\n        /* \"contracts/no_forma.sol\":7437:7447  uint256 id */\n      0x00\n        /* \"contracts/no_forma.sol\":7457:7475  string memory name */\n      0x60\n        /* \"contracts/no_forma.sol\":7485:7504  string memory email */\n      dup1\n        /* \"contracts/no_forma.sol\":7514:7533  string memory phone */\n      0x60\n        /* \"contracts/no_forma.sol\":7414:7417  _id */\n      dup5\n        /* \"contracts/no_forma.sol\":1930:1939  customers */\n      0x01\n        /* \"contracts/no_forma.sol\":1930:1944  customers[_id] */\n      0x00\n        /* \"contracts/no_forma.sol\":1940:1943  _id */\n      dup3\n        /* \"contracts/no_forma.sol\":1930:1944  customers[_id] */\n      dup2\n      mstore\n      0x20\n      add\n      swap1\n      dup2\n      mstore\n      0x20\n      add\n      0x00\n      keccak256\n        /* \"contracts/no_forma.sol\":1930:1951  customers[_id].exists */\n      0x04\n      add\n      0x00\n      swap1\n      sload\n      swap1\n      0x0100\n      exp\n      swap1\n      div\n      0xff\n      and\n        /* \"contracts/no_forma.sol\":1922:1979  require(customers[_id].exists, \"Customer does not exist\") */\n      tag_479\n      jumpi\n      mload(0x40)\n      0x08c379a000000000000000000000000000000000000000000000000000000000\n      dup2\n      mstore\n      0x04\n      add\n      tag_480\n      swap1\n      tag_251\n      jump\t// in\n    tag_480:\n      mload(0x40)\n      dup1\n      swap2\n      sub\n      swap1\n      revert\n    tag_479:\n        /* \"contracts/no_forma.sol\":7550:7574  Customer memory customer */\n      0x00\n        /* \"contracts/no_forma.sol\":7577:7586  customers */\n      0x01\n        /* \"contracts/no_forma.sol\":7577:7591  customers[_id] */\n      0x00\n        /* \"contracts/no_forma.sol\":7587:7590  _id */\n      dup9\n        /* \"contracts/no_forma.sol\":7577:7591  customers[_id] */\n      dup2\n      mstore\n      0x20\n      add\n      swap1\n      dup2\n      mstore\n      0x20\n      add\n      0x00\n      keccak256\n        /* \"contracts/no_forma.sol\":7550:7591  Customer memory customer = customers[_id] */\n      mload(0x40)\n      dup1\n      0xa0\n      add\n      0x40\n      mstore\n      swap1\n      dup2\n      0x00\n      dup3\n      add\n      sload\n      dup2\n      mstore\n      0x20\n      add\n      0x01\n      dup3\n      add\n      dup1\n      sload\n      tag_482\n      swap1\n      tag_139\n      jump\t// in\n    tag_482:\n      dup1\n      0x1f\n      add\n      0x20\n      dup1\n      swap2\n      div\n      mul\n      0x20\n      add\n      mload(0x40)\n      swap1\n      dup2\n      add\n      0x40\n      mstore\n      dup1\n      swap3\n      swap2\n      swap1\n      dup2\n      dup2\n      mstore\n      0x20\n      add\n      dup3\n      dup1\n      sload\n      tag_483\n      swap1\n      tag_139\n      jump\t// in\n    tag_483:\n      dup1\n      iszero\n      tag_484\n      jumpi\n      dup1\n      0x1f\n      lt\n      tag_485\n      jumpi\n      0x0100\n      dup1\n      dup4\n      sload\n      div\n      mul\n      dup4\n      mstore\n      swap2\n      0x20\n      add\n      swap2\n      jump(tag_484)\n    tag_485:\n      dup3\n      add\n      swap2\n      swap1\n      0x00\n      mstore\n      keccak256(0x00, 0x20)\n      swap1\n    tag_486:\n      dup2\n      sload\n      dup2\n      mstore\n      swap1\n      0x01\n      add\n      swap1\n      0x20\n      add\n      dup1\n      dup4\n      gt\n      tag_486\n      jumpi\n      dup3\n      swap1\n      sub\n      0x1f\n      and\n      dup3\n      add\n      swap2\n    tag_484:\n      pop\n      pop\n      pop\n      pop\n      pop\n      dup2\n      mstore\n      0x20\n      add\n      0x02\n      dup3\n      add\n      dup1\n      sload\n      tag_487\n      swap1\n      tag_139\n      jump\t// in\n    tag_487:\n      dup1\n      0x1f\n      add\n      0x20\n      dup1\n      swap2\n      div\n      mul\n      0x20\n      add\n      mload(0x40)\n      swap1\n      dup2\n      add\n      0x40\n      mstore\n      dup1\n      swap3\n      swap2\n      swap1\n      dup2\n      dup2\n      mstore\n      0x20\n      add\n      dup3\n      dup1\n      sload\n      tag_488\n      swap1\n      tag_139\n      jump\t// in\n    tag_488:\n      dup1\n      iszero\n      tag_489\n      jumpi\n      dup1\n      0x1f\n      lt\n      tag_490\n      jumpi\n      0x0100\n      dup1\n      dup4\n      sload\n      div\n      mul\n      dup4\n      mstore\n      swap2\n      0x20\n      add\n      swap2\n      jump(tag_489)\n    tag_490:\n      dup3\n      add\n      swap2\n      swap1\n      0x00\n      mstore\n      keccak256(0x00, 0x20)\n      swap1\n    tag_491:\n      dup2\n      sload\n      dup2\n      mstore\n      swap1\n      0x01\n      add\n      swap1\n      0x20\n      add\n      dup1\n      dup4\n      gt\n      tag_491\n      jumpi\n      dup3\n      swap1\n      sub\n      0x1f\n      and\n      dup3\n      add\n      swap2\n    tag_489:\n      pop\n      pop\n      pop\n      pop\n      pop\n      dup2\n      mstore\n      0x20\n      add\n      0x03\n      dup3\n      add\n      dup1\n      sload\n      tag_492\n      swap1\n      tag_139\n      jump\t// in\n    tag_492:\n      dup1\n      0x1f\n      add\n      0x20\n      dup1\n      swap2\n      div\n      mul\n      0x20\n      add\n      mload(0x40)\n      swap1\n      dup2\n      add\n      0x40\n      mstore\n      dup1\n      swap3\n      swap2\n      swap1\n      dup2\n      dup2\n      mstore\n      0x20\n      add\n      dup3\n      dup1\n      sload\n      tag_493\n      swap1\n      tag_139\n      jump\t// in\n    tag_493:\n      dup1\n      iszero\n      tag_494\n      jumpi\n      dup1\n      0x1f\n      lt\n      tag_495\n      jumpi\n      0x0100\n      dup1\n      dup4\n      sload\n      div\n      mul\n      dup4\n      mstore\n      swap2\n      0x20\n      add\n      swap2\n      jump(tag_494)\n    tag_495:\n      dup3\n      add\n      swap2\n      swap1\n      0x00\n      mstore\n      keccak256(0x00, 0x20)\n      swap1\n    tag_496:\n      dup2\n      sload\n      dup2\n      mstore\n      swap1\n      0x01\n      add\n      swap1\n      0x20\n      add\n      dup1\n      dup4\n      gt\n      tag_496\n      jumpi\n      dup3\n      swap1\n      sub\n      0x1f\n      and\n      dup3\n      add\n      swap2\n    tag_494:\n      pop\n      pop\n      pop\n      pop\n      pop\n      dup2\n      mstore\n      0x20\n      add\n      0x04\n      dup3\n      add\n      0x00\n      swap1\n      sload\n      swap1\n      0x0100\n      exp\n      swap1\n      div\n      0xff\n      and\n      iszero\n      iszero\n      iszero\n      iszero\n      dup2\n      mstore\n      pop\n      pop\n      swap1\n      pop\n        /* \"contracts/no_forma.sol\":7609:7617  customer */\n      dup1\n        /* \"contracts/no_forma.sol\":7609:7620  customer.id */\n      0x00\n      add\n      mload\n        /* \"contracts/no_forma.sol\":7622:7630  customer */\n      dup2\n        /* \"contracts/no_forma.sol\":7622:7635  customer.name */\n      0x20\n      add\n      mload\n        /* \"contracts/no_forma.sol\":7637:7645  customer */\n      dup3\n        /* \"contracts/no_forma.sol\":7637:7651  customer.email */\n      0x40\n      add\n      mload\n        /* \"contracts/no_forma.sol\":7653:7661  customer */\n      dup4\n        /* \"contracts/no_forma.sol\":7653:7667  customer.phone */\n      0x60\n      add\n      mload\n        /* \"contracts/no_forma.sol\":7601:7668  return (customer.id, customer.name, customer.email, customer.phone) */\n      swap6\n      pop\n      swap6\n      pop\n      swap6\n      pop\n      swap6\n      pop\n      pop\n        /* \"contracts/no_forma.sol\":7351:7675  function getCustomer(uint256 _id) external view customerExists(_id) returns (... */\n      pop\n      swap2\n      swap4\n      pop\n      swap2\n      swap4\n      jump\t// out\n        /* \"contracts/no_forma.sol\":6289:6790  function updateCustomer(... */\n    tag_124:\n        /* \"contracts/no_forma.sol\":6453:6456  _id */\n      dup4\n        /* \"contracts/no_forma.sol\":1930:1939  customers */\n      0x01\n        /* \"contracts/no_forma.sol\":1930:1944  customers[_id] */\n      0x00\n        /* \"contracts/no_forma.sol\":1940:1943  _id */\n      dup3\n        /* \"contracts/no_forma.sol\":1930:1944  customers[_id] */\n      dup2\n      mstore\n      0x20\n      add\n      swap1\n      dup2\n      mstore\n      0x20\n      add\n      0x00\n      keccak256\n        /* \"contracts/no_forma.sol\":1930:1951  customers[_id].exists */\n      0x04\n      add\n      0x00\n      swap1\n      sload\n      swap1\n      0x0100\n      exp\n      swap1\n      div\n      0xff\n      and\n        /* \"contracts/no_forma.sol\":1922:1979  require(customers[_id].exists, \"Customer does not exist\") */\n      tag_498\n      jumpi\n      mload(0x40)\n      0x08c379a000000000000000000000000000000000000000000000000000000000\n      dup2\n      mstore\n      0x04\n      add\n      tag_499\n      swap1\n      tag_251\n      jump\t// in\n    tag_499:\n      mload(0x40)\n      dup1\n      swap2\n      sub\n      swap1\n      revert\n    tag_498:\n        /* \"contracts/no_forma.sol\":6498:6499  0 */\n      0x00\n        /* \"contracts/no_forma.sol\":6482:6487  _name */\n      dup5\n        /* \"contracts/no_forma.sol\":6476:6495  bytes(_name).length */\n      mload\n        /* \"contracts/no_forma.sol\":6476:6499  bytes(_name).length > 0 */\n      gt\n        /* \"contracts/no_forma.sol\":6468:6524  require(bytes(_name).length > 0, \"Name cannot be empty\") */\n      tag_501\n      jumpi\n      mload(0x40)\n      0x08c379a000000000000000000000000000000000000000000000000000000000\n      dup2\n      mstore\n      0x04\n      add\n      tag_502\n      swap1\n      tag_238\n      jump\t// in\n    tag_502:\n      mload(0x40)\n      dup1\n      swap2\n      sub\n      swap1\n      revert\n    tag_501:\n        /* \"contracts/no_forma.sol\":6565:6566  0 */\n      0x00\n        /* \"contracts/no_forma.sol\":6548:6554  _email */\n      dup4\n        /* \"contracts/no_forma.sol\":6542:6562  bytes(_email).length */\n      mload\n        /* \"contracts/no_forma.sol\":6542:6566  bytes(_email).length > 0 */\n      gt\n        /* \"contracts/no_forma.sol\":6534:6592  require(bytes(_email).length > 0, \"Email cannot be empty\") */\n      tag_503\n      jumpi\n      mload(0x40)\n      0x08c379a000000000000000000000000000000000000000000000000000000000\n      dup2\n      mstore\n      0x04\n      add\n      tag_504\n      swap1\n      tag_241\n      jump\t// in\n    tag_504:\n      mload(0x40)\n      dup1\n      swap2\n      sub\n      swap1\n      revert\n    tag_503:\n        /* \"contracts/no_forma.sol\":6633:6638  _name */\n      dup4\n        /* \"contracts/no_forma.sol\":6611:6620  customers */\n      0x01\n        /* \"contracts/no_forma.sol\":6611:6625  customers[_id] */\n      0x00\n        /* \"contracts/no_forma.sol\":6621:6624  _id */\n      dup8\n        /* \"contracts/no_forma.sol\":6611:6625  customers[_id] */\n      dup2\n      mstore\n      0x20\n      add\n      swap1\n      dup2\n      mstore\n      0x20\n      add\n      0x00\n      keccak256\n        /* \"contracts/no_forma.sol\":6611:6630  customers[_id].name */\n      0x01\n      add\n        /* \"contracts/no_forma.sol\":6611:6638  customers[_id].name = _name */\n      swap1\n      dup2\n      tag_505\n      swap2\n      swap1\n      tag_182\n      jump\t// in\n    tag_505:\n      pop\n        /* \"contracts/no_forma.sol\":6671:6677  _email */\n      dup3\n        /* \"contracts/no_forma.sol\":6648:6657  customers */\n      0x01\n        /* \"contracts/no_forma.sol\":6648:6662  customers[_id] */\n      0x00\n        /* \"contracts/no_forma.sol\":6658:6661  _id */\n      dup8\n        /* \"contracts/no_forma.sol\":6648:6662  customers[_id] */\n      dup2\n      mstore\n      0x20\n      add\n      swap1\n      dup2\n      mstore\n      0x20\n      add\n      0x00\n      keccak256\n        /* \"contracts/no_forma.sol\":6648:6668  customers[_id].email */\n      0x02\n      add\n        /* \"contracts/no_forma.sol\":6648:6677  customers[_id].email = _email */\n      swap1\n      dup2\n      tag_506\n      swap2\n      swap1\n      tag_182\n      jump\t// in\n    tag_506:\n      pop\n        /* \"contracts/no_forma.sol\":6710:6716  _phone */\n      dup2\n        /* \"contracts/no_forma.sol\":6687:6696  customers */\n      0x01\n        /* \"contracts/no_forma.sol\":6687:6701  customers[_id] */\n      0x00\n        /* \"contracts/no_forma.sol\":6697:6700  _id */\n      dup8\n        /* \"contracts/no_forma.sol\":6687:6701  customers[_id] */\n      dup2\n      mstore\n      0x20\n      add\n      swap1\n      dup2\n      mstore\n      0x20\n      add\n      0x00\n      keccak256\n        /* \"contracts/no_forma.sol\":6687:6707  customers[_id].phone */\n      0x03\n      add\n        /* \"contracts/no_forma.sol\":6687:6716  customers[_id].phone = _phone */\n      swap1\n      dup2\n      tag_507\n      swap2\n      swap1\n      tag_182\n      jump\t// in\n    tag_507:\n      pop\n        /* \"contracts/no_forma.sol\":6756:6759  _id */\n      dup5\n        /* \"contracts/no_forma.sol\":6740:6783  CustomerUpdated(_id, _name, _email, _phone) */\n      0xcb9333b4d858a1c4fec6e4d81b483c71e36b773d592ce66502440fa84f5e1b79\n        /* \"contracts/no_forma.sol\":6761:6766  _name */\n      dup6\n        /* \"contracts/no_forma.sol\":6768:6774  _email */\n      dup6\n        /* \"contracts/no_forma.sol\":6776:6782  _phone */\n      dup6\n        /* \"contracts/no_forma.sol\":6740:6783  CustomerUpdated(_id, _name, _email, _phone) */\n      mload(0x40)\n      tag_508\n      swap4\n      swap3\n      swap2\n      swap1\n      tag_247\n      jump\t// in\n    tag_508:\n      mload(0x40)\n      dup1\n      swap2\n      sub\n      swap1\n      log2\n        /* \"contracts/no_forma.sol\":6289:6790  function updateCustomer(... */\n      pop\n      pop\n      pop\n      pop\n      pop\n      jump\t// out\n        /* \"contracts/no_forma.sol\":3593:4088  function deleteKnowledgeBase(uint256 _id) external knowledgeBaseExists(_id) {... */\n    tag_127:\n        /* \"contracts/no_forma.sol\":3664:3667  _id */\n      dup1\n        /* \"contracts/no_forma.sol\":1782:1795  knowledgeBase */\n      0x00\n        /* \"contracts/no_forma.sol\":1782:1800  knowledgeBase[_id] */\n      0x00\n        /* \"contracts/no_forma.sol\":1796:1799  _id */\n      dup3\n        /* \"contracts/no_forma.sol\":1782:1800  knowledgeBase[_id] */\n      dup2\n      mstore\n      0x20\n      add\n      swap1\n      dup2\n      mstore\n      0x20\n      add\n      0x00\n      keccak256\n        /* \"contracts/no_forma.sol\":1782:1807  knowledgeBase[_id].exists */\n      0x04\n      add\n      0x00\n      swap1\n      sload\n      swap1\n      0x0100\n      exp\n      swap1\n      div\n      0xff\n      and\n        /* \"contracts/no_forma.sol\":1774:1847  require(knowledgeBase[_id].exists, \"Knowledge base entry does not exist\") */\n      tag_510\n      jumpi\n      mload(0x40)\n      0x08c379a000000000000000000000000000000000000000000000000000000000\n      dup2\n      mstore\n      0x04\n      add\n      tag_511\n      swap1\n      tag_136\n      jump\t// in\n    tag_511:\n      mload(0x40)\n      dup1\n      swap2\n      sub\n      swap1\n      revert\n    tag_510:\n        /* \"contracts/no_forma.sol\":3707:3712  false */\n      0x00\n        /* \"contracts/no_forma.sol\":3679:3692  knowledgeBase */\n      0x00\n        /* \"contracts/no_forma.sol\":3679:3697  knowledgeBase[_id] */\n      0x00\n        /* \"contracts/no_forma.sol\":3693:3696  _id */\n      dup5\n        /* \"contracts/no_forma.sol\":3679:3697  knowledgeBase[_id] */\n      dup2\n      mstore\n      0x20\n      add\n      swap1\n      dup2\n      mstore\n      0x20\n      add\n      0x00\n      keccak256\n        /* \"contracts/no_forma.sol\":3679:3704  knowledgeBase[_id].exists */\n      0x04\n      add\n      0x00\n        /* \"contracts/no_forma.sol\":3679:3712  knowledgeBase[_id].exists = false */\n      0x0100\n      exp\n      dup2\n      sload\n      dup2\n      0xff\n      mul\n      not\n      and\n      swap1\n      dup4\n      iszero\n      iszero\n      mul\n      or\n      swap1\n      sstore\n      pop\n        /* \"contracts/no_forma.sol\":3765:3774  uint256 i */\n      0x00\n        /* \"contracts/no_forma.sol\":3777:3778  0 */\n      0x00\n        /* \"contracts/no_forma.sol\":3765:3778  uint256 i = 0 */\n      swap1\n      pop\n        /* \"contracts/no_forma.sol\":3760:4033  for (uint256 i = 0; i < knowledgeBaseIds.length; i++) {... */\n    tag_513:\n        /* \"contracts/no_forma.sol\":3784:3800  knowledgeBaseIds */\n      0x03\n        /* \"contracts/no_forma.sol\":3784:3807  knowledgeBaseIds.length */\n      dup1\n      sload\n      swap1\n      pop\n        /* \"contracts/no_forma.sol\":3780:3781  i */\n      dup2\n        /* \"contracts/no_forma.sol\":3780:3807  i < knowledgeBaseIds.length */\n      lt\n        /* \"contracts/no_forma.sol\":3760:4033  for (uint256 i = 0; i < knowledgeBaseIds.length; i++) {... */\n      iszero\n      tag_514\n      jumpi\n        /* \"contracts/no_forma.sol\":3855:3858  _id */\n      dup3\n        /* \"contracts/no_forma.sol\":3832:3848  knowledgeBaseIds */\n      0x03\n        /* \"contracts/no_forma.sol\":3849:3850  i */\n      dup3\n        /* \"contracts/no_forma.sol\":3832:3851  knowledgeBaseIds[i] */\n      dup2\n      sload\n      dup2\n      lt\n      tag_516\n      jumpi\n      tag_517\n      tag_218\n      jump\t// in\n    tag_517:\n    tag_516:\n      swap1\n      0x00\n      mstore\n      keccak256(0x00, 0x20)\n      add\n      sload\n        /* \"contracts/no_forma.sol\":3832:3858  knowledgeBaseIds[i] == _id */\n      sub\n        /* \"contracts/no_forma.sol\":3828:4023  if (knowledgeBaseIds[i] == _id) {... */\n      tag_519\n      jumpi\n        /* \"contracts/no_forma.sol\":3900:3916  knowledgeBaseIds */\n      0x03\n        /* \"contracts/no_forma.sol\":3943:3944  1 */\n      0x01\n        /* \"contracts/no_forma.sol\":3917:3933  knowledgeBaseIds */\n      0x03\n        /* \"contracts/no_forma.sol\":3917:3940  knowledgeBaseIds.length */\n      dup1\n      sload\n      swap1\n      pop\n        /* \"contracts/no_forma.sol\":3917:3944  knowledgeBaseIds.length - 1 */\n      tag_520\n      swap2\n      swap1\n      tag_222\n      jump\t// in\n    tag_520:\n        /* \"contracts/no_forma.sol\":3900:3945  knowledgeBaseIds[knowledgeBaseIds.length - 1] */\n      dup2\n      sload\n      dup2\n      lt\n      tag_521\n      jumpi\n      tag_522\n      tag_218\n      jump\t// in\n    tag_522:\n    tag_521:\n      swap1\n      0x00\n      mstore\n      keccak256(0x00, 0x20)\n      add\n      sload\n        /* \"contracts/no_forma.sol\":3878:3894  knowledgeBaseIds */\n      0x03\n        /* \"contracts/no_forma.sol\":3895:3896  i */\n      dup3\n        /* \"contracts/no_forma.sol\":3878:3897  knowledgeBaseIds[i] */\n      dup2\n      sload\n      dup2\n      lt\n      tag_524\n      jumpi\n      tag_525\n      tag_218\n      jump\t// in\n    tag_525:\n    tag_524:\n      swap1\n      0x00\n      mstore\n      keccak256(0x00, 0x20)\n      add\n        /* \"contracts/no_forma.sol\":3878:3945  knowledgeBaseIds[i] = knowledgeBaseIds[knowledgeBaseIds.length - 1] */\n      dup2\n      swap1\n      sstore\n      pop\n        /* \"contracts/no_forma.sol\":3963:3979  knowledgeBaseIds */\n      0x03\n        /* \"contracts/no_forma.sol\":3963:3985  knowledgeBaseIds.pop() */\n      dup1\n      sload\n      dup1\n      tag_527\n      jumpi\n      tag_528\n      tag_231\n      jump\t// in\n    tag_528:\n    tag_527:\n      0x01\n      swap1\n      sub\n      dup2\n      dup2\n      swap1\n      0x00\n      mstore\n      keccak256(0x00, 0x20)\n      add\n      0x00\n      swap1\n      sstore\n      swap1\n      sstore\n        /* \"contracts/no_forma.sol\":4003:4008  break */\n      jump(tag_514)\n        /* \"contracts/no_forma.sol\":3828:4023  if (knowledgeBaseIds[i] == _id) {... */\n    tag_519:\n        /* \"contracts/no_forma.sol\":3809:3812  i++ */\n      dup1\n      dup1\n      0x01\n      add\n      swap2\n      pop\n      pop\n        /* \"contracts/no_forma.sol\":3760:4033  for (uint256 i = 0; i < knowledgeBaseIds.length; i++) {... */\n      jump(tag_513)\n    tag_514:\n      pop\n        /* \"contracts/no_forma.sol\":4077:4080  _id */\n      dup2\n        /* \"contracts/no_forma.sol\":4056:4081  KnowledgeBaseDeleted(_id) */\n      0xabc90ef5b12a4de5ce7771ffcdf78da9a15b9e38c4561012cd9bbc3dfa35476d\n      mload(0x40)\n      mload(0x40)\n      dup1\n      swap2\n      sub\n      swap1\n      log2\n        /* \"contracts/no_forma.sol\":3593:4088  function deleteKnowledgeBase(uint256 _id) external knowledgeBaseExists(_id) {... */\n      pop\n      pop\n      jump\t// out\n        /* \"contracts/no_forma.sol\":10666:11037  function getProject(uint256 _id) external view projectExists(_id) returns (... */\n    tag_130:\n        /* \"contracts/no_forma.sol\":10750:10760  uint256 id */\n      0x00\n        /* \"contracts/no_forma.sol\":10770:10788  string memory name */\n      0x60\n        /* \"contracts/no_forma.sol\":10798:10820  string memory customer */\n      dup1\n        /* \"contracts/no_forma.sol\":10830:10850  string memory status */\n      0x60\n        /* \"contracts/no_forma.sol\":10860:10881  string memory details */\n      dup1\n        /* \"contracts/no_forma.sol\":10727:10730  _id */\n      dup6\n        /* \"contracts/no_forma.sol\":2061:2069  projects */\n      0x02\n        /* \"contracts/no_forma.sol\":2061:2074  projects[_id] */\n      0x00\n        /* \"contracts/no_forma.sol\":2070:2073  _id */\n      dup3\n        /* \"contracts/no_forma.sol\":2061:2074  projects[_id] */\n      dup2\n      mstore\n      0x20\n      add\n      swap1\n      dup2\n      mstore\n      0x20\n      add\n      0x00\n      keccak256\n        /* \"contracts/no_forma.sol\":2061:2081  projects[_id].exists */\n      0x05\n      add\n      0x00\n      swap1\n      sload\n      swap1\n      0x0100\n      exp\n      swap1\n      div\n      0xff\n      and\n        /* \"contracts/no_forma.sol\":2053:2108  require(projects[_id].exists, \"Project does not exist\") */\n      tag_531\n      jumpi\n      mload(0x40)\n      0x08c379a000000000000000000000000000000000000000000000000000000000\n      dup2\n      mstore\n      0x04\n      add\n      tag_532\n      swap1\n      tag_211\n      jump\t// in\n    tag_532:\n      mload(0x40)\n      dup1\n      swap2\n      sub\n      swap1\n      revert\n    tag_531:\n        /* \"contracts/no_forma.sol\":10898:10920  Project memory project */\n      0x00\n        /* \"contracts/no_forma.sol\":10923:10931  projects */\n      0x02\n        /* \"contracts/no_forma.sol\":10923:10936  projects[_id] */\n      0x00\n        /* \"contracts/no_forma.sol\":10932:10935  _id */\n      dup10\n        /* \"contracts/no_forma.sol\":10923:10936  projects[_id] */\n      dup2\n      mstore\n      0x20\n      add\n      swap1\n      dup2\n      mstore\n      0x20\n      add\n      0x00\n      keccak256\n        /* \"contracts/no_forma.sol\":10898:10936  Project memory project = projects[_id] */\n      mload(0x40)\n      dup1\n      0xc0\n      add\n      0x40\n      mstore\n      swap1\n      dup2\n      0x00\n      dup3\n      add\n      sload\n      dup2\n      mstore\n      0x20\n      add\n      0x01\n      dup3\n      add\n      dup1\n      sload\n      tag_534\n      swap1\n      tag_139\n      jump\t// in\n    tag_534:\n      dup1\n      0x1f\n      add\n      0x20\n      dup1\n      swap2\n      div\n      mul\n      0x20\n      add\n      mload(0x40)\n      swap1\n      dup2\n      add\n      0x40\n      mstore\n      dup1\n      swap3\n      swap2\n      swap1\n      dup2\n      dup2\n      mstore\n      0x20\n      add\n      dup3\n      dup1\n      sload\n      tag_535\n      swap1\n      tag_139\n      jump\t// in\n    tag_535:\n      dup1\n      iszero\n      tag_536\n      jumpi\n      dup1\n      0x1f\n      lt\n      tag_537\n      jumpi\n      0x0100\n      dup1\n      dup4\n      sload\n      div\n      mul\n      dup4\n      mstore\n      swap2\n      0x20\n      add\n      swap2\n      jump(tag_536)\n    tag_537:\n      dup3\n      add\n      swap2\n      swap1\n      0x00\n      mstore\n      keccak256(0x00, 0x20)\n      swap1\n    tag_538:\n      dup2\n      sload\n      dup2\n      mstore\n      swap1\n      0x01\n      add\n      swap1\n      0x20\n      add\n      dup1\n      dup4\n      gt\n      tag_538\n      jumpi\n      dup3\n      swap1\n      sub\n      0x1f\n      and\n      dup3\n      add\n      swap2\n    tag_536:\n      pop\n      pop\n      pop\n      pop\n      pop\n      dup2\n      mstore\n      0x20\n      add\n      0x02\n      dup3\n      add\n      dup1\n      sload\n      tag_539\n      swap1\n      tag_139\n      jump\t// in\n    tag_539:\n      dup1\n      0x1f\n      add\n      0x20\n      dup1\n      swap2\n      div\n      mul\n      0x20\n      add\n      mload(0x40)\n      swap1\n      dup2\n      add\n      0x40\n      mstore\n      dup1\n      swap3\n      swap2\n      swap1\n      dup2\n      dup2\n      mstore\n      0x20\n      add\n      dup3\n      dup1\n      sload\n      tag_540\n      swap1\n      tag_139\n      jump\t// in\n    tag_540:\n      dup1\n      iszero\n      tag_541\n      jumpi\n      dup1\n      0x1f\n      lt\n      tag_542\n      jumpi\n      0x0100\n      dup1\n      dup4\n      sload\n      div\n      mul\n      dup4\n      mstore\n      swap2\n      0x20\n      add\n      swap2\n      jump(tag_541)\n    tag_542:\n      dup3\n      add\n      swap2\n      swap1\n      0x00\n      mstore\n      keccak256(0x00, 0x20)\n      swap1\n    tag_543:\n      dup2\n      sload\n      dup2\n      mstore\n      swap1\n      0x01\n      add\n      swap1\n      0x20\n      add\n      dup1\n      dup4\n      gt\n      tag_543\n      jumpi\n      dup3\n      swap1\n      sub\n      0x1f\n      and\n      dup3\n      add\n      swap2\n    tag_541:\n      pop\n      pop\n      pop\n      pop\n      pop\n      dup2\n      mstore\n      0x20\n      add\n      0x03\n      dup3\n      add\n      dup1\n      sload\n      tag_544\n      swap1\n      tag_139\n      jump\t// in\n    tag_544:\n      dup1\n      0x1f\n      add\n      0x20\n      dup1\n      swap2\n      div\n      mul\n      0x20\n      add\n      mload(0x40)\n      swap1\n      dup2\n      add\n      0x40\n      mstore\n      dup1\n      swap3\n      swap2\n      swap1\n      dup2\n      dup2\n      mstore\n      0x20\n      add\n      dup3\n      dup1\n      sload\n      tag_545\n      swap1\n      tag_139\n      jump\t// in\n    tag_545:\n      dup1\n      iszero\n      tag_546\n      jumpi\n      dup1\n      0x1f\n      lt\n      tag_547\n      jumpi\n      0x0100\n      dup1\n      dup4\n      sload\n      div\n      mul\n      dup4\n      mstore\n      swap2\n      0x20\n      add\n      swap2\n      jump(tag_546)\n    tag_547:\n      dup3\n      add\n      swap2\n      swap1\n      0x00\n      mstore\n      keccak256(0x00, 0x20)\n      swap1\n    tag_548:\n      dup2\n      sload\n      dup2\n      mstore\n      swap1\n      0x01\n      add\n      swap1\n      0x20\n      add\n      dup1\n      dup4\n      gt\n      tag_548\n      jumpi\n      dup3\n      swap1\n      sub\n      0x1f\n      and\n      dup3\n      add\n      swap2\n    tag_546:\n      pop\n      pop\n      pop\n      pop\n      pop\n      dup2\n      mstore\n      0x20\n      add\n      0x04\n      dup3\n      add\n      dup1\n      sload\n      tag_549\n      swap1\n      tag_139\n      jump\t// in\n    tag_549:\n      dup1\n      0x1f\n      add\n      0x20\n      dup1\n      swap2\n      div\n      mul\n      0x20\n      add\n      mload(0x40)\n      swap1\n      dup2\n      add\n      0x40\n      mstore\n      dup1\n      swap3\n      swap2\n      swap1\n      dup2\n      dup2\n      mstore\n      0x20\n      add\n      dup3\n      dup1\n      sload\n      tag_550\n      swap1\n      tag_139\n      jump\t// in\n    tag_550:\n      dup1\n      iszero\n      tag_551\n      jumpi\n      dup1\n      0x1f\n      lt\n      tag_552\n      jumpi\n      0x0100\n      dup1\n      dup4\n      sload\n      div\n      mul\n      dup4\n      mstore\n      swap2\n      0x20\n      add\n      swap2\n      jump(tag_551)\n    tag_552:\n      dup3\n      add\n      swap2\n      swap1\n      0x00\n      mstore\n      keccak256(0x00, 0x20)\n      swap1\n    tag_553:\n      dup2\n      sload\n      dup2\n      mstore\n      swap1\n      0x01\n      add\n      swap1\n      0x20\n      add\n      dup1\n      dup4\n      gt\n      tag_553\n      jumpi\n      dup3\n      swap1\n      sub\n      0x1f\n      and\n      dup3\n      add\n      swap2\n    tag_551:\n      pop\n      pop\n      pop\n      pop\n      pop\n      dup2\n      mstore\n      0x20\n      add\n      0x05\n      dup3\n      add\n      0x00\n      swap1\n      sload\n      swap1\n      0x0100\n      exp\n      swap1\n      div\n      0xff\n      and\n      iszero\n      iszero\n      iszero\n      iszero\n      dup2\n      mstore\n      pop\n      pop\n      swap1\n      pop\n        /* \"contracts/no_forma.sol\":10954:10961  project */\n      dup1\n        /* \"contracts/no_forma.sol\":10954:10964  project.id */\n      0x00\n      add\n      mload\n        /* \"contracts/no_forma.sol\":10966:10973  project */\n      dup2\n        /* \"contracts/no_forma.sol\":10966:10978  project.name */\n      0x20\n      add\n      mload\n        /* \"contracts/no_forma.sol\":10980:10987  project */\n      dup3\n        /* \"contracts/no_forma.sol\":10980:10996  project.customer */\n      0x40\n      add\n      mload\n        /* \"contracts/no_forma.sol\":10998:11005  project */\n      dup4\n        /* \"contracts/no_forma.sol\":10998:11012  project.status */\n      0x60\n      add\n      mload\n        /* \"contracts/no_forma.sol\":11014:11021  project */\n      dup5\n        /* \"contracts/no_forma.sol\":11014:11029  project.details */\n      0x80\n      add\n      mload\n        /* \"contracts/no_forma.sol\":10946:11030  return (project.id, project.name, project.customer, project.status, project.details) */\n      swap7\n      pop\n      swap7\n      pop\n      swap7\n      pop\n      swap7\n      pop\n      swap7\n      pop\n      pop\n        /* \"contracts/no_forma.sol\":10666:11037  function getProject(uint256 _id) external view projectExists(_id) returns (... */\n      pop\n      swap2\n      swap4\n      swap6\n      swap1\n      swap3\n      swap5\n      pop\n      jump\t// out\n        /* \"#utility.yul\":7:82   */\n    tag_554:\n        /* \"#utility.yul\":40:46   */\n      0x00\n        /* \"#utility.yul\":73:75   */\n      0x40\n        /* \"#utility.yul\":67:76   */\n      mload\n        /* \"#utility.yul\":57:76   */\n      swap1\n      pop\n        /* \"#utility.yul\":7:82   */\n      swap1\n      jump\t// out\n        /* \"#utility.yul\":88:205   */\n    tag_555:\n        /* \"#utility.yul\":197:198   */\n      0x00\n        /* \"#utility.yul\":194:195   */\n      0x00\n        /* \"#utility.yul\":187:199   */\n      revert\n        /* \"#utility.yul\":211:328   */\n    tag_556:\n        /* \"#utility.yul\":320:321   */\n      0x00\n        /* \"#utility.yul\":317:318   */\n      0x00\n        /* \"#utility.yul\":310:322   */\n      revert\n        /* \"#utility.yul\":334:411   */\n    tag_557:\n        /* \"#utility.yul\":371:378   */\n      0x00\n        /* \"#utility.yul\":400:405   */\n      dup2\n        /* \"#utility.yul\":389:405   */\n      swap1\n      pop\n        /* \"#utility.yul\":334:411   */\n      swap2\n      swap1\n      pop\n      jump\t// out\n        /* \"#utility.yul\":417:539   */\n    tag_558:\n        /* \"#utility.yul\":490:514   */\n      tag_630\n        /* \"#utility.yul\":508:513   */\n      dup2\n        /* \"#utility.yul\":490:514   */\n      tag_557\n      jump\t// in\n    tag_630:\n        /* \"#utility.yul\":483:488   */\n      dup2\n        /* \"#utility.yul\":480:515   */\n      eq\n        /* \"#utility.yul\":470:533   */\n      tag_631\n      jumpi\n        /* \"#utility.yul\":529:530   */\n      0x00\n        /* \"#utility.yul\":526:527   */\n      0x00\n        /* \"#utility.yul\":519:531   */\n      revert\n        /* \"#utility.yul\":470:533   */\n    tag_631:\n        /* \"#utility.yul\":417:539   */\n      pop\n      jump\t// out\n        /* \"#utility.yul\":545:684   */\n    tag_559:\n        /* \"#utility.yul\":591:596   */\n      0x00\n        /* \"#utility.yul\":629:635   */\n      dup2\n        /* \"#utility.yul\":616:636   */\n      calldataload\n        /* \"#utility.yul\":607:636   */\n      swap1\n      pop\n        /* \"#utility.yul\":645:678   */\n      tag_633\n        /* \"#utility.yul\":672:677   */\n      dup2\n        /* \"#utility.yul\":645:678   */\n      tag_558\n      jump\t// in\n    tag_633:\n        /* \"#utility.yul\":545:684   */\n      swap3\n      swap2\n      pop\n      pop\n      jump\t// out\n        /* \"#utility.yul\":690:1019   */\n    tag_34:\n        /* \"#utility.yul\":749:755   */\n      0x00\n        /* \"#utility.yul\":798:800   */\n      0x20\n        /* \"#utility.yul\":786:795   */\n      dup3\n        /* \"#utility.yul\":777:784   */\n      dup5\n        /* \"#utility.yul\":773:796   */\n      sub\n        /* \"#utility.yul\":769:801   */\n      slt\n        /* \"#utility.yul\":766:885   */\n      iszero\n      tag_635\n      jumpi\n        /* \"#utility.yul\":804:883   */\n      tag_636\n      tag_555\n      jump\t// in\n    tag_636:\n        /* \"#utility.yul\":766:885   */\n    tag_635:\n        /* \"#utility.yul\":924:925   */\n      0x00\n        /* \"#utility.yul\":949:1002   */\n      tag_637\n        /* \"#utility.yul\":994:1001   */\n      dup5\n        /* \"#utility.yul\":985:991   */\n      dup3\n        /* \"#utility.yul\":974:983   */\n      dup6\n        /* \"#utility.yul\":970:992   */\n      add\n        /* \"#utility.yul\":949:1002   */\n      tag_559\n      jump\t// in\n    tag_637:\n        /* \"#utility.yul\":939:1002   */\n      swap2\n      pop\n        /* \"#utility.yul\":895:1012   */\n      pop\n        /* \"#utility.yul\":690:1019   */\n      swap3\n      swap2\n      pop\n      pop\n      jump\t// out\n        /* \"#utility.yul\":1025:1143   */\n    tag_560:\n        /* \"#utility.yul\":1112:1136   */\n      tag_639\n        /* \"#utility.yul\":1130:1135   */\n      dup2\n        /* \"#utility.yul\":1112:1136   */\n      tag_557\n      jump\t// in\n    tag_639:\n        /* \"#utility.yul\":1107:1110   */\n      dup3\n        /* \"#utility.yul\":1100:1137   */\n      mstore\n        /* \"#utility.yul\":1025:1143   */\n      pop\n      pop\n      jump\t// out\n        /* \"#utility.yul\":1149:1248   */\n    tag_561:\n        /* \"#utility.yul\":1201:1207   */\n      0x00\n        /* \"#utility.yul\":1235:1240   */\n      dup2\n        /* \"#utility.yul\":1229:1241   */\n      mload\n        /* \"#utility.yul\":1219:1241   */\n      swap1\n      pop\n        /* \"#utility.yul\":1149:1248   */\n      swap2\n      swap1\n      pop\n      jump\t// out\n        /* \"#utility.yul\":1254:1423   */\n    tag_562:\n        /* \"#utility.yul\":1338:1349   */\n      0x00\n        /* \"#utility.yul\":1372:1378   */\n      dup3\n        /* \"#utility.yul\":1367:1370   */\n      dup3\n        /* \"#utility.yul\":1360:1379   */\n      mstore\n        /* \"#utility.yul\":1412:1416   */\n      0x20\n        /* \"#utility.yul\":1407:1410   */\n      dup3\n        /* \"#utility.yul\":1403:1417   */\n      add\n        /* \"#utility.yul\":1388:1417   */\n      swap1\n      pop\n        /* \"#utility.yul\":1254:1423   */\n      swap3\n      swap2\n      pop\n      pop\n      jump\t// out\n        /* \"#utility.yul\":1429:1568   */\n    tag_563:\n        /* \"#utility.yul\":1518:1524   */\n      dup3\n        /* \"#utility.yul\":1513:1516   */\n      dup2\n        /* \"#utility.yul\":1508:1511   */\n      dup4\n        /* \"#utility.yul\":1502:1525   */\n      mcopy\n        /* \"#utility.yul\":1559:1560   */\n      0x00\n        /* \"#utility.yul\":1550:1556   */\n      dup4\n        /* \"#utility.yul\":1545:1548   */\n      dup4\n        /* \"#utility.yul\":1541:1557   */\n      add\n        /* \"#utility.yul\":1534:1561   */\n      mstore\n        /* \"#utility.yul\":1429:1568   */\n      pop\n      pop\n      pop\n      jump\t// out\n        /* \"#utility.yul\":1574:1676   */\n    tag_564:\n        /* \"#utility.yul\":1615:1621   */\n      0x00\n        /* \"#utility.yul\":1666:1668   */\n      0x1f\n        /* \"#utility.yul\":1662:1669   */\n      not\n        /* \"#utility.yul\":1657:1659   */\n      0x1f\n        /* \"#utility.yul\":1650:1655   */\n      dup4\n        /* \"#utility.yul\":1646:1660   */\n      add\n        /* \"#utility.yul\":1642:1670   */\n      and\n        /* \"#utility.yul\":1632:1670   */\n      swap1\n      pop\n        /* \"#utility.yul\":1574:1676   */\n      swap2\n      swap1\n      pop\n      jump\t// out\n        /* \"#utility.yul\":1682:2059   */\n    tag_565:\n        /* \"#utility.yul\":1770:1773   */\n      0x00\n        /* \"#utility.yul\":1798:1837   */\n      tag_645\n        /* \"#utility.yul\":1831:1836   */\n      dup3\n        /* \"#utility.yul\":1798:1837   */\n      tag_561\n      jump\t// in\n    tag_645:\n        /* \"#utility.yul\":1853:1924   */\n      tag_646\n        /* \"#utility.yul\":1917:1923   */\n      dup2\n        /* \"#utility.yul\":1912:1915   */\n      dup6\n        /* \"#utility.yul\":1853:1924   */\n      tag_562\n      jump\t// in\n    tag_646:\n        /* \"#utility.yul\":1846:1924   */\n      swap4\n      pop\n        /* \"#utility.yul\":1933:1998   */\n      tag_647\n        /* \"#utility.yul\":1991:1997   */\n      dup2\n        /* \"#utility.yul\":1986:1989   */\n      dup6\n        /* \"#utility.yul\":1979:1983   */\n      0x20\n        /* \"#utility.yul\":1972:1977   */\n      dup7\n        /* \"#utility.yul\":1968:1984   */\n      add\n        /* \"#utility.yul\":1933:1998   */\n      tag_563\n      jump\t// in\n    tag_647:\n        /* \"#utility.yul\":2023:2052   */\n      tag_648\n        /* \"#utility.yul\":2045:2051   */\n      dup2\n        /* \"#utility.yul\":2023:2052   */\n      tag_564\n      jump\t// in\n    tag_648:\n        /* \"#utility.yul\":2018:2021   */\n      dup5\n        /* \"#utility.yul\":2014:2053   */\n      add\n        /* \"#utility.yul\":2007:2053   */\n      swap2\n      pop\n        /* \"#utility.yul\":1774:2059   */\n      pop\n        /* \"#utility.yul\":1682:2059   */\n      swap3\n      swap2\n      pop\n      pop\n      jump\t// out\n        /* \"#utility.yul\":2065:2891   */\n    tag_37:\n        /* \"#utility.yul\":2302:2306   */\n      0x00\n        /* \"#utility.yul\":2340:2343   */\n      0x80\n        /* \"#utility.yul\":2329:2338   */\n      dup3\n        /* \"#utility.yul\":2325:2344   */\n      add\n        /* \"#utility.yul\":2317:2344   */\n      swap1\n      pop\n        /* \"#utility.yul\":2354:2425   */\n      tag_650\n        /* \"#utility.yul\":2422:2423   */\n      0x00\n        /* \"#utility.yul\":2411:2420   */\n      dup4\n        /* \"#utility.yul\":2407:2424   */\n      add\n        /* \"#utility.yul\":2398:2404   */\n      dup8\n        /* \"#utility.yul\":2354:2425   */\n      tag_560\n      jump\t// in\n    tag_650:\n        /* \"#utility.yul\":2472:2481   */\n      dup2\n        /* \"#utility.yul\":2466:2470   */\n      dup2\n        /* \"#utility.yul\":2462:2482   */\n      sub\n        /* \"#utility.yul\":2457:2459   */\n      0x20\n        /* \"#utility.yul\":2446:2455   */\n      dup4\n        /* \"#utility.yul\":2442:2460   */\n      add\n        /* \"#utility.yul\":2435:2483   */\n      mstore\n        /* \"#utility.yul\":2500:2578   */\n      tag_651\n        /* \"#utility.yul\":2573:2577   */\n      dup2\n        /* \"#utility.yul\":2564:2570   */\n      dup7\n        /* \"#utility.yul\":2500:2578   */\n      tag_565\n      jump\t// in\n    tag_651:\n        /* \"#utility.yul\":2492:2578   */\n      swap1\n      pop\n        /* \"#utility.yul\":2625:2634   */\n      dup2\n        /* \"#utility.yul\":2619:2623   */\n      dup2\n        /* \"#utility.yul\":2615:2635   */\n      sub\n        /* \"#utility.yul\":2610:2612   */\n      0x40\n        /* \"#utility.yul\":2599:2608   */\n      dup4\n        /* \"#utility.yul\":2595:2613   */\n      add\n        /* \"#utility.yul\":2588:2636   */\n      mstore\n        /* \"#utility.yul\":2653:2731   */\n      tag_652\n        /* \"#utility.yul\":2726:2730   */\n      dup2\n        /* \"#utility.yul\":2717:2723   */\n      dup6\n        /* \"#utility.yul\":2653:2731   */\n      tag_565\n      jump\t// in\n    tag_652:\n        /* \"#utility.yul\":2645:2731   */\n      swap1\n      pop\n        /* \"#utility.yul\":2778:2787   */\n      dup2\n        /* \"#utility.yul\":2772:2776   */\n      dup2\n        /* \"#utility.yul\":2768:2788   */\n      sub\n        /* \"#utility.yul\":2763:2765   */\n      0x60\n        /* \"#utility.yul\":2752:2761   */\n      dup4\n        /* \"#utility.yul\":2748:2766   */\n      add\n        /* \"#utility.yul\":2741:2789   */\n      mstore\n        /* \"#utility.yul\":2806:2884   */\n      tag_653\n        /* \"#utility.yul\":2879:2883   */\n      dup2\n        /* \"#utility.yul\":2870:2876   */\n      dup5\n        /* \"#utility.yul\":2806:2884   */\n      tag_565\n      jump\t// in\n    tag_653:\n        /* \"#utility.yul\":2798:2884   */\n      swap1\n      pop\n        /* \"#utility.yul\":2065:2891   */\n      swap6\n      swap5\n      pop\n      pop\n      pop\n      pop\n      pop\n      jump\t// out\n        /* \"#utility.yul\":2897:2987   */\n    tag_566:\n        /* \"#utility.yul\":2931:2938   */\n      0x00\n        /* \"#utility.yul\":2974:2979   */\n      dup2\n        /* \"#utility.yul\":2967:2980   */\n      iszero\n        /* \"#utility.yul\":2960:2981   */\n      iszero\n        /* \"#utility.yul\":2949:2981   */\n      swap1\n      pop\n        /* \"#utility.yul\":2897:2987   */\n      swap2\n      swap1\n      pop\n      jump\t// out\n        /* \"#utility.yul\":2993:3102   */\n    tag_567:\n        /* \"#utility.yul\":3074:3095   */\n      tag_656\n        /* \"#utility.yul\":3089:3094   */\n      dup2\n        /* \"#utility.yul\":3074:3095   */\n      tag_566\n      jump\t// in\n    tag_656:\n        /* \"#utility.yul\":3069:3072   */\n      dup3\n        /* \"#utility.yul\":3062:3096   */\n      mstore\n        /* \"#utility.yul\":2993:3102   */\n      pop\n      pop\n      jump\t// out\n        /* \"#utility.yul\":3108:4235   */\n    tag_42:\n        /* \"#utility.yul\":3415:3419   */\n      0x00\n        /* \"#utility.yul\":3453:3456   */\n      0xc0\n        /* \"#utility.yul\":3442:3451   */\n      dup3\n        /* \"#utility.yul\":3438:3457   */\n      add\n        /* \"#utility.yul\":3430:3457   */\n      swap1\n      pop\n        /* \"#utility.yul\":3467:3538   */\n      tag_658\n        /* \"#utility.yul\":3535:3536   */\n      0x00\n        /* \"#utility.yul\":3524:3533   */\n      dup4\n        /* \"#utility.yul\":3520:3537   */\n      add\n        /* \"#utility.yul\":3511:3517   */\n      dup10\n        /* \"#utility.yul\":3467:3538   */\n      tag_560\n      jump\t// in\n    tag_658:\n        /* \"#utility.yul\":3585:3594   */\n      dup2\n        /* \"#utility.yul\":3579:3583   */\n      dup2\n        /* \"#utility.yul\":3575:3595   */\n      sub\n        /* \"#utility.yul\":3570:3572   */\n      0x20\n        /* \"#utility.yul\":3559:3568   */\n      dup4\n        /* \"#utility.yul\":3555:3573   */\n      add\n        /* \"#utility.yul\":3548:3596   */\n      mstore\n        /* \"#utility.yul\":3613:3691   */\n      tag_659\n        /* \"#utility.yul\":3686:3690   */\n      dup2\n        /* \"#utility.yul\":3677:3683   */\n      dup9\n        /* \"#utility.yul\":3613:3691   */\n      tag_565\n      jump\t// in\n    tag_659:\n        /* \"#utility.yul\":3605:3691   */\n      swap1\n      pop\n        /* \"#utility.yul\":3738:3747   */\n      dup2\n        /* \"#utility.yul\":3732:3736   */\n      dup2\n        /* \"#utility.yul\":3728:3748   */\n      sub\n        /* \"#utility.yul\":3723:3725   */\n      0x40\n        /* \"#utility.yul\":3712:3721   */\n      dup4\n        /* \"#utility.yul\":3708:3726   */\n      add\n        /* \"#utility.yul\":3701:3749   */\n      mstore\n        /* \"#utility.yul\":3766:3844   */\n      tag_660\n        /* \"#utility.yul\":3839:3843   */\n      dup2\n        /* \"#utility.yul\":3830:3836   */\n      dup8\n        /* \"#utility.yul\":3766:3844   */\n      tag_565\n      jump\t// in\n    tag_660:\n        /* \"#utility.yul\":3758:3844   */\n      swap1\n      pop\n        /* \"#utility.yul\":3891:3900   */\n      dup2\n        /* \"#utility.yul\":3885:3889   */\n      dup2\n        /* \"#utility.yul\":3881:3901   */\n      sub\n        /* \"#utility.yul\":3876:3878   */\n      0x60\n        /* \"#utility.yul\":3865:3874   */\n      dup4\n        /* \"#utility.yul\":3861:3879   */\n      add\n        /* \"#utility.yul\":3854:3902   */\n      mstore\n        /* \"#utility.yul\":3919:3997   */\n      tag_661\n        /* \"#utility.yul\":3992:3996   */\n      dup2\n        /* \"#utility.yul\":3983:3989   */\n      dup7\n        /* \"#utility.yul\":3919:3997   */\n      tag_565\n      jump\t// in\n    tag_661:\n        /* \"#utility.yul\":3911:3997   */\n      swap1\n      pop\n        /* \"#utility.yul\":4045:4054   */\n      dup2\n        /* \"#utility.yul\":4039:4043   */\n      dup2\n        /* \"#utility.yul\":4035:4055   */\n      sub\n        /* \"#utility.yul\":4029:4032   */\n      0x80\n        /* \"#utility.yul\":4018:4027   */\n      dup4\n        /* \"#utility.yul\":4014:4033   */\n      add\n        /* \"#utility.yul\":4007:4056   */\n      mstore\n        /* \"#utility.yul\":4073:4151   */\n      tag_662\n        /* \"#utility.yul\":4146:4150   */\n      dup2\n        /* \"#utility.yul\":4137:4143   */\n      dup6\n        /* \"#utility.yul\":4073:4151   */\n      tag_565\n      jump\t// in\n    tag_662:\n        /* \"#utility.yul\":4065:4151   */\n      swap1\n      pop\n        /* \"#utility.yul\":4161:4228   */\n      tag_663\n        /* \"#utility.yul\":4223:4226   */\n      0xa0\n        /* \"#utility.yul\":4212:4221   */\n      dup4\n        /* \"#utility.yul\":4208:4227   */\n      add\n        /* \"#utility.yul\":4199:4205   */\n      dup5\n        /* \"#utility.yul\":4161:4228   */\n      tag_567\n      jump\t// in\n    tag_663:\n        /* \"#utility.yul\":3108:4235   */\n      swap8\n      swap7\n      pop\n      pop\n      pop\n      pop\n      pop\n      pop\n      pop\n      jump\t// out\n        /* \"#utility.yul\":4241:4358   */\n    tag_568:\n        /* \"#utility.yul\":4350:4351   */\n      0x00\n        /* \"#utility.yul\":4347:4348   */\n      0x00\n        /* \"#utility.yul\":4340:4352   */\n      revert\n        /* \"#utility.yul\":4364:4481   */\n    tag_569:\n        /* \"#utility.yul\":4473:4474   */\n      0x00\n        /* \"#utility.yul\":4470:4471   */\n      0x00\n        /* \"#utility.yul\":4463:4475   */\n      revert\n        /* \"#utility.yul\":4487:4667   */\n    tag_273:\n        /* \"#utility.yul\":4535:4612   */\n      0x4e487b7100000000000000000000000000000000000000000000000000000000\n        /* \"#utility.yul\":4532:4533   */\n      0x00\n        /* \"#utility.yul\":4525:4613   */\n      mstore\n        /* \"#utility.yul\":4632:4636   */\n      0x41\n        /* \"#utility.yul\":4629:4630   */\n      0x04\n        /* \"#utility.yul\":4622:4637   */\n      mstore\n        /* \"#utility.yul\":4656:4660   */\n      0x24\n        /* \"#utility.yul\":4653:4654   */\n      0x00\n        /* \"#utility.yul\":4646:4661   */\n      revert\n        /* \"#utility.yul\":4673:4954   */\n    tag_570:\n        /* \"#utility.yul\":4756:4783   */\n      tag_668\n        /* \"#utility.yul\":4778:4782   */\n      dup3\n        /* \"#utility.yul\":4756:4783   */\n      tag_564\n      jump\t// in\n    tag_668:\n        /* \"#utility.yul\":4748:4754   */\n      dup2\n        /* \"#utility.yul\":4744:4784   */\n      add\n        /* \"#utility.yul\":4886:4892   */\n      dup2\n        /* \"#utility.yul\":4874:4884   */\n      dup2\n        /* \"#utility.yul\":4871:4893   */\n      lt\n        /* \"#utility.yul\":4850:4868   */\n      0xffffffffffffffff\n        /* \"#utility.yul\":4838:4848   */\n      dup3\n        /* \"#utility.yul\":4835:4869   */\n      gt\n        /* \"#utility.yul\":4832:4894   */\n      or\n        /* \"#utility.yul\":4829:4917   */\n      iszero\n      tag_669\n      jumpi\n        /* \"#utility.yul\":4897:4915   */\n      tag_670\n      tag_273\n      jump\t// in\n    tag_670:\n        /* \"#utility.yul\":4829:4917   */\n    tag_669:\n        /* \"#utility.yul\":4937:4947   */\n      dup1\n        /* \"#utility.yul\":4933:4935   */\n      0x40\n        /* \"#utility.yul\":4926:4948   */\n      mstore\n        /* \"#utility.yul\":4716:4954   */\n      pop\n        /* \"#utility.yul\":4673:4954   */\n      pop\n      pop\n      jump\t// out\n        /* \"#utility.yul\":4960:5089   */\n    tag_571:\n        /* \"#utility.yul\":4994:5000   */\n      0x00\n        /* \"#utility.yul\":5021:5041   */\n      tag_672\n      tag_554\n      jump\t// in\n    tag_672:\n        /* \"#utility.yul\":5011:5041   */\n      swap1\n      pop\n        /* \"#utility.yul\":5050:5083   */\n      tag_673\n        /* \"#utility.yul\":5078:5082   */\n      dup3\n        /* \"#utility.yul\":5070:5076   */\n      dup3\n        /* \"#utility.yul\":5050:5083   */\n      tag_570\n      jump\t// in\n    tag_673:\n        /* \"#utility.yul\":4960:5089   */\n      swap2\n      swap1\n      pop\n      jump\t// out\n        /* \"#utility.yul\":5095:5403   */\n    tag_572:\n        /* \"#utility.yul\":5157:5161   */\n      0x00\n        /* \"#utility.yul\":5247:5265   */\n      0xffffffffffffffff\n        /* \"#utility.yul\":5239:5245   */\n      dup3\n        /* \"#utility.yul\":5236:5266   */\n      gt\n        /* \"#utility.yul\":5233:5289   */\n      iszero\n      tag_675\n      jumpi\n        /* \"#utility.yul\":5269:5287   */\n      tag_676\n      tag_273\n      jump\t// in\n    tag_676:\n        /* \"#utility.yul\":5233:5289   */\n    tag_675:\n        /* \"#utility.yul\":5307:5336   */\n      tag_677\n        /* \"#utility.yul\":5329:5335   */\n      dup3\n        /* \"#utility.yul\":5307:5336   */\n      tag_564\n      jump\t// in\n    tag_677:\n        /* \"#utility.yul\":5299:5336   */\n      swap1\n      pop\n        /* \"#utility.yul\":5391:5395   */\n      0x20\n        /* \"#utility.yul\":5385:5389   */\n      dup2\n        /* \"#utility.yul\":5381:5396   */\n      add\n        /* \"#utility.yul\":5373:5396   */\n      swap1\n      pop\n        /* \"#utility.yul\":5095:5403   */\n      swap2\n      swap1\n      pop\n      jump\t// out\n        /* \"#utility.yul\":5409:5557   */\n    tag_573:\n        /* \"#utility.yul\":5507:5513   */\n      dup3\n        /* \"#utility.yul\":5502:5505   */\n      dup2\n        /* \"#utility.yul\":5497:5500   */\n      dup4\n        /* \"#utility.yul\":5484:5514   */\n      calldatacopy\n        /* \"#utility.yul\":5548:5549   */\n      0x00\n        /* \"#utility.yul\":5539:5545   */\n      dup4\n        /* \"#utility.yul\":5534:5537   */\n      dup4\n        /* \"#utility.yul\":5530:5546   */\n      add\n        /* \"#utility.yul\":5523:5550   */\n      mstore\n        /* \"#utility.yul\":5409:5557   */\n      pop\n      pop\n      pop\n      jump\t// out\n        /* \"#utility.yul\":5563:5988   */\n    tag_574:\n        /* \"#utility.yul\":5641:5646   */\n      0x00\n        /* \"#utility.yul\":5666:5732   */\n      tag_680\n        /* \"#utility.yul\":5682:5731   */\n      tag_681\n        /* \"#utility.yul\":5724:5730   */\n      dup5\n        /* \"#utility.yul\":5682:5731   */\n      tag_572\n      jump\t// in\n    tag_681:\n        /* \"#utility.yul\":5666:5732   */\n      tag_571\n      jump\t// in\n    tag_680:\n        /* \"#utility.yul\":5657:5732   */\n      swap1\n      pop\n        /* \"#utility.yul\":5755:5761   */\n      dup3\n        /* \"#utility.yul\":5748:5753   */\n      dup2\n        /* \"#utility.yul\":5741:5762   */\n      mstore\n        /* \"#utility.yul\":5793:5797   */\n      0x20\n        /* \"#utility.yul\":5786:5791   */\n      dup2\n        /* \"#utility.yul\":5782:5798   */\n      add\n        /* \"#utility.yul\":5831:5834   */\n      dup5\n        /* \"#utility.yul\":5822:5828   */\n      dup5\n        /* \"#utility.yul\":5817:5820   */\n      dup5\n        /* \"#utility.yul\":5813:5829   */\n      add\n        /* \"#utility.yul\":5810:5835   */\n      gt\n        /* \"#utility.yul\":5807:5919   */\n      iszero\n      tag_682\n      jumpi\n        /* \"#utility.yul\":5838:5917   */\n      tag_683\n      tag_569\n      jump\t// in\n    tag_683:\n        /* \"#utility.yul\":5807:5919   */\n    tag_682:\n        /* \"#utility.yul\":5928:5982   */\n      tag_684\n        /* \"#utility.yul\":5975:5981   */\n      dup5\n        /* \"#utility.yul\":5970:5973   */\n      dup3\n        /* \"#utility.yul\":5965:5968   */\n      dup6\n        /* \"#utility.yul\":5928:5982   */\n      tag_573\n      jump\t// in\n    tag_684:\n        /* \"#utility.yul\":5647:5988   */\n      pop\n        /* \"#utility.yul\":5563:5988   */\n      swap4\n      swap3\n      pop\n      pop\n      pop\n      jump\t// out\n        /* \"#utility.yul\":6008:6348   */\n    tag_575:\n        /* \"#utility.yul\":6064:6069   */\n      0x00\n        /* \"#utility.yul\":6113:6116   */\n      dup3\n        /* \"#utility.yul\":6106:6110   */\n      0x1f\n        /* \"#utility.yul\":6098:6104   */\n      dup4\n        /* \"#utility.yul\":6094:6111   */\n      add\n        /* \"#utility.yul\":6090:6117   */\n      slt\n        /* \"#utility.yul\":6080:6202   */\n      tag_686\n      jumpi\n        /* \"#utility.yul\":6121:6200   */\n      tag_687\n      tag_568\n      jump\t// in\n    tag_687:\n        /* \"#utility.yul\":6080:6202   */\n    tag_686:\n        /* \"#utility.yul\":6238:6244   */\n      dup2\n        /* \"#utility.yul\":6225:6245   */\n      calldataload\n        /* \"#utility.yul\":6263:6342   */\n      tag_688\n        /* \"#utility.yul\":6338:6341   */\n      dup5\n        /* \"#utility.yul\":6330:6336   */\n      dup3\n        /* \"#utility.yul\":6323:6327   */\n      0x20\n        /* \"#utility.yul\":6315:6321   */\n      dup7\n        /* \"#utility.yul\":6311:6328   */\n      add\n        /* \"#utility.yul\":6263:6342   */\n      tag_574\n      jump\t// in\n    tag_688:\n        /* \"#utility.yul\":6254:6342   */\n      swap2\n      pop\n        /* \"#utility.yul\":6070:6348   */\n      pop\n        /* \"#utility.yul\":6008:6348   */\n      swap3\n      swap2\n      pop\n      pop\n      jump\t// out\n        /* \"#utility.yul\":6354:7513   */\n    tag_45:\n        /* \"#utility.yul\":6461:6467   */\n      0x00\n        /* \"#utility.yul\":6469:6475   */\n      0x00\n        /* \"#utility.yul\":6477:6483   */\n      0x00\n        /* \"#utility.yul\":6526:6528   */\n      0x60\n        /* \"#utility.yul\":6514:6523   */\n      dup5\n        /* \"#utility.yul\":6505:6512   */\n      dup7\n        /* \"#utility.yul\":6501:6524   */\n      sub\n        /* \"#utility.yul\":6497:6529   */\n      slt\n        /* \"#utility.yul\":6494:6613   */\n      iszero\n      tag_690\n      jumpi\n        /* \"#utility.yul\":6532:6611   */\n      tag_691\n      tag_555\n      jump\t// in\n    tag_691:\n        /* \"#utility.yul\":6494:6613   */\n    tag_690:\n        /* \"#utility.yul\":6680:6681   */\n      0x00\n        /* \"#utility.yul\":6669:6678   */\n      dup5\n        /* \"#utility.yul\":6665:6682   */\n      add\n        /* \"#utility.yul\":6652:6683   */\n      calldataload\n        /* \"#utility.yul\":6710:6728   */\n      0xffffffffffffffff\n        /* \"#utility.yul\":6702:6708   */\n      dup2\n        /* \"#utility.yul\":6699:6729   */\n      gt\n        /* \"#utility.yul\":6696:6813   */\n      iszero\n      tag_692\n      jumpi\n        /* \"#utility.yul\":6732:6811   */\n      tag_693\n      tag_556\n      jump\t// in\n    tag_693:\n        /* \"#utility.yul\":6696:6813   */\n    tag_692:\n        /* \"#utility.yul\":6837:6900   */\n      tag_694\n        /* \"#utility.yul\":6892:6899   */\n      dup7\n        /* \"#utility.yul\":6883:6889   */\n      dup3\n        /* \"#utility.yul\":6872:6881   */\n      dup8\n        /* \"#utility.yul\":6868:6890   */\n      add\n        /* \"#utility.yul\":6837:6900   */\n      tag_575\n      jump\t// in\n    tag_694:\n        /* \"#utility.yul\":6827:6900   */\n      swap4\n      pop\n        /* \"#utility.yul\":6623:6910   */\n      pop\n        /* \"#utility.yul\":6977:6979   */\n      0x20\n        /* \"#utility.yul\":6966:6975   */\n      dup5\n        /* \"#utility.yul\":6962:6980   */\n      add\n        /* \"#utility.yul\":6949:6981   */\n      calldataload\n        /* \"#utility.yul\":7008:7026   */\n      0xffffffffffffffff\n        /* \"#utility.yul\":7000:7006   */\n      dup2\n        /* \"#utility.yul\":6997:7027   */\n      gt\n        /* \"#utility.yul\":6994:7111   */\n      iszero\n      tag_695\n      jumpi\n        /* \"#utility.yul\":7030:7109   */\n      tag_696\n      tag_556\n      jump\t// in\n    tag_696:\n        /* \"#utility.yul\":6994:7111   */\n    tag_695:\n        /* \"#utility.yul\":7135:7198   */\n      tag_697\n        /* \"#utility.yul\":7190:7197   */\n      dup7\n        /* \"#utility.yul\":7181:7187   */\n      dup3\n        /* \"#utility.yul\":7170:7179   */\n      dup8\n        /* \"#utility.yul\":7166:7188   */\n      add\n        /* \"#utility.yul\":7135:7198   */\n      tag_575\n      jump\t// in\n    tag_697:\n        /* \"#utility.yul\":7125:7198   */\n      swap3\n      pop\n        /* \"#utility.yul\":6920:7208   */\n      pop\n        /* \"#utility.yul\":7275:7277   */\n      0x40\n        /* \"#utility.yul\":7264:7273   */\n      dup5\n        /* \"#utility.yul\":7260:7278   */\n      add\n        /* \"#utility.yul\":7247:7279   */\n      calldataload\n        /* \"#utility.yul\":7306:7324   */\n      0xffffffffffffffff\n        /* \"#utility.yul\":7298:7304   */\n      dup2\n        /* \"#utility.yul\":7295:7325   */\n      gt\n        /* \"#utility.yul\":7292:7409   */\n      iszero\n      tag_698\n      jumpi\n        /* \"#utility.yul\":7328:7407   */\n      tag_699\n      tag_556\n      jump\t// in\n    tag_699:\n        /* \"#utility.yul\":7292:7409   */\n    tag_698:\n        /* \"#utility.yul\":7433:7496   */\n      tag_700\n        /* \"#utility.yul\":7488:7495   */\n      dup7\n        /* \"#utility.yul\":7479:7485   */\n      dup3\n        /* \"#utility.yul\":7468:7477   */\n      dup8\n        /* \"#utility.yul\":7464:7486   */\n      add\n        /* \"#utility.yul\":7433:7496   */\n      tag_575\n      jump\t// in\n    tag_700:\n        /* \"#utility.yul\":7423:7496   */\n      swap2\n      pop\n        /* \"#utility.yul\":7218:7506   */\n      pop\n        /* \"#utility.yul\":6354:7513   */\n      swap3\n      pop\n      swap3\n      pop\n      swap3\n      jump\t// out\n        /* \"#utility.yul\":7519:7741   */\n    tag_48:\n        /* \"#utility.yul\":7612:7616   */\n      0x00\n        /* \"#utility.yul\":7650:7652   */\n      0x20\n        /* \"#utility.yul\":7639:7648   */\n      dup3\n        /* \"#utility.yul\":7635:7653   */\n      add\n        /* \"#utility.yul\":7627:7653   */\n      swap1\n      pop\n        /* \"#utility.yul\":7663:7734   */\n      tag_702\n        /* \"#utility.yul\":7731:7732   */\n      0x00\n        /* \"#utility.yul\":7720:7729   */\n      dup4\n        /* \"#utility.yul\":7716:7733   */\n      add\n        /* \"#utility.yul\":7707:7713   */\n      dup5\n        /* \"#utility.yul\":7663:7734   */\n      tag_560\n      jump\t// in\n    tag_702:\n        /* \"#utility.yul\":7519:7741   */\n      swap3\n      swap2\n      pop\n      pop\n      jump\t// out\n        /* \"#utility.yul\":7747:8672   */\n    tag_53:\n        /* \"#utility.yul\":8006:8010   */\n      0x00\n        /* \"#utility.yul\":8044:8047   */\n      0xa0\n        /* \"#utility.yul\":8033:8042   */\n      dup3\n        /* \"#utility.yul\":8029:8048   */\n      add\n        /* \"#utility.yul\":8021:8048   */\n      swap1\n      pop\n        /* \"#utility.yul\":8058:8129   */\n      tag_704\n        /* \"#utility.yul\":8126:8127   */\n      0x00\n        /* \"#utility.yul\":8115:8124   */\n      dup4\n        /* \"#utility.yul\":8111:8128   */\n      add\n        /* \"#utility.yul\":8102:8108   */\n      dup9\n        /* \"#utility.yul\":8058:8129   */\n      tag_560\n      jump\t// in\n    tag_704:\n        /* \"#utility.yul\":8176:8185   */\n      dup2\n        /* \"#utility.yul\":8170:8174   */\n      dup2\n        /* \"#utility.yul\":8166:8186   */\n      sub\n        /* \"#utility.yul\":8161:8163   */\n      0x20\n        /* \"#utility.yul\":8150:8159   */\n      dup4\n        /* \"#utility.yul\":8146:8164   */\n      add\n        /* \"#utility.yul\":8139:8187   */\n      mstore\n        /* \"#utility.yul\":8204:8282   */\n      tag_705\n        /* \"#utility.yul\":8277:8281   */\n      dup2\n        /* \"#utility.yul\":8268:8274   */\n      dup8\n        /* \"#utility.yul\":8204:8282   */\n      tag_565\n      jump\t// in\n    tag_705:\n        /* \"#utility.yul\":8196:8282   */\n      swap1\n      pop\n        /* \"#utility.yul\":8329:8338   */\n      dup2\n        /* \"#utility.yul\":8323:8327   */\n      dup2\n        /* \"#utility.yul\":8319:8339   */\n      sub\n        /* \"#utility.yul\":8314:8316   */\n      0x40\n        /* \"#utility.yul\":8303:8312   */\n      dup4\n        /* \"#utility.yul\":8299:8317   */\n      add\n        /* \"#utility.yul\":8292:8340   */\n      mstore\n        /* \"#utility.yul\":8357:8435   */\n      tag_706\n        /* \"#utility.yul\":8430:8434   */\n      dup2\n        /* \"#utility.yul\":8421:8427   */\n      dup7\n        /* \"#utility.yul\":8357:8435   */\n      tag_565\n      jump\t// in\n    tag_706:\n        /* \"#utility.yul\":8349:8435   */\n      swap1\n      pop\n        /* \"#utility.yul\":8482:8491   */\n      dup2\n        /* \"#utility.yul\":8476:8480   */\n      dup2\n        /* \"#utility.yul\":8472:8492   */\n      sub\n        /* \"#utility.yul\":8467:8469   */\n      0x60\n        /* \"#utility.yul\":8456:8465   */\n      dup4\n        /* \"#utility.yul\":8452:8470   */\n      add\n        /* \"#utility.yul\":8445:8493   */\n      mstore\n        /* \"#utility.yul\":8510:8588   */\n      tag_707\n        /* \"#utility.yul\":8583:8587   */\n      dup2\n        /* \"#utility.yul\":8574:8580   */\n      dup6\n        /* \"#utility.yul\":8510:8588   */\n      tag_565\n      jump\t// in\n    tag_707:\n        /* \"#utility.yul\":8502:8588   */\n      swap1\n      pop\n        /* \"#utility.yul\":8598:8665   */\n      tag_708\n        /* \"#utility.yul\":8660:8663   */\n      0x80\n        /* \"#utility.yul\":8649:8658   */\n      dup4\n        /* \"#utility.yul\":8645:8664   */\n      add\n        /* \"#utility.yul\":8636:8642   */\n      dup5\n        /* \"#utility.yul\":8598:8665   */\n      tag_567\n      jump\t// in\n    tag_708:\n        /* \"#utility.yul\":7747:8672   */\n      swap7\n      swap6\n      pop\n      pop\n      pop\n      pop\n      pop\n      pop\n      jump\t// out\n        /* \"#utility.yul\":8678:8792   */\n    tag_576:\n        /* \"#utility.yul\":8745:8751   */\n      0x00\n        /* \"#utility.yul\":8779:8784   */\n      dup2\n        /* \"#utility.yul\":8773:8785   */\n      mload\n        /* \"#utility.yul\":8763:8785   */\n      swap1\n      pop\n        /* \"#utility.yul\":8678:8792   */\n      swap2\n      swap1\n      pop\n      jump\t// out\n        /* \"#utility.yul\":8798:8982   */\n    tag_577:\n        /* \"#utility.yul\":8897:8908   */\n      0x00\n        /* \"#utility.yul\":8931:8937   */\n      dup3\n        /* \"#utility.yul\":8926:8929   */\n      dup3\n        /* \"#utility.yul\":8919:8938   */\n      mstore\n        /* \"#utility.yul\":8971:8975   */\n      0x20\n        /* \"#utility.yul\":8966:8969   */\n      dup3\n        /* \"#utility.yul\":8962:8976   */\n      add\n        /* \"#utility.yul\":8947:8976   */\n      swap1\n      pop\n        /* \"#utility.yul\":8798:8982   */\n      swap3\n      swap2\n      pop\n      pop\n      jump\t// out\n        /* \"#utility.yul\":8988:9120   */\n    tag_578:\n        /* \"#utility.yul\":9055:9059   */\n      0x00\n        /* \"#utility.yul\":9078:9081   */\n      dup2\n        /* \"#utility.yul\":9070:9081   */\n      swap1\n      pop\n        /* \"#utility.yul\":9108:9112   */\n      0x20\n        /* \"#utility.yul\":9103:9106   */\n      dup3\n        /* \"#utility.yul\":9099:9113   */\n      add\n        /* \"#utility.yul\":9091:9113   */\n      swap1\n      pop\n        /* \"#utility.yul\":8988:9120   */\n      swap2\n      swap1\n      pop\n      jump\t// out\n        /* \"#utility.yul\":9126:9234   */\n    tag_579:\n        /* \"#utility.yul\":9203:9227   */\n      tag_713\n        /* \"#utility.yul\":9221:9226   */\n      dup2\n        /* \"#utility.yul\":9203:9227   */\n      tag_557\n      jump\t// in\n    tag_713:\n        /* \"#utility.yul\":9198:9201   */\n      dup3\n        /* \"#utility.yul\":9191:9228   */\n      mstore\n        /* \"#utility.yul\":9126:9234   */\n      pop\n      pop\n      jump\t// out\n        /* \"#utility.yul\":9240:9419   */\n    tag_580:\n        /* \"#utility.yul\":9309:9319   */\n      0x00\n        /* \"#utility.yul\":9330:9376   */\n      tag_715\n        /* \"#utility.yul\":9372:9375   */\n      dup4\n        /* \"#utility.yul\":9364:9370   */\n      dup4\n        /* \"#utility.yul\":9330:9376   */\n      tag_579\n      jump\t// in\n    tag_715:\n        /* \"#utility.yul\":9408:9412   */\n      0x20\n        /* \"#utility.yul\":9403:9406   */\n      dup4\n        /* \"#utility.yul\":9399:9413   */\n      add\n        /* \"#utility.yul\":9385:9413   */\n      swap1\n      pop\n        /* \"#utility.yul\":9240:9419   */\n      swap3\n      swap2\n      pop\n      pop\n      jump\t// out\n        /* \"#utility.yul\":9425:9538   */\n    tag_581:\n        /* \"#utility.yul\":9495:9499   */\n      0x00\n        /* \"#utility.yul\":9527:9531   */\n      0x20\n        /* \"#utility.yul\":9522:9525   */\n      dup3\n        /* \"#utility.yul\":9518:9532   */\n      add\n        /* \"#utility.yul\":9510:9532   */\n      swap1\n      pop\n        /* \"#utility.yul\":9425:9538   */\n      swap2\n      swap1\n      pop\n      jump\t// out\n        /* \"#utility.yul\":9574:10306   */\n    tag_582:\n        /* \"#utility.yul\":9693:9696   */\n      0x00\n        /* \"#utility.yul\":9722:9776   */\n      tag_718\n        /* \"#utility.yul\":9770:9775   */\n      dup3\n        /* \"#utility.yul\":9722:9776   */\n      tag_576\n      jump\t// in\n    tag_718:\n        /* \"#utility.yul\":9792:9878   */\n      tag_719\n        /* \"#utility.yul\":9871:9877   */\n      dup2\n        /* \"#utility.yul\":9866:9869   */\n      dup6\n        /* \"#utility.yul\":9792:9878   */\n      tag_577\n      jump\t// in\n    tag_719:\n        /* \"#utility.yul\":9785:9878   */\n      swap4\n      pop\n        /* \"#utility.yul\":9902:9958   */\n      tag_720\n        /* \"#utility.yul\":9952:9957   */\n      dup4\n        /* \"#utility.yul\":9902:9958   */\n      tag_578\n      jump\t// in\n    tag_720:\n        /* \"#utility.yul\":9981:9988   */\n      dup1\n        /* \"#utility.yul\":10012:10013   */\n      0x00\n        /* \"#utility.yul\":9997:10281   */\n    tag_721:\n        /* \"#utility.yul\":10022:10028   */\n      dup4\n        /* \"#utility.yul\":10019:10020   */\n      dup2\n        /* \"#utility.yul\":10016:10029   */\n      lt\n        /* \"#utility.yul\":9997:10281   */\n      iszero\n      tag_723\n      jumpi\n        /* \"#utility.yul\":10098:10104   */\n      dup2\n        /* \"#utility.yul\":10092:10105   */\n      mload\n        /* \"#utility.yul\":10125:10188   */\n      tag_724\n        /* \"#utility.yul\":10184:10187   */\n      dup9\n        /* \"#utility.yul\":10169:10182   */\n      dup3\n        /* \"#utility.yul\":10125:10188   */\n      tag_580\n      jump\t// in\n    tag_724:\n        /* \"#utility.yul\":10118:10188   */\n      swap8\n      pop\n        /* \"#utility.yul\":10211:10271   */\n      tag_725\n        /* \"#utility.yul\":10264:10270   */\n      dup4\n        /* \"#utility.yul\":10211:10271   */\n      tag_581\n      jump\t// in\n    tag_725:\n        /* \"#utility.yul\":10201:10271   */\n      swap3\n      pop\n        /* \"#utility.yul\":10057:10281   */\n      pop\n        /* \"#utility.yul\":10044:10045   */\n      0x01\n        /* \"#utility.yul\":10041:10042   */\n      dup2\n        /* \"#utility.yul\":10037:10046   */\n      add\n        /* \"#utility.yul\":10032:10046   */\n      swap1\n      pop\n        /* \"#utility.yul\":9997:10281   */\n      jump(tag_721)\n    tag_723:\n        /* \"#utility.yul\":10001:10015   */\n      pop\n        /* \"#utility.yul\":10297:10300   */\n      dup6\n        /* \"#utility.yul\":10290:10300   */\n      swap4\n      pop\n        /* \"#utility.yul\":9698:10306   */\n      pop\n      pop\n      pop\n        /* \"#utility.yul\":9574:10306   */\n      swap3\n      swap2\n      pop\n      pop\n      jump\t// out\n        /* \"#utility.yul\":10312:10685   */\n    tag_61:\n        /* \"#utility.yul\":10455:10459   */\n      0x00\n        /* \"#utility.yul\":10493:10495   */\n      0x20\n        /* \"#utility.yul\":10482:10491   */\n      dup3\n        /* \"#utility.yul\":10478:10496   */\n      add\n        /* \"#utility.yul\":10470:10496   */\n      swap1\n      pop\n        /* \"#utility.yul\":10542:10551   */\n      dup2\n        /* \"#utility.yul\":10536:10540   */\n      dup2\n        /* \"#utility.yul\":10532:10552   */\n      sub\n        /* \"#utility.yul\":10528:10529   */\n      0x00\n        /* \"#utility.yul\":10517:10526   */\n      dup4\n        /* \"#utility.yul\":10513:10530   */\n      add\n        /* \"#utility.yul\":10506:10553   */\n      mstore\n        /* \"#utility.yul\":10570:10678   */\n      tag_727\n        /* \"#utility.yul\":10673:10677   */\n      dup2\n        /* \"#utility.yul\":10664:10670   */\n      dup5\n        /* \"#utility.yul\":10570:10678   */\n      tag_582\n      jump\t// in\n    tag_727:\n        /* \"#utility.yul\":10562:10678   */\n      swap1\n      pop\n        /* \"#utility.yul\":10312:10685   */\n      swap3\n      swap2\n      pop\n      pop\n      jump\t// out\n        /* \"#utility.yul\":10691:10815   */\n    tag_583:\n        /* \"#utility.yul\":10768:10774   */\n      0x00\n        /* \"#utility.yul\":10802:10807   */\n      dup2\n        /* \"#utility.yul\":10796:10808   */\n      mload\n        /* \"#utility.yul\":10786:10808   */\n      swap1\n      pop\n        /* \"#utility.yul\":10691:10815   */\n      swap2\n      swap1\n      pop\n      jump\t// out\n        /* \"#utility.yul\":10821:11015   */\n    tag_584:\n        /* \"#utility.yul\":10930:10941   */\n      0x00\n        /* \"#utility.yul\":10964:10970   */\n      dup3\n        /* \"#utility.yul\":10959:10962   */\n      dup3\n        /* \"#utility.yul\":10952:10971   */\n      mstore\n        /* \"#utility.yul\":11004:11008   */\n      0x20\n        /* \"#utility.yul\":10999:11002   */\n      dup3\n        /* \"#utility.yul\":10995:11009   */\n      add\n        /* \"#utility.yul\":10980:11009   */\n      swap1\n      pop\n        /* \"#utility.yul\":10821:11015   */\n      swap3\n      swap2\n      pop\n      pop\n      jump\t// out\n        /* \"#utility.yul\":11021:11163   */\n    tag_585:\n        /* \"#utility.yul\":11098:11102   */\n      0x00\n        /* \"#utility.yul\":11121:11124   */\n      dup2\n        /* \"#utility.yul\":11113:11124   */\n      swap1\n      pop\n        /* \"#utility.yul\":11151:11155   */\n      0x20\n        /* \"#utility.yul\":11146:11149   */\n      dup3\n        /* \"#utility.yul\":11142:11156   */\n      add\n        /* \"#utility.yul\":11134:11156   */\n      swap1\n      pop\n        /* \"#utility.yul\":11021:11163   */\n      swap2\n      swap1\n      pop\n      jump\t// out\n        /* \"#utility.yul\":11169:11328   */\n    tag_586:\n        /* \"#utility.yul\":11243:11254   */\n      0x00\n        /* \"#utility.yul\":11277:11283   */\n      dup3\n        /* \"#utility.yul\":11272:11275   */\n      dup3\n        /* \"#utility.yul\":11265:11284   */\n      mstore\n        /* \"#utility.yul\":11317:11321   */\n      0x20\n        /* \"#utility.yul\":11312:11315   */\n      dup3\n        /* \"#utility.yul\":11308:11322   */\n      add\n        /* \"#utility.yul\":11293:11322   */\n      swap1\n      pop\n        /* \"#utility.yul\":11169:11328   */\n      swap3\n      swap2\n      pop\n      pop\n      jump\t// out\n        /* \"#utility.yul\":11334:11691   */\n    tag_587:\n        /* \"#utility.yul\":11412:11415   */\n      0x00\n        /* \"#utility.yul\":11440:11479   */\n      tag_733\n        /* \"#utility.yul\":11473:11478   */\n      dup3\n        /* \"#utility.yul\":11440:11479   */\n      tag_561\n      jump\t// in\n    tag_733:\n        /* \"#utility.yul\":11495:11556   */\n      tag_734\n        /* \"#utility.yul\":11549:11555   */\n      dup2\n        /* \"#utility.yul\":11544:11547   */\n      dup6\n        /* \"#utility.yul\":11495:11556   */\n      tag_586\n      jump\t// in\n    tag_734:\n        /* \"#utility.yul\":11488:11556   */\n      swap4\n      pop\n        /* \"#utility.yul\":11565:11630   */\n      tag_735\n        /* \"#utility.yul\":11623:11629   */\n      dup2\n        /* \"#utility.yul\":11618:11621   */\n      dup6\n        /* \"#utility.yul\":11611:11615   */\n      0x20\n        /* \"#utility.yul\":11604:11609   */\n      dup7\n        /* \"#utility.yul\":11600:11616   */\n      add\n        /* \"#utility.yul\":11565:11630   */\n      tag_563\n      jump\t// in\n    tag_735:\n        /* \"#utility.yul\":11655:11684   */\n      tag_736\n        /* \"#utility.yul\":11677:11683   */\n      dup2\n        /* \"#utility.yul\":11655:11684   */\n      tag_564\n      jump\t// in\n    tag_736:\n        /* \"#utility.yul\":11650:11653   */\n      dup5\n        /* \"#utility.yul\":11646:11685   */\n      add\n        /* \"#utility.yul\":11639:11685   */\n      swap2\n      pop\n        /* \"#utility.yul\":11416:11691   */\n      pop\n        /* \"#utility.yul\":11334:11691   */\n      swap3\n      swap2\n      pop\n      pop\n      jump\t// out\n        /* \"#utility.yul\":11697:11893   */\n    tag_588:\n        /* \"#utility.yul\":11786:11796   */\n      0x00\n        /* \"#utility.yul\":11821:11887   */\n      tag_738\n        /* \"#utility.yul\":11883:11886   */\n      dup4\n        /* \"#utility.yul\":11875:11881   */\n      dup4\n        /* \"#utility.yul\":11821:11887   */\n      tag_587\n      jump\t// in\n    tag_738:\n        /* \"#utility.yul\":11807:11887   */\n      swap1\n      pop\n        /* \"#utility.yul\":11697:11893   */\n      swap3\n      swap2\n      pop\n      pop\n      jump\t// out\n        /* \"#utility.yul\":11899:12022   */\n    tag_589:\n        /* \"#utility.yul\":11979:11983   */\n      0x00\n        /* \"#utility.yul\":12011:12015   */\n      0x20\n        /* \"#utility.yul\":12006:12009   */\n      dup3\n        /* \"#utility.yul\":12002:12016   */\n      add\n        /* \"#utility.yul\":11994:12016   */\n      swap1\n      pop\n        /* \"#utility.yul\":11899:12022   */\n      swap2\n      swap1\n      pop\n      jump\t// out\n        /* \"#utility.yul\":12056:13047   */\n    tag_590:\n        /* \"#utility.yul\":12195:12198   */\n      0x00\n        /* \"#utility.yul\":12224:12288   */\n      tag_741\n        /* \"#utility.yul\":12282:12287   */\n      dup3\n        /* \"#utility.yul\":12224:12288   */\n      tag_583\n      jump\t// in\n    tag_741:\n        /* \"#utility.yul\":12304:12400   */\n      tag_742\n        /* \"#utility.yul\":12393:12399   */\n      dup2\n        /* \"#utility.yul\":12388:12391   */\n      dup6\n        /* \"#utility.yul\":12304:12400   */\n      tag_584\n      jump\t// in\n    tag_742:\n        /* \"#utility.yul\":12297:12400   */\n      swap4\n      pop\n        /* \"#utility.yul\":12426:12429   */\n      dup4\n        /* \"#utility.yul\":12471:12475   */\n      0x20\n        /* \"#utility.yul\":12463:12469   */\n      dup3\n        /* \"#utility.yul\":12459:12476   */\n      mul\n        /* \"#utility.yul\":12454:12457   */\n      dup6\n        /* \"#utility.yul\":12450:12477   */\n      add\n        /* \"#utility.yul\":12501:12567   */\n      tag_743\n        /* \"#utility.yul\":12561:12566   */\n      dup6\n        /* \"#utility.yul\":12501:12567   */\n      tag_585\n      jump\t// in\n    tag_743:\n        /* \"#utility.yul\":12590:12597   */\n      dup1\n        /* \"#utility.yul\":12621:12622   */\n      0x00\n        /* \"#utility.yul\":12606:13002   */\n    tag_744:\n        /* \"#utility.yul\":12631:12637   */\n      dup6\n        /* \"#utility.yul\":12628:12629   */\n      dup2\n        /* \"#utility.yul\":12625:12638   */\n      lt\n        /* \"#utility.yul\":12606:13002   */\n      iszero\n      tag_746\n      jumpi\n        /* \"#utility.yul\":12702:12711   */\n      dup5\n        /* \"#utility.yul\":12696:12700   */\n      dup5\n        /* \"#utility.yul\":12692:12712   */\n      sub\n        /* \"#utility.yul\":12687:12690   */\n      dup10\n        /* \"#utility.yul\":12680:12713   */\n      mstore\n        /* \"#utility.yul\":12753:12759   */\n      dup2\n        /* \"#utility.yul\":12747:12760   */\n      mload\n        /* \"#utility.yul\":12781:12865   */\n      tag_747\n        /* \"#utility.yul\":12860:12864   */\n      dup6\n        /* \"#utility.yul\":12845:12858   */\n      dup3\n        /* \"#utility.yul\":12781:12865   */\n      tag_588\n      jump\t// in\n    tag_747:\n        /* \"#utility.yul\":12773:12865   */\n      swap5\n      pop\n        /* \"#utility.yul\":12888:12958   */\n      tag_748\n        /* \"#utility.yul\":12951:12957   */\n      dup4\n        /* \"#utility.yul\":12888:12958   */\n      tag_589\n      jump\t// in\n    tag_748:\n        /* \"#utility.yul\":12878:12958   */\n      swap3\n      pop\n        /* \"#utility.yul\":12987:12991   */\n      0x20\n        /* \"#utility.yul\":12982:12985   */\n      dup11\n        /* \"#utility.yul\":12978:12992   */\n      add\n        /* \"#utility.yul\":12971:12992   */\n      swap10\n      pop\n        /* \"#utility.yul\":12666:13002   */\n      pop\n        /* \"#utility.yul\":12653:12654   */\n      0x01\n        /* \"#utility.yul\":12650:12651   */\n      dup2\n        /* \"#utility.yul\":12646:12655   */\n      add\n        /* \"#utility.yul\":12641:12655   */\n      swap1\n      pop\n        /* \"#utility.yul\":12606:13002   */\n      jump(tag_744)\n    tag_746:\n        /* \"#utility.yul\":12610:12624   */\n      pop\n        /* \"#utility.yul\":13018:13022   */\n      dup3\n        /* \"#utility.yul\":13011:13022   */\n      swap8\n      pop\n        /* \"#utility.yul\":13038:13041   */\n      dup8\n        /* \"#utility.yul\":13031:13041   */\n      swap6\n      pop\n        /* \"#utility.yul\":12200:13047   */\n      pop\n      pop\n      pop\n      pop\n      pop\n        /* \"#utility.yul\":12056:13047   */\n      swap3\n      swap2\n      pop\n      pop\n      jump\t// out\n        /* \"#utility.yul\":13053:14330   */\n    tag_79:\n        /* \"#utility.yul\":13490:13494   */\n      0x00\n        /* \"#utility.yul\":13528:13531   */\n      0x80\n        /* \"#utility.yul\":13517:13526   */\n      dup3\n        /* \"#utility.yul\":13513:13532   */\n      add\n        /* \"#utility.yul\":13505:13532   */\n      swap1\n      pop\n        /* \"#utility.yul\":13578:13587   */\n      dup2\n        /* \"#utility.yul\":13572:13576   */\n      dup2\n        /* \"#utility.yul\":13568:13588   */\n      sub\n        /* \"#utility.yul\":13564:13565   */\n      0x00\n        /* \"#utility.yul\":13553:13562   */\n      dup4\n        /* \"#utility.yul\":13549:13566   */\n      add\n        /* \"#utility.yul\":13542:13589   */\n      mstore\n        /* \"#utility.yul\":13606:13714   */\n      tag_750\n        /* \"#utility.yul\":13709:13713   */\n      dup2\n        /* \"#utility.yul\":13700:13706   */\n      dup8\n        /* \"#utility.yul\":13606:13714   */\n      tag_582\n      jump\t// in\n    tag_750:\n        /* \"#utility.yul\":13598:13714   */\n      swap1\n      pop\n        /* \"#utility.yul\":13761:13770   */\n      dup2\n        /* \"#utility.yul\":13755:13759   */\n      dup2\n        /* \"#utility.yul\":13751:13771   */\n      sub\n        /* \"#utility.yul\":13746:13748   */\n      0x20\n        /* \"#utility.yul\":13735:13744   */\n      dup4\n        /* \"#utility.yul\":13731:13749   */\n      add\n        /* \"#utility.yul\":13724:13772   */\n      mstore\n        /* \"#utility.yul\":13789:13917   */\n      tag_751\n        /* \"#utility.yul\":13912:13916   */\n      dup2\n        /* \"#utility.yul\":13903:13909   */\n      dup7\n        /* \"#utility.yul\":13789:13917   */\n      tag_590\n      jump\t// in\n    tag_751:\n        /* \"#utility.yul\":13781:13917   */\n      swap1\n      pop\n        /* \"#utility.yul\":13964:13973   */\n      dup2\n        /* \"#utility.yul\":13958:13962   */\n      dup2\n        /* \"#utility.yul\":13954:13974   */\n      sub\n        /* \"#utility.yul\":13949:13951   */\n      0x40\n        /* \"#utility.yul\":13938:13947   */\n      dup4\n        /* \"#utility.yul\":13934:13952   */\n      add\n        /* \"#utility.yul\":13927:13975   */\n      mstore\n        /* \"#utility.yul\":13992:14120   */\n      tag_752\n        /* \"#utility.yul\":14115:14119   */\n      dup2\n        /* \"#utility.yul\":14106:14112   */\n      dup6\n        /* \"#utility.yul\":13992:14120   */\n      tag_590\n      jump\t// in\n    tag_752:\n        /* \"#utility.yul\":13984:14120   */\n      swap1\n      pop\n        /* \"#utility.yul\":14167:14176   */\n      dup2\n        /* \"#utility.yul\":14161:14165   */\n      dup2\n        /* \"#utility.yul\":14157:14177   */\n      sub\n        /* \"#utility.yul\":14152:14154   */\n      0x60\n        /* \"#utility.yul\":14141:14150   */\n      dup4\n        /* \"#utility.yul\":14137:14155   */\n      add\n        /* \"#utility.yul\":14130:14178   */\n      mstore\n        /* \"#utility.yul\":14195:14323   */\n      tag_753\n        /* \"#utility.yul\":14318:14322   */\n      dup2\n        /* \"#utility.yul\":14309:14315   */\n      dup5\n        /* \"#utility.yul\":14195:14323   */\n      tag_590\n      jump\t// in\n    tag_753:\n        /* \"#utility.yul\":14187:14323   */\n      swap1\n      pop\n        /* \"#utility.yul\":13053:14330   */\n      swap6\n      swap5\n      pop\n      pop\n      pop\n      pop\n      pop\n      jump\t// out\n        /* \"#utility.yul\":14336:15641   */\n    tag_82:\n        /* \"#utility.yul\":14452:14458   */\n      0x00\n        /* \"#utility.yul\":14460:14466   */\n      0x00\n        /* \"#utility.yul\":14468:14474   */\n      0x00\n        /* \"#utility.yul\":14476:14482   */\n      0x00\n        /* \"#utility.yul\":14525:14528   */\n      0x80\n        /* \"#utility.yul\":14513:14522   */\n      dup6\n        /* \"#utility.yul\":14504:14511   */\n      dup8\n        /* \"#utility.yul\":14500:14523   */\n      sub\n        /* \"#utility.yul\":14496:14529   */\n      slt\n        /* \"#utility.yul\":14493:14613   */\n      iszero\n      tag_755\n      jumpi\n        /* \"#utility.yul\":14532:14611   */\n      tag_756\n      tag_555\n      jump\t// in\n    tag_756:\n        /* \"#utility.yul\":14493:14613   */\n    tag_755:\n        /* \"#utility.yul\":14652:14653   */\n      0x00\n        /* \"#utility.yul\":14677:14730   */\n      tag_757\n        /* \"#utility.yul\":14722:14729   */\n      dup8\n        /* \"#utility.yul\":14713:14719   */\n      dup3\n        /* \"#utility.yul\":14702:14711   */\n      dup9\n        /* \"#utility.yul\":14698:14720   */\n      add\n        /* \"#utility.yul\":14677:14730   */\n      tag_559\n      jump\t// in\n    tag_757:\n        /* \"#utility.yul\":14667:14730   */\n      swap5\n      pop\n        /* \"#utility.yul\":14623:14740   */\n      pop\n        /* \"#utility.yul\":14807:14809   */\n      0x20\n        /* \"#utility.yul\":14796:14805   */\n      dup6\n        /* \"#utility.yul\":14792:14810   */\n      add\n        /* \"#utility.yul\":14779:14811   */\n      calldataload\n        /* \"#utility.yul\":14838:14856   */\n      0xffffffffffffffff\n        /* \"#utility.yul\":14830:14836   */\n      dup2\n        /* \"#utility.yul\":14827:14857   */\n      gt\n        /* \"#utility.yul\":14824:14941   */\n      iszero\n      tag_758\n      jumpi\n        /* \"#utility.yul\":14860:14939   */\n      tag_759\n      tag_556\n      jump\t// in\n    tag_759:\n        /* \"#utility.yul\":14824:14941   */\n    tag_758:\n        /* \"#utility.yul\":14965:15028   */\n      tag_760\n        /* \"#utility.yul\":15020:15027   */\n      dup8\n        /* \"#utility.yul\":15011:15017   */\n      dup3\n        /* \"#utility.yul\":15000:15009   */\n      dup9\n        /* \"#utility.yul\":14996:15018   */\n      add\n        /* \"#utility.yul\":14965:15028   */\n      tag_575\n      jump\t// in\n    tag_760:\n        /* \"#utility.yul\":14955:15028   */\n      swap4\n      pop\n        /* \"#utility.yul\":14750:15038   */\n      pop\n        /* \"#utility.yul\":15105:15107   */\n      0x40\n        /* \"#utility.yul\":15094:15103   */\n      dup6\n        /* \"#utility.yul\":15090:15108   */\n      add\n        /* \"#utility.yul\":15077:15109   */\n      calldataload\n        /* \"#utility.yul\":15136:15154   */\n      0xffffffffffffffff\n        /* \"#utility.yul\":15128:15134   */\n      dup2\n        /* \"#utility.yul\":15125:15155   */\n      gt\n        /* \"#utility.yul\":15122:15239   */\n      iszero\n      tag_761\n      jumpi\n        /* \"#utility.yul\":15158:15237   */\n      tag_762\n      tag_556\n      jump\t// in\n    tag_762:\n        /* \"#utility.yul\":15122:15239   */\n    tag_761:\n        /* \"#utility.yul\":15263:15326   */\n      tag_763\n        /* \"#utility.yul\":15318:15325   */\n      dup8\n        /* \"#utility.yul\":15309:15315   */\n      dup3\n        /* \"#utility.yul\":15298:15307   */\n      dup9\n        /* \"#utility.yul\":15294:15316   */\n      add\n        /* \"#utility.yul\":15263:15326   */\n      tag_575\n      jump\t// in\n    tag_763:\n        /* \"#utility.yul\":15253:15326   */\n      swap3\n      pop\n        /* \"#utility.yul\":15048:15336   */\n      pop\n        /* \"#utility.yul\":15403:15405   */\n      0x60\n        /* \"#utility.yul\":15392:15401   */\n      dup6\n        /* \"#utility.yul\":15388:15406   */\n      add\n        /* \"#utility.yul\":15375:15407   */\n      calldataload\n        /* \"#utility.yul\":15434:15452   */\n      0xffffffffffffffff\n        /* \"#utility.yul\":15426:15432   */\n      dup2\n        /* \"#utility.yul\":15423:15453   */\n      gt\n        /* \"#utility.yul\":15420:15537   */\n      iszero\n      tag_764\n      jumpi\n        /* \"#utility.yul\":15456:15535   */\n      tag_765\n      tag_556\n      jump\t// in\n    tag_765:\n        /* \"#utility.yul\":15420:15537   */\n    tag_764:\n        /* \"#utility.yul\":15561:15624   */\n      tag_766\n        /* \"#utility.yul\":15616:15623   */\n      dup8\n        /* \"#utility.yul\":15607:15613   */\n      dup3\n        /* \"#utility.yul\":15596:15605   */\n      dup9\n        /* \"#utility.yul\":15592:15614   */\n      add\n        /* \"#utility.yul\":15561:15624   */\n      tag_575\n      jump\t// in\n    tag_766:\n        /* \"#utility.yul\":15551:15624   */\n      swap2\n      pop\n        /* \"#utility.yul\":15346:15634   */\n      pop\n        /* \"#utility.yul\":14336:15641   */\n      swap3\n      swap6\n      swap2\n      swap5\n      pop\n      swap3\n      pop\n      jump\t// out\n        /* \"#utility.yul\":15647:17132   */\n    tag_89:\n        /* \"#utility.yul\":15773:15779   */\n      0x00\n        /* \"#utility.yul\":15781:15787   */\n      0x00\n        /* \"#utility.yul\":15789:15795   */\n      0x00\n        /* \"#utility.yul\":15797:15803   */\n      0x00\n        /* \"#utility.yul\":15846:15849   */\n      0x80\n        /* \"#utility.yul\":15834:15843   */\n      dup6\n        /* \"#utility.yul\":15825:15832   */\n      dup8\n        /* \"#utility.yul\":15821:15844   */\n      sub\n        /* \"#utility.yul\":15817:15850   */\n      slt\n        /* \"#utility.yul\":15814:15934   */\n      iszero\n      tag_768\n      jumpi\n        /* \"#utility.yul\":15853:15932   */\n      tag_769\n      tag_555\n      jump\t// in\n    tag_769:\n        /* \"#utility.yul\":15814:15934   */\n    tag_768:\n        /* \"#utility.yul\":16001:16002   */\n      0x00\n        /* \"#utility.yul\":15990:15999   */\n      dup6\n        /* \"#utility.yul\":15986:16003   */\n      add\n        /* \"#utility.yul\":15973:16004   */\n      calldataload\n        /* \"#utility.yul\":16031:16049   */\n      0xffffffffffffffff\n        /* \"#utility.yul\":16023:16029   */\n      dup2\n        /* \"#utility.yul\":16020:16050   */\n      gt\n        /* \"#utility.yul\":16017:16134   */\n      iszero\n      tag_770\n      jumpi\n        /* \"#utility.yul\":16053:16132   */\n      tag_771\n      tag_556\n      jump\t// in\n    tag_771:\n        /* \"#utility.yul\":16017:16134   */\n    tag_770:\n        /* \"#utility.yul\":16158:16221   */\n      tag_772\n        /* \"#utility.yul\":16213:16220   */\n      dup8\n        /* \"#utility.yul\":16204:16210   */\n      dup3\n        /* \"#utility.yul\":16193:16202   */\n      dup9\n        /* \"#utility.yul\":16189:16211   */\n      add\n        /* \"#utility.yul\":16158:16221   */\n      tag_575\n      jump\t// in\n    tag_772:\n        /* \"#utility.yul\":16148:16221   */\n      swap5\n      pop\n        /* \"#utility.yul\":15944:16231   */\n      pop\n        /* \"#utility.yul\":16298:16300   */\n      0x20\n        /* \"#utility.yul\":16287:16296   */\n      dup6\n        /* \"#utility.yul\":16283:16301   */\n      add\n        /* \"#utility.yul\":16270:16302   */\n      calldataload\n        /* \"#utility.yul\":16329:16347   */\n      0xffffffffffffffff\n        /* \"#utility.yul\":16321:16327   */\n      dup2\n        /* \"#utility.yul\":16318:16348   */\n      gt\n        /* \"#utility.yul\":16315:16432   */\n      iszero\n      tag_773\n      jumpi\n        /* \"#utility.yul\":16351:16430   */\n      tag_774\n      tag_556\n      jump\t// in\n    tag_774:\n        /* \"#utility.yul\":16315:16432   */\n    tag_773:\n        /* \"#utility.yul\":16456:16519   */\n      tag_775\n        /* \"#utility.yul\":16511:16518   */\n      dup8\n        /* \"#utility.yul\":16502:16508   */\n      dup3\n        /* \"#utility.yul\":16491:16500   */\n      dup9\n        /* \"#utility.yul\":16487:16509   */\n      add\n        /* \"#utility.yul\":16456:16519   */\n      tag_575\n      jump\t// in\n    tag_775:\n        /* \"#utility.yul\":16446:16519   */\n      swap4\n      pop\n        /* \"#utility.yul\":16241:16529   */\n      pop\n        /* \"#utility.yul\":16596:16598   */\n      0x40\n        /* \"#utility.yul\":16585:16594   */\n      dup6\n        /* \"#utility.yul\":16581:16599   */\n      add\n        /* \"#utility.yul\":16568:16600   */\n      calldataload\n        /* \"#utility.yul\":16627:16645   */\n      0xffffffffffffffff\n        /* \"#utility.yul\":16619:16625   */\n      dup2\n        /* \"#utility.yul\":16616:16646   */\n      gt\n        /* \"#utility.yul\":16613:16730   */\n      iszero\n      tag_776\n      jumpi\n        /* \"#utility.yul\":16649:16728   */\n      tag_777\n      tag_556\n      jump\t// in\n    tag_777:\n        /* \"#utility.yul\":16613:16730   */\n    tag_776:\n        /* \"#utility.yul\":16754:16817   */\n      tag_778\n        /* \"#utility.yul\":16809:16816   */\n      dup8\n        /* \"#utility.yul\":16800:16806   */\n      dup3\n        /* \"#utility.yul\":16789:16798   */\n      dup9\n        /* \"#utility.yul\":16785:16807   */\n      add\n        /* \"#utility.yul\":16754:16817   */\n      tag_575\n      jump\t// in\n    tag_778:\n        /* \"#utility.yul\":16744:16817   */\n      swap3\n      pop\n        /* \"#utility.yul\":16539:16827   */\n      pop\n        /* \"#utility.yul\":16894:16896   */\n      0x60\n        /* \"#utility.yul\":16883:16892   */\n      dup6\n        /* \"#utility.yul\":16879:16897   */\n      add\n        /* \"#utility.yul\":16866:16898   */\n      calldataload\n        /* \"#utility.yul\":16925:16943   */\n      0xffffffffffffffff\n        /* \"#utility.yul\":16917:16923   */\n      dup2\n        /* \"#utility.yul\":16914:16944   */\n      gt\n        /* \"#utility.yul\":16911:17028   */\n      iszero\n      tag_779\n      jumpi\n        /* \"#utility.yul\":16947:17026   */\n      tag_780\n      tag_556\n      jump\t// in\n    tag_780:\n        /* \"#utility.yul\":16911:17028   */\n    tag_779:\n        /* \"#utility.yul\":17052:17115   */\n      tag_781\n        /* \"#utility.yul\":17107:17114   */\n      dup8\n        /* \"#utility.yul\":17098:17104   */\n      dup3\n        /* \"#utility.yul\":17087:17096   */\n      dup9\n        /* \"#utility.yul\":17083:17105   */\n      add\n        /* \"#utility.yul\":17052:17115   */\n      tag_575\n      jump\t// in\n    tag_781:\n        /* \"#utility.yul\":17042:17115   */\n      swap2\n      pop\n        /* \"#utility.yul\":16837:17125   */\n      pop\n        /* \"#utility.yul\":15647:17132   */\n      swap3\n      swap6\n      swap2\n      swap5\n      pop\n      swap3\n      pop\n      jump\t// out\n        /* \"#utility.yul\":17138:17580   */\n    tag_95:\n        /* \"#utility.yul\":17287:17291   */\n      0x00\n        /* \"#utility.yul\":17325:17327   */\n      0x60\n        /* \"#utility.yul\":17314:17323   */\n      dup3\n        /* \"#utility.yul\":17310:17328   */\n      add\n        /* \"#utility.yul\":17302:17328   */\n      swap1\n      pop\n        /* \"#utility.yul\":17338:17409   */\n      tag_783\n        /* \"#utility.yul\":17406:17407   */\n      0x00\n        /* \"#utility.yul\":17395:17404   */\n      dup4\n        /* \"#utility.yul\":17391:17408   */\n      add\n        /* \"#utility.yul\":17382:17388   */\n      dup7\n        /* \"#utility.yul\":17338:17409   */\n      tag_560\n      jump\t// in\n    tag_783:\n        /* \"#utility.yul\":17419:17491   */\n      tag_784\n        /* \"#utility.yul\":17487:17489   */\n      0x20\n        /* \"#utility.yul\":17476:17485   */\n      dup4\n        /* \"#utility.yul\":17472:17490   */\n      add\n        /* \"#utility.yul\":17463:17469   */\n      dup6\n        /* \"#utility.yul\":17419:17491   */\n      tag_560\n      jump\t// in\n    tag_784:\n        /* \"#utility.yul\":17501:17573   */\n      tag_785\n        /* \"#utility.yul\":17569:17571   */\n      0x40\n        /* \"#utility.yul\":17558:17567   */\n      dup4\n        /* \"#utility.yul\":17554:17572   */\n      add\n        /* \"#utility.yul\":17545:17551   */\n      dup5\n        /* \"#utility.yul\":17501:17573   */\n      tag_560\n      jump\t// in\n    tag_785:\n        /* \"#utility.yul\":17138:17580   */\n      swap5\n      swap4\n      pop\n      pop\n      pop\n      pop\n      jump\t// out\n        /* \"#utility.yul\":17586:19217   */\n    tag_101:\n        /* \"#utility.yul\":17721:17727   */\n      0x00\n        /* \"#utility.yul\":17729:17735   */\n      0x00\n        /* \"#utility.yul\":17737:17743   */\n      0x00\n        /* \"#utility.yul\":17745:17751   */\n      0x00\n        /* \"#utility.yul\":17753:17759   */\n      0x00\n        /* \"#utility.yul\":17802:17805   */\n      0xa0\n        /* \"#utility.yul\":17790:17799   */\n      dup7\n        /* \"#utility.yul\":17781:17788   */\n      dup9\n        /* \"#utility.yul\":17777:17800   */\n      sub\n        /* \"#utility.yul\":17773:17806   */\n      slt\n        /* \"#utility.yul\":17770:17890   */\n      iszero\n      tag_787\n      jumpi\n        /* \"#utility.yul\":17809:17888   */\n      tag_788\n      tag_555\n      jump\t// in\n    tag_788:\n        /* \"#utility.yul\":17770:17890   */\n    tag_787:\n        /* \"#utility.yul\":17929:17930   */\n      0x00\n        /* \"#utility.yul\":17954:18007   */\n      tag_789\n        /* \"#utility.yul\":17999:18006   */\n      dup9\n        /* \"#utility.yul\":17990:17996   */\n      dup3\n        /* \"#utility.yul\":17979:17988   */\n      dup10\n        /* \"#utility.yul\":17975:17997   */\n      add\n        /* \"#utility.yul\":17954:18007   */\n      tag_559\n      jump\t// in\n    tag_789:\n        /* \"#utility.yul\":17944:18007   */\n      swap6\n      pop\n        /* \"#utility.yul\":17900:18017   */\n      pop\n        /* \"#utility.yul\":18084:18086   */\n      0x20\n        /* \"#utility.yul\":18073:18082   */\n      dup7\n        /* \"#utility.yul\":18069:18087   */\n      add\n        /* \"#utility.yul\":18056:18088   */\n      calldataload\n        /* \"#utility.yul\":18115:18133   */\n      0xffffffffffffffff\n        /* \"#utility.yul\":18107:18113   */\n      dup2\n        /* \"#utility.yul\":18104:18134   */\n      gt\n        /* \"#utility.yul\":18101:18218   */\n      iszero\n      tag_790\n      jumpi\n        /* \"#utility.yul\":18137:18216   */\n      tag_791\n      tag_556\n      jump\t// in\n    tag_791:\n        /* \"#utility.yul\":18101:18218   */\n    tag_790:\n        /* \"#utility.yul\":18242:18305   */\n      tag_792\n        /* \"#utility.yul\":18297:18304   */\n      dup9\n        /* \"#utility.yul\":18288:18294   */\n      dup3\n        /* \"#utility.yul\":18277:18286   */\n      dup10\n        /* \"#utility.yul\":18273:18295   */\n      add\n        /* \"#utility.yul\":18242:18305   */\n      tag_575\n      jump\t// in\n    tag_792:\n        /* \"#utility.yul\":18232:18305   */\n      swap5\n      pop\n        /* \"#utility.yul\":18027:18315   */\n      pop\n        /* \"#utility.yul\":18382:18384   */\n      0x40\n        /* \"#utility.yul\":18371:18380   */\n      dup7\n        /* \"#utility.yul\":18367:18385   */\n      add\n        /* \"#utility.yul\":18354:18386   */\n      calldataload\n        /* \"#utility.yul\":18413:18431   */\n      0xffffffffffffffff\n        /* \"#utility.yul\":18405:18411   */\n      dup2\n        /* \"#utility.yul\":18402:18432   */\n      gt\n        /* \"#utility.yul\":18399:18516   */\n      iszero\n      tag_793\n      jumpi\n        /* \"#utility.yul\":18435:18514   */\n      tag_794\n      tag_556\n      jump\t// in\n    tag_794:\n        /* \"#utility.yul\":18399:18516   */\n    tag_793:\n        /* \"#utility.yul\":18540:18603   */\n      tag_795\n        /* \"#utility.yul\":18595:18602   */\n      dup9\n        /* \"#utility.yul\":18586:18592   */\n      dup3\n        /* \"#utility.yul\":18575:18584   */\n      dup10\n        /* \"#utility.yul\":18571:18593   */\n      add\n        /* \"#utility.yul\":18540:18603   */\n      tag_575\n      jump\t// in\n    tag_795:\n        /* \"#utility.yul\":18530:18603   */\n      swap4\n      pop\n        /* \"#utility.yul\":18325:18613   */\n      pop\n        /* \"#utility.yul\":18680:18682   */\n      0x60\n        /* \"#utility.yul\":18669:18678   */\n      dup7\n        /* \"#utility.yul\":18665:18683   */\n      add\n        /* \"#utility.yul\":18652:18684   */\n      calldataload\n        /* \"#utility.yul\":18711:18729   */\n      0xffffffffffffffff\n        /* \"#utility.yul\":18703:18709   */\n      dup2\n        /* \"#utility.yul\":18700:18730   */\n      gt\n        /* \"#utility.yul\":18697:18814   */\n      iszero\n      tag_796\n      jumpi\n        /* \"#utility.yul\":18733:18812   */\n      tag_797\n      tag_556\n      jump\t// in\n    tag_797:\n        /* \"#utility.yul\":18697:18814   */\n    tag_796:\n        /* \"#utility.yul\":18838:18901   */\n      tag_798\n        /* \"#utility.yul\":18893:18900   */\n      dup9\n        /* \"#utility.yul\":18884:18890   */\n      dup3\n        /* \"#utility.yul\":18873:18882   */\n      dup10\n        /* \"#utility.yul\":18869:18891   */\n      add\n        /* \"#utility.yul\":18838:18901   */\n      tag_575\n      jump\t// in\n    tag_798:\n        /* \"#utility.yul\":18828:18901   */\n      swap3\n      pop\n        /* \"#utility.yul\":18623:18911   */\n      pop\n        /* \"#utility.yul\":18978:18981   */\n      0x80\n        /* \"#utility.yul\":18967:18976   */\n      dup7\n        /* \"#utility.yul\":18963:18982   */\n      add\n        /* \"#utility.yul\":18950:18983   */\n      calldataload\n        /* \"#utility.yul\":19010:19028   */\n      0xffffffffffffffff\n        /* \"#utility.yul\":19002:19008   */\n      dup2\n        /* \"#utility.yul\":18999:19029   */\n      gt\n        /* \"#utility.yul\":18996:19113   */\n      iszero\n      tag_799\n      jumpi\n        /* \"#utility.yul\":19032:19111   */\n      tag_800\n      tag_556\n      jump\t// in\n    tag_800:\n        /* \"#utility.yul\":18996:19113   */\n    tag_799:\n        /* \"#utility.yul\":19137:19200   */\n      tag_801\n        /* \"#utility.yul\":19192:19199   */\n      dup9\n        /* \"#utility.yul\":19183:19189   */\n      dup3\n        /* \"#utility.yul\":19172:19181   */\n      dup10\n        /* \"#utility.yul\":19168:19190   */\n      add\n        /* \"#utility.yul\":19137:19200   */\n      tag_575\n      jump\t// in\n    tag_801:\n        /* \"#utility.yul\":19127:19200   */\n      swap2\n      pop\n        /* \"#utility.yul\":18921:19210   */\n      pop\n        /* \"#utility.yul\":17586:19217   */\n      swap3\n      swap6\n      pop\n      swap3\n      swap6\n      swap1\n      swap4\n      pop\n      jump\t// out\n        /* \"#utility.yul\":19223:20802   */\n    tag_113:\n        /* \"#utility.yul\":19758:19762   */\n      0x00\n        /* \"#utility.yul\":19796:19799   */\n      0xa0\n        /* \"#utility.yul\":19785:19794   */\n      dup3\n        /* \"#utility.yul\":19781:19800   */\n      add\n        /* \"#utility.yul\":19773:19800   */\n      swap1\n      pop\n        /* \"#utility.yul\":19846:19855   */\n      dup2\n        /* \"#utility.yul\":19840:19844   */\n      dup2\n        /* \"#utility.yul\":19836:19856   */\n      sub\n        /* \"#utility.yul\":19832:19833   */\n      0x00\n        /* \"#utility.yul\":19821:19830   */\n      dup4\n        /* \"#utility.yul\":19817:19834   */\n      add\n        /* \"#utility.yul\":19810:19857   */\n      mstore\n        /* \"#utility.yul\":19874:19982   */\n      tag_803\n        /* \"#utility.yul\":19977:19981   */\n      dup2\n        /* \"#utility.yul\":19968:19974   */\n      dup9\n        /* \"#utility.yul\":19874:19982   */\n      tag_582\n      jump\t// in\n    tag_803:\n        /* \"#utility.yul\":19866:19982   */\n      swap1\n      pop\n        /* \"#utility.yul\":20029:20038   */\n      dup2\n        /* \"#utility.yul\":20023:20027   */\n      dup2\n        /* \"#utility.yul\":20019:20039   */\n      sub\n        /* \"#utility.yul\":20014:20016   */\n      0x20\n        /* \"#utility.yul\":20003:20012   */\n      dup4\n        /* \"#utility.yul\":19999:20017   */\n      add\n        /* \"#utility.yul\":19992:20040   */\n      mstore\n        /* \"#utility.yul\":20057:20185   */\n      tag_804\n        /* \"#utility.yul\":20180:20184   */\n      dup2\n        /* \"#utility.yul\":20171:20177   */\n      dup8\n        /* \"#utility.yul\":20057:20185   */\n      tag_590\n      jump\t// in\n    tag_804:\n        /* \"#utility.yul\":20049:20185   */\n      swap1\n      pop\n        /* \"#utility.yul\":20232:20241   */\n      dup2\n        /* \"#utility.yul\":20226:20230   */\n      dup2\n        /* \"#utility.yul\":20222:20242   */\n      sub\n        /* \"#utility.yul\":20217:20219   */\n      0x40\n        /* \"#utility.yul\":20206:20215   */\n      dup4\n        /* \"#utility.yul\":20202:20220   */\n      add\n        /* \"#utility.yul\":20195:20243   */\n      mstore\n        /* \"#utility.yul\":20260:20388   */\n      tag_805\n        /* \"#utility.yul\":20383:20387   */\n      dup2\n        /* \"#utility.yul\":20374:20380   */\n      dup7\n        /* \"#utility.yul\":20260:20388   */\n      tag_590\n      jump\t// in\n    tag_805:\n        /* \"#utility.yul\":20252:20388   */\n      swap1\n      pop\n        /* \"#utility.yul\":20435:20444   */\n      dup2\n        /* \"#utility.yul\":20429:20433   */\n      dup2\n        /* \"#utility.yul\":20425:20445   */\n      sub\n        /* \"#utility.yul\":20420:20422   */\n      0x60\n        /* \"#utility.yul\":20409:20418   */\n      dup4\n        /* \"#utility.yul\":20405:20423   */\n      add\n        /* \"#utility.yul\":20398:20446   */\n      mstore\n        /* \"#utility.yul\":20463:20591   */\n      tag_806\n        /* \"#utility.yul\":20586:20590   */\n      dup2\n        /* \"#utility.yul\":20577:20583   */\n      dup6\n        /* \"#utility.yul\":20463:20591   */\n      tag_590\n      jump\t// in\n    tag_806:\n        /* \"#utility.yul\":20455:20591   */\n      swap1\n      pop\n        /* \"#utility.yul\":20639:20648   */\n      dup2\n        /* \"#utility.yul\":20633:20637   */\n      dup2\n        /* \"#utility.yul\":20629:20649   */\n      sub\n        /* \"#utility.yul\":20623:20626   */\n      0x80\n        /* \"#utility.yul\":20612:20621   */\n      dup4\n        /* \"#utility.yul\":20608:20627   */\n      add\n        /* \"#utility.yul\":20601:20650   */\n      mstore\n        /* \"#utility.yul\":20667:20795   */\n      tag_807\n        /* \"#utility.yul\":20790:20794   */\n      dup2\n        /* \"#utility.yul\":20781:20787   */\n      dup5\n        /* \"#utility.yul\":20667:20795   */\n      tag_590\n      jump\t// in\n    tag_807:\n        /* \"#utility.yul\":20659:20795   */\n      swap1\n      pop\n        /* \"#utility.yul\":19223:20802   */\n      swap7\n      swap6\n      pop\n      pop\n      pop\n      pop\n      pop\n      pop\n      jump\t// out\n        /* \"#utility.yul\":20808:21836   */\n    tag_132:\n        /* \"#utility.yul\":21093:21097   */\n      0x00\n        /* \"#utility.yul\":21131:21134   */\n      0xa0\n        /* \"#utility.yul\":21120:21129   */\n      dup3\n        /* \"#utility.yul\":21116:21135   */\n      add\n        /* \"#utility.yul\":21108:21135   */\n      swap1\n      pop\n        /* \"#utility.yul\":21145:21216   */\n      tag_809\n        /* \"#utility.yul\":21213:21214   */\n      0x00\n        /* \"#utility.yul\":21202:21211   */\n      dup4\n        /* \"#utility.yul\":21198:21215   */\n      add\n        /* \"#utility.yul\":21189:21195   */\n      dup9\n        /* \"#utility.yul\":21145:21216   */\n      tag_560\n      jump\t// in\n    tag_809:\n        /* \"#utility.yul\":21263:21272   */\n      dup2\n        /* \"#utility.yul\":21257:21261   */\n      dup2\n        /* \"#utility.yul\":21253:21273   */\n      sub\n        /* \"#utility.yul\":21248:21250   */\n      0x20\n        /* \"#utility.yul\":21237:21246   */\n      dup4\n        /* \"#utility.yul\":21233:21251   */\n      add\n        /* \"#utility.yul\":21226:21274   */\n      mstore\n        /* \"#utility.yul\":21291:21369   */\n      tag_810\n        /* \"#utility.yul\":21364:21368   */\n      dup2\n        /* \"#utility.yul\":21355:21361   */\n      dup8\n        /* \"#utility.yul\":21291:21369   */\n      tag_565\n      jump\t// in\n    tag_810:\n        /* \"#utility.yul\":21283:21369   */\n      swap1\n      pop\n        /* \"#utility.yul\":21416:21425   */\n      dup2\n        /* \"#utility.yul\":21410:21414   */\n      dup2\n        /* \"#utility.yul\":21406:21426   */\n      sub\n        /* \"#utility.yul\":21401:21403   */\n      0x40\n        /* \"#utility.yul\":21390:21399   */\n      dup4\n        /* \"#utility.yul\":21386:21404   */\n      add\n        /* \"#utility.yul\":21379:21427   */\n      mstore\n        /* \"#utility.yul\":21444:21522   */\n      tag_811\n        /* \"#utility.yul\":21517:21521   */\n      dup2\n        /* \"#utility.yul\":21508:21514   */\n      dup7\n        /* \"#utility.yul\":21444:21522   */\n      tag_565\n      jump\t// in\n    tag_811:\n        /* \"#utility.yul\":21436:21522   */\n      swap1\n      pop\n        /* \"#utility.yul\":21569:21578   */\n      dup2\n        /* \"#utility.yul\":21563:21567   */\n      dup2\n        /* \"#utility.yul\":21559:21579   */\n      sub\n        /* \"#utility.yul\":21554:21556   */\n      0x60\n        /* \"#utility.yul\":21543:21552   */\n      dup4\n        /* \"#utility.yul\":21539:21557   */\n      add\n        /* \"#utility.yul\":21532:21580   */\n      mstore\n        /* \"#utility.yul\":21597:21675   */\n      tag_812\n        /* \"#utility.yul\":21670:21674   */\n      dup2\n        /* \"#utility.yul\":21661:21667   */\n      dup6\n        /* \"#utility.yul\":21597:21675   */\n      tag_565\n      jump\t// in\n    tag_812:\n        /* \"#utility.yul\":21589:21675   */\n      swap1\n      pop\n        /* \"#utility.yul\":21723:21732   */\n      dup2\n        /* \"#utility.yul\":21717:21721   */\n      dup2\n        /* \"#utility.yul\":21713:21733   */\n      sub\n        /* \"#utility.yul\":21707:21710   */\n      0x80\n        /* \"#utility.yul\":21696:21705   */\n      dup4\n        /* \"#utility.yul\":21692:21711   */\n      add\n        /* \"#utility.yul\":21685:21734   */\n      mstore\n        /* \"#utility.yul\":21751:21829   */\n      tag_813\n        /* \"#utility.yul\":21824:21828   */\n      dup2\n        /* \"#utility.yul\":21815:21821   */\n      dup5\n        /* \"#utility.yul\":21751:21829   */\n      tag_565\n      jump\t// in\n    tag_813:\n        /* \"#utility.yul\":21743:21829   */\n      swap1\n      pop\n        /* \"#utility.yul\":20808:21836   */\n      swap7\n      swap6\n      pop\n      pop\n      pop\n      pop\n      pop\n      pop\n      jump\t// out\n        /* \"#utility.yul\":21842:22064   */\n    tag_591:\n        /* \"#utility.yul\":21982:22016   */\n      0x4b6e6f776c65646765206261736520656e74727920646f6573206e6f74206578\n        /* \"#utility.yul\":21978:21979   */\n      0x00\n        /* \"#utility.yul\":21970:21976   */\n      dup3\n        /* \"#utility.yul\":21966:21980   */\n      add\n        /* \"#utility.yul\":21959:22017   */\n      mstore\n        /* \"#utility.yul\":22051:22056   */\n      0x6973740000000000000000000000000000000000000000000000000000000000\n        /* \"#utility.yul\":22046:22048   */\n      0x20\n        /* \"#utility.yul\":22038:22044   */\n      dup3\n        /* \"#utility.yul\":22034:22049   */\n      add\n        /* \"#utility.yul\":22027:22057   */\n      mstore\n        /* \"#utility.yul\":21842:22064   */\n      pop\n      jump\t// out\n        /* \"#utility.yul\":22070:22436   */\n    tag_592:\n        /* \"#utility.yul\":22212:22215   */\n      0x00\n        /* \"#utility.yul\":22233:22300   */\n      tag_816\n        /* \"#utility.yul\":22297:22299   */\n      0x23\n        /* \"#utility.yul\":22292:22295   */\n      dup4\n        /* \"#utility.yul\":22233:22300   */\n      tag_562\n      jump\t// in\n    tag_816:\n        /* \"#utility.yul\":22226:22300   */\n      swap2\n      pop\n        /* \"#utility.yul\":22309:22402   */\n      tag_817\n        /* \"#utility.yul\":22398:22401   */\n      dup3\n        /* \"#utility.yul\":22309:22402   */\n      tag_591\n      jump\t// in\n    tag_817:\n        /* \"#utility.yul\":22427:22429   */\n      0x40\n        /* \"#utility.yul\":22422:22425   */\n      dup3\n        /* \"#utility.yul\":22418:22430   */\n      add\n        /* \"#utility.yul\":22411:22430   */\n      swap1\n      pop\n        /* \"#utility.yul\":22070:22436   */\n      swap2\n      swap1\n      pop\n      jump\t// out\n        /* \"#utility.yul\":22442:22861   */\n    tag_136:\n        /* \"#utility.yul\":22608:22612   */\n      0x00\n        /* \"#utility.yul\":22646:22648   */\n      0x20\n        /* \"#utility.yul\":22635:22644   */\n      dup3\n        /* \"#utility.yul\":22631:22649   */\n      add\n        /* \"#utility.yul\":22623:22649   */\n      swap1\n      pop\n        /* \"#utility.yul\":22695:22704   */\n      dup2\n        /* \"#utility.yul\":22689:22693   */\n      dup2\n        /* \"#utility.yul\":22685:22705   */\n      sub\n        /* \"#utility.yul\":22681:22682   */\n      0x00\n        /* \"#utility.yul\":22670:22679   */\n      dup4\n        /* \"#utility.yul\":22666:22683   */\n      add\n        /* \"#utility.yul\":22659:22706   */\n      mstore\n        /* \"#utility.yul\":22723:22854   */\n      tag_819\n        /* \"#utility.yul\":22849:22853   */\n      dup2\n        /* \"#utility.yul\":22723:22854   */\n      tag_592\n      jump\t// in\n    tag_819:\n        /* \"#utility.yul\":22715:22854   */\n      swap1\n      pop\n        /* \"#utility.yul\":22442:22861   */\n      swap2\n      swap1\n      pop\n      jump\t// out\n        /* \"#utility.yul\":22867:23047   */\n    tag_593:\n        /* \"#utility.yul\":22915:22992   */\n      0x4e487b7100000000000000000000000000000000000000000000000000000000\n        /* \"#utility.yul\":22912:22913   */\n      0x00\n        /* \"#utility.yul\":22905:22993   */\n      mstore\n        /* \"#utility.yul\":23012:23016   */\n      0x22\n        /* \"#utility.yul\":23009:23010   */\n      0x04\n        /* \"#utility.yul\":23002:23017   */\n      mstore\n        /* \"#utility.yul\":23036:23040   */\n      0x24\n        /* \"#utility.yul\":23033:23034   */\n      0x00\n        /* \"#utility.yul\":23026:23041   */\n      revert\n        /* \"#utility.yul\":23053:23373   */\n    tag_139:\n        /* \"#utility.yul\":23097:23103   */\n      0x00\n        /* \"#utility.yul\":23134:23135   */\n      0x02\n        /* \"#utility.yul\":23128:23132   */\n      dup3\n        /* \"#utility.yul\":23124:23136   */\n      div\n        /* \"#utility.yul\":23114:23136   */\n      swap1\n      pop\n        /* \"#utility.yul\":23181:23182   */\n      0x01\n        /* \"#utility.yul\":23175:23179   */\n      dup3\n        /* \"#utility.yul\":23171:23183   */\n      and\n        /* \"#utility.yul\":23202:23220   */\n      dup1\n        /* \"#utility.yul\":23192:23273   */\n      tag_822\n      jumpi\n        /* \"#utility.yul\":23258:23262   */\n      0x7f\n        /* \"#utility.yul\":23250:23256   */\n      dup3\n        /* \"#utility.yul\":23246:23263   */\n      and\n        /* \"#utility.yul\":23236:23263   */\n      swap2\n      pop\n        /* \"#utility.yul\":23192:23273   */\n    tag_822:\n        /* \"#utility.yul\":23320:23322   */\n      0x20\n        /* \"#utility.yul\":23312:23318   */\n      dup3\n        /* \"#utility.yul\":23309:23323   */\n      lt\n        /* \"#utility.yul\":23289:23307   */\n      dup2\n        /* \"#utility.yul\":23286:23324   */\n      sub\n        /* \"#utility.yul\":23283:23367   */\n      tag_823\n      jumpi\n        /* \"#utility.yul\":23339:23357   */\n      tag_824\n      tag_593\n      jump\t// in\n    tag_824:\n        /* \"#utility.yul\":23283:23367   */\n    tag_823:\n        /* \"#utility.yul\":23104:23373   */\n      pop\n        /* \"#utility.yul\":23053:23373   */\n      swap2\n      swap1\n      pop\n      jump\t// out\n        /* \"#utility.yul\":23379:23550   */\n    tag_594:\n        /* \"#utility.yul\":23519:23542   */\n      0x5469746c652063616e6e6f7420626520656d7074790000000000000000000000\n        /* \"#utility.yul\":23515:23516   */\n      0x00\n        /* \"#utility.yul\":23507:23513   */\n      dup3\n        /* \"#utility.yul\":23503:23517   */\n      add\n        /* \"#utility.yul\":23496:23543   */\n      mstore\n        /* \"#utility.yul\":23379:23550   */\n      pop\n      jump\t// out\n        /* \"#utility.yul\":23556:23922   */\n    tag_595:\n        /* \"#utility.yul\":23698:23701   */\n      0x00\n        /* \"#utility.yul\":23719:23786   */\n      tag_827\n        /* \"#utility.yul\":23783:23785   */\n      0x15\n        /* \"#utility.yul\":23778:23781   */\n      dup4\n        /* \"#utility.yul\":23719:23786   */\n      tag_562\n      jump\t// in\n    tag_827:\n        /* \"#utility.yul\":23712:23786   */\n      swap2\n      pop\n        /* \"#utility.yul\":23795:23888   */\n      tag_828\n        /* \"#utility.yul\":23884:23887   */\n      dup3\n        /* \"#utility.yul\":23795:23888   */\n      tag_594\n      jump\t// in\n    tag_828:\n        /* \"#utility.yul\":23913:23915   */\n      0x20\n        /* \"#utility.yul\":23908:23911   */\n      dup3\n        /* \"#utility.yul\":23904:23916   */\n      add\n        /* \"#utility.yul\":23897:23916   */\n      swap1\n      pop\n        /* \"#utility.yul\":23556:23922   */\n      swap2\n      swap1\n      pop\n      jump\t// out\n        /* \"#utility.yul\":23928:24347   */\n    tag_177:\n        /* \"#utility.yul\":24094:24098   */\n      0x00\n        /* \"#utility.yul\":24132:24134   */\n      0x20\n        /* \"#utility.yul\":24121:24130   */\n      dup3\n        /* \"#utility.yul\":24117:24135   */\n      add\n        /* \"#utility.yul\":24109:24135   */\n      swap1\n      pop\n        /* \"#utility.yul\":24181:24190   */\n      dup2\n        /* \"#utility.yul\":24175:24179   */\n      dup2\n        /* \"#utility.yul\":24171:24191   */\n      sub\n        /* \"#utility.yul\":24167:24168   */\n      0x00\n        /* \"#utility.yul\":24156:24165   */\n      dup4\n        /* \"#utility.yul\":24152:24169   */\n      add\n        /* \"#utility.yul\":24145:24192   */\n      mstore\n        /* \"#utility.yul\":24209:24340   */\n      tag_830\n        /* \"#utility.yul\":24335:24339   */\n      dup2\n        /* \"#utility.yul\":24209:24340   */\n      tag_595\n      jump\t// in\n    tag_830:\n        /* \"#utility.yul\":24201:24340   */\n      swap1\n      pop\n        /* \"#utility.yul\":23928:24347   */\n      swap2\n      swap1\n      pop\n      jump\t// out\n        /* \"#utility.yul\":24353:24526   */\n    tag_596:\n        /* \"#utility.yul\":24493:24518   */\n      0x436f6e74656e742063616e6e6f7420626520656d707479000000000000000000\n        /* \"#utility.yul\":24489:24490   */\n      0x00\n        /* \"#utility.yul\":24481:24487   */\n      dup3\n        /* \"#utility.yul\":24477:24491   */\n      add\n        /* \"#utility.yul\":24470:24519   */\n      mstore\n        /* \"#utility.yul\":24353:24526   */\n      pop\n      jump\t// out\n        /* \"#utility.yul\":24532:24898   */\n    tag_597:\n        /* \"#utility.yul\":24674:24677   */\n      0x00\n        /* \"#utility.yul\":24695:24762   */\n      tag_833\n        /* \"#utility.yul\":24759:24761   */\n      0x17\n        /* \"#utility.yul\":24754:24757   */\n      dup4\n        /* \"#utility.yul\":24695:24762   */\n      tag_562\n      jump\t// in\n    tag_833:\n        /* \"#utility.yul\":24688:24762   */\n      swap2\n      pop\n        /* \"#utility.yul\":24771:24864   */\n      tag_834\n        /* \"#utility.yul\":24860:24863   */\n      dup3\n        /* \"#utility.yul\":24771:24864   */\n      tag_596\n      jump\t// in\n    tag_834:\n        /* \"#utility.yul\":24889:24891   */\n      0x20\n        /* \"#utility.yul\":24884:24887   */\n      dup3\n        /* \"#utility.yul\":24880:24892   */\n      add\n        /* \"#utility.yul\":24873:24892   */\n      swap1\n      pop\n        /* \"#utility.yul\":24532:24898   */\n      swap2\n      swap1\n      pop\n      jump\t// out\n        /* \"#utility.yul\":24904:25323   */\n    tag_180:\n        /* \"#utility.yul\":25070:25074   */\n      0x00\n        /* \"#utility.yul\":25108:25110   */\n      0x20\n        /* \"#utility.yul\":25097:25106   */\n      dup3\n        /* \"#utility.yul\":25093:25111   */\n      add\n        /* \"#utility.yul\":25085:25111   */\n      swap1\n      pop\n        /* \"#utility.yul\":25157:25166   */\n      dup2\n        /* \"#utility.yul\":25151:25155   */\n      dup2\n        /* \"#utility.yul\":25147:25167   */\n      sub\n        /* \"#utility.yul\":25143:25144   */\n      0x00\n        /* \"#utility.yul\":25132:25141   */\n      dup4\n        /* \"#utility.yul\":25128:25145   */\n      add\n        /* \"#utility.yul\":25121:25168   */\n      mstore\n        /* \"#utility.yul\":25185:25316   */\n      tag_836\n        /* \"#utility.yul\":25311:25315   */\n      dup2\n        /* \"#utility.yul\":25185:25316   */\n      tag_597\n      jump\t// in\n    tag_836:\n        /* \"#utility.yul\":25177:25316   */\n      swap1\n      pop\n        /* \"#utility.yul\":24904:25323   */\n      swap2\n      swap1\n      pop\n      jump\t// out\n        /* \"#utility.yul\":25329:25470   */\n    tag_598:\n        /* \"#utility.yul\":25378:25382   */\n      0x00\n        /* \"#utility.yul\":25401:25404   */\n      dup2\n        /* \"#utility.yul\":25393:25404   */\n      swap1\n      pop\n        /* \"#utility.yul\":25424:25427   */\n      dup2\n        /* \"#utility.yul\":25421:25422   */\n      0x00\n        /* \"#utility.yul\":25414:25428   */\n      mstore\n        /* \"#utility.yul\":25458:25462   */\n      0x20\n        /* \"#utility.yul\":25455:25456   */\n      0x00\n        /* \"#utility.yul\":25445:25463   */\n      keccak256\n        /* \"#utility.yul\":25437:25463   */\n      swap1\n      pop\n        /* \"#utility.yul\":25329:25470   */\n      swap2\n      swap1\n      pop\n      jump\t// out\n        /* \"#utility.yul\":25476:25569   */\n    tag_599:\n        /* \"#utility.yul\":25513:25519   */\n      0x00\n        /* \"#utility.yul\":25560:25562   */\n      0x20\n        /* \"#utility.yul\":25555:25557   */\n      0x1f\n        /* \"#utility.yul\":25548:25553   */\n      dup4\n        /* \"#utility.yul\":25544:25558   */\n      add\n        /* \"#utility.yul\":25540:25563   */\n      div\n        /* \"#utility.yul\":25530:25563   */\n      swap1\n      pop\n        /* \"#utility.yul\":25476:25569   */\n      swap2\n      swap1\n      pop\n      jump\t// out\n        /* \"#utility.yul\":25575:25682   */\n    tag_600:\n        /* \"#utility.yul\":25619:25627   */\n      0x00\n        /* \"#utility.yul\":25669:25674   */\n      dup3\n        /* \"#utility.yul\":25663:25667   */\n      dup3\n        /* \"#utility.yul\":25659:25675   */\n      shl\n        /* \"#utility.yul\":25638:25675   */\n      swap1\n      pop\n        /* \"#utility.yul\":25575:25682   */\n      swap3\n      swap2\n      pop\n      pop\n      jump\t// out\n        /* \"#utility.yul\":25688:26081   */\n    tag_601:\n        /* \"#utility.yul\":25757:25763   */\n      0x00\n        /* \"#utility.yul\":25807:25808   */\n      0x08\n        /* \"#utility.yul\":25795:25805   */\n      dup4\n        /* \"#utility.yul\":25791:25809   */\n      mul\n        /* \"#utility.yul\":25830:25927   */\n      tag_841\n        /* \"#utility.yul\":25860:25926   */\n      0xffffffffffffffffffffffffffffffffffffffffffffffffffffffffffffffff\n        /* \"#utility.yul\":25849:25858   */\n      dup3\n        /* \"#utility.yul\":25830:25927   */\n      tag_600\n      jump\t// in\n    tag_841:\n        /* \"#utility.yul\":25948:25987   */\n      tag_842\n        /* \"#utility.yul\":25978:25986   */\n      dup7\n        /* \"#utility.yul\":25967:25976   */\n      dup4\n        /* \"#utility.yul\":25948:25987   */\n      tag_600\n      jump\t// in\n    tag_842:\n        /* \"#utility.yul\":25936:25987   */\n      swap6\n      pop\n        /* \"#utility.yul\":26020:26024   */\n      dup1\n        /* \"#utility.yul\":26016:26025   */\n      not\n        /* \"#utility.yul\":26009:26014   */\n      dup5\n        /* \"#utility.yul\":26005:26026   */\n      and\n        /* \"#utility.yul\":25996:26026   */\n      swap4\n      pop\n        /* \"#utility.yul\":26069:26073   */\n      dup1\n        /* \"#utility.yul\":26059:26067   */\n      dup7\n        /* \"#utility.yul\":26055:26074   */\n      and\n        /* \"#utility.yul\":26048:26053   */\n      dup5\n        /* \"#utility.yul\":26045:26075   */\n      or\n        /* \"#utility.yul\":26035:26075   */\n      swap3\n      pop\n        /* \"#utility.yul\":25764:26081   */\n      pop\n      pop\n        /* \"#utility.yul\":25688:26081   */\n      swap4\n      swap3\n      pop\n      pop\n      pop\n      jump\t// out\n        /* \"#utility.yul\":26087:26147   */\n    tag_602:\n        /* \"#utility.yul\":26115:26118   */\n      0x00\n        /* \"#utility.yul\":26136:26141   */\n      dup2\n        /* \"#utility.yul\":26129:26141   */\n      swap1\n      pop\n        /* \"#utility.yul\":26087:26147   */\n      swap2\n      swap1\n      pop\n      jump\t// out\n        /* \"#utility.yul\":26153:26295   */\n    tag_603:\n        /* \"#utility.yul\":26203:26212   */\n      0x00\n        /* \"#utility.yul\":26236:26289   */\n      tag_845\n        /* \"#utility.yul\":26254:26288   */\n      tag_846\n        /* \"#utility.yul\":26263:26287   */\n      tag_847\n        /* \"#utility.yul\":26281:26286   */\n      dup5\n        /* \"#utility.yul\":26263:26287   */\n      tag_557\n      jump\t// in\n    tag_847:\n        /* \"#utility.yul\":26254:26288   */\n      tag_602\n      jump\t// in\n    tag_846:\n        /* \"#utility.yul\":26236:26289   */\n      tag_557\n      jump\t// in\n    tag_845:\n        /* \"#utility.yul\":26223:26289   */\n      swap1\n      pop\n        /* \"#utility.yul\":26153:26295   */\n      swap2\n      swap1\n      pop\n      jump\t// out\n        /* \"#utility.yul\":26301:26376   */\n    tag_604:\n        /* \"#utility.yul\":26344:26347   */\n      0x00\n        /* \"#utility.yul\":26365:26370   */\n      dup2\n        /* \"#utility.yul\":26358:26370   */\n      swap1\n      pop\n        /* \"#utility.yul\":26301:26376   */\n      swap2\n      swap1\n      pop\n      jump\t// out\n        /* \"#utility.yul\":26382:26651   */\n    tag_605:\n        /* \"#utility.yul\":26492:26531   */\n      tag_850\n        /* \"#utility.yul\":26523:26530   */\n      dup4\n        /* \"#utility.yul\":26492:26531   */\n      tag_603\n      jump\t// in\n    tag_850:\n        /* \"#utility.yul\":26553:26644   */\n      tag_851\n        /* \"#utility.yul\":26602:26643   */\n      tag_852\n        /* \"#utility.yul\":26626:26642   */\n      dup3\n        /* \"#utility.yul\":26602:26643   */\n      tag_604\n      jump\t// in\n    tag_852:\n        /* \"#utility.yul\":26594:26600   */\n      dup5\n        /* \"#utility.yul\":26587:26591   */\n      dup5\n        /* \"#utility.yul\":26581:26592   */\n      sload\n        /* \"#utility.yul\":26553:26644   */\n      tag_601\n      jump\t// in\n    tag_851:\n        /* \"#utility.yul\":26547:26551   */\n      dup3\n        /* \"#utility.yul\":26540:26645   */\n      sstore\n        /* \"#utility.yul\":26458:26651   */\n      pop\n        /* \"#utility.yul\":26382:26651   */\n      pop\n      pop\n      pop\n      jump\t// out\n        /* \"#utility.yul\":26657:26730   */\n    tag_606:\n        /* \"#utility.yul\":26702:26705   */\n      0x00\n        /* \"#utility.yul\":26723:26724   */\n      0x00\n        /* \"#utility.yul\":26716:26724   */\n      swap1\n      pop\n        /* \"#utility.yul\":26657:26730   */\n      swap1\n      jump\t// out\n        /* \"#utility.yul\":26736:26925   */\n    tag_607:\n        /* \"#utility.yul\":26813:26845   */\n      tag_855\n      tag_606\n      jump\t// in\n    tag_855:\n        /* \"#utility.yul\":26854:26919   */\n      tag_856\n        /* \"#utility.yul\":26912:26918   */\n      dup2\n        /* \"#utility.yul\":26904:26910   */\n      dup5\n        /* \"#utility.yul\":26898:26902   */\n      dup5\n        /* \"#utility.yul\":26854:26919   */\n      tag_605\n      jump\t// in\n    tag_856:\n        /* \"#utility.yul\":26789:26925   */\n      pop\n        /* \"#utility.yul\":26736:26925   */\n      pop\n      pop\n      jump\t// out\n        /* \"#utility.yul\":26931:27117   */\n    tag_608:\n        /* \"#utility.yul\":26991:27111   */\n    tag_858:\n        /* \"#utility.yul\":27008:27011   */\n      dup2\n        /* \"#utility.yul\":27001:27006   */\n      dup2\n        /* \"#utility.yul\":26998:27012   */\n      lt\n        /* \"#utility.yul\":26991:27111   */\n      iszero\n      tag_860\n      jumpi\n        /* \"#utility.yul\":27062:27101   */\n      tag_861\n        /* \"#utility.yul\":27099:27100   */\n      0x00\n        /* \"#utility.yul\":27092:27097   */\n      dup3\n        /* \"#utility.yul\":27062:27101   */\n      tag_607\n      jump\t// in\n    tag_861:\n        /* \"#utility.yul\":27035:27036   */\n      0x01\n        /* \"#utility.yul\":27028:27033   */\n      dup2\n        /* \"#utility.yul\":27024:27037   */\n      add\n        /* \"#utility.yul\":27015:27037   */\n      swap1\n      pop\n        /* \"#utility.yul\":26991:27111   */\n      jump(tag_858)\n    tag_860:\n        /* \"#utility.yul\":26931:27117   */\n      pop\n      pop\n      jump\t// out\n        /* \"#utility.yul\":27123:27666   */\n    tag_609:\n        /* \"#utility.yul\":27224:27226   */\n      0x1f\n        /* \"#utility.yul\":27219:27222   */\n      dup3\n        /* \"#utility.yul\":27216:27227   */\n      gt\n        /* \"#utility.yul\":27213:27659   */\n      iszero\n      tag_863\n      jumpi\n        /* \"#utility.yul\":27258:27296   */\n      tag_864\n        /* \"#utility.yul\":27290:27295   */\n      dup2\n        /* \"#utility.yul\":27258:27296   */\n      tag_598\n      jump\t// in\n    tag_864:\n        /* \"#utility.yul\":27342:27371   */\n      tag_865\n        /* \"#utility.yul\":27360:27370   */\n      dup5\n        /* \"#utility.yul\":27342:27371   */\n      tag_599\n      jump\t// in\n    tag_865:\n        /* \"#utility.yul\":27332:27340   */\n      dup2\n        /* \"#utility.yul\":27328:27372   */\n      add\n        /* \"#utility.yul\":27525:27527   */\n      0x20\n        /* \"#utility.yul\":27513:27523   */\n      dup6\n        /* \"#utility.yul\":27510:27528   */\n      lt\n        /* \"#utility.yul\":27507:27556   */\n      iszero\n      tag_866\n      jumpi\n        /* \"#utility.yul\":27546:27554   */\n      dup2\n        /* \"#utility.yul\":27531:27554   */\n      swap1\n      pop\n        /* \"#utility.yul\":27507:27556   */\n    tag_866:\n        /* \"#utility.yul\":27569:27649   */\n      tag_867\n        /* \"#utility.yul\":27625:27647   */\n      tag_868\n        /* \"#utility.yul\":27643:27646   */\n      dup6\n        /* \"#utility.yul\":27625:27647   */\n      tag_599\n      jump\t// in\n    tag_868:\n        /* \"#utility.yul\":27615:27623   */\n      dup4\n        /* \"#utility.yul\":27611:27648   */\n      add\n        /* \"#utility.yul\":27598:27609   */\n      dup3\n        /* \"#utility.yul\":27569:27649   */\n      tag_608\n      jump\t// in\n    tag_867:\n        /* \"#utility.yul\":27228:27659   */\n      pop\n      pop\n        /* \"#utility.yul\":27213:27659   */\n    tag_863:\n        /* \"#utility.yul\":27123:27666   */\n      pop\n      pop\n      pop\n      jump\t// out\n        /* \"#utility.yul\":27672:27789   */\n    tag_610:\n        /* \"#utility.yul\":27726:27734   */\n      0x00\n        /* \"#utility.yul\":27776:27781   */\n      dup3\n        /* \"#utility.yul\":27770:27774   */\n      dup3\n        /* \"#utility.yul\":27766:27782   */\n      shr\n        /* \"#utility.yul\":27745:27782   */\n      swap1\n      pop\n        /* \"#utility.yul\":27672:27789   */\n      swap3\n      swap2\n      pop\n      pop\n      jump\t// out\n        /* \"#utility.yul\":27795:27964   */\n    tag_611:\n        /* \"#utility.yul\":27839:27845   */\n      0x00\n        /* \"#utility.yul\":27872:27923   */\n      tag_871\n        /* \"#utility.yul\":27920:27921   */\n      0x00\n        /* \"#utility.yul\":27916:27922   */\n      not\n        /* \"#utility.yul\":27908:27913   */\n      dup5\n        /* \"#utility.yul\":27905:27906   */\n      0x08\n        /* \"#utility.yul\":27901:27914   */\n      mul\n        /* \"#utility.yul\":27872:27923   */\n      tag_610\n      jump\t// in\n    tag_871:\n        /* \"#utility.yul\":27868:27924   */\n      not\n        /* \"#utility.yul\":27953:27957   */\n      dup1\n        /* \"#utility.yul\":27947:27951   */\n      dup4\n        /* \"#utility.yul\":27943:27958   */\n      and\n        /* \"#utility.yul\":27933:27958   */\n      swap2\n      pop\n        /* \"#utility.yul\":27846:27964   */\n      pop\n        /* \"#utility.yul\":27795:27964   */\n      swap3\n      swap2\n      pop\n      pop\n      jump\t// out\n        /* \"#utility.yul\":27969:28264   */\n    tag_612:\n        /* \"#utility.yul\":28045:28049   */\n      0x00\n        /* \"#utility.yul\":28191:28220   */\n      tag_873\n        /* \"#utility.yul\":28216:28219   */\n      dup4\n        /* \"#utility.yul\":28210:28214   */\n      dup4\n        /* \"#utility.yul\":28191:28220   */\n      tag_611\n      jump\t// in\n    tag_873:\n        /* \"#utility.yul\":28183:28220   */\n      swap2\n      pop\n        /* \"#utility.yul\":28253:28256   */\n      dup3\n        /* \"#utility.yul\":28250:28251   */\n      0x02\n        /* \"#utility.yul\":28246:28257   */\n      mul\n        /* \"#utility.yul\":28240:28244   */\n      dup3\n        /* \"#utility.yul\":28237:28258   */\n      or\n        /* \"#utility.yul\":28229:28258   */\n      swap1\n      pop\n        /* \"#utility.yul\":27969:28264   */\n      swap3\n      swap2\n      pop\n      pop\n      jump\t// out\n        /* \"#utility.yul\":28269:29664   */\n    tag_182:\n        /* \"#utility.yul\":28386:28423   */\n      tag_875\n        /* \"#utility.yul\":28419:28422   */\n      dup3\n        /* \"#utility.yul\":28386:28423   */\n      tag_561\n      jump\t// in\n    tag_875:\n        /* \"#utility.yul\":28488:28506   */\n      0xffffffffffffffff\n        /* \"#utility.yul\":28480:28486   */\n      dup2\n        /* \"#utility.yul\":28477:28507   */\n      gt\n        /* \"#utility.yul\":28474:28530   */\n      iszero\n      tag_876\n      jumpi\n        /* \"#utility.yul\":28510:28528   */\n      tag_877\n      tag_273\n      jump\t// in\n    tag_877:\n        /* \"#utility.yul\":28474:28530   */\n    tag_876:\n        /* \"#utility.yul\":28554:28592   */\n      tag_878\n        /* \"#utility.yul\":28586:28590   */\n      dup3\n        /* \"#utility.yul\":28580:28591   */\n      sload\n        /* \"#utility.yul\":28554:28592   */\n      tag_139\n      jump\t// in\n    tag_878:\n        /* \"#utility.yul\":28639:28706   */\n      tag_879\n        /* \"#utility.yul\":28699:28705   */\n      dup3\n        /* \"#utility.yul\":28691:28697   */\n      dup3\n        /* \"#utility.yul\":28685:28689   */\n      dup6\n        /* \"#utility.yul\":28639:28706   */\n      tag_609\n      jump\t// in\n    tag_879:\n        /* \"#utility.yul\":28733:28734   */\n      0x00\n        /* \"#utility.yul\":28757:28761   */\n      0x20\n        /* \"#utility.yul\":28744:28761   */\n      swap1\n      pop\n        /* \"#utility.yul\":28789:28791   */\n      0x1f\n        /* \"#utility.yul\":28781:28787   */\n      dup4\n        /* \"#utility.yul\":28778:28792   */\n      gt\n        /* \"#utility.yul\":28806:28807   */\n      0x01\n        /* \"#utility.yul\":28801:29419   */\n      dup2\n      eq\n      tag_881\n      jumpi\n        /* \"#utility.yul\":29463:29464   */\n      0x00\n        /* \"#utility.yul\":29480:29486   */\n      dup5\n        /* \"#utility.yul\":29477:29554   */\n      iszero\n      tag_882\n      jumpi\n        /* \"#utility.yul\":29529:29538   */\n      dup3\n        /* \"#utility.yul\":29524:29527   */\n      dup8\n        /* \"#utility.yul\":29520:29539   */\n      add\n        /* \"#utility.yul\":29514:29540   */\n      mload\n        /* \"#utility.yul\":29505:29540   */\n      swap1\n      pop\n        /* \"#utility.yul\":29477:29554   */\n    tag_882:\n        /* \"#utility.yul\":29580:29647   */\n      tag_883\n        /* \"#utility.yul\":29640:29646   */\n      dup6\n        /* \"#utility.yul\":29633:29638   */\n      dup3\n        /* \"#utility.yul\":29580:29647   */\n      tag_612\n      jump\t// in\n    tag_883:\n        /* \"#utility.yul\":29574:29578   */\n      dup7\n        /* \"#utility.yul\":29567:29648   */\n      sstore\n        /* \"#utility.yul\":29436:29658   */\n      pop\n        /* \"#utility.yul\":28771:29658   */\n      jump(tag_880)\n        /* \"#utility.yul\":28801:29419   */\n    tag_881:\n        /* \"#utility.yul\":28853:28857   */\n      0x1f\n        /* \"#utility.yul\":28849:28858   */\n      not\n        /* \"#utility.yul\":28841:28847   */\n      dup5\n        /* \"#utility.yul\":28837:28859   */\n      and\n        /* \"#utility.yul\":28887:28924   */\n      tag_884\n        /* \"#utility.yul\":28919:28923   */\n      dup7\n        /* \"#utility.yul\":28887:28924   */\n      tag_598\n      jump\t// in\n    tag_884:\n        /* \"#utility.yul\":28946:28947   */\n      0x00\n        /* \"#utility.yul\":28960:29168   */\n    tag_885:\n        /* \"#utility.yul\":28974:28981   */\n      dup3\n        /* \"#utility.yul\":28971:28972   */\n      dup2\n        /* \"#utility.yul\":28968:28982   */\n      lt\n        /* \"#utility.yul\":28960:29168   */\n      iszero\n      tag_887\n      jumpi\n        /* \"#utility.yul\":29053:29062   */\n      dup5\n        /* \"#utility.yul\":29048:29051   */\n      dup10\n        /* \"#utility.yul\":29044:29063   */\n      add\n        /* \"#utility.yul\":29038:29064   */\n      mload\n        /* \"#utility.yul\":29030:29036   */\n      dup3\n        /* \"#utility.yul\":29023:29065   */\n      sstore\n        /* \"#utility.yul\":29104:29105   */\n      0x01\n        /* \"#utility.yul\":29096:29102   */\n      dup3\n        /* \"#utility.yul\":29092:29106   */\n      add\n        /* \"#utility.yul\":29082:29106   */\n      swap2\n      pop\n        /* \"#utility.yul\":29151:29153   */\n      0x20\n        /* \"#utility.yul\":29140:29149   */\n      dup6\n        /* \"#utility.yul\":29136:29154   */\n      add\n        /* \"#utility.yul\":29123:29154   */\n      swap5\n      pop\n        /* \"#utility.yul\":28997:29001   */\n      0x20\n        /* \"#utility.yul\":28994:28995   */\n      dup2\n        /* \"#utility.yul\":28990:29002   */\n      add\n        /* \"#utility.yul\":28985:29002   */\n      swap1\n      pop\n        /* \"#utility.yul\":28960:29168   */\n      jump(tag_885)\n    tag_887:\n        /* \"#utility.yul\":29196:29202   */\n      dup7\n        /* \"#utility.yul\":29187:29194   */\n      dup4\n        /* \"#utility.yul\":29184:29203   */\n      lt\n        /* \"#utility.yul\":29181:29360   */\n      iszero\n      tag_888\n      jumpi\n        /* \"#utility.yul\":29254:29263   */\n      dup5\n        /* \"#utility.yul\":29249:29252   */\n      dup10\n        /* \"#utility.yul\":29245:29264   */\n      add\n        /* \"#utility.yul\":29239:29265   */\n      mload\n        /* \"#utility.yul\":29297:29345   */\n      tag_889\n        /* \"#utility.yul\":29339:29343   */\n      0x1f\n        /* \"#utility.yul\":29331:29337   */\n      dup10\n        /* \"#utility.yul\":29327:29344   */\n      and\n        /* \"#utility.yul\":29316:29325   */\n      dup3\n        /* \"#utility.yul\":29297:29345   */\n      tag_611\n      jump\t// in\n    tag_889:\n        /* \"#utility.yul\":29289:29295   */\n      dup4\n        /* \"#utility.yul\":29282:29346   */\n      sstore\n        /* \"#utility.yul\":29204:29360   */\n      pop\n        /* \"#utility.yul\":29181:29360   */\n    tag_888:\n        /* \"#utility.yul\":29406:29407   */\n      0x01\n        /* \"#utility.yul\":29402:29403   */\n      0x02\n        /* \"#utility.yul\":29394:29400   */\n      dup9\n        /* \"#utility.yul\":29390:29404   */\n      mul\n        /* \"#utility.yul\":29386:29408   */\n      add\n        /* \"#utility.yul\":29380:29384   */\n      dup9\n        /* \"#utility.yul\":29373:29409   */\n      sstore\n        /* \"#utility.yul\":28808:29419   */\n      pop\n      pop\n      pop\n        /* \"#utility.yul\":28771:29658   */\n    tag_880:\n      pop\n        /* \"#utility.yul\":28361:29664   */\n      pop\n      pop\n      pop\n        /* \"#utility.yul\":28269:29664   */\n      pop\n      pop\n      jump\t// out\n        /* \"#utility.yul\":29670:30184   */\n    tag_187:\n        /* \"#utility.yul\":29831:29835   */\n      0x00\n        /* \"#utility.yul\":29869:29871   */\n      0x40\n        /* \"#utility.yul\":29858:29867   */\n      dup3\n        /* \"#utility.yul\":29854:29872   */\n      add\n        /* \"#utility.yul\":29846:29872   */\n      swap1\n      pop\n        /* \"#utility.yul\":29918:29927   */\n      dup2\n        /* \"#utility.yul\":29912:29916   */\n      dup2\n        /* \"#utility.yul\":29908:29928   */\n      sub\n        /* \"#utility.yul\":29904:29905   */\n      0x00\n        /* \"#utility.yul\":29893:29902   */\n      dup4\n        /* \"#utility.yul\":29889:29906   */\n      add\n        /* \"#utility.yul\":29882:29929   */\n      mstore\n        /* \"#utility.yul\":29946:30024   */\n      tag_891\n        /* \"#utility.yul\":30019:30023   */\n      dup2\n        /* \"#utility.yul\":30010:30016   */\n      dup6\n        /* \"#utility.yul\":29946:30024   */\n      tag_565\n      jump\t// in\n    tag_891:\n        /* \"#utility.yul\":29938:30024   */\n      swap1\n      pop\n        /* \"#utility.yul\":30071:30080   */\n      dup2\n        /* \"#utility.yul\":30065:30069   */\n      dup2\n        /* \"#utility.yul\":30061:30081   */\n      sub\n        /* \"#utility.yul\":30056:30058   */\n      0x20\n        /* \"#utility.yul\":30045:30054   */\n      dup4\n        /* \"#utility.yul\":30041:30059   */\n      add\n        /* \"#utility.yul\":30034:30082   */\n      mstore\n        /* \"#utility.yul\":30099:30177   */\n      tag_892\n        /* \"#utility.yul\":30172:30176   */\n      dup2\n        /* \"#utility.yul\":30163:30169   */\n      dup5\n        /* \"#utility.yul\":30099:30177   */\n      tag_565\n      jump\t// in\n    tag_892:\n        /* \"#utility.yul\":30091:30177   */\n      swap1\n      pop\n        /* \"#utility.yul\":29670:30184   */\n      swap4\n      swap3\n      pop\n      pop\n      pop\n      jump\t// out\n        /* \"#utility.yul\":30190:30362   */\n    tag_613:\n        /* \"#utility.yul\":30330:30354   */\n      0x50726f6a65637420646f6573206e6f7420657869737400000000000000000000\n        /* \"#utility.yul\":30326:30327   */\n      0x00\n        /* \"#utility.yul\":30318:30324   */\n      dup3\n        /* \"#utility.yul\":30314:30328   */\n      add\n        /* \"#utility.yul\":30307:30355   */\n      mstore\n        /* \"#utility.yul\":30190:30362   */\n      pop\n      jump\t// out\n        /* \"#utility.yul\":30368:30734   */\n    tag_614:\n        /* \"#utility.yul\":30510:30513   */\n      0x00\n        /* \"#utility.yul\":30531:30598   */\n      tag_895\n        /* \"#utility.yul\":30595:30597   */\n      0x16\n        /* \"#utility.yul\":30590:30593   */\n      dup4\n        /* \"#utility.yul\":30531:30598   */\n      tag_562\n      jump\t// in\n    tag_895:\n        /* \"#utility.yul\":30524:30598   */\n      swap2\n      pop\n        /* \"#utility.yul\":30607:30700   */\n      tag_896\n        /* \"#utility.yul\":30696:30699   */\n      dup3\n        /* \"#utility.yul\":30607:30700   */\n      tag_613\n      jump\t// in\n    tag_896:\n        /* \"#utility.yul\":30725:30727   */\n      0x20\n        /* \"#utility.yul\":30720:30723   */\n      dup3\n        /* \"#utility.yul\":30716:30728   */\n      add\n        /* \"#utility.yul\":30709:30728   */\n      swap1\n      pop\n        /* \"#utility.yul\":30368:30734   */\n      swap2\n      swap1\n      pop\n      jump\t// out\n        /* \"#utility.yul\":30740:31159   */\n    tag_211:\n        /* \"#utility.yul\":30906:30910   */\n      0x00\n        /* \"#utility.yul\":30944:30946   */\n      0x20\n        /* \"#utility.yul\":30933:30942   */\n      dup3\n        /* \"#utility.yul\":30929:30947   */\n      add\n        /* \"#utility.yul\":30921:30947   */\n      swap1\n      pop\n        /* \"#utility.yul\":30993:31002   */\n      dup2\n        /* \"#utility.yul\":30987:30991   */\n      dup2\n        /* \"#utility.yul\":30983:31003   */\n      sub\n        /* \"#utility.yul\":30979:30980   */\n      0x00\n        /* \"#utility.yul\":30968:30977   */\n      dup4\n        /* \"#utility.yul\":30964:30981   */\n      add\n        /* \"#utility.yul\":30957:31004   */\n      mstore\n        /* \"#utility.yul\":31021:31152   */\n      tag_898\n        /* \"#utility.yul\":31147:31151   */\n      dup2\n        /* \"#utility.yul\":31021:31152   */\n      tag_614\n      jump\t// in\n    tag_898:\n        /* \"#utility.yul\":31013:31152   */\n      swap1\n      pop\n        /* \"#utility.yul\":30740:31159   */\n      swap2\n      swap1\n      pop\n      jump\t// out\n        /* \"#utility.yul\":31165:31345   */\n    tag_218:\n        /* \"#utility.yul\":31213:31290   */\n      0x4e487b7100000000000000000000000000000000000000000000000000000000\n        /* \"#utility.yul\":31210:31211   */\n      0x00\n        /* \"#utility.yul\":31203:31291   */\n      mstore\n        /* \"#utility.yul\":31310:31314   */\n      0x32\n        /* \"#utility.yul\":31307:31308   */\n      0x04\n        /* \"#utility.yul\":31300:31315   */\n      mstore\n        /* \"#utility.yul\":31334:31338   */\n      0x24\n        /* \"#utility.yul\":31331:31332   */\n      0x00\n        /* \"#utility.yul\":31324:31339   */\n      revert\n        /* \"#utility.yul\":31351:31531   */\n    tag_615:\n        /* \"#utility.yul\":31399:31476   */\n      0x4e487b7100000000000000000000000000000000000000000000000000000000\n        /* \"#utility.yul\":31396:31397   */\n      0x00\n        /* \"#utility.yul\":31389:31477   */\n      mstore\n        /* \"#utility.yul\":31496:31500   */\n      0x11\n        /* \"#utility.yul\":31493:31494   */\n      0x04\n        /* \"#utility.yul\":31486:31501   */\n      mstore\n        /* \"#utility.yul\":31520:31524   */\n      0x24\n        /* \"#utility.yul\":31517:31518   */\n      0x00\n        /* \"#utility.yul\":31510:31525   */\n      revert\n        /* \"#utility.yul\":31537:31731   */\n    tag_222:\n        /* \"#utility.yul\":31577:31581   */\n      0x00\n        /* \"#utility.yul\":31597:31617   */\n      tag_902\n        /* \"#utility.yul\":31615:31616   */\n      dup3\n        /* \"#utility.yul\":31597:31617   */\n      tag_557\n      jump\t// in\n    tag_902:\n        /* \"#utility.yul\":31592:31617   */\n      swap2\n      pop\n        /* \"#utility.yul\":31631:31651   */\n      tag_903\n        /* \"#utility.yul\":31649:31650   */\n      dup4\n        /* \"#utility.yul\":31631:31651   */\n      tag_557\n      jump\t// in\n    tag_903:\n        /* \"#utility.yul\":31626:31651   */\n      swap3\n      pop\n        /* \"#utility.yul\":31675:31676   */\n      dup3\n        /* \"#utility.yul\":31672:31673   */\n      dup3\n        /* \"#utility.yul\":31668:31677   */\n      sub\n        /* \"#utility.yul\":31660:31677   */\n      swap1\n      pop\n        /* \"#utility.yul\":31699:31700   */\n      dup2\n        /* \"#utility.yul\":31693:31697   */\n      dup2\n        /* \"#utility.yul\":31690:31701   */\n      gt\n        /* \"#utility.yul\":31687:31724   */\n      iszero\n      tag_904\n      jumpi\n        /* \"#utility.yul\":31704:31722   */\n      tag_905\n      tag_615\n      jump\t// in\n    tag_905:\n        /* \"#utility.yul\":31687:31724   */\n    tag_904:\n        /* \"#utility.yul\":31537:31731   */\n      swap3\n      swap2\n      pop\n      pop\n      jump\t// out\n        /* \"#utility.yul\":31737:31917   */\n    tag_231:\n        /* \"#utility.yul\":31785:31862   */\n      0x4e487b7100000000000000000000000000000000000000000000000000000000\n        /* \"#utility.yul\":31782:31783   */\n      0x00\n        /* \"#utility.yul\":31775:31863   */\n      mstore\n        /* \"#utility.yul\":31882:31886   */\n      0x31\n        /* \"#utility.yul\":31879:31880   */\n      0x04\n        /* \"#utility.yul\":31872:31887   */\n      mstore\n        /* \"#utility.yul\":31906:31910   */\n      0x24\n        /* \"#utility.yul\":31903:31904   */\n      0x00\n        /* \"#utility.yul\":31896:31911   */\n      revert\n        /* \"#utility.yul\":31923:32093   */\n    tag_616:\n        /* \"#utility.yul\":32063:32085   */\n      0x4e616d652063616e6e6f7420626520656d707479000000000000000000000000\n        /* \"#utility.yul\":32059:32060   */\n      0x00\n        /* \"#utility.yul\":32051:32057   */\n      dup3\n        /* \"#utility.yul\":32047:32061   */\n      add\n        /* \"#utility.yul\":32040:32086   */\n      mstore\n        /* \"#utility.yul\":31923:32093   */\n      pop\n      jump\t// out\n        /* \"#utility.yul\":32099:32465   */\n    tag_617:\n        /* \"#utility.yul\":32241:32244   */\n      0x00\n        /* \"#utility.yul\":32262:32329   */\n      tag_909\n        /* \"#utility.yul\":32326:32328   */\n      0x14\n        /* \"#utility.yul\":32321:32324   */\n      dup4\n        /* \"#utility.yul\":32262:32329   */\n      tag_562\n      jump\t// in\n    tag_909:\n        /* \"#utility.yul\":32255:32329   */\n      swap2\n      pop\n        /* \"#utility.yul\":32338:32431   */\n      tag_910\n        /* \"#utility.yul\":32427:32430   */\n      dup3\n        /* \"#utility.yul\":32338:32431   */\n      tag_616\n      jump\t// in\n    tag_910:\n        /* \"#utility.yul\":32456:32458   */\n      0x20\n        /* \"#utility.yul\":32451:32454   */\n      dup3\n        /* \"#utility.yul\":32447:32459   */\n      add\n        /* \"#utility.yul\":32440:32459   */\n      swap1\n      pop\n        /* \"#utility.yul\":32099:32465   */\n      swap2\n      swap1\n      pop\n      jump\t// out\n        /* \"#utility.yul\":32471:32890   */\n    tag_238:\n        /* \"#utility.yul\":32637:32641   */\n      0x00\n        /* \"#utility.yul\":32675:32677   */\n      0x20\n        /* \"#utility.yul\":32664:32673   */\n      dup3\n        /* \"#utility.yul\":32660:32678   */\n      add\n        /* \"#utility.yul\":32652:32678   */\n      swap1\n      pop\n        /* \"#utility.yul\":32724:32733   */\n      dup2\n        /* \"#utility.yul\":32718:32722   */\n      dup2\n        /* \"#utility.yul\":32714:32734   */\n      sub\n        /* \"#utility.yul\":32710:32711   */\n      0x00\n        /* \"#utility.yul\":32699:32708   */\n      dup4\n        /* \"#utility.yul\":32695:32712   */\n      add\n        /* \"#utility.yul\":32688:32735   */\n      mstore\n        /* \"#utility.yul\":32752:32883   */\n      tag_912\n        /* \"#utility.yul\":32878:32882   */\n      dup2\n        /* \"#utility.yul\":32752:32883   */\n      tag_617\n      jump\t// in\n    tag_912:\n        /* \"#utility.yul\":32744:32883   */\n      swap1\n      pop\n        /* \"#utility.yul\":32471:32890   */\n      swap2\n      swap1\n      pop\n      jump\t// out\n        /* \"#utility.yul\":32896:33067   */\n    tag_618:\n        /* \"#utility.yul\":33036:33059   */\n      0x456d61696c2063616e6e6f7420626520656d7074790000000000000000000000\n        /* \"#utility.yul\":33032:33033   */\n      0x00\n        /* \"#utility.yul\":33024:33030   */\n      dup3\n        /* \"#utility.yul\":33020:33034   */\n      add\n        /* \"#utility.yul\":33013:33060   */\n      mstore\n        /* \"#utility.yul\":32896:33067   */\n      pop\n      jump\t// out\n        /* \"#utility.yul\":33073:33439   */\n    tag_619:\n        /* \"#utility.yul\":33215:33218   */\n      0x00\n        /* \"#utility.yul\":33236:33303   */\n      tag_915\n        /* \"#utility.yul\":33300:33302   */\n      0x15\n        /* \"#utility.yul\":33295:33298   */\n      dup4\n        /* \"#utility.yul\":33236:33303   */\n      tag_562\n      jump\t// in\n    tag_915:\n        /* \"#utility.yul\":33229:33303   */\n      swap2\n      pop\n        /* \"#utility.yul\":33312:33405   */\n      tag_916\n        /* \"#utility.yul\":33401:33404   */\n      dup3\n        /* \"#utility.yul\":33312:33405   */\n      tag_618\n      jump\t// in\n    tag_916:\n        /* \"#utility.yul\":33430:33432   */\n      0x20\n        /* \"#utility.yul\":33425:33428   */\n      dup3\n        /* \"#utility.yul\":33421:33433   */\n      add\n        /* \"#utility.yul\":33414:33433   */\n      swap1\n      pop\n        /* \"#utility.yul\":33073:33439   */\n      swap2\n      swap1\n      pop\n      jump\t// out\n        /* \"#utility.yul\":33445:33864   */\n    tag_241:\n        /* \"#utility.yul\":33611:33615   */\n      0x00\n        /* \"#utility.yul\":33649:33651   */\n      0x20\n        /* \"#utility.yul\":33638:33647   */\n      dup3\n        /* \"#utility.yul\":33634:33652   */\n      add\n        /* \"#utility.yul\":33626:33652   */\n      swap1\n      pop\n        /* \"#utility.yul\":33698:33707   */\n      dup2\n        /* \"#utility.yul\":33692:33696   */\n      dup2\n        /* \"#utility.yul\":33688:33708   */\n      sub\n        /* \"#utility.yul\":33684:33685   */\n      0x00\n        /* \"#utility.yul\":33673:33682   */\n      dup4\n        /* \"#utility.yul\":33669:33686   */\n      add\n        /* \"#utility.yul\":33662:33709   */\n      mstore\n        /* \"#utility.yul\":33726:33857   */\n      tag_918\n        /* \"#utility.yul\":33852:33856   */\n      dup2\n        /* \"#utility.yul\":33726:33857   */\n      tag_619\n      jump\t// in\n    tag_918:\n        /* \"#utility.yul\":33718:33857   */\n      swap1\n      pop\n        /* \"#utility.yul\":33445:33864   */\n      swap2\n      swap1\n      pop\n      jump\t// out\n        /* \"#utility.yul\":33870:34585   */\n    tag_247:\n        /* \"#utility.yul\":34079:34083   */\n      0x00\n        /* \"#utility.yul\":34117:34119   */\n      0x60\n        /* \"#utility.yul\":34106:34115   */\n      dup3\n        /* \"#utility.yul\":34102:34120   */\n      add\n        /* \"#utility.yul\":34094:34120   */\n      swap1\n      pop\n        /* \"#utility.yul\":34166:34175   */\n      dup2\n        /* \"#utility.yul\":34160:34164   */\n      dup2\n        /* \"#utility.yul\":34156:34176   */\n      sub\n        /* \"#utility.yul\":34152:34153   */\n      0x00\n        /* \"#utility.yul\":34141:34150   */\n      dup4\n        /* \"#utility.yul\":34137:34154   */\n      add\n        /* \"#utility.yul\":34130:34177   */\n      mstore\n        /* \"#utility.yul\":34194:34272   */\n      tag_920\n        /* \"#utility.yul\":34267:34271   */\n      dup2\n        /* \"#utility.yul\":34258:34264   */\n      dup7\n        /* \"#utility.yul\":34194:34272   */\n      tag_565\n      jump\t// in\n    tag_920:\n        /* \"#utility.yul\":34186:34272   */\n      swap1\n      pop\n        /* \"#utility.yul\":34319:34328   */\n      dup2\n        /* \"#utility.yul\":34313:34317   */\n      dup2\n        /* \"#utility.yul\":34309:34329   */\n      sub\n        /* \"#utility.yul\":34304:34306   */\n      0x20\n        /* \"#utility.yul\":34293:34302   */\n      dup4\n        /* \"#utility.yul\":34289:34307   */\n      add\n        /* \"#utility.yul\":34282:34330   */\n      mstore\n        /* \"#utility.yul\":34347:34425   */\n      tag_921\n        /* \"#utility.yul\":34420:34424   */\n      dup2\n        /* \"#utility.yul\":34411:34417   */\n      dup6\n        /* \"#utility.yul\":34347:34425   */\n      tag_565\n      jump\t// in\n    tag_921:\n        /* \"#utility.yul\":34339:34425   */\n      swap1\n      pop\n        /* \"#utility.yul\":34472:34481   */\n      dup2\n        /* \"#utility.yul\":34466:34470   */\n      dup2\n        /* \"#utility.yul\":34462:34482   */\n      sub\n        /* \"#utility.yul\":34457:34459   */\n      0x40\n        /* \"#utility.yul\":34446:34455   */\n      dup4\n        /* \"#utility.yul\":34442:34460   */\n      add\n        /* \"#utility.yul\":34435:34483   */\n      mstore\n        /* \"#utility.yul\":34500:34578   */\n      tag_922\n        /* \"#utility.yul\":34573:34577   */\n      dup2\n        /* \"#utility.yul\":34564:34570   */\n      dup5\n        /* \"#utility.yul\":34500:34578   */\n      tag_565\n      jump\t// in\n    tag_922:\n        /* \"#utility.yul\":34492:34578   */\n      swap1\n      pop\n        /* \"#utility.yul\":33870:34585   */\n      swap5\n      swap4\n      pop\n      pop\n      pop\n      pop\n      jump\t// out\n        /* \"#utility.yul\":34591:34764   */\n    tag_620:\n        /* \"#utility.yul\":34731:34756   */\n      0x437573746f6d657220646f6573206e6f74206578697374000000000000000000\n        /* \"#utility.yul\":34727:34728   */\n      0x00\n        /* \"#utility.yul\":34719:34725   */\n      dup3\n        /* \"#utility.yul\":34715:34729   */\n      add\n        /* \"#utility.yul\":34708:34757   */\n      mstore\n        /* \"#utility.yul\":34591:34764   */\n      pop\n      jump\t// out\n        /* \"#utility.yul\":34770:35136   */\n    tag_621:\n        /* \"#utility.yul\":34912:34915   */\n      0x00\n        /* \"#utility.yul\":34933:35000   */\n      tag_925\n        /* \"#utility.yul\":34997:34999   */\n      0x17\n        /* \"#utility.yul\":34992:34995   */\n      dup4\n        /* \"#utility.yul\":34933:35000   */\n      tag_562\n      jump\t// in\n    tag_925:\n        /* \"#utility.yul\":34926:35000   */\n      swap2\n      pop\n        /* \"#utility.yul\":35009:35102   */\n      tag_926\n        /* \"#utility.yul\":35098:35101   */\n      dup3\n        /* \"#utility.yul\":35009:35102   */\n      tag_620\n      jump\t// in\n    tag_926:\n        /* \"#utility.yul\":35127:35129   */\n      0x20\n        /* \"#utility.yul\":35122:35125   */\n      dup3\n        /* \"#utility.yul\":35118:35130   */\n      add\n        /* \"#utility.yul\":35111:35130   */\n      swap1\n      pop\n        /* \"#utility.yul\":34770:35136   */\n      swap2\n      swap1\n      pop\n      jump\t// out\n        /* \"#utility.yul\":35142:35561   */\n    tag_251:\n        /* \"#utility.yul\":35308:35312   */\n      0x00\n        /* \"#utility.yul\":35346:35348   */\n      0x20\n        /* \"#utility.yul\":35335:35344   */\n      dup3\n        /* \"#utility.yul\":35331:35349   */\n      add\n        /* \"#utility.yul\":35323:35349   */\n      swap1\n      pop\n        /* \"#utility.yul\":35395:35404   */\n      dup2\n        /* \"#utility.yul\":35389:35393   */\n      dup2\n        /* \"#utility.yul\":35385:35405   */\n      sub\n        /* \"#utility.yul\":35381:35382   */\n      0x00\n        /* \"#utility.yul\":35370:35379   */\n      dup4\n        /* \"#utility.yul\":35366:35383   */\n      add\n        /* \"#utility.yul\":35359:35406   */\n      mstore\n        /* \"#utility.yul\":35423:35554   */\n      tag_928\n        /* \"#utility.yul\":35549:35553   */\n      dup2\n        /* \"#utility.yul\":35423:35554   */\n      tag_621\n      jump\t// in\n    tag_928:\n        /* \"#utility.yul\":35415:35554   */\n      swap1\n      pop\n        /* \"#utility.yul\":35142:35561   */\n      swap2\n      swap1\n      pop\n      jump\t// out\n        /* \"#utility.yul\":35567:35741   */\n    tag_622:\n        /* \"#utility.yul\":35707:35733   */\n      0x437573746f6d65722063616e6e6f7420626520656d7074790000000000000000\n        /* \"#utility.yul\":35703:35704   */\n      0x00\n        /* \"#utility.yul\":35695:35701   */\n      dup3\n        /* \"#utility.yul\":35691:35705   */\n      add\n        /* \"#utility.yul\":35684:35734   */\n      mstore\n        /* \"#utility.yul\":35567:35741   */\n      pop\n      jump\t// out\n        /* \"#utility.yul\":35747:36113   */\n    tag_623:\n        /* \"#utility.yul\":35889:35892   */\n      0x00\n        /* \"#utility.yul\":35910:35977   */\n      tag_931\n        /* \"#utility.yul\":35974:35976   */\n      0x18\n        /* \"#utility.yul\":35969:35972   */\n      dup4\n        /* \"#utility.yul\":35910:35977   */\n      tag_562\n      jump\t// in\n    tag_931:\n        /* \"#utility.yul\":35903:35977   */\n      swap2\n      pop\n        /* \"#utility.yul\":35986:36079   */\n      tag_932\n        /* \"#utility.yul\":36075:36078   */\n      dup3\n        /* \"#utility.yul\":35986:36079   */\n      tag_622\n      jump\t// in\n    tag_932:\n        /* \"#utility.yul\":36104:36106   */\n      0x20\n        /* \"#utility.yul\":36099:36102   */\n      dup3\n        /* \"#utility.yul\":36095:36107   */\n      add\n        /* \"#utility.yul\":36088:36107   */\n      swap1\n      pop\n        /* \"#utility.yul\":35747:36113   */\n      swap2\n      swap1\n      pop\n      jump\t// out\n        /* \"#utility.yul\":36119:36538   */\n    tag_378:\n        /* \"#utility.yul\":36285:36289   */\n      0x00\n        /* \"#utility.yul\":36323:36325   */\n      0x20\n        /* \"#utility.yul\":36312:36321   */\n      dup3\n        /* \"#utility.yul\":36308:36326   */\n      add\n        /* \"#utility.yul\":36300:36326   */\n      swap1\n      pop\n        /* \"#utility.yul\":36372:36381   */\n      dup2\n        /* \"#utility.yul\":36366:36370   */\n      dup2\n        /* \"#utility.yul\":36362:36382   */\n      sub\n        /* \"#utility.yul\":36358:36359   */\n      0x00\n        /* \"#utility.yul\":36347:36356   */\n      dup4\n        /* \"#utility.yul\":36343:36360   */\n      add\n        /* \"#utility.yul\":36336:36383   */\n      mstore\n        /* \"#utility.yul\":36400:36531   */\n      tag_934\n        /* \"#utility.yul\":36526:36530   */\n      dup2\n        /* \"#utility.yul\":36400:36531   */\n      tag_623\n      jump\t// in\n    tag_934:\n        /* \"#utility.yul\":36392:36531   */\n      swap1\n      pop\n        /* \"#utility.yul\":36119:36538   */\n      swap2\n      swap1\n      pop\n      jump\t// out\n\n    auxdata: 0xa264697066735822122078f2b80311425159ff891283e509df6d0ff961ee391860c02cb5fa9ac6221c0364736f6c634300081e0033\n}\n",
				"bytecode": {
					"linkReferences": {},
					"object": "6080604052348015600e575f5ffd5b506141be8061001c5f395ff3fe608060405234801561000f575f5ffd5b5060043610610171575f3560e01c80637da67ba8116100dc578063ddaa91e111610095578063eb876f271161006f578063eb876f27146104b3578063ebf898f2146104e6578063ed8de1af14610502578063f0f3f2c81461051e57610171565b8063ddaa91e114610443578063e0dc79e614610461578063e35d14721461048357610171565b80637da67ba814610364578063a26ac37514610385578063a5373899146103b5578063b1a76029146103d5578063bef9549c146103f3578063c0abda2a1461040f57610171565b80634cd0cb281161012e5780634cd0cb281461028f5780635580288b146102ab57806355b059e8146102db57806356d7548f1461030b578063582dc196146103275780636f4afa081461034857610171565b806305708f1f14610175578063107046bd146101a85780631f5fdd0b146101dd578063444807841461020d57806348c35ad4146102415780634ac6476614610271575b5f5ffd5b61018f600480360381019061018a9190613075565b610552565b60405161019f949392919061311f565b60405180910390f35b6101c260048036038101906101bd9190613075565b6107cd565b6040516101d496959493929190613191565b60405180910390f35b6101f760048036038101906101f29190613338565b610a29565b60405161020491906133dc565b60405180910390f35b61022760048036038101906102229190613075565b610bc5565b6040516102389594939291906133f5565b60405180910390f35b61025b60048036038101906102569190613075565b610d94565b60405161026891906133dc565b60405180910390f35b610279610db4565b6040516102869190613512565b60405180910390f35b6102a960048036038101906102a49190613075565b610e0a565b005b6102c560048036038101906102c09190613075565b610f82565b6040516102d291906133dc565b60405180910390f35b6102f560048036038101906102f09190613338565b610fa2565b60405161030291906133dc565b60405180910390f35b61032560048036038101906103209190613075565b611141565b005b61032f6112b9565b60405161033f9493929190613635565b60405180910390f35b610362600480360381019061035d9190613694565b6116c4565b005b61036c61184e565b60405161037c9493929190613635565b60405180910390f35b61039f600480360381019061039a919061374c565b611c5a565b6040516103ac91906133dc565b60405180910390f35b6103bd611e16565b6040516103cc93929190613820565b60405180910390f35b6103dd611e36565b6040516103ea9190613512565b60405180910390f35b61040d60048036038101906104089190613855565b611e8c565b005b61042960048036038101906104249190613075565b61203f565b60405161043a9594939291906133f5565b60405180910390f35b61044b61220f565b6040516104589190613512565b60405180910390f35b610469612265565b60405161047a95949392919061393c565b60405180910390f35b61049d60048036038101906104989190613075565b612777565b6040516104aa91906133dc565b60405180910390f35b6104cd60048036038101906104c89190613075565b612797565b6040516104dd949392919061311f565b60405180910390f35b61050060048036038101906104fb9190613694565b612a14565b005b61051c60048036038101906105179190613075565b612ba4565b005b61053860048036038101906105339190613075565b612d1a565b6040516105499594939291906139b0565b60405180910390f35b5f6060806060845f5f8281526020019081526020015f206004015f9054906101000a900460ff166105b8576040517f08c379a00000000000000000000000000000000000000000000000000000000081526004016105af90613a8d565b60405180910390fd5b5f5f5f8881526020019081526020015f206040518060a00160405290815f82015481526020016001820180546105ed90613ad8565b80601f016020809104026020016040519081016040528092919081815260200182805461061990613ad8565b80156106645780601f1061063b57610100808354040283529160200191610664565b820191905f5260205f20905b81548152906001019060200180831161064757829003601f168201915b5050505050815260200160028201805461067d90613ad8565b80601f01602080910402602001604051908101604052809291908181526020018280546106a990613ad8565b80156106f45780601f106106cb576101008083540402835291602001916106f4565b820191905f5260205f20905b8154815290600101906020018083116106d757829003601f168201915b5050505050815260200160038201805461070d90613ad8565b80601f016020809104026020016040519081016040528092919081815260200182805461073990613ad8565b80156107845780601f1061075b57610100808354040283529160200191610784565b820191905f5260205f20905b81548152906001019060200180831161076757829003601f168201915b50505050508152602001600482015f9054906101000a900460ff1615151515815250509050805f0151816020015182604001518360600151955095509550955050509193509193565b6002602052805f5260405f205f91509050805f0154908060010180546107f290613ad8565b80601f016020809104026020016040519081016040528092919081815260200182805461081e90613ad8565b80156108695780601f1061084057610100808354040283529160200191610869565b820191905f5260205f20905b81548152906001019060200180831161084c57829003601f168201915b50505050509080600201805461087e90613ad8565b80601f01602080910402602001604051908101604052809291908181526020018280546108aa90613ad8565b80156108f55780601f106108cc576101008083540402835291602001916108f5565b820191905f5260205f20905b8154815290600101906020018083116108d857829003601f168201915b50505050509080600301805461090a90613ad8565b80601f016020809104026020016040519081016040528092919081815260200182805461093690613ad8565b80156109815780601f1061095857610100808354040283529160200191610981565b820191905f5260205f20905b81548152906001019060200180831161096457829003601f168201915b50505050509080600401805461099690613ad8565b80601f01602080910402602001604051908101604052809291908181526020018280546109c290613ad8565b8015610a0d5780601f106109e457610100808354040283529160200191610a0d565b820191905f5260205f20905b8154815290600101906020018083116109f057829003601f168201915b505050505090806005015f9054906101000a900460ff16905086565b5f5f845111610a6d576040517f08c379a0000000000000000000000000000000000000000000000000000000008152600401610a6490613b52565b60405180910390fd5b5f825111610ab0576040517f08c379a0000000000000000000000000000000000000000000000000000000008152600401610aa790613bba565b60405180910390fd5b5f4290506040518060a00160405280828152602001868152602001858152602001848152602001600115158152505f5f8381526020019081526020015f205f820151815f01556020820151816001019081610b0b9190613d78565b506040820151816002019081610b219190613d78565b506060820151816003019081610b379190613d78565b506080820151816004015f6101000a81548160ff021916908315150217905550905050600381908060018154018082558091505060019003905f5260205f20015f9091909190915055807f391061d00bbcacb4737f35e1aad1f0ba1bd5dded6872f8ead8df4a01752fcce58686604051610bb2929190613e47565b60405180910390a2809150509392505050565b5f602052805f5260405f205f91509050805f015490806001018054610be990613ad8565b80601f0160208091040260200160405190810160405280929190818152602001828054610c1590613ad8565b8015610c605780601f10610c3757610100808354040283529160200191610c60565b820191905f5260205f20905b815481529060010190602001808311610c4357829003601f168201915b505050505090806002018054610c7590613ad8565b80601f0160208091040260200160405190810160405280929190818152602001828054610ca190613ad8565b8015610cec5780601f10610cc357610100808354040283529160200191610cec565b820191905f5260205f20905b815481529060010190602001808311610ccf57829003601f168201915b505050505090806003018054610d0190613ad8565b80601f0160208091040260200160405190810160405280929190818152602001828054610d2d90613ad8565b8015610d785780601f10610d4f57610100808354040283529160200191610d78565b820191905f5260205f20905b815481529060010190602001808311610d5b57829003601f168201915b505050505090806004015f9054906101000a900460ff16905085565b60058181548110610da3575f80fd5b905f5260205f20015f915090505481565b60606005805480602002602001604051908101604052809291908181526020018280548015610e0057602002820191905f5260205f20905b815481526020019060010190808311610dec575b5050505050905090565b8060025f8281526020019081526020015f206005015f9054906101000a900460ff16610e6b576040517f08c379a0000000000000000000000000000000000000000000000000000000008152600401610e6290613ec6565b60405180910390fd5b5f60025f8481526020019081526020015f206005015f6101000a81548160ff0219169083151502179055505f5f90505b600580549050811015610f50578260058281548110610ebd57610ebc613ee4565b5b905f5260205f20015403610f435760056001600580549050610edf9190613f3e565b81548110610ef057610eef613ee4565b5b905f5260205f20015460058281548110610f0d57610f0c613ee4565b5b905f5260205f2001819055506005805480610f2b57610f2a613f71565b5b600190038181905f5260205f20015f90559055610f50565b8080600101915050610e9b565b50817f8c2a9a6341bba6c545de035fe1175518191d1ec50716506635b641372af17c5f60405160405180910390a25050565b60048181548110610f91575f80fd5b905f5260205f20015f915090505481565b5f5f845111610fe6576040517f08c379a0000000000000000000000000000000000000000000000000000000008152600401610fdd90613fe8565b60405180910390fd5b5f835111611029576040517f08c379a000000000000000000000000000000000000000000000000000000000815260040161102090614050565b60405180910390fd5b5f4290506040518060a001604052808281526020018681526020018581526020018481526020016001151581525060015f8381526020019081526020015f205f820151815f015560208201518160010190816110859190613d78565b50604082015181600201908161109b9190613d78565b5060608201518160030190816110b19190613d78565b506080820151816004015f6101000a81548160ff021916908315150217905550905050600481908060018154018082558091505060019003905f5260205f20015f9091909190915055807f464ed6364245d5262890ad9c3aceb68d236653cc6792bf198b7f3e362c90fe9b86868660405161112e9392919061406e565b60405180910390a2809150509392505050565b8060015f8281526020019081526020015f206004015f9054906101000a900460ff166111a2576040517f08c379a000000000000000000000000000000000000000000000000000000000815260040161119990614102565b60405180910390fd5b5f60015f8481526020019081526020015f206004015f6101000a81548160ff0219169083151502179055505f5f90505b6004805490508110156112875782600482815481106111f4576111f3613ee4565b5b905f5260205f2001540361127a57600460016004805490506112169190613f3e565b8154811061122757611226613ee4565b5b905f5260205f2001546004828154811061124457611243613ee4565b5b905f5260205f200181905550600480548061126257611261613f71565b5b600190038181905f5260205f20015f90559055611287565b80806001019150506111d2565b50817f327dfee2f9edce80488b1d1c2717031edb90a8862cf2ca9a363d40ddb55d72bf60405160405180910390a25050565b6060806060805f60038054905090508067ffffffffffffffff8111156112e2576112e1613214565b5b6040519080825280602002602001820160405280156113105781602001602082028036833780820191505090505b5094508067ffffffffffffffff81111561132d5761132c613214565b5b60405190808252806020026020018201604052801561136057816020015b606081526020019060019003908161134b5790505b5093508067ffffffffffffffff81111561137d5761137c613214565b5b6040519080825280602002602001820160405280156113b057816020015b606081526020019060019003908161139b5790505b5092508067ffffffffffffffff8111156113cd576113cc613214565b5b60405190808252806020026020018201604052801561140057816020015b60608152602001906001900390816113eb5790505b5091505f5f90505b818110156116bc575f6003828154811061142557611424613ee4565b5b905f5260205f20015490505f5f5f8381526020019081526020015f206040518060a00160405290815f820154815260200160018201805461146590613ad8565b80601f016020809104026020016040519081016040528092919081815260200182805461149190613ad8565b80156114dc5780601f106114b3576101008083540402835291602001916114dc565b820191905f5260205f20905b8154815290600101906020018083116114bf57829003601f168201915b505050505081526020016002820180546114f590613ad8565b80601f016020809104026020016040519081016040528092919081815260200182805461152190613ad8565b801561156c5780601f106115435761010080835404028352916020019161156c565b820191905f5260205f20905b81548152906001019060200180831161154f57829003601f168201915b5050505050815260200160038201805461158590613ad8565b80601f01602080910402602001604051908101604052809291908181526020018280546115b190613ad8565b80156115fc5780601f106115d3576101008083540402835291602001916115fc565b820191905f5260205f20905b8154815290600101906020018083116115df57829003601f168201915b50505050508152602001600482015f9054906101000a900460ff1615151515815250509050805f015188848151811061163857611637613ee4565b5b602002602001018181525050806020015187848151811061165c5761165b613ee4565b5b6020026020010181905250806040015186848151811061167f5761167e613ee4565b5b602002602001018190525080606001518584815181106116a2576116a1613ee4565b5b602002602001018190525050508080600101915050611408565b505090919293565b835f5f8281526020019081526020015f206004015f9054906101000a900460ff16611724576040517f08c379a000000000000000000000000000000000000000000000000000000000815260040161171b90613a8d565b60405180910390fd5b5f845111611767576040517f08c379a000000000000000000000000000000000000000000000000000000000815260040161175e90613b52565b60405180910390fd5b5f8251116117aa576040517f08c379a00000000000000000000000000000000000000000000000000000000081526004016117a190613bba565b60405180910390fd5b835f5f8781526020019081526020015f2060010190816117ca9190613d78565b50825f5f8781526020019081526020015f2060020190816117eb9190613d78565b50815f5f8781526020019081526020015f20600301908161180c9190613d78565b50847f4c8cde21320ba24d72b5ec50e9d79d85585b33dd8166079e2b7360e24925bb4a858560405161183f929190613e47565b60405180910390a25050505050565b6060806060805f60048054905090508067ffffffffffffffff81111561187757611876613214565b5b6040519080825280602002602001820160405280156118a55781602001602082028036833780820191505090505b5094508067ffffffffffffffff8111156118c2576118c1613214565b5b6040519080825280602002602001820160405280156118f557816020015b60608152602001906001900390816118e05790505b5093508067ffffffffffffffff81111561191257611911613214565b5b60405190808252806020026020018201604052801561194557816020015b60608152602001906001900390816119305790505b5092508067ffffffffffffffff81111561196257611961613214565b5b60405190808252806020026020018201604052801561199557816020015b60608152602001906001900390816119805790505b5091505f5f90505b81811015611c52575f600482815481106119ba576119b9613ee4565b5b905f5260205f20015490505f60015f8381526020019081526020015f206040518060a00160405290815f82015481526020016001820180546119fb90613ad8565b80601f0160208091040260200160405190810160405280929190818152602001828054611a2790613ad8565b8015611a725780601f10611a4957610100808354040283529160200191611a72565b820191905f5260205f20905b815481529060010190602001808311611a5557829003601f168201915b50505050508152602001600282018054611a8b90613ad8565b80601f0160208091040260200160405190810160405280929190818152602001828054611ab790613ad8565b8015611b025780601f10611ad957610100808354040283529160200191611b02565b820191905f5260205f20905b815481529060010190602001808311611ae557829003601f168201915b50505050508152602001600382018054611b1b90613ad8565b80601f0160208091040260200160405190810160405280929190818152602001828054611b4790613ad8565b8015611b925780601f10611b6957610100808354040283529160200191611b92565b820191905f5260205f20905b815481529060010190602001808311611b7557829003601f168201915b50505050508152602001600482015f9054906101000a900460ff1615151515815250509050805f0151888481518110611bce57611bcd613ee4565b5b6020026020010181815250508060200151878481518110611bf257611bf1613ee4565b5b60200260200101819052508060400151868481518110611c1557611c14613ee4565b5b60200260200101819052508060600151858481518110611c3857611c37613ee4565b5b60200260200101819052505050808060010191505061199d565b505090919293565b5f5f855111611c9e576040517f08c379a0000000000000000000000000000000000000000000000000000000008152600401611c9590613fe8565b60405180910390fd5b5f845111611ce1576040517f08c379a0000000000000000000000000000000000000000000000000000000008152600401611cd89061416a565b60405180910390fd5b5f4290506040518060c001604052808281526020018781526020018681526020018581526020018481526020016001151581525060025f8381526020019081526020015f205f820151815f01556020820151816001019081611d439190613d78565b506040820151816002019081611d599190613d78565b506060820151816003019081611d6f9190613d78565b506080820151816004019081611d859190613d78565b5060a0820151816005015f6101000a81548160ff021916908315150217905550905050600581908060018154018082558091505060019003905f5260205f20015f9091909190915055807fd435653848bbfa44a9136b793e660753873e5b87ee80e7289d257538214bd3e0878787604051611e029392919061406e565b60405180910390a280915050949350505050565b5f5f5f600380549050600480549050600580549050925092509250909192565b60606003805480602002602001604051908101604052809291908181526020018280548015611e8257602002820191905f5260205f20905b815481526020019060010190808311611e6e575b5050505050905090565b8460025f8281526020019081526020015f206005015f9054906101000a900460ff16611eed576040517f08c379a0000000000000000000000000000000000000000000000000000000008152600401611ee490613ec6565b60405180910390fd5b5f855111611f30576040517f08c379a0000000000000000000000000000000000000000000000000000000008152600401611f2790613fe8565b60405180910390fd5b5f845111611f73576040517f08c379a0000000000000000000000000000000000000000000000000000000008152600401611f6a9061416a565b60405180910390fd5b8460025f8881526020019081526020015f206001019081611f949190613d78565b508360025f8881526020019081526020015f206002019081611fb69190613d78565b508260025f8881526020019081526020015f206003019081611fd89190613d78565b508160025f8881526020019081526020015f206004019081611ffa9190613d78565b50857f8c3999a987c45c0d01fbc63d2bbcbbc000fbef413680ea70285750d9cc577ab086868660405161202f9392919061406e565b60405180910390a2505050505050565b6001602052805f5260405f205f91509050805f01549080600101805461206490613ad8565b80601f016020809104026020016040519081016040528092919081815260200182805461209090613ad8565b80156120db5780601f106120b2576101008083540402835291602001916120db565b820191905f5260205f20905b8154815290600101906020018083116120be57829003601f168201915b5050505050908060020180546120f090613ad8565b80601f016020809104026020016040519081016040528092919081815260200182805461211c90613ad8565b80156121675780601f1061213e57610100808354040283529160200191612167565b820191905f5260205f20905b81548152906001019060200180831161214a57829003601f168201915b50505050509080600301805461217c90613ad8565b80601f01602080910402602001604051908101604052809291908181526020018280546121a890613ad8565b80156121f35780601f106121ca576101008083540402835291602001916121f3565b820191905f5260205f20905b8154815290600101906020018083116121d657829003601f168201915b505050505090806004015f9054906101000a900460ff16905085565b6060600480548060200260200160405190810160405280929190818152602001828054801561225b57602002820191905f5260205f20905b815481526020019060010190808311612247575b5050505050905090565b60608060608060605f60058054905090508067ffffffffffffffff8111156122905761228f613214565b5b6040519080825280602002602001820160405280156122be5781602001602082028036833780820191505090505b5095508067ffffffffffffffff8111156122db576122da613214565b5b60405190808252806020026020018201604052801561230e57816020015b60608152602001906001900390816122f95790505b5094508067ffffffffffffffff81111561232b5761232a613214565b5b60405190808252806020026020018201604052801561235e57816020015b60608152602001906001900390816123495790505b5093508067ffffffffffffffff81111561237b5761237a613214565b5b6040519080825280602002602001820160405280156123ae57816020015b60608152602001906001900390816123995790505b5092508067ffffffffffffffff8111156123cb576123ca613214565b5b6040519080825280602002602001820160405280156123fe57816020015b60608152602001906001900390816123e95790505b5091505f5f90505b8181101561276e575f6005828154811061242357612422613ee4565b5b905f5260205f20015490505f60025f8381526020019081526020015f206040518060c00160405290815f820154815260200160018201805461246490613ad8565b80601f016020809104026020016040519081016040528092919081815260200182805461249090613ad8565b80156124db5780601f106124b2576101008083540402835291602001916124db565b820191905f5260205f20905b8154815290600101906020018083116124be57829003601f168201915b505050505081526020016002820180546124f490613ad8565b80601f016020809104026020016040519081016040528092919081815260200182805461252090613ad8565b801561256b5780601f106125425761010080835404028352916020019161256b565b820191905f5260205f20905b81548152906001019060200180831161254e57829003601f168201915b5050505050815260200160038201805461258490613ad8565b80601f01602080910402602001604051908101604052809291908181526020018280546125b090613ad8565b80156125fb5780601f106125d2576101008083540402835291602001916125fb565b820191905f5260205f20905b8154815290600101906020018083116125de57829003601f168201915b5050505050815260200160048201805461261490613ad8565b80601f016020809104026020016040519081016040528092919081815260200182805461264090613ad8565b801561268b5780601f106126625761010080835404028352916020019161268b565b820191905f5260205f20905b81548152906001019060200180831161266e57829003601f168201915b50505050508152602001600582015f9054906101000a900460ff1615151515815250509050805f01518984815181106126c7576126c6613ee4565b5b60200260200101818152505080602001518884815181106126eb576126ea613ee4565b5b6020026020010181905250806040015187848151811061270e5761270d613ee4565b5b6020026020010181905250806060015186848151811061273157612730613ee4565b5b6020026020010181905250806080015185848151811061275457612753613ee4565b5b602002602001018190525050508080600101915050612406565b50509091929394565b60038181548110612786575f80fd5b905f5260205f20015f915090505481565b5f60608060608460015f8281526020019081526020015f206004015f9054906101000a900460ff166127fe576040517f08c379a00000000000000000000000000000000000000000000000000000000081526004016127f590614102565b60405180910390fd5b5f60015f8881526020019081526020015f206040518060a00160405290815f820154815260200160018201805461283490613ad8565b80601f016020809104026020016040519081016040528092919081815260200182805461286090613ad8565b80156128ab5780601f10612882576101008083540402835291602001916128ab565b820191905f5260205f20905b81548152906001019060200180831161288e57829003601f168201915b505050505081526020016002820180546128c490613ad8565b80601f01602080910402602001604051908101604052809291908181526020018280546128f090613ad8565b801561293b5780601f106129125761010080835404028352916020019161293b565b820191905f5260205f20905b81548152906001019060200180831161291e57829003601f168201915b5050505050815260200160038201805461295490613ad8565b80601f016020809104026020016040519081016040528092919081815260200182805461298090613ad8565b80156129cb5780601f106129a2576101008083540402835291602001916129cb565b820191905f5260205f20905b8154815290600101906020018083116129ae57829003601f168201915b50505050508152602001600482015f9054906101000a900460ff1615151515815250509050805f0151816020015182604001518360600151955095509550955050509193509193565b8360015f8281526020019081526020015f206004015f9054906101000a900460ff16612a75576040517f08c379a0000000000000000000000000000000000000000000000000000000008152600401612a6c90614102565b60405180910390fd5b5f845111612ab8576040517f08c379a0000000000000000000000000000000000000000000000000000000008152600401612aaf90613fe8565b60405180910390fd5b5f835111612afb576040517f08c379a0000000000000000000000000000000000000000000000000000000008152600401612af290614050565b60405180910390fd5b8360015f8781526020019081526020015f206001019081612b1c9190613d78565b508260015f8781526020019081526020015f206002019081612b3e9190613d78565b508160015f8781526020019081526020015f206003019081612b609190613d78565b50847fcb9333b4d858a1c4fec6e4d81b483c71e36b773d592ce66502440fa84f5e1b79858585604051612b959392919061406e565b60405180910390a25050505050565b805f5f8281526020019081526020015f206004015f9054906101000a900460ff16612c04576040517f08c379a0000000000000000000000000000000000000000000000000000000008152600401612bfb90613a8d565b60405180910390fd5b5f5f5f8481526020019081526020015f206004015f6101000a81548160ff0219169083151502179055505f5f90505b600380549050811015612ce8578260038281548110612c5557612c54613ee4565b5b905f5260205f20015403612cdb5760036001600380549050612c779190613f3e565b81548110612c8857612c87613ee4565b5b905f5260205f20015460038281548110612ca557612ca4613ee4565b5b905f5260205f2001819055506003805480612cc357612cc2613f71565b5b600190038181905f5260205f20015f90559055612ce8565b8080600101915050612c33565b50817fabc90ef5b12a4de5ce7771ffcdf78da9a15b9e38c4561012cd9bbc3dfa35476d60405160405180910390a25050565b5f6060806060808560025f8281526020019081526020015f206005015f9054906101000a900460ff16612d82576040517f08c379a0000000000000000000000000000000000000000000000000000000008152600401612d7990613ec6565b60405180910390fd5b5f60025f8981526020019081526020015f206040518060c00160405290815f8201548152602001600182018054612db890613ad8565b80601f0160208091040260200160405190810160405280929190818152602001828054612de490613ad8565b8015612e2f5780601f10612e0657610100808354040283529160200191612e2f565b820191905f5260205f20905b815481529060010190602001808311612e1257829003601f168201915b50505050508152602001600282018054612e4890613ad8565b80601f0160208091040260200160405190810160405280929190818152602001828054612e7490613ad8565b8015612ebf5780601f10612e9657610100808354040283529160200191612ebf565b820191905f5260205f20905b815481529060010190602001808311612ea257829003601f168201915b50505050508152602001600382018054612ed890613ad8565b80601f0160208091040260200160405190810160405280929190818152602001828054612f0490613ad8565b8015612f4f5780601f10612f2657610100808354040283529160200191612f4f565b820191905f5260205f20905b815481529060010190602001808311612f3257829003601f168201915b50505050508152602001600482018054612f6890613ad8565b80601f0160208091040260200160405190810160405280929190818152602001828054612f9490613ad8565b8015612fdf5780601f10612fb657610100808354040283529160200191612fdf565b820191905f5260205f20905b815481529060010190602001808311612fc257829003601f168201915b50505050508152602001600582015f9054906101000a900460ff1615151515815250509050805f0151816020015182604001518360600151846080015196509650965096509650505091939590929450565b5f604051905090565b5f5ffd5b5f5ffd5b5f819050919050565b61305481613042565b811461305e575f5ffd5b50565b5f8135905061306f8161304b565b92915050565b5f6020828403121561308a5761308961303a565b5b5f61309784828501613061565b91505092915050565b6130a981613042565b82525050565b5f81519050919050565b5f82825260208201905092915050565b8281835e5f83830152505050565b5f601f19601f8301169050919050565b5f6130f1826130af565b6130fb81856130b9565b935061310b8185602086016130c9565b613114816130d7565b840191505092915050565b5f6080820190506131325f8301876130a0565b818103602083015261314481866130e7565b9050818103604083015261315881856130e7565b9050818103606083015261316c81846130e7565b905095945050505050565b5f8115159050919050565b61318b81613177565b82525050565b5f60c0820190506131a45f8301896130a0565b81810360208301526131b681886130e7565b905081810360408301526131ca81876130e7565b905081810360608301526131de81866130e7565b905081810360808301526131f281856130e7565b905061320160a0830184613182565b979650505050505050565b5f5ffd5b5f5ffd5b7f4e487b71000000000000000000000000000000000000000000000000000000005f52604160045260245ffd5b61324a826130d7565b810181811067ffffffffffffffff8211171561326957613268613214565b5b80604052505050565b5f61327b613031565b90506132878282613241565b919050565b5f67ffffffffffffffff8211156132a6576132a5613214565b5b6132af826130d7565b9050602081019050919050565b828183375f83830152505050565b5f6132dc6132d78461328c565b613272565b9050828152602081018484840111156132f8576132f7613210565b5b6133038482856132bc565b509392505050565b5f82601f83011261331f5761331e61320c565b5b813561332f8482602086016132ca565b91505092915050565b5f5f5f6060848603121561334f5761334e61303a565b5b5f84013567ffffffffffffffff81111561336c5761336b61303e565b5b6133788682870161330b565b935050602084013567ffffffffffffffff8111156133995761339861303e565b5b6133a58682870161330b565b925050604084013567ffffffffffffffff8111156133c6576133c561303e565b5b6133d28682870161330b565b9150509250925092565b5f6020820190506133ef5f8301846130a0565b92915050565b5f60a0820190506134085f8301886130a0565b818103602083015261341a81876130e7565b9050818103604083015261342e81866130e7565b9050818103606083015261344281856130e7565b90506134516080830184613182565b9695505050505050565b5f81519050919050565b5f82825260208201905092915050565b5f819050602082019050919050565b61348d81613042565b82525050565b5f61349e8383613484565b60208301905092915050565b5f602082019050919050565b5f6134c08261345b565b6134ca8185613465565b93506134d583613475565b805f5b838110156135055781516134ec8882613493565b97506134f7836134aa565b9250506001810190506134d8565b5085935050505092915050565b5f6020820190508181035f83015261352a81846134b6565b905092915050565b5f81519050919050565b5f82825260208201905092915050565b5f819050602082019050919050565b5f82825260208201905092915050565b5f613575826130af565b61357f818561355b565b935061358f8185602086016130c9565b613598816130d7565b840191505092915050565b5f6135ae838361356b565b905092915050565b5f602082019050919050565b5f6135cc82613532565b6135d6818561353c565b9350836020820285016135e88561354c565b805f5b85811015613623578484038952815161360485826135a3565b945061360f836135b6565b925060208a019950506001810190506135eb565b50829750879550505050505092915050565b5f6080820190508181035f83015261364d81876134b6565b9050818103602083015261366181866135c2565b9050818103604083015261367581856135c2565b9050818103606083015261368981846135c2565b905095945050505050565b5f5f5f5f608085870312156136ac576136ab61303a565b5b5f6136b987828801613061565b945050602085013567ffffffffffffffff8111156136da576136d961303e565b5b6136e68782880161330b565b935050604085013567ffffffffffffffff8111156137075761370661303e565b5b6137138782880161330b565b925050606085013567ffffffffffffffff8111156137345761373361303e565b5b6137408782880161330b565b91505092959194509250565b5f5f5f5f608085870312156137645761376361303a565b5b5f85013567ffffffffffffffff8111156137815761378061303e565b5b61378d8782880161330b565b945050602085013567ffffffffffffffff8111156137ae576137ad61303e565b5b6137ba8782880161330b565b935050604085013567ffffffffffffffff8111156137db576137da61303e565b5b6137e78782880161330b565b925050606085013567ffffffffffffffff8111156138085761380761303e565b5b6138148782880161330b565b91505092959194509250565b5f6060820190506138335f8301866130a0565b61384060208301856130a0565b61384d60408301846130a0565b949350505050565b5f5f5f5f5f60a0868803121561386e5761386d61303a565b5b5f61387b88828901613061565b955050602086013567ffffffffffffffff81111561389c5761389b61303e565b5b6138a88882890161330b565b945050604086013567ffffffffffffffff8111156138c9576138c861303e565b5b6138d58882890161330b565b935050606086013567ffffffffffffffff8111156138f6576138f561303e565b5b6139028882890161330b565b925050608086013567ffffffffffffffff8111156139235761392261303e565b5b61392f8882890161330b565b9150509295509295909350565b5f60a0820190508181035f83015261395481886134b6565b9050818103602083015261396881876135c2565b9050818103604083015261397c81866135c2565b9050818103606083015261399081856135c2565b905081810360808301526139a481846135c2565b90509695505050505050565b5f60a0820190506139c35f8301886130a0565b81810360208301526139d581876130e7565b905081810360408301526139e981866130e7565b905081810360608301526139fd81856130e7565b90508181036080830152613a1181846130e7565b90509695505050505050565b7f4b6e6f776c65646765206261736520656e74727920646f6573206e6f742065785f8201527f6973740000000000000000000000000000000000000000000000000000000000602082015250565b5f613a776023836130b9565b9150613a8282613a1d565b604082019050919050565b5f6020820190508181035f830152613aa481613a6b565b9050919050565b7f4e487b71000000000000000000000000000000000000000000000000000000005f52602260045260245ffd5b5f6002820490506001821680613aef57607f821691505b602082108103613b0257613b01613aab565b5b50919050565b7f5469746c652063616e6e6f7420626520656d70747900000000000000000000005f82015250565b5f613b3c6015836130b9565b9150613b4782613b08565b602082019050919050565b5f6020820190508181035f830152613b6981613b30565b9050919050565b7f436f6e74656e742063616e6e6f7420626520656d7074790000000000000000005f82015250565b5f613ba46017836130b9565b9150613baf82613b70565b602082019050919050565b5f6020820190508181035f830152613bd181613b98565b9050919050565b5f819050815f5260205f209050919050565b5f6020601f8301049050919050565b5f82821b905092915050565b5f60088302613c347fffffffffffffffffffffffffffffffffffffffffffffffffffffffffffffffff82613bf9565b613c3e8683613bf9565b95508019841693508086168417925050509392505050565b5f819050919050565b5f613c79613c74613c6f84613042565b613c56565b613042565b9050919050565b5f819050919050565b613c9283613c5f565b613ca6613c9e82613c80565b848454613c05565b825550505050565b5f5f905090565b613cbd613cae565b613cc8818484613c89565b505050565b5b81811015613ceb57613ce05f82613cb5565b600181019050613cce565b5050565b601f821115613d3057613d0181613bd8565b613d0a84613bea565b81016020851015613d19578190505b613d2d613d2585613bea565b830182613ccd565b50505b505050565b5f82821c905092915050565b5f613d505f1984600802613d35565b1980831691505092915050565b5f613d688383613d41565b9150826002028217905092915050565b613d81826130af565b67ffffffffffffffff811115613d9a57613d99613214565b5b613da48254613ad8565b613daf828285613cef565b5f60209050601f831160018114613de0575f8415613dce578287015190505b613dd88582613d5d565b865550613e3f565b601f198416613dee86613bd8565b5f5b82811015613e1557848901518255600182019150602085019450602081019050613df0565b86831015613e325784890151613e2e601f891682613d41565b8355505b6001600288020188555050505b505050505050565b5f6040820190508181035f830152613e5f81856130e7565b90508181036020830152613e7381846130e7565b90509392505050565b7f50726f6a65637420646f6573206e6f74206578697374000000000000000000005f82015250565b5f613eb06016836130b9565b9150613ebb82613e7c565b602082019050919050565b5f6020820190508181035f830152613edd81613ea4565b9050919050565b7f4e487b71000000000000000000000000000000000000000000000000000000005f52603260045260245ffd5b7f4e487b71000000000000000000000000000000000000000000000000000000005f52601160045260245ffd5b5f613f4882613042565b9150613f5383613042565b9250828203905081811115613f6b57613f6a613f11565b5b92915050565b7f4e487b71000000000000000000000000000000000000000000000000000000005f52603160045260245ffd5b7f4e616d652063616e6e6f7420626520656d7074790000000000000000000000005f82015250565b5f613fd26014836130b9565b9150613fdd82613f9e565b602082019050919050565b5f6020820190508181035f830152613fff81613fc6565b9050919050565b7f456d61696c2063616e6e6f7420626520656d70747900000000000000000000005f82015250565b5f61403a6015836130b9565b915061404582614006565b602082019050919050565b5f6020820190508181035f8301526140678161402e565b9050919050565b5f6060820190508181035f83015261408681866130e7565b9050818103602083015261409a81856130e7565b905081810360408301526140ae81846130e7565b9050949350505050565b7f437573746f6d657220646f6573206e6f742065786973740000000000000000005f82015250565b5f6140ec6017836130b9565b91506140f7826140b8565b602082019050919050565b5f6020820190508181035f830152614119816140e0565b9050919050565b7f437573746f6d65722063616e6e6f7420626520656d70747900000000000000005f82015250565b5f6141546018836130b9565b915061415f82614120565b602082019050919050565b5f6020820190508181035f83015261418181614148565b905091905056fea264697066735822122078f2b80311425159ff891283e509df6d0ff961ee391860c02cb5fa9ac6221c0364736f6c634300081e0033",
					"opcodes": "PUSH1 0x80 PUSH1 0x40 MSTORE CALLVALUE DUP1 ISZERO PUSH1 0xE JUMPI PUSH0 PUSH0 REVERT JUMPDEST POP PUSH2 0x41BE DUP1 PUSH2 0x1C PUSH0 CODECOPY PUSH0 RETURN INVALID PUSH1 0x80 PUSH1 0x40 MSTORE CALLVALUE DUP1 ISZERO PUSH2 0xF JUMPI PUSH0 PUSH0 REVERT JUMPDEST POP PUSH1 0x4 CALLDATASIZE LT PUSH2 0x171 JUMPI PUSH0 CALLDATALOAD PUSH1 0xE0 SHR DUP1 PUSH4 0x7DA67BA8 GT PUSH2 0xDC JUMPI DUP1 PUSH4 0xDDAA91E1 GT PUSH2 0x95 JUMPI DUP1 PUSH4 0xEB876F27 GT PUSH2 0x6F JUMPI DUP1 PUSH4 0xEB876F27 EQ PUSH2 0x4B3 JUMPI DUP1 PUSH4 0xEBF898F2 EQ PUSH2 0x4E6 JUMPI DUP1 PUSH4 0xED8DE1AF EQ PUSH2 0x502 JUMPI DUP1 PUSH4 0xF0F3F2C8 EQ PUSH2 0x51E JUMPI PUSH2 0x171 JUMP JUMPDEST DUP1 PUSH4 0xDDAA91E1 EQ PUSH2 0x443 JUMPI DUP1 PUSH4 0xE0DC79E6 EQ PUSH2 0x461 JUMPI DUP1 PUSH4 0xE35D1472 EQ PUSH2 0x483 JUMPI PUSH2 0x171 JUMP JUMPDEST DUP1 PUSH4 0x7DA67BA8 EQ PUSH2 0x364 JUMPI DUP1 PUSH4 0xA26AC375 EQ PUSH2 0x385 JUMPI DUP1 PUSH4 0xA5373899 EQ PUSH2 0x3B5 JUMPI DUP1 PUSH4 0xB1A76029 EQ PUSH2 0x3D5 JUMPI DUP1 PUSH4 0xBEF9549C EQ PUSH2 0x3F3 JUMPI DUP1 PUSH4 0xC0ABDA2A EQ PUSH2 0x40F JUMPI PUSH2 0x171 JUMP JUMPDEST DUP1 PUSH4 0x4CD0CB28 GT PUSH2 0x12E JUMPI DUP1 PUSH4 0x4CD0CB28 EQ PUSH2 0x28F JUMPI DUP1 PUSH4 0x5580288B EQ PUSH2 0x2AB JUMPI DUP1 PUSH4 0x55B059E8 EQ PUSH2 0x2DB JUMPI DUP1 PUSH4 0x56D7548F EQ PUSH2 0x30B JUMPI DUP1 PUSH4 0x582DC196 EQ PUSH2 0x327 JUMPI DUP1 PUSH4 0x6F4AFA08 EQ PUSH2 0x348 JUMPI PUSH2 0x171 JUMP JUMPDEST DUP1 PUSH4 0x5708F1F EQ PUSH2 0x175 JUMPI DUP1 PUSH4 0x107046BD EQ PUSH2 0x1A8 JUMPI DUP1 PUSH4 0x1F5FDD0B EQ PUSH2 0x1DD JUMPI DUP1 PUSH4 0x44480784 EQ PUSH2 0x20D JUMPI DUP1 PUSH4 0x48C35AD4 EQ PUSH2 0x241 JUMPI DUP1 PUSH4 0x4AC64766 EQ PUSH2 0x271 JUMPI JUMPDEST PUSH0 PUSH0 REVERT JUMPDEST PUSH2 0x18F PUSH1 0x4 DUP1 CALLDATASIZE SUB DUP2 ADD SWAP1 PUSH2 0x18A SWAP2 SWAP1 PUSH2 0x3075 JUMP JUMPDEST PUSH2 0x552 JUMP JUMPDEST PUSH1 0x40 MLOAD PUSH2 0x19F SWAP5 SWAP4 SWAP3 SWAP2 SWAP1 PUSH2 0x311F JUMP JUMPDEST PUSH1 0x40 MLOAD DUP1 SWAP2 SUB SWAP1 RETURN JUMPDEST PUSH2 0x1C2 PUSH1 0x4 DUP1 CALLDATASIZE SUB DUP2 ADD SWAP1 PUSH2 0x1BD SWAP2 SWAP1 PUSH2 0x3075 JUMP JUMPDEST PUSH2 0x7CD JUMP JUMPDEST PUSH1 0x40 MLOAD PUSH2 0x1D4 SWAP7 SWAP6 SWAP5 SWAP4 SWAP3 SWAP2 SWAP1 PUSH2 0x3191 JUMP JUMPDEST PUSH1 0x40 MLOAD DUP1 SWAP2 SUB SWAP1 RETURN JUMPDEST PUSH2 0x1F7 PUSH1 0x4 DUP1 CALLDATASIZE SUB DUP2 ADD SWAP1 PUSH2 0x1F2 SWAP2 SWAP1 PUSH2 0x3338 JUMP JUMPDEST PUSH2 0xA29 JUMP JUMPDEST PUSH1 0x40 MLOAD PUSH2 0x204 SWAP2 SWAP1 PUSH2 0x33DC JUMP JUMPDEST PUSH1 0x40 MLOAD DUP1 SWAP2 SUB SWAP1 RETURN JUMPDEST PUSH2 0x227 PUSH1 0x4 DUP1 CALLDATASIZE SUB DUP2 ADD SWAP1 PUSH2 0x222 SWAP2 SWAP1 PUSH2 0x3075 JUMP JUMPDEST PUSH2 0xBC5 JUMP JUMPDEST PUSH1 0x40 MLOAD PUSH2 0x238 SWAP6 SWAP5 SWAP4 SWAP3 SWAP2 SWAP1 PUSH2 0x33F5 JUMP JUMPDEST PUSH1 0x40 MLOAD DUP1 SWAP2 SUB SWAP1 RETURN JUMPDEST PUSH2 0x25B PUSH1 0x4 DUP1 CALLDATASIZE SUB DUP2 ADD SWAP1 PUSH2 0x256 SWAP2 SWAP1 PUSH2 0x3075 JUMP JUMPDEST PUSH2 0xD94 JUMP JUMPDEST PUSH1 0x40 MLOAD PUSH2 0x268 SWAP2 SWAP1 PUSH2 0x33DC JUMP JUMPDEST PUSH1 0x40 MLOAD DUP1 SWAP2 SUB SWAP1 RETURN JUMPDEST PUSH2 0x279 PUSH2 0xDB4 JUMP JUMPDEST PUSH1 0x40 MLOAD PUSH2 0x286 SWAP2 SWAP1 PUSH2 0x3512 JUMP JUMPDEST PUSH1 0x40 MLOAD DUP1 SWAP2 SUB SWAP1 RETURN JUMPDEST PUSH2 0x2A9 PUSH1 0x4 DUP1 CALLDATASIZE SUB DUP2 ADD SWAP1 PUSH2 0x2A4 SWAP2 SWAP1 PUSH2 0x3075 JUMP JUMPDEST PUSH2 0xE0A JUMP JUMPDEST STOP JUMPDEST PUSH2 0x2C5 PUSH1 0x4 DUP1 CALLDATASIZE SUB DUP2 ADD SWAP1 PUSH2 0x2C0 SWAP2 SWAP1 PUSH2 0x3075 JUMP JUMPDEST PUSH2 0xF82 JUMP JUMPDEST PUSH1 0x40 MLOAD PUSH2 0x2D2 SWAP2 SWAP1 PUSH2 0x33DC JUMP JUMPDEST PUSH1 0x40 MLOAD DUP1 SWAP2 SUB SWAP1 RETURN JUMPDEST PUSH2 0x2F5 PUSH1 0x4 DUP1 CALLDATASIZE SUB DUP2 ADD SWAP1 PUSH2 0x2F0 SWAP2 SWAP1 PUSH2 0x3338 JUMP JUMPDEST PUSH2 0xFA2 JUMP JUMPDEST PUSH1 0x40 MLOAD PUSH2 0x302 SWAP2 SWAP1 PUSH2 0x33DC JUMP JUMPDEST PUSH1 0x40 MLOAD DUP1 SWAP2 SUB SWAP1 RETURN JUMPDEST PUSH2 0x325 PUSH1 0x4 DUP1 CALLDATASIZE SUB DUP2 ADD SWAP1 PUSH2 0x320 SWAP2 SWAP1 PUSH2 0x3075 JUMP JUMPDEST PUSH2 0x1141 JUMP JUMPDEST STOP JUMPDEST PUSH2 0x32F PUSH2 0x12B9 JUMP JUMPDEST PUSH1 0x40 MLOAD PUSH2 0x33F SWAP5 SWAP4 SWAP3 SWAP2 SWAP1 PUSH2 0x3635 JUMP JUMPDEST PUSH1 0x40 MLOAD DUP1 SWAP2 SUB SWAP1 RETURN JUMPDEST PUSH2 0x362 PUSH1 0x4 DUP1 CALLDATASIZE SUB DUP2 ADD SWAP1 PUSH2 0x35D SWAP2 SWAP1 PUSH2 0x3694 JUMP JUMPDEST PUSH2 0x16C4 JUMP JUMPDEST STOP JUMPDEST PUSH2 0x36C PUSH2 0x184E JUMP JUMPDEST PUSH1 0x40 MLOAD PUSH2 0x37C SWAP5 SWAP4 SWAP3 SWAP2 SWAP1 PUSH2 0x3635 JUMP JUMPDEST PUSH1 0x40 MLOAD DUP1 SWAP2 SUB SWAP1 RETURN JUMPDEST PUSH2 0x39F PUSH1 0x4 DUP1 CALLDATASIZE SUB DUP2 ADD SWAP1 PUSH2 0x39A SWAP2 SWAP1 PUSH2 0x374C JUMP JUMPDEST PUSH2 0x1C5A JUMP JUMPDEST PUSH1 0x40 MLOAD PUSH2 0x3AC SWAP2 SWAP1 PUSH2 0x33DC JUMP JUMPDEST PUSH1 0x40 MLOAD DUP1 SWAP2 SUB SWAP1 RETURN JUMPDEST PUSH2 0x3BD PUSH2 0x1E16 JUMP JUMPDEST PUSH1 0x40 MLOAD PUSH2 0x3CC SWAP4 SWAP3 SWAP2 SWAP1 PUSH2 0x3820 JUMP JUMPDEST PUSH1 0x40 MLOAD DUP1 SWAP2 SUB SWAP1 RETURN JUMPDEST PUSH2 0x3DD PUSH2 0x1E36 JUMP JUMPDEST PUSH1 0x40 MLOAD PUSH2 0x3EA SWAP2 SWAP1 PUSH2 0x3512 JUMP JUMPDEST PUSH1 0x40 MLOAD DUP1 SWAP2 SUB SWAP1 RETURN JUMPDEST PUSH2 0x40D PUSH1 0x4 DUP1 CALLDATASIZE SUB DUP2 ADD SWAP1 PUSH2 0x408 SWAP2 SWAP1 PUSH2 0x3855 JUMP JUMPDEST PUSH2 0x1E8C JUMP JUMPDEST STOP JUMPDEST PUSH2 0x429 PUSH1 0x4 DUP1 CALLDATASIZE SUB DUP2 ADD SWAP1 PUSH2 0x424 SWAP2 SWAP1 PUSH2 0x3075 JUMP JUMPDEST PUSH2 0x203F JUMP JUMPDEST PUSH1 0x40 MLOAD PUSH2 0x43A SWAP6 SWAP5 SWAP4 SWAP3 SWAP2 SWAP1 PUSH2 0x33F5 JUMP JUMPDEST PUSH1 0x40 MLOAD DUP1 SWAP2 SUB SWAP1 RETURN JUMPDEST PUSH2 0x44B PUSH2 0x220F JUMP JUMPDEST PUSH1 0x40 MLOAD PUSH2 0x458 SWAP2 SWAP1 PUSH2 0x3512 JUMP JUMPDEST PUSH1 0x40 MLOAD DUP1 SWAP2 SUB SWAP1 RETURN JUMPDEST PUSH2 0x469 PUSH2 0x2265 JUMP JUMPDEST PUSH1 0x40 MLOAD PUSH2 0x47A SWAP6 SWAP5 SWAP4 SWAP3 SWAP2 SWAP1 PUSH2 0x393C JUMP JUMPDEST PUSH1 0x40 MLOAD DUP1 SWAP2 SUB SWAP1 RETURN JUMPDEST PUSH2 0x49D PUSH1 0x4 DUP1 CALLDATASIZE SUB DUP2 ADD SWAP1 PUSH2 0x498 SWAP2 SWAP1 PUSH2 0x3075 JUMP JUMPDEST PUSH2 0x2777 JUMP JUMPDEST PUSH1 0x40 MLOAD PUSH2 0x4AA SWAP2 SWAP1 PUSH2 0x33DC JUMP JUMPDEST PUSH1 0x40 MLOAD DUP1 SWAP2 SUB SWAP1 RETURN JUMPDEST PUSH2 0x4CD PUSH1 0x4 DUP1 CALLDATASIZE SUB DUP2 ADD SWAP1 PUSH2 0x4C8 SWAP2 SWAP1 PUSH2 0x3075 JUMP JUMPDEST PUSH2 0x2797 JUMP JUMPDEST PUSH1 0x40 MLOAD PUSH2 0x4DD SWAP5 SWAP4 SWAP3 SWAP2 SWAP1 PUSH2 0x311F JUMP JUMPDEST PUSH1 0x40 MLOAD DUP1 SWAP2 SUB SWAP1 RETURN JUMPDEST PUSH2 0x500 PUSH1 0x4 DUP1 CALLDATASIZE SUB DUP2 ADD SWAP1 PUSH2 0x4FB SWAP2 SWAP1 PUSH2 0x3694 JUMP JUMPDEST PUSH2 0x2A14 JUMP JUMPDEST STOP JUMPDEST PUSH2 0x51C PUSH1 0x4 DUP1 CALLDATASIZE SUB DUP2 ADD SWAP1 PUSH2 0x517 SWAP2 SWAP1 PUSH2 0x3075 JUMP JUMPDEST PUSH2 0x2BA4 JUMP JUMPDEST STOP JUMPDEST PUSH2 0x538 PUSH1 0x4 DUP1 CALLDATASIZE SUB DUP2 ADD SWAP1 PUSH2 0x533 SWAP2 SWAP1 PUSH2 0x3075 JUMP JUMPDEST PUSH2 0x2D1A JUMP JUMPDEST PUSH1 0x40 MLOAD PUSH2 0x549 SWAP6 SWAP5 SWAP4 SWAP3 SWAP2 SWAP1 PUSH2 0x39B0 JUMP JUMPDEST PUSH1 0x40 MLOAD DUP1 SWAP2 SUB SWAP1 RETURN JUMPDEST PUSH0 PUSH1 0x60 DUP1 PUSH1 0x60 DUP5 PUSH0 PUSH0 DUP3 DUP2 MSTORE PUSH1 0x20 ADD SWAP1 DUP2 MSTORE PUSH1 0x20 ADD PUSH0 KECCAK256 PUSH1 0x4 ADD PUSH0 SWAP1 SLOAD SWAP1 PUSH2 0x100 EXP SWAP1 DIV PUSH1 0xFF AND PUSH2 0x5B8 JUMPI PUSH1 0x40 MLOAD PUSH32 0x8C379A000000000000000000000000000000000000000000000000000000000 DUP2 MSTORE PUSH1 0x4 ADD PUSH2 0x5AF SWAP1 PUSH2 0x3A8D JUMP JUMPDEST PUSH1 0x40 MLOAD DUP1 SWAP2 SUB SWAP1 REVERT JUMPDEST PUSH0 PUSH0 PUSH0 DUP9 DUP2 MSTORE PUSH1 0x20 ADD SWAP1 DUP2 MSTORE PUSH1 0x20 ADD PUSH0 KECCAK256 PUSH1 0x40 MLOAD DUP1 PUSH1 0xA0 ADD PUSH1 0x40 MSTORE SWAP1 DUP2 PUSH0 DUP3 ADD SLOAD DUP2 MSTORE PUSH1 0x20 ADD PUSH1 0x1 DUP3 ADD DUP1 SLOAD PUSH2 0x5ED SWAP1 PUSH2 0x3AD8 JUMP JUMPDEST DUP1 PUSH1 0x1F ADD PUSH1 0x20 DUP1 SWAP2 DIV MUL PUSH1 0x20 ADD PUSH1 0x40 MLOAD SWAP1 DUP2 ADD PUSH1 0x40 MSTORE DUP1 SWAP3 SWAP2 SWAP1 DUP2 DUP2 MSTORE PUSH1 0x20 ADD DUP3 DUP1 SLOAD PUSH2 0x619 SWAP1 PUSH2 0x3AD8 JUMP JUMPDEST DUP1 ISZERO PUSH2 0x664 JUMPI DUP1 PUSH1 0x1F LT PUSH2 0x63B JUMPI PUSH2 0x100 DUP1 DUP4 SLOAD DIV MUL DUP4 MSTORE SWAP2 PUSH1 0x20 ADD SWAP2 PUSH2 0x664 JUMP JUMPDEST DUP3 ADD SWAP2 SWAP1 PUSH0 MSTORE PUSH1 0x20 PUSH0 KECCAK256 SWAP1 JUMPDEST DUP2 SLOAD DUP2 MSTORE SWAP1 PUSH1 0x1 ADD SWAP1 PUSH1 0x20 ADD DUP1 DUP4 GT PUSH2 0x647 JUMPI DUP3 SWAP1 SUB PUSH1 0x1F AND DUP3 ADD SWAP2 JUMPDEST POP POP POP POP POP DUP2 MSTORE PUSH1 0x20 ADD PUSH1 0x2 DUP3 ADD DUP1 SLOAD PUSH2 0x67D SWAP1 PUSH2 0x3AD8 JUMP JUMPDEST DUP1 PUSH1 0x1F ADD PUSH1 0x20 DUP1 SWAP2 DIV MUL PUSH1 0x20 ADD PUSH1 0x40 MLOAD SWAP1 DUP2 ADD PUSH1 0x40 MSTORE DUP1 SWAP3 SWAP2 SWAP1 DUP2 DUP2 MSTORE PUSH1 0x20 ADD DUP3 DUP1 SLOAD PUSH2 0x6A9 SWAP1 PUSH2 0x3AD8 JUMP JUMPDEST DUP1 ISZERO PUSH2 0x6F4 JUMPI DUP1 PUSH1 0x1F LT PUSH2 0x6CB JUMPI PUSH2 0x100 DUP1 DUP4 SLOAD DIV MUL DUP4 MSTORE SWAP2 PUSH1 0x20 ADD SWAP2 PUSH2 0x6F4 JUMP JUMPDEST DUP3 ADD SWAP2 SWAP1 PUSH0 MSTORE PUSH1 0x20 PUSH0 KECCAK256 SWAP1 JUMPDEST DUP2 SLOAD DUP2 MSTORE SWAP1 PUSH1 0x1 ADD SWAP1 PUSH1 0x20 ADD DUP1 DUP4 GT PUSH2 0x6D7 JUMPI DUP3 SWAP1 SUB PUSH1 0x1F AND DUP3 ADD SWAP2 JUMPDEST POP POP POP POP POP DUP2 MSTORE PUSH1 0x20 ADD PUSH1 0x3 DUP3 ADD DUP1 SLOAD PUSH2 0x70D SWAP1 PUSH2 0x3AD8 JUMP JUMPDEST DUP1 PUSH1 0x1F ADD PUSH1 0x20 DUP1 SWAP2 DIV MUL PUSH1 0x20 ADD PUSH1 0x40 MLOAD SWAP1 DUP2 ADD PUSH1 0x40 MSTORE DUP1 SWAP3 SWAP2 SWAP1 DUP2 DUP2 MSTORE PUSH1 0x20 ADD DUP3 DUP1 SLOAD PUSH2 0x739 SWAP1 PUSH2 0x3AD8 JUMP JUMPDEST DUP1 ISZERO PUSH2 0x784 JUMPI DUP1 PUSH1 0x1F LT PUSH2 0x75B JUMPI PUSH2 0x100 DUP1 DUP4 SLOAD DIV MUL DUP4 MSTORE SWAP2 PUSH1 0x20 ADD SWAP2 PUSH2 0x784 JUMP JUMPDEST DUP3 ADD SWAP2 SWAP1 PUSH0 MSTORE PUSH1 0x20 PUSH0 KECCAK256 SWAP1 JUMPDEST DUP2 SLOAD DUP2 MSTORE SWAP1 PUSH1 0x1 ADD SWAP1 PUSH1 0x20 ADD DUP1 DUP4 GT PUSH2 0x767 JUMPI DUP3 SWAP1 SUB PUSH1 0x1F AND DUP3 ADD SWAP2 JUMPDEST POP POP POP POP POP DUP2 MSTORE PUSH1 0x20 ADD PUSH1 0x4 DUP3 ADD PUSH0 SWAP1 SLOAD SWAP1 PUSH2 0x100 EXP SWAP1 DIV PUSH1 0xFF AND ISZERO ISZERO ISZERO ISZERO DUP2 MSTORE POP POP SWAP1 POP DUP1 PUSH0 ADD MLOAD DUP2 PUSH1 0x20 ADD MLOAD DUP3 PUSH1 0x40 ADD MLOAD DUP4 PUSH1 0x60 ADD MLOAD SWAP6 POP SWAP6 POP SWAP6 POP SWAP6 POP POP POP SWAP2 SWAP4 POP SWAP2 SWAP4 JUMP JUMPDEST PUSH1 0x2 PUSH1 0x20 MSTORE DUP1 PUSH0 MSTORE PUSH1 0x40 PUSH0 KECCAK256 PUSH0 SWAP2 POP SWAP1 POP DUP1 PUSH0 ADD SLOAD SWAP1 DUP1 PUSH1 0x1 ADD DUP1 SLOAD PUSH2 0x7F2 SWAP1 PUSH2 0x3AD8 JUMP JUMPDEST DUP1 PUSH1 0x1F ADD PUSH1 0x20 DUP1 SWAP2 DIV MUL PUSH1 0x20 ADD PUSH1 0x40 MLOAD SWAP1 DUP2 ADD PUSH1 0x40 MSTORE DUP1 SWAP3 SWAP2 SWAP1 DUP2 DUP2 MSTORE PUSH1 0x20 ADD DUP3 DUP1 SLOAD PUSH2 0x81E SWAP1 PUSH2 0x3AD8 JUMP JUMPDEST DUP1 ISZERO PUSH2 0x869 JUMPI DUP1 PUSH1 0x1F LT PUSH2 0x840 JUMPI PUSH2 0x100 DUP1 DUP4 SLOAD DIV MUL DUP4 MSTORE SWAP2 PUSH1 0x20 ADD SWAP2 PUSH2 0x869 JUMP JUMPDEST DUP3 ADD SWAP2 SWAP1 PUSH0 MSTORE PUSH1 0x20 PUSH0 KECCAK256 SWAP1 JUMPDEST DUP2 SLOAD DUP2 MSTORE SWAP1 PUSH1 0x1 ADD SWAP1 PUSH1 0x20 ADD DUP1 DUP4 GT PUSH2 0x84C JUMPI DUP3 SWAP1 SUB PUSH1 0x1F AND DUP3 ADD SWAP2 JUMPDEST POP POP POP POP POP SWAP1 DUP1 PUSH1 0x2 ADD DUP1 SLOAD PUSH2 0x87E SWAP1 PUSH2 0x3AD8 JUMP JUMPDEST DUP1 PUSH1 0x1F ADD PUSH1 0x20 DUP1 SWAP2 DIV MUL PUSH1 0x20 ADD PUSH1 0x40 MLOAD SWAP1 DUP2 ADD PUSH1 0x40 MSTORE DUP1 SWAP3 SWAP2 SWAP1 DUP2 DUP2 MSTORE PUSH1 0x20 ADD DUP3 DUP1 SLOAD PUSH2 0x8AA SWAP1 PUSH2 0x3AD8 JUMP JUMPDEST DUP1 ISZERO PUSH2 0x8F5 JUMPI DUP1 PUSH1 0x1F LT PUSH2 0x8CC JUMPI PUSH2 0x100 DUP1 DUP4 SLOAD DIV MUL DUP4 MSTORE SWAP2 PUSH1 0x20 ADD SWAP2 PUSH2 0x8F5 JUMP JUMPDEST DUP3 ADD SWAP2 SWAP1 PUSH0 MSTORE PUSH1 0x20 PUSH0 KECCAK256 SWAP1 JUMPDEST DUP2 SLOAD DUP2 MSTORE SWAP1 PUSH1 0x1 ADD SWAP1 PUSH1 0x20 ADD DUP1 DUP4 GT PUSH2 0x8D8 JUMPI DUP3 SWAP1 SUB PUSH1 0x1F AND DUP3 ADD SWAP2 JUMPDEST POP POP POP POP POP SWAP1 DUP1 PUSH1 0x3 ADD DUP1 SLOAD PUSH2 0x90A SWAP1 PUSH2 0x3AD8 JUMP JUMPDEST DUP1 PUSH1 0x1F ADD PUSH1 0x20 DUP1 SWAP2 DIV MUL PUSH1 0x20 ADD PUSH1 0x40 MLOAD SWAP1 DUP2 ADD PUSH1 0x40 MSTORE DUP1 SWAP3 SWAP2 SWAP1 DUP2 DUP2 MSTORE PUSH1 0x20 ADD DUP3 DUP1 SLOAD PUSH2 0x936 SWAP1 PUSH2 0x3AD8 JUMP JUMPDEST DUP1 ISZERO PUSH2 0x981 JUMPI DUP1 PUSH1 0x1F LT PUSH2 0x958 JUMPI PUSH2 0x100 DUP1 DUP4 SLOAD DIV MUL DUP4 MSTORE SWAP2 PUSH1 0x20 ADD SWAP2 PUSH2 0x981 JUMP JUMPDEST DUP3 ADD SWAP2 SWAP1 PUSH0 MSTORE PUSH1 0x20 PUSH0 KECCAK256 SWAP1 JUMPDEST DUP2 SLOAD DUP2 MSTORE SWAP1 PUSH1 0x1 ADD SWAP1 PUSH1 0x20 ADD DUP1 DUP4 GT PUSH2 0x964 JUMPI DUP3 SWAP1 SUB PUSH1 0x1F AND DUP3 ADD SWAP2 JUMPDEST POP POP POP POP POP SWAP1 DUP1 PUSH1 0x4 ADD DUP1 SLOAD PUSH2 0x996 SWAP1 PUSH2 0x3AD8 JUMP JUMPDEST DUP1 PUSH1 0x1F ADD PUSH1 0x20 DUP1 SWAP2 DIV MUL PUSH1 0x20 ADD PUSH1 0x40 MLOAD SWAP1 DUP2 ADD PUSH1 0x40 MSTORE DUP1 SWAP3 SWAP2 SWAP1 DUP2 DUP2 MSTORE PUSH1 0x20 ADD DUP3 DUP1 SLOAD PUSH2 0x9C2 SWAP1 PUSH2 0x3AD8 JUMP JUMPDEST DUP1 ISZERO PUSH2 0xA0D JUMPI DUP1 PUSH1 0x1F LT PUSH2 0x9E4 JUMPI PUSH2 0x100 DUP1 DUP4 SLOAD DIV MUL DUP4 MSTORE SWAP2 PUSH1 0x20 ADD SWAP2 PUSH2 0xA0D JUMP JUMPDEST DUP3 ADD SWAP2 SWAP1 PUSH0 MSTORE PUSH1 0x20 PUSH0 KECCAK256 SWAP1 JUMPDEST DUP2 SLOAD DUP2 MSTORE SWAP1 PUSH1 0x1 ADD SWAP1 PUSH1 0x20 ADD DUP1 DUP4 GT PUSH2 0x9F0 JUMPI DUP3 SWAP1 SUB PUSH1 0x1F AND DUP3 ADD SWAP2 JUMPDEST POP POP POP POP POP SWAP1 DUP1 PUSH1 0x5 ADD PUSH0 SWAP1 SLOAD SWAP1 PUSH2 0x100 EXP SWAP1 DIV PUSH1 0xFF AND SWAP1 POP DUP7 JUMP JUMPDEST PUSH0 PUSH0 DUP5 MLOAD GT PUSH2 0xA6D JUMPI PUSH1 0x40 MLOAD PUSH32 0x8C379A000000000000000000000000000000000000000000000000000000000 DUP2 MSTORE PUSH1 0x4 ADD PUSH2 0xA64 SWAP1 PUSH2 0x3B52 JUMP JUMPDEST PUSH1 0x40 MLOAD DUP1 SWAP2 SUB SWAP1 REVERT JUMPDEST PUSH0 DUP3 MLOAD GT PUSH2 0xAB0 JUMPI PUSH1 0x40 MLOAD PUSH32 0x8C379A000000000000000000000000000000000000000000000000000000000 DUP2 MSTORE PUSH1 0x4 ADD PUSH2 0xAA7 SWAP1 PUSH2 0x3BBA JUMP JUMPDEST PUSH1 0x40 MLOAD DUP1 SWAP2 SUB SWAP1 REVERT JUMPDEST PUSH0 TIMESTAMP SWAP1 POP PUSH1 0x40 MLOAD DUP1 PUSH1 0xA0 ADD PUSH1 0x40 MSTORE DUP1 DUP3 DUP2 MSTORE PUSH1 0x20 ADD DUP7 DUP2 MSTORE PUSH1 0x20 ADD DUP6 DUP2 MSTORE PUSH1 0x20 ADD DUP5 DUP2 MSTORE PUSH1 0x20 ADD PUSH1 0x1 ISZERO ISZERO DUP2 MSTORE POP PUSH0 PUSH0 DUP4 DUP2 MSTORE PUSH1 0x20 ADD SWAP1 DUP2 MSTORE PUSH1 0x20 ADD PUSH0 KECCAK256 PUSH0 DUP3 ADD MLOAD DUP2 PUSH0 ADD SSTORE PUSH1 0x20 DUP3 ADD MLOAD DUP2 PUSH1 0x1 ADD SWAP1 DUP2 PUSH2 0xB0B SWAP2 SWAP1 PUSH2 0x3D78 JUMP JUMPDEST POP PUSH1 0x40 DUP3 ADD MLOAD DUP2 PUSH1 0x2 ADD SWAP1 DUP2 PUSH2 0xB21 SWAP2 SWAP1 PUSH2 0x3D78 JUMP JUMPDEST POP PUSH1 0x60 DUP3 ADD MLOAD DUP2 PUSH1 0x3 ADD SWAP1 DUP2 PUSH2 0xB37 SWAP2 SWAP1 PUSH2 0x3D78 JUMP JUMPDEST POP PUSH1 0x80 DUP3 ADD MLOAD DUP2 PUSH1 0x4 ADD PUSH0 PUSH2 0x100 EXP DUP2 SLOAD DUP2 PUSH1 0xFF MUL NOT AND SWAP1 DUP4 ISZERO ISZERO MUL OR SWAP1 SSTORE POP SWAP1 POP POP PUSH1 0x3 DUP2 SWAP1 DUP1 PUSH1 0x1 DUP2 SLOAD ADD DUP1 DUP3 SSTORE DUP1 SWAP2 POP POP PUSH1 0x1 SWAP1 SUB SWAP1 PUSH0 MSTORE PUSH1 0x20 PUSH0 KECCAK256 ADD PUSH0 SWAP1 SWAP2 SWAP1 SWAP2 SWAP1 SWAP2 POP SSTORE DUP1 PUSH32 0x391061D00BBCACB4737F35E1AAD1F0BA1BD5DDED6872F8EAD8DF4A01752FCCE5 DUP7 DUP7 PUSH1 0x40 MLOAD PUSH2 0xBB2 SWAP3 SWAP2 SWAP1 PUSH2 0x3E47 JUMP JUMPDEST PUSH1 0x40 MLOAD DUP1 SWAP2 SUB SWAP1 LOG2 DUP1 SWAP2 POP POP SWAP4 SWAP3 POP POP POP JUMP JUMPDEST PUSH0 PUSH1 0x20 MSTORE DUP1 PUSH0 MSTORE PUSH1 0x40 PUSH0 KECCAK256 PUSH0 SWAP2 POP SWAP1 POP DUP1 PUSH0 ADD SLOAD SWAP1 DUP1 PUSH1 0x1 ADD DUP1 SLOAD PUSH2 0xBE9 SWAP1 PUSH2 0x3AD8 JUMP JUMPDEST DUP1 PUSH1 0x1F ADD PUSH1 0x20 DUP1 SWAP2 DIV MUL PUSH1 0x20 ADD PUSH1 0x40 MLOAD SWAP1 DUP2 ADD PUSH1 0x40 MSTORE DUP1 SWAP3 SWAP2 SWAP1 DUP2 DUP2 MSTORE PUSH1 0x20 ADD DUP3 DUP1 SLOAD PUSH2 0xC15 SWAP1 PUSH2 0x3AD8 JUMP JUMPDEST DUP1 ISZERO PUSH2 0xC60 JUMPI DUP1 PUSH1 0x1F LT PUSH2 0xC37 JUMPI PUSH2 0x100 DUP1 DUP4 SLOAD DIV MUL DUP4 MSTORE SWAP2 PUSH1 0x20 ADD SWAP2 PUSH2 0xC60 JUMP JUMPDEST DUP3 ADD SWAP2 SWAP1 PUSH0 MSTORE PUSH1 0x20 PUSH0 KECCAK256 SWAP1 JUMPDEST DUP2 SLOAD DUP2 MSTORE SWAP1 PUSH1 0x1 ADD SWAP1 PUSH1 0x20 ADD DUP1 DUP4 GT PUSH2 0xC43 JUMPI DUP3 SWAP1 SUB PUSH1 0x1F AND DUP3 ADD SWAP2 JUMPDEST POP POP POP POP POP SWAP1 DUP1 PUSH1 0x2 ADD DUP1 SLOAD PUSH2 0xC75 SWAP1 PUSH2 0x3AD8 JUMP JUMPDEST DUP1 PUSH1 0x1F ADD PUSH1 0x20 DUP1 SWAP2 DIV MUL PUSH1 0x20 ADD PUSH1 0x40 MLOAD SWAP1 DUP2 ADD PUSH1 0x40 MSTORE DUP1 SWAP3 SWAP2 SWAP1 DUP2 DUP2 MSTORE PUSH1 0x20 ADD DUP3 DUP1 SLOAD PUSH2 0xCA1 SWAP1 PUSH2 0x3AD8 JUMP JUMPDEST DUP1 ISZERO PUSH2 0xCEC JUMPI DUP1 PUSH1 0x1F LT PUSH2 0xCC3 JUMPI PUSH2 0x100 DUP1 DUP4 SLOAD DIV MUL DUP4 MSTORE SWAP2 PUSH1 0x20 ADD SWAP2 PUSH2 0xCEC JUMP JUMPDEST DUP3 ADD SWAP2 SWAP1 PUSH0 MSTORE PUSH1 0x20 PUSH0 KECCAK256 SWAP1 JUMPDEST DUP2 SLOAD DUP2 MSTORE SWAP1 PUSH1 0x1 ADD SWAP1 PUSH1 0x20 ADD DUP1 DUP4 GT PUSH2 0xCCF JUMPI DUP3 SWAP1 SUB PUSH1 0x1F AND DUP3 ADD SWAP2 JUMPDEST POP POP POP POP POP SWAP1 DUP1 PUSH1 0x3 ADD DUP1 SLOAD PUSH2 0xD01 SWAP1 PUSH2 0x3AD8 JUMP JUMPDEST DUP1 PUSH1 0x1F ADD PUSH1 0x20 DUP1 SWAP2 DIV MUL PUSH1 0x20 ADD PUSH1 0x40 MLOAD SWAP1 DUP2 ADD PUSH1 0x40 MSTORE DUP1 SWAP3 SWAP2 SWAP1 DUP2 DUP2 MSTORE PUSH1 0x20 ADD DUP3 DUP1 SLOAD PUSH2 0xD2D SWAP1 PUSH2 0x3AD8 JUMP JUMPDEST DUP1 ISZERO PUSH2 0xD78 JUMPI DUP1 PUSH1 0x1F LT PUSH2 0xD4F JUMPI PUSH2 0x100 DUP1 DUP4 SLOAD DIV MUL DUP4 MSTORE SWAP2 PUSH1 0x20 ADD SWAP2 PUSH2 0xD78 JUMP JUMPDEST DUP3 ADD SWAP2 SWAP1 PUSH0 MSTORE PUSH1 0x20 PUSH0 KECCAK256 SWAP1 JUMPDEST DUP2 SLOAD DUP2 MSTORE SWAP1 PUSH1 0x1 ADD SWAP1 PUSH1 0x20 ADD DUP1 DUP4 GT PUSH2 0xD5B JUMPI DUP3 SWAP1 SUB PUSH1 0x1F AND DUP3 ADD SWAP2 JUMPDEST POP POP POP POP POP SWAP1 DUP1 PUSH1 0x4 ADD PUSH0 SWAP1 SLOAD SWAP1 PUSH2 0x100 EXP SWAP1 DIV PUSH1 0xFF AND SWAP1 POP DUP6 JUMP JUMPDEST PUSH1 0x5 DUP2 DUP2 SLOAD DUP2 LT PUSH2 0xDA3 JUMPI PUSH0 DUP1 REVERT JUMPDEST SWAP1 PUSH0 MSTORE PUSH1 0x20 PUSH0 KECCAK256 ADD PUSH0 SWAP2 POP SWAP1 POP SLOAD DUP2 JUMP JUMPDEST PUSH1 0x60 PUSH1 0x5 DUP1 SLOAD DUP1 PUSH1 0x20 MUL PUSH1 0x20 ADD PUSH1 0x40 MLOAD SWAP1 DUP2 ADD PUSH1 0x40 MSTORE DUP1 SWAP3 SWAP2 SWAP1 DUP2 DUP2 MSTORE PUSH1 0x20 ADD DUP3 DUP1 SLOAD DUP1 ISZERO PUSH2 0xE00 JUMPI PUSH1 0x20 MUL DUP3 ADD SWAP2 SWAP1 PUSH0 MSTORE PUSH1 0x20 PUSH0 KECCAK256 SWAP1 JUMPDEST DUP2 SLOAD DUP2 MSTORE PUSH1 0x20 ADD SWAP1 PUSH1 0x1 ADD SWAP1 DUP1 DUP4 GT PUSH2 0xDEC JUMPI JUMPDEST POP POP POP POP POP SWAP1 POP SWAP1 JUMP JUMPDEST DUP1 PUSH1 0x2 PUSH0 DUP3 DUP2 MSTORE PUSH1 0x20 ADD SWAP1 DUP2 MSTORE PUSH1 0x20 ADD PUSH0 KECCAK256 PUSH1 0x5 ADD PUSH0 SWAP1 SLOAD SWAP1 PUSH2 0x100 EXP SWAP1 DIV PUSH1 0xFF AND PUSH2 0xE6B JUMPI PUSH1 0x40 MLOAD PUSH32 0x8C379A000000000000000000000000000000000000000000000000000000000 DUP2 MSTORE PUSH1 0x4 ADD PUSH2 0xE62 SWAP1 PUSH2 0x3EC6 JUMP JUMPDEST PUSH1 0x40 MLOAD DUP1 SWAP2 SUB SWAP1 REVERT JUMPDEST PUSH0 PUSH1 0x2 PUSH0 DUP5 DUP2 MSTORE PUSH1 0x20 ADD SWAP1 DUP2 MSTORE PUSH1 0x20 ADD PUSH0 KECCAK256 PUSH1 0x5 ADD PUSH0 PUSH2 0x100 EXP DUP2 SLOAD DUP2 PUSH1 0xFF MUL NOT AND SWAP1 DUP4 ISZERO ISZERO MUL OR SWAP1 SSTORE POP PUSH0 PUSH0 SWAP1 POP JUMPDEST PUSH1 0x5 DUP1 SLOAD SWAP1 POP DUP2 LT ISZERO PUSH2 0xF50 JUMPI DUP3 PUSH1 0x5 DUP3 DUP2 SLOAD DUP2 LT PUSH2 0xEBD JUMPI PUSH2 0xEBC PUSH2 0x3EE4 JUMP JUMPDEST JUMPDEST SWAP1 PUSH0 MSTORE PUSH1 0x20 PUSH0 KECCAK256 ADD SLOAD SUB PUSH2 0xF43 JUMPI PUSH1 0x5 PUSH1 0x1 PUSH1 0x5 DUP1 SLOAD SWAP1 POP PUSH2 0xEDF SWAP2 SWAP1 PUSH2 0x3F3E JUMP JUMPDEST DUP2 SLOAD DUP2 LT PUSH2 0xEF0 JUMPI PUSH2 0xEEF PUSH2 0x3EE4 JUMP JUMPDEST JUMPDEST SWAP1 PUSH0 MSTORE PUSH1 0x20 PUSH0 KECCAK256 ADD SLOAD PUSH1 0x5 DUP3 DUP2 SLOAD DUP2 LT PUSH2 0xF0D JUMPI PUSH2 0xF0C PUSH2 0x3EE4 JUMP JUMPDEST JUMPDEST SWAP1 PUSH0 MSTORE PUSH1 0x20 PUSH0 KECCAK256 ADD DUP2 SWAP1 SSTORE POP PUSH1 0x5 DUP1 SLOAD DUP1 PUSH2 0xF2B JUMPI PUSH2 0xF2A PUSH2 0x3F71 JUMP JUMPDEST JUMPDEST PUSH1 0x1 SWAP1 SUB DUP2 DUP2 SWAP1 PUSH0 MSTORE PUSH1 0x20 PUSH0 KECCAK256 ADD PUSH0 SWAP1 SSTORE SWAP1 SSTORE PUSH2 0xF50 JUMP JUMPDEST DUP1 DUP1 PUSH1 0x1 ADD SWAP2 POP POP PUSH2 0xE9B JUMP JUMPDEST POP DUP2 PUSH32 0x8C2A9A6341BBA6C545DE035FE1175518191D1EC50716506635B641372AF17C5F PUSH1 0x40 MLOAD PUSH1 0x40 MLOAD DUP1 SWAP2 SUB SWAP1 LOG2 POP POP JUMP JUMPDEST PUSH1 0x4 DUP2 DUP2 SLOAD DUP2 LT PUSH2 0xF91 JUMPI PUSH0 DUP1 REVERT JUMPDEST SWAP1 PUSH0 MSTORE PUSH1 0x20 PUSH0 KECCAK256 ADD PUSH0 SWAP2 POP SWAP1 POP SLOAD DUP2 JUMP JUMPDEST PUSH0 PUSH0 DUP5 MLOAD GT PUSH2 0xFE6 JUMPI PUSH1 0x40 MLOAD PUSH32 0x8C379A000000000000000000000000000000000000000000000000000000000 DUP2 MSTORE PUSH1 0x4 ADD PUSH2 0xFDD SWAP1 PUSH2 0x3FE8 JUMP JUMPDEST PUSH1 0x40 MLOAD DUP1 SWAP2 SUB SWAP1 REVERT JUMPDEST PUSH0 DUP4 MLOAD GT PUSH2 0x1029 JUMPI PUSH1 0x40 MLOAD PUSH32 0x8C379A000000000000000000000000000000000000000000000000000000000 DUP2 MSTORE PUSH1 0x4 ADD PUSH2 0x1020 SWAP1 PUSH2 0x4050 JUMP JUMPDEST PUSH1 0x40 MLOAD DUP1 SWAP2 SUB SWAP1 REVERT JUMPDEST PUSH0 TIMESTAMP SWAP1 POP PUSH1 0x40 MLOAD DUP1 PUSH1 0xA0 ADD PUSH1 0x40 MSTORE DUP1 DUP3 DUP2 MSTORE PUSH1 0x20 ADD DUP7 DUP2 MSTORE PUSH1 0x20 ADD DUP6 DUP2 MSTORE PUSH1 0x20 ADD DUP5 DUP2 MSTORE PUSH1 0x20 ADD PUSH1 0x1 ISZERO ISZERO DUP2 MSTORE POP PUSH1 0x1 PUSH0 DUP4 DUP2 MSTORE PUSH1 0x20 ADD SWAP1 DUP2 MSTORE PUSH1 0x20 ADD PUSH0 KECCAK256 PUSH0 DUP3 ADD MLOAD DUP2 PUSH0 ADD SSTORE PUSH1 0x20 DUP3 ADD MLOAD DUP2 PUSH1 0x1 ADD SWAP1 DUP2 PUSH2 0x1085 SWAP2 SWAP1 PUSH2 0x3D78 JUMP JUMPDEST POP PUSH1 0x40 DUP3 ADD MLOAD DUP2 PUSH1 0x2 ADD SWAP1 DUP2 PUSH2 0x109B SWAP2 SWAP1 PUSH2 0x3D78 JUMP JUMPDEST POP PUSH1 0x60 DUP3 ADD MLOAD DUP2 PUSH1 0x3 ADD SWAP1 DUP2 PUSH2 0x10B1 SWAP2 SWAP1 PUSH2 0x3D78 JUMP JUMPDEST POP PUSH1 0x80 DUP3 ADD MLOAD DUP2 PUSH1 0x4 ADD PUSH0 PUSH2 0x100 EXP DUP2 SLOAD DUP2 PUSH1 0xFF MUL NOT AND SWAP1 DUP4 ISZERO ISZERO MUL OR SWAP1 SSTORE POP SWAP1 POP POP PUSH1 0x4 DUP2 SWAP1 DUP1 PUSH1 0x1 DUP2 SLOAD ADD DUP1 DUP3 SSTORE DUP1 SWAP2 POP POP PUSH1 0x1 SWAP1 SUB SWAP1 PUSH0 MSTORE PUSH1 0x20 PUSH0 KECCAK256 ADD PUSH0 SWAP1 SWAP2 SWAP1 SWAP2 SWAP1 SWAP2 POP SSTORE DUP1 PUSH32 0x464ED6364245D5262890AD9C3ACEB68D236653CC6792BF198B7F3E362C90FE9B DUP7 DUP7 DUP7 PUSH1 0x40 MLOAD PUSH2 0x112E SWAP4 SWAP3 SWAP2 SWAP1 PUSH2 0x406E JUMP JUMPDEST PUSH1 0x40 MLOAD DUP1 SWAP2 SUB SWAP1 LOG2 DUP1 SWAP2 POP POP SWAP4 SWAP3 POP POP POP JUMP JUMPDEST DUP1 PUSH1 0x1 PUSH0 DUP3 DUP2 MSTORE PUSH1 0x20 ADD SWAP1 DUP2 MSTORE PUSH1 0x20 ADD PUSH0 KECCAK256 PUSH1 0x4 ADD PUSH0 SWAP1 SLOAD SWAP1 PUSH2 0x100 EXP SWAP1 DIV PUSH1 0xFF AND PUSH2 0x11A2 JUMPI PUSH1 0x40 MLOAD PUSH32 0x8C379A000000000000000000000000000000000000000000000000000000000 DUP2 MSTORE PUSH1 0x4 ADD PUSH2 0x1199 SWAP1 PUSH2 0x4102 JUMP JUMPDEST PUSH1 0x40 MLOAD DUP1 SWAP2 SUB SWAP1 REVERT JUMPDEST PUSH0 PUSH1 0x1 PUSH0 DUP5 DUP2 MSTORE PUSH1 0x20 ADD SWAP1 DUP2 MSTORE PUSH1 0x20 ADD PUSH0 KECCAK256 PUSH1 0x4 ADD PUSH0 PUSH2 0x100 EXP DUP2 SLOAD DUP2 PUSH1 0xFF MUL NOT AND SWAP1 DUP4 ISZERO ISZERO MUL OR SWAP1 SSTORE POP PUSH0 PUSH0 SWAP1 POP JUMPDEST PUSH1 0x4 DUP1 SLOAD SWAP1 POP DUP2 LT ISZERO PUSH2 0x1287 JUMPI DUP3 PUSH1 0x4 DUP3 DUP2 SLOAD DUP2 LT PUSH2 0x11F4 JUMPI PUSH2 0x11F3 PUSH2 0x3EE4 JUMP JUMPDEST JUMPDEST SWAP1 PUSH0 MSTORE PUSH1 0x20 PUSH0 KECCAK256 ADD SLOAD SUB PUSH2 0x127A JUMPI PUSH1 0x4 PUSH1 0x1 PUSH1 0x4 DUP1 SLOAD SWAP1 POP PUSH2 0x1216 SWAP2 SWAP1 PUSH2 0x3F3E JUMP JUMPDEST DUP2 SLOAD DUP2 LT PUSH2 0x1227 JUMPI PUSH2 0x1226 PUSH2 0x3EE4 JUMP JUMPDEST JUMPDEST SWAP1 PUSH0 MSTORE PUSH1 0x20 PUSH0 KECCAK256 ADD SLOAD PUSH1 0x4 DUP3 DUP2 SLOAD DUP2 LT PUSH2 0x1244 JUMPI PUSH2 0x1243 PUSH2 0x3EE4 JUMP JUMPDEST JUMPDEST SWAP1 PUSH0 MSTORE PUSH1 0x20 PUSH0 KECCAK256 ADD DUP2 SWAP1 SSTORE POP PUSH1 0x4 DUP1 SLOAD DUP1 PUSH2 0x1262 JUMPI PUSH2 0x1261 PUSH2 0x3F71 JUMP JUMPDEST JUMPDEST PUSH1 0x1 SWAP1 SUB DUP2 DUP2 SWAP1 PUSH0 MSTORE PUSH1 0x20 PUSH0 KECCAK256 ADD PUSH0 SWAP1 SSTORE SWAP1 SSTORE PUSH2 0x1287 JUMP JUMPDEST DUP1 DUP1 PUSH1 0x1 ADD SWAP2 POP POP PUSH2 0x11D2 JUMP JUMPDEST POP DUP2 PUSH32 0x327DFEE2F9EDCE80488B1D1C2717031EDB90A8862CF2CA9A363D40DDB55D72BF PUSH1 0x40 MLOAD PUSH1 0x40 MLOAD DUP1 SWAP2 SUB SWAP1 LOG2 POP POP JUMP JUMPDEST PUSH1 0x60 DUP1 PUSH1 0x60 DUP1 PUSH0 PUSH1 0x3 DUP1 SLOAD SWAP1 POP SWAP1 POP DUP1 PUSH8 0xFFFFFFFFFFFFFFFF DUP2 GT ISZERO PUSH2 0x12E2 JUMPI PUSH2 0x12E1 PUSH2 0x3214 JUMP JUMPDEST JUMPDEST PUSH1 0x40 MLOAD SWAP1 DUP1 DUP3 MSTORE DUP1 PUSH1 0x20 MUL PUSH1 0x20 ADD DUP3 ADD PUSH1 0x40 MSTORE DUP1 ISZERO PUSH2 0x1310 JUMPI DUP2 PUSH1 0x20 ADD PUSH1 0x20 DUP3 MUL DUP1 CALLDATASIZE DUP4 CALLDATACOPY DUP1 DUP3 ADD SWAP2 POP POP SWAP1 POP JUMPDEST POP SWAP5 POP DUP1 PUSH8 0xFFFFFFFFFFFFFFFF DUP2 GT ISZERO PUSH2 0x132D JUMPI PUSH2 0x132C PUSH2 0x3214 JUMP JUMPDEST JUMPDEST PUSH1 0x40 MLOAD SWAP1 DUP1 DUP3 MSTORE DUP1 PUSH1 0x20 MUL PUSH1 0x20 ADD DUP3 ADD PUSH1 0x40 MSTORE DUP1 ISZERO PUSH2 0x1360 JUMPI DUP2 PUSH1 0x20 ADD JUMPDEST PUSH1 0x60 DUP2 MSTORE PUSH1 0x20 ADD SWAP1 PUSH1 0x1 SWAP1 SUB SWAP1 DUP2 PUSH2 0x134B JUMPI SWAP1 POP JUMPDEST POP SWAP4 POP DUP1 PUSH8 0xFFFFFFFFFFFFFFFF DUP2 GT ISZERO PUSH2 0x137D JUMPI PUSH2 0x137C PUSH2 0x3214 JUMP JUMPDEST JUMPDEST PUSH1 0x40 MLOAD SWAP1 DUP1 DUP3 MSTORE DUP1 PUSH1 0x20 MUL PUSH1 0x20 ADD DUP3 ADD PUSH1 0x40 MSTORE DUP1 ISZERO PUSH2 0x13B0 JUMPI DUP2 PUSH1 0x20 ADD JUMPDEST PUSH1 0x60 DUP2 MSTORE PUSH1 0x20 ADD SWAP1 PUSH1 0x1 SWAP1 SUB SWAP1 DUP2 PUSH2 0x139B JUMPI SWAP1 POP JUMPDEST POP SWAP3 POP DUP1 PUSH8 0xFFFFFFFFFFFFFFFF DUP2 GT ISZERO PUSH2 0x13CD JUMPI PUSH2 0x13CC PUSH2 0x3214 JUMP JUMPDEST JUMPDEST PUSH1 0x40 MLOAD SWAP1 DUP1 DUP3 MSTORE DUP1 PUSH1 0x20 MUL PUSH1 0x20 ADD DUP3 ADD PUSH1 0x40 MSTORE DUP1 ISZERO PUSH2 0x1400 JUMPI DUP2 PUSH1 0x20 ADD JUMPDEST PUSH1 0x60 DUP2 MSTORE PUSH1 0x20 ADD SWAP1 PUSH1 0x1 SWAP1 SUB SWAP1 DUP2 PUSH2 0x13EB JUMPI SWAP1 POP JUMPDEST POP SWAP2 POP PUSH0 PUSH0 SWAP1 POP JUMPDEST DUP2 DUP2 LT ISZERO PUSH2 0x16BC JUMPI PUSH0 PUSH1 0x3 DUP3 DUP2 SLOAD DUP2 LT PUSH2 0x1425 JUMPI PUSH2 0x1424 PUSH2 0x3EE4 JUMP JUMPDEST JUMPDEST SWAP1 PUSH0 MSTORE PUSH1 0x20 PUSH0 KECCAK256 ADD SLOAD SWAP1 POP PUSH0 PUSH0 PUSH0 DUP4 DUP2 MSTORE PUSH1 0x20 ADD SWAP1 DUP2 MSTORE PUSH1 0x20 ADD PUSH0 KECCAK256 PUSH1 0x40 MLOAD DUP1 PUSH1 0xA0 ADD PUSH1 0x40 MSTORE SWAP1 DUP2 PUSH0 DUP3 ADD SLOAD DUP2 MSTORE PUSH1 0x20 ADD PUSH1 0x1 DUP3 ADD DUP1 SLOAD PUSH2 0x1465 SWAP1 PUSH2 0x3AD8 JUMP JUMPDEST DUP1 PUSH1 0x1F ADD PUSH1 0x20 DUP1 SWAP2 DIV MUL PUSH1 0x20 ADD PUSH1 0x40 MLOAD SWAP1 DUP2 ADD PUSH1 0x40 MSTORE DUP1 SWAP3 SWAP2 SWAP1 DUP2 DUP2 MSTORE PUSH1 0x20 ADD DUP3 DUP1 SLOAD PUSH2 0x1491 SWAP1 PUSH2 0x3AD8 JUMP JUMPDEST DUP1 ISZERO PUSH2 0x14DC JUMPI DUP1 PUSH1 0x1F LT PUSH2 0x14B3 JUMPI PUSH2 0x100 DUP1 DUP4 SLOAD DIV MUL DUP4 MSTORE SWAP2 PUSH1 0x20 ADD SWAP2 PUSH2 0x14DC JUMP JUMPDEST DUP3 ADD SWAP2 SWAP1 PUSH0 MSTORE PUSH1 0x20 PUSH0 KECCAK256 SWAP1 JUMPDEST DUP2 SLOAD DUP2 MSTORE SWAP1 PUSH1 0x1 ADD SWAP1 PUSH1 0x20 ADD DUP1 DUP4 GT PUSH2 0x14BF JUMPI DUP3 SWAP1 SUB PUSH1 0x1F AND DUP3 ADD SWAP2 JUMPDEST POP POP POP POP POP DUP2 MSTORE PUSH1 0x20 ADD PUSH1 0x2 DUP3 ADD DUP1 SLOAD PUSH2 0x14F5 SWAP1 PUSH2 0x3AD8 JUMP JUMPDEST DUP1 PUSH1 0x1F ADD PUSH1 0x20 DUP1 SWAP2 DIV MUL PUSH1 0x20 ADD PUSH1 0x40 MLOAD SWAP1 DUP2 ADD PUSH1 0x40 MSTORE DUP1 SWAP3 SWAP2 SWAP1 DUP2 DUP2 MSTORE PUSH1 0x20 ADD DUP3 DUP1 SLOAD PUSH2 0x1521 SWAP1 PUSH2 0x3AD8 JUMP JUMPDEST DUP1 ISZERO PUSH2 0x156C JUMPI DUP1 PUSH1 0x1F LT PUSH2 0x1543 JUMPI PUSH2 0x100 DUP1 DUP4 SLOAD DIV MUL DUP4 MSTORE SWAP2 PUSH1 0x20 ADD SWAP2 PUSH2 0x156C JUMP JUMPDEST DUP3 ADD SWAP2 SWAP1 PUSH0 MSTORE PUSH1 0x20 PUSH0 KECCAK256 SWAP1 JUMPDEST DUP2 SLOAD DUP2 MSTORE SWAP1 PUSH1 0x1 ADD SWAP1 PUSH1 0x20 ADD DUP1 DUP4 GT PUSH2 0x154F JUMPI DUP3 SWAP1 SUB PUSH1 0x1F AND DUP3 ADD SWAP2 JUMPDEST POP POP POP POP POP DUP2 MSTORE PUSH1 0x20 ADD PUSH1 0x3 DUP3 ADD DUP1 SLOAD PUSH2 0x1585 SWAP1 PUSH2 0x3AD8 JUMP JUMPDEST DUP1 PUSH1 0x1F ADD PUSH1 0x20 DUP1 SWAP2 DIV MUL PUSH1 0x20 ADD PUSH1 0x40 MLOAD SWAP1 DUP2 ADD PUSH1 0x40 MSTORE DUP1 SWAP3 SWAP2 SWAP1 DUP2 DUP2 MSTORE PUSH1 0x20 ADD DUP3 DUP1 SLOAD PUSH2 0x15B1 SWAP1 PUSH2 0x3AD8 JUMP JUMPDEST DUP1 ISZERO PUSH2 0x15FC JUMPI DUP1 PUSH1 0x1F LT PUSH2 0x15D3 JUMPI PUSH2 0x100 DUP1 DUP4 SLOAD DIV MUL DUP4 MSTORE SWAP2 PUSH1 0x20 ADD SWAP2 PUSH2 0x15FC JUMP JUMPDEST DUP3 ADD SWAP2 SWAP1 PUSH0 MSTORE PUSH1 0x20 PUSH0 KECCAK256 SWAP1 JUMPDEST DUP2 SLOAD DUP2 MSTORE SWAP1 PUSH1 0x1 ADD SWAP1 PUSH1 0x20 ADD DUP1 DUP4 GT PUSH2 0x15DF JUMPI DUP3 SWAP1 SUB PUSH1 0x1F AND DUP3 ADD SWAP2 JUMPDEST POP POP POP POP POP DUP2 MSTORE PUSH1 0x20 ADD PUSH1 0x4 DUP3 ADD PUSH0 SWAP1 SLOAD SWAP1 PUSH2 0x100 EXP SWAP1 DIV PUSH1 0xFF AND ISZERO ISZERO ISZERO ISZERO DUP2 MSTORE POP POP SWAP1 POP DUP1 PUSH0 ADD MLOAD DUP9 DUP5 DUP2 MLOAD DUP2 LT PUSH2 0x1638 JUMPI PUSH2 0x1637 PUSH2 0x3EE4 JUMP JUMPDEST JUMPDEST PUSH1 0x20 MUL PUSH1 0x20 ADD ADD DUP2 DUP2 MSTORE POP POP DUP1 PUSH1 0x20 ADD MLOAD DUP8 DUP5 DUP2 MLOAD DUP2 LT PUSH2 0x165C JUMPI PUSH2 0x165B PUSH2 0x3EE4 JUMP JUMPDEST JUMPDEST PUSH1 0x20 MUL PUSH1 0x20 ADD ADD DUP2 SWAP1 MSTORE POP DUP1 PUSH1 0x40 ADD MLOAD DUP7 DUP5 DUP2 MLOAD DUP2 LT PUSH2 0x167F JUMPI PUSH2 0x167E PUSH2 0x3EE4 JUMP JUMPDEST JUMPDEST PUSH1 0x20 MUL PUSH1 0x20 ADD ADD DUP2 SWAP1 MSTORE POP DUP1 PUSH1 0x60 ADD MLOAD DUP6 DUP5 DUP2 MLOAD DUP2 LT PUSH2 0x16A2 JUMPI PUSH2 0x16A1 PUSH2 0x3EE4 JUMP JUMPDEST JUMPDEST PUSH1 0x20 MUL PUSH1 0x20 ADD ADD DUP2 SWAP1 MSTORE POP POP POP DUP1 DUP1 PUSH1 0x1 ADD SWAP2 POP POP PUSH2 0x1408 JUMP JUMPDEST POP POP SWAP1 SWAP2 SWAP3 SWAP4 JUMP JUMPDEST DUP4 PUSH0 PUSH0 DUP3 DUP2 MSTORE PUSH1 0x20 ADD SWAP1 DUP2 MSTORE PUSH1 0x20 ADD PUSH0 KECCAK256 PUSH1 0x4 ADD PUSH0 SWAP1 SLOAD SWAP1 PUSH2 0x100 EXP SWAP1 DIV PUSH1 0xFF AND PUSH2 0x1724 JUMPI PUSH1 0x40 MLOAD PUSH32 0x8C379A000000000000000000000000000000000000000000000000000000000 DUP2 MSTORE PUSH1 0x4 ADD PUSH2 0x171B SWAP1 PUSH2 0x3A8D JUMP JUMPDEST PUSH1 0x40 MLOAD DUP1 SWAP2 SUB SWAP1 REVERT JUMPDEST PUSH0 DUP5 MLOAD GT PUSH2 0x1767 JUMPI PUSH1 0x40 MLOAD PUSH32 0x8C379A000000000000000000000000000000000000000000000000000000000 DUP2 MSTORE PUSH1 0x4 ADD PUSH2 0x175E SWAP1 PUSH2 0x3B52 JUMP JUMPDEST PUSH1 0x40 MLOAD DUP1 SWAP2 SUB SWAP1 REVERT JUMPDEST PUSH0 DUP3 MLOAD GT PUSH2 0x17AA JUMPI PUSH1 0x40 MLOAD PUSH32 0x8C379A000000000000000000000000000000000000000000000000000000000 DUP2 MSTORE PUSH1 0x4 ADD PUSH2 0x17A1 SWAP1 PUSH2 0x3BBA JUMP JUMPDEST PUSH1 0x40 MLOAD DUP1 SWAP2 SUB SWAP1 REVERT JUMPDEST DUP4 PUSH0 PUSH0 DUP8 DUP2 MSTORE PUSH1 0x20 ADD SWAP1 DUP2 MSTORE PUSH1 0x20 ADD PUSH0 KECCAK256 PUSH1 0x1 ADD SWAP1 DUP2 PUSH2 0x17CA SWAP2 SWAP1 PUSH2 0x3D78 JUMP JUMPDEST POP DUP3 PUSH0 PUSH0 DUP8 DUP2 MSTORE PUSH1 0x20 ADD SWAP1 DUP2 MSTORE PUSH1 0x20 ADD PUSH0 KECCAK256 PUSH1 0x2 ADD SWAP1 DUP2 PUSH2 0x17EB SWAP2 SWAP1 PUSH2 0x3D78 JUMP JUMPDEST POP DUP2 PUSH0 PUSH0 DUP8 DUP2 MSTORE PUSH1 0x20 ADD SWAP1 DUP2 MSTORE PUSH1 0x20 ADD PUSH0 KECCAK256 PUSH1 0x3 ADD SWAP1 DUP2 PUSH2 0x180C SWAP2 SWAP1 PUSH2 0x3D78 JUMP JUMPDEST POP DUP5 PUSH32 0x4C8CDE21320BA24D72B5EC50E9D79D85585B33DD8166079E2B7360E24925BB4A DUP6 DUP6 PUSH1 0x40 MLOAD PUSH2 0x183F SWAP3 SWAP2 SWAP1 PUSH2 0x3E47 JUMP JUMPDEST PUSH1 0x40 MLOAD DUP1 SWAP2 SUB SWAP1 LOG2 POP POP POP POP POP JUMP JUMPDEST PUSH1 0x60 DUP1 PUSH1 0x60 DUP1 PUSH0 PUSH1 0x4 DUP1 SLOAD SWAP1 POP SWAP1 POP DUP1 PUSH8 0xFFFFFFFFFFFFFFFF DUP2 GT ISZERO PUSH2 0x1877 JUMPI PUSH2 0x1876 PUSH2 0x3214 JUMP JUMPDEST JUMPDEST PUSH1 0x40 MLOAD SWAP1 DUP1 DUP3 MSTORE DUP1 PUSH1 0x20 MUL PUSH1 0x20 ADD DUP3 ADD PUSH1 0x40 MSTORE DUP1 ISZERO PUSH2 0x18A5 JUMPI DUP2 PUSH1 0x20 ADD PUSH1 0x20 DUP3 MUL DUP1 CALLDATASIZE DUP4 CALLDATACOPY DUP1 DUP3 ADD SWAP2 POP POP SWAP1 POP JUMPDEST POP SWAP5 POP DUP1 PUSH8 0xFFFFFFFFFFFFFFFF DUP2 GT ISZERO PUSH2 0x18C2 JUMPI PUSH2 0x18C1 PUSH2 0x3214 JUMP JUMPDEST JUMPDEST PUSH1 0x40 MLOAD SWAP1 DUP1 DUP3 MSTORE DUP1 PUSH1 0x20 MUL PUSH1 0x20 ADD DUP3 ADD PUSH1 0x40 MSTORE DUP1 ISZERO PUSH2 0x18F5 JUMPI DUP2 PUSH1 0x20 ADD JUMPDEST PUSH1 0x60 DUP2 MSTORE PUSH1 0x20 ADD SWAP1 PUSH1 0x1 SWAP1 SUB SWAP1 DUP2 PUSH2 0x18E0 JUMPI SWAP1 POP JUMPDEST POP SWAP4 POP DUP1 PUSH8 0xFFFFFFFFFFFFFFFF DUP2 GT ISZERO PUSH2 0x1912 JUMPI PUSH2 0x1911 PUSH2 0x3214 JUMP JUMPDEST JUMPDEST PUSH1 0x40 MLOAD SWAP1 DUP1 DUP3 MSTORE DUP1 PUSH1 0x20 MUL PUSH1 0x20 ADD DUP3 ADD PUSH1 0x40 MSTORE DUP1 ISZERO PUSH2 0x1945 JUMPI DUP2 PUSH1 0x20 ADD JUMPDEST PUSH1 0x60 DUP2 MSTORE PUSH1 0x20 ADD SWAP1 PUSH1 0x1 SWAP1 SUB SWAP1 DUP2 PUSH2 0x1930 JUMPI SWAP1 POP JUMPDEST POP SWAP3 POP DUP1 PUSH8 0xFFFFFFFFFFFFFFFF DUP2 GT ISZERO PUSH2 0x1962 JUMPI PUSH2 0x1961 PUSH2 0x3214 JUMP JUMPDEST JUMPDEST PUSH1 0x40 MLOAD SWAP1 DUP1 DUP3 MSTORE DUP1 PUSH1 0x20 MUL PUSH1 0x20 ADD DUP3 ADD PUSH1 0x40 MSTORE DUP1 ISZERO PUSH2 0x1995 JUMPI DUP2 PUSH1 0x20 ADD JUMPDEST PUSH1 0x60 DUP2 MSTORE PUSH1 0x20 ADD SWAP1 PUSH1 0x1 SWAP1 SUB SWAP1 DUP2 PUSH2 0x1980 JUMPI SWAP1 POP JUMPDEST POP SWAP2 POP PUSH0 PUSH0 SWAP1 POP JUMPDEST DUP2 DUP2 LT ISZERO PUSH2 0x1C52 JUMPI PUSH0 PUSH1 0x4 DUP3 DUP2 SLOAD DUP2 LT PUSH2 0x19BA JUMPI PUSH2 0x19B9 PUSH2 0x3EE4 JUMP JUMPDEST JUMPDEST SWAP1 PUSH0 MSTORE PUSH1 0x20 PUSH0 KECCAK256 ADD SLOAD SWAP1 POP PUSH0 PUSH1 0x1 PUSH0 DUP4 DUP2 MSTORE PUSH1 0x20 ADD SWAP1 DUP2 MSTORE PUSH1 0x20 ADD PUSH0 KECCAK256 PUSH1 0x40 MLOAD DUP1 PUSH1 0xA0 ADD PUSH1 0x40 MSTORE SWAP1 DUP2 PUSH0 DUP3 ADD SLOAD DUP2 MSTORE PUSH1 0x20 ADD PUSH1 0x1 DUP3 ADD DUP1 SLOAD PUSH2 0x19FB SWAP1 PUSH2 0x3AD8 JUMP JUMPDEST DUP1 PUSH1 0x1F ADD PUSH1 0x20 DUP1 SWAP2 DIV MUL PUSH1 0x20 ADD PUSH1 0x40 MLOAD SWAP1 DUP2 ADD PUSH1 0x40 MSTORE DUP1 SWAP3 SWAP2 SWAP1 DUP2 DUP2 MSTORE PUSH1 0x20 ADD DUP3 DUP1 SLOAD PUSH2 0x1A27 SWAP1 PUSH2 0x3AD8 JUMP JUMPDEST DUP1 ISZERO PUSH2 0x1A72 JUMPI DUP1 PUSH1 0x1F LT PUSH2 0x1A49 JUMPI PUSH2 0x100 DUP1 DUP4 SLOAD DIV MUL DUP4 MSTORE SWAP2 PUSH1 0x20 ADD SWAP2 PUSH2 0x1A72 JUMP JUMPDEST DUP3 ADD SWAP2 SWAP1 PUSH0 MSTORE PUSH1 0x20 PUSH0 KECCAK256 SWAP1 JUMPDEST DUP2 SLOAD DUP2 MSTORE SWAP1 PUSH1 0x1 ADD SWAP1 PUSH1 0x20 ADD DUP1 DUP4 GT PUSH2 0x1A55 JUMPI DUP3 SWAP1 SUB PUSH1 0x1F AND DUP3 ADD SWAP2 JUMPDEST POP POP POP POP POP DUP2 MSTORE PUSH1 0x20 ADD PUSH1 0x2 DUP3 ADD DUP1 SLOAD PUSH2 0x1A8B SWAP1 PUSH2 0x3AD8 JUMP JUMPDEST DUP1 PUSH1 0x1F ADD PUSH1 0x20 DUP1 SWAP2 DIV MUL PUSH1 0x20 ADD PUSH1 0x40 MLOAD SWAP1 DUP2 ADD PUSH1 0x40 MSTORE DUP1 SWAP3 SWAP2 SWAP1 DUP2 DUP2 MSTORE PUSH1 0x20 ADD DUP3 DUP1 SLOAD PUSH2 0x1AB7 SWAP1 PUSH2 0x3AD8 JUMP JUMPDEST DUP1 ISZERO PUSH2 0x1B02 JUMPI DUP1 PUSH1 0x1F LT PUSH2 0x1AD9 JUMPI PUSH2 0x100 DUP1 DUP4 SLOAD DIV MUL DUP4 MSTORE SWAP2 PUSH1 0x20 ADD SWAP2 PUSH2 0x1B02 JUMP JUMPDEST DUP3 ADD SWAP2 SWAP1 PUSH0 MSTORE PUSH1 0x20 PUSH0 KECCAK256 SWAP1 JUMPDEST DUP2 SLOAD DUP2 MSTORE SWAP1 PUSH1 0x1 ADD SWAP1 PUSH1 0x20 ADD DUP1 DUP4 GT PUSH2 0x1AE5 JUMPI DUP3 SWAP1 SUB PUSH1 0x1F AND DUP3 ADD SWAP2 JUMPDEST POP POP POP POP POP DUP2 MSTORE PUSH1 0x20 ADD PUSH1 0x3 DUP3 ADD DUP1 SLOAD PUSH2 0x1B1B SWAP1 PUSH2 0x3AD8 JUMP JUMPDEST DUP1 PUSH1 0x1F ADD PUSH1 0x20 DUP1 SWAP2 DIV MUL PUSH1 0x20 ADD PUSH1 0x40 MLOAD SWAP1 DUP2 ADD PUSH1 0x40 MSTORE DUP1 SWAP3 SWAP2 SWAP1 DUP2 DUP2 MSTORE PUSH1 0x20 ADD DUP3 DUP1 SLOAD PUSH2 0x1B47 SWAP1 PUSH2 0x3AD8 JUMP JUMPDEST DUP1 ISZERO PUSH2 0x1B92 JUMPI DUP1 PUSH1 0x1F LT PUSH2 0x1B69 JUMPI PUSH2 0x100 DUP1 DUP4 SLOAD DIV MUL DUP4 MSTORE SWAP2 PUSH1 0x20 ADD SWAP2 PUSH2 0x1B92 JUMP JUMPDEST DUP3 ADD SWAP2 SWAP1 PUSH0 MSTORE PUSH1 0x20 PUSH0 KECCAK256 SWAP1 JUMPDEST DUP2 SLOAD DUP2 MSTORE SWAP1 PUSH1 0x1 ADD SWAP1 PUSH1 0x20 ADD DUP1 DUP4 GT PUSH2 0x1B75 JUMPI DUP3 SWAP1 SUB PUSH1 0x1F AND DUP3 ADD SWAP2 JUMPDEST POP POP POP POP POP DUP2 MSTORE PUSH1 0x20 ADD PUSH1 0x4 DUP3 ADD PUSH0 SWAP1 SLOAD SWAP1 PUSH2 0x100 EXP SWAP1 DIV PUSH1 0xFF AND ISZERO ISZERO ISZERO ISZERO DUP2 MSTORE POP POP SWAP1 POP DUP1 PUSH0 ADD MLOAD DUP9 DUP5 DUP2 MLOAD DUP2 LT PUSH2 0x1BCE JUMPI PUSH2 0x1BCD PUSH2 0x3EE4 JUMP JUMPDEST JUMPDEST PUSH1 0x20 MUL PUSH1 0x20 ADD ADD DUP2 DUP2 MSTORE POP POP DUP1 PUSH1 0x20 ADD MLOAD DUP8 DUP5 DUP2 MLOAD DUP2 LT PUSH2 0x1BF2 JUMPI PUSH2 0x1BF1 PUSH2 0x3EE4 JUMP JUMPDEST JUMPDEST PUSH1 0x20 MUL PUSH1 0x20 ADD ADD DUP2 SWAP1 MSTORE POP DUP1 PUSH1 0x40 ADD MLOAD DUP7 DUP5 DUP2 MLOAD DUP2 LT PUSH2 0x1C15 JUMPI PUSH2 0x1C14 PUSH2 0x3EE4 JUMP JUMPDEST JUMPDEST PUSH1 0x20 MUL PUSH1 0x20 ADD ADD DUP2 SWAP1 MSTORE POP DUP1 PUSH1 0x60 ADD MLOAD DUP6 DUP5 DUP2 MLOAD DUP2 LT PUSH2 0x1C38 JUMPI PUSH2 0x1C37 PUSH2 0x3EE4 JUMP JUMPDEST JUMPDEST PUSH1 0x20 MUL PUSH1 0x20 ADD ADD DUP2 SWAP1 MSTORE POP POP POP DUP1 DUP1 PUSH1 0x1 ADD SWAP2 POP POP PUSH2 0x199D JUMP JUMPDEST POP POP SWAP1 SWAP2 SWAP3 SWAP4 JUMP JUMPDEST PUSH0 PUSH0 DUP6 MLOAD GT PUSH2 0x1C9E JUMPI PUSH1 0x40 MLOAD PUSH32 0x8C379A000000000000000000000000000000000000000000000000000000000 DUP2 MSTORE PUSH1 0x4 ADD PUSH2 0x1C95 SWAP1 PUSH2 0x3FE8 JUMP JUMPDEST PUSH1 0x40 MLOAD DUP1 SWAP2 SUB SWAP1 REVERT JUMPDEST PUSH0 DUP5 MLOAD GT PUSH2 0x1CE1 JUMPI PUSH1 0x40 MLOAD PUSH32 0x8C379A000000000000000000000000000000000000000000000000000000000 DUP2 MSTORE PUSH1 0x4 ADD PUSH2 0x1CD8 SWAP1 PUSH2 0x416A JUMP JUMPDEST PUSH1 0x40 MLOAD DUP1 SWAP2 SUB SWAP1 REVERT JUMPDEST PUSH0 TIMESTAMP SWAP1 POP PUSH1 0x40 MLOAD DUP1 PUSH1 0xC0 ADD PUSH1 0x40 MSTORE DUP1 DUP3 DUP2 MSTORE PUSH1 0x20 ADD DUP8 DUP2 MSTORE PUSH1 0x20 ADD DUP7 DUP2 MSTORE PUSH1 0x20 ADD DUP6 DUP2 MSTORE PUSH1 0x20 ADD DUP5 DUP2 MSTORE PUSH1 0x20 ADD PUSH1 0x1 ISZERO ISZERO DUP2 MSTORE POP PUSH1 0x2 PUSH0 DUP4 DUP2 MSTORE PUSH1 0x20 ADD SWAP1 DUP2 MSTORE PUSH1 0x20 ADD PUSH0 KECCAK256 PUSH0 DUP3 ADD MLOAD DUP2 PUSH0 ADD SSTORE PUSH1 0x20 DUP3 ADD MLOAD DUP2 PUSH1 0x1 ADD SWAP1 DUP2 PUSH2 0x1D43 SWAP2 SWAP1 PUSH2 0x3D78 JUMP JUMPDEST POP PUSH1 0x40 DUP3 ADD MLOAD DUP2 PUSH1 0x2 ADD SWAP1 DUP2 PUSH2 0x1D59 SWAP2 SWAP1 PUSH2 0x3D78 JUMP JUMPDEST POP PUSH1 0x60 DUP3 ADD MLOAD DUP2 PUSH1 0x3 ADD SWAP1 DUP2 PUSH2 0x1D6F SWAP2 SWAP1 PUSH2 0x3D78 JUMP JUMPDEST POP PUSH1 0x80 DUP3 ADD MLOAD DUP2 PUSH1 0x4 ADD SWAP1 DUP2 PUSH2 0x1D85 SWAP2 SWAP1 PUSH2 0x3D78 JUMP JUMPDEST POP PUSH1 0xA0 DUP3 ADD MLOAD DUP2 PUSH1 0x5 ADD PUSH0 PUSH2 0x100 EXP DUP2 SLOAD DUP2 PUSH1 0xFF MUL NOT AND SWAP1 DUP4 ISZERO ISZERO MUL OR SWAP1 SSTORE POP SWAP1 POP POP PUSH1 0x5 DUP2 SWAP1 DUP1 PUSH1 0x1 DUP2 SLOAD ADD DUP1 DUP3 SSTORE DUP1 SWAP2 POP POP PUSH1 0x1 SWAP1 SUB SWAP1 PUSH0 MSTORE PUSH1 0x20 PUSH0 KECCAK256 ADD PUSH0 SWAP1 SWAP2 SWAP1 SWAP2 SWAP1 SWAP2 POP SSTORE DUP1 PUSH32 0xD435653848BBFA44A9136B793E660753873E5B87EE80E7289D257538214BD3E0 DUP8 DUP8 DUP8 PUSH1 0x40 MLOAD PUSH2 0x1E02 SWAP4 SWAP3 SWAP2 SWAP1 PUSH2 0x406E JUMP JUMPDEST PUSH1 0x40 MLOAD DUP1 SWAP2 SUB SWAP1 LOG2 DUP1 SWAP2 POP POP SWAP5 SWAP4 POP POP POP POP JUMP JUMPDEST PUSH0 PUSH0 PUSH0 PUSH1 0x3 DUP1 SLOAD SWAP1 POP PUSH1 0x4 DUP1 SLOAD SWAP1 POP PUSH1 0x5 DUP1 SLOAD SWAP1 POP SWAP3 POP SWAP3 POP SWAP3 POP SWAP1 SWAP2 SWAP3 JUMP JUMPDEST PUSH1 0x60 PUSH1 0x3 DUP1 SLOAD DUP1 PUSH1 0x20 MUL PUSH1 0x20 ADD PUSH1 0x40 MLOAD SWAP1 DUP2 ADD PUSH1 0x40 MSTORE DUP1 SWAP3 SWAP2 SWAP1 DUP2 DUP2 MSTORE PUSH1 0x20 ADD DUP3 DUP1 SLOAD DUP1 ISZERO PUSH2 0x1E82 JUMPI PUSH1 0x20 MUL DUP3 ADD SWAP2 SWAP1 PUSH0 MSTORE PUSH1 0x20 PUSH0 KECCAK256 SWAP1 JUMPDEST DUP2 SLOAD DUP2 MSTORE PUSH1 0x20 ADD SWAP1 PUSH1 0x1 ADD SWAP1 DUP1 DUP4 GT PUSH2 0x1E6E JUMPI JUMPDEST POP POP POP POP POP SWAP1 POP SWAP1 JUMP JUMPDEST DUP5 PUSH1 0x2 PUSH0 DUP3 DUP2 MSTORE PUSH1 0x20 ADD SWAP1 DUP2 MSTORE PUSH1 0x20 ADD PUSH0 KECCAK256 PUSH1 0x5 ADD PUSH0 SWAP1 SLOAD SWAP1 PUSH2 0x100 EXP SWAP1 DIV PUSH1 0xFF AND PUSH2 0x1EED JUMPI PUSH1 0x40 MLOAD PUSH32 0x8C379A000000000000000000000000000000000000000000000000000000000 DUP2 MSTORE PUSH1 0x4 ADD PUSH2 0x1EE4 SWAP1 PUSH2 0x3EC6 JUMP JUMPDEST PUSH1 0x40 MLOAD DUP1 SWAP2 SUB SWAP1 REVERT JUMPDEST PUSH0 DUP6 MLOAD GT PUSH2 0x1F30 JUMPI PUSH1 0x40 MLOAD PUSH32 0x8C379A000000000000000000000000000000000000000000000000000000000 DUP2 MSTORE PUSH1 0x4 ADD PUSH2 0x1F27 SWAP1 PUSH2 0x3FE8 JUMP JUMPDEST PUSH1 0x40 MLOAD DUP1 SWAP2 SUB SWAP1 REVERT JUMPDEST PUSH0 DUP5 MLOAD GT PUSH2 0x1F73 JUMPI PUSH1 0x40 MLOAD PUSH32 0x8C379A000000000000000000000000000000000000000000000000000000000 DUP2 MSTORE PUSH1 0x4 ADD PUSH2 0x1F6A SWAP1 PUSH2 0x416A JUMP JUMPDEST PUSH1 0x40 MLOAD DUP1 SWAP2 SUB SWAP1 REVERT JUMPDEST DUP5 PUSH1 0x2 PUSH0 DUP9 DUP2 MSTORE PUSH1 0x20 ADD SWAP1 DUP2 MSTORE PUSH1 0x20 ADD PUSH0 KECCAK256 PUSH1 0x1 ADD SWAP1 DUP2 PUSH2 0x1F94 SWAP2 SWAP1 PUSH2 0x3D78 JUMP JUMPDEST POP DUP4 PUSH1 0x2 PUSH0 DUP9 DUP2 MSTORE PUSH1 0x20 ADD SWAP1 DUP2 MSTORE PUSH1 0x20 ADD PUSH0 KECCAK256 PUSH1 0x2 ADD SWAP1 DUP2 PUSH2 0x1FB6 SWAP2 SWAP1 PUSH2 0x3D78 JUMP JUMPDEST POP DUP3 PUSH1 0x2 PUSH0 DUP9 DUP2 MSTORE PUSH1 0x20 ADD SWAP1 DUP2 MSTORE PUSH1 0x20 ADD PUSH0 KECCAK256 PUSH1 0x3 ADD SWAP1 DUP2 PUSH2 0x1FD8 SWAP2 SWAP1 PUSH2 0x3D78 JUMP JUMPDEST POP DUP2 PUSH1 0x2 PUSH0 DUP9 DUP2 MSTORE PUSH1 0x20 ADD SWAP1 DUP2 MSTORE PUSH1 0x20 ADD PUSH0 KECCAK256 PUSH1 0x4 ADD SWAP1 DUP2 PUSH2 0x1FFA SWAP2 SWAP1 PUSH2 0x3D78 JUMP JUMPDEST POP DUP6 PUSH32 0x8C3999A987C45C0D01FBC63D2BBCBBC000FBEF413680EA70285750D9CC577AB0 DUP7 DUP7 DUP7 PUSH1 0x40 MLOAD PUSH2 0x202F SWAP4 SWAP3 SWAP2 SWAP1 PUSH2 0x406E JUMP JUMPDEST PUSH1 0x40 MLOAD DUP1 SWAP2 SUB SWAP1 LOG2 POP POP POP POP POP POP JUMP JUMPDEST PUSH1 0x1 PUSH1 0x20 MSTORE DUP1 PUSH0 MSTORE PUSH1 0x40 PUSH0 KECCAK256 PUSH0 SWAP2 POP SWAP1 POP DUP1 PUSH0 ADD SLOAD SWAP1 DUP1 PUSH1 0x1 ADD DUP1 SLOAD PUSH2 0x2064 SWAP1 PUSH2 0x3AD8 JUMP JUMPDEST DUP1 PUSH1 0x1F ADD PUSH1 0x20 DUP1 SWAP2 DIV MUL PUSH1 0x20 ADD PUSH1 0x40 MLOAD SWAP1 DUP2 ADD PUSH1 0x40 MSTORE DUP1 SWAP3 SWAP2 SWAP1 DUP2 DUP2 MSTORE PUSH1 0x20 ADD DUP3 DUP1 SLOAD PUSH2 0x2090 SWAP1 PUSH2 0x3AD8 JUMP JUMPDEST DUP1 ISZERO PUSH2 0x20DB JUMPI DUP1 PUSH1 0x1F LT PUSH2 0x20B2 JUMPI PUSH2 0x100 DUP1 DUP4 SLOAD DIV MUL DUP4 MSTORE SWAP2 PUSH1 0x20 ADD SWAP2 PUSH2 0x20DB JUMP JUMPDEST DUP3 ADD SWAP2 SWAP1 PUSH0 MSTORE PUSH1 0x20 PUSH0 KECCAK256 SWAP1 JUMPDEST DUP2 SLOAD DUP2 MSTORE SWAP1 PUSH1 0x1 ADD SWAP1 PUSH1 0x20 ADD DUP1 DUP4 GT PUSH2 0x20BE JUMPI DUP3 SWAP1 SUB PUSH1 0x1F AND DUP3 ADD SWAP2 JUMPDEST POP POP POP POP POP SWAP1 DUP1 PUSH1 0x2 ADD DUP1 SLOAD PUSH2 0x20F0 SWAP1 PUSH2 0x3AD8 JUMP JUMPDEST DUP1 PUSH1 0x1F ADD PUSH1 0x20 DUP1 SWAP2 DIV MUL PUSH1 0x20 ADD PUSH1 0x40 MLOAD SWAP1 DUP2 ADD PUSH1 0x40 MSTORE DUP1 SWAP3 SWAP2 SWAP1 DUP2 DUP2 MSTORE PUSH1 0x20 ADD DUP3 DUP1 SLOAD PUSH2 0x211C SWAP1 PUSH2 0x3AD8 JUMP JUMPDEST DUP1 ISZERO PUSH2 0x2167 JUMPI DUP1 PUSH1 0x1F LT PUSH2 0x213E JUMPI PUSH2 0x100 DUP1 DUP4 SLOAD DIV MUL DUP4 MSTORE SWAP2 PUSH1 0x20 ADD SWAP2 PUSH2 0x2167 JUMP JUMPDEST DUP3 ADD SWAP2 SWAP1 PUSH0 MSTORE PUSH1 0x20 PUSH0 KECCAK256 SWAP1 JUMPDEST DUP2 SLOAD DUP2 MSTORE SWAP1 PUSH1 0x1 ADD SWAP1 PUSH1 0x20 ADD DUP1 DUP4 GT PUSH2 0x214A JUMPI DUP3 SWAP1 SUB PUSH1 0x1F AND DUP3 ADD SWAP2 JUMPDEST POP POP POP POP POP SWAP1 DUP1 PUSH1 0x3 ADD DUP1 SLOAD PUSH2 0x217C SWAP1 PUSH2 0x3AD8 JUMP JUMPDEST DUP1 PUSH1 0x1F ADD PUSH1 0x20 DUP1 SWAP2 DIV MUL PUSH1 0x20 ADD PUSH1 0x40 MLOAD SWAP1 DUP2 ADD PUSH1 0x40 MSTORE DUP1 SWAP3 SWAP2 SWAP1 DUP2 DUP2 MSTORE PUSH1 0x20 ADD DUP3 DUP1 SLOAD PUSH2 0x21A8 SWAP1 PUSH2 0x3AD8 JUMP JUMPDEST DUP1 ISZERO PUSH2 0x21F3 JUMPI DUP1 PUSH1 0x1F LT PUSH2 0x21CA JUMPI PUSH2 0x100 DUP1 DUP4 SLOAD DIV MUL DUP4 MSTORE SWAP2 PUSH1 0x20 ADD SWAP2 PUSH2 0x21F3 JUMP JUMPDEST DUP3 ADD SWAP2 SWAP1 PUSH0 MSTORE PUSH1 0x20 PUSH0 KECCAK256 SWAP1 JUMPDEST DUP2 SLOAD DUP2 MSTORE SWAP1 PUSH1 0x1 ADD SWAP1 PUSH1 0x20 ADD DUP1 DUP4 GT PUSH2 0x21D6 JUMPI DUP3 SWAP1 SUB PUSH1 0x1F AND DUP3 ADD SWAP2 JUMPDEST POP POP POP POP POP SWAP1 DUP1 PUSH1 0x4 ADD PUSH0 SWAP1 SLOAD SWAP1 PUSH2 0x100 EXP SWAP1 DIV PUSH1 0xFF AND SWAP1 POP DUP6 JUMP JUMPDEST PUSH1 0x60 PUSH1 0x4 DUP1 SLOAD DUP1 PUSH1 0x20 MUL PUSH1 0x20 ADD PUSH1 0x40 MLOAD SWAP1 DUP2 ADD PUSH1 0x40 MSTORE DUP1 SWAP3 SWAP2 SWAP1 DUP2 DUP2 MSTORE PUSH1 0x20 ADD DUP3 DUP1 SLOAD DUP1 ISZERO PUSH2 0x225B JUMPI PUSH1 0x20 MUL DUP3 ADD SWAP2 SWAP1 PUSH0 MSTORE PUSH1 0x20 PUSH0 KECCAK256 SWAP1 JUMPDEST DUP2 SLOAD DUP2 MSTORE PUSH1 0x20 ADD SWAP1 PUSH1 0x1 ADD SWAP1 DUP1 DUP4 GT PUSH2 0x2247 JUMPI JUMPDEST POP POP POP POP POP SWAP1 POP SWAP1 JUMP JUMPDEST PUSH1 0x60 DUP1 PUSH1 0x60 DUP1 PUSH1 0x60 PUSH0 PUSH1 0x5 DUP1 SLOAD SWAP1 POP SWAP1 POP DUP1 PUSH8 0xFFFFFFFFFFFFFFFF DUP2 GT ISZERO PUSH2 0x2290 JUMPI PUSH2 0x228F PUSH2 0x3214 JUMP JUMPDEST JUMPDEST PUSH1 0x40 MLOAD SWAP1 DUP1 DUP3 MSTORE DUP1 PUSH1 0x20 MUL PUSH1 0x20 ADD DUP3 ADD PUSH1 0x40 MSTORE DUP1 ISZERO PUSH2 0x22BE JUMPI DUP2 PUSH1 0x20 ADD PUSH1 0x20 DUP3 MUL DUP1 CALLDATASIZE DUP4 CALLDATACOPY DUP1 DUP3 ADD SWAP2 POP POP SWAP1 POP JUMPDEST POP SWAP6 POP DUP1 PUSH8 0xFFFFFFFFFFFFFFFF DUP2 GT ISZERO PUSH2 0x22DB JUMPI PUSH2 0x22DA PUSH2 0x3214 JUMP JUMPDEST JUMPDEST PUSH1 0x40 MLOAD SWAP1 DUP1 DUP3 MSTORE DUP1 PUSH1 0x20 MUL PUSH1 0x20 ADD DUP3 ADD PUSH1 0x40 MSTORE DUP1 ISZERO PUSH2 0x230E JUMPI DUP2 PUSH1 0x20 ADD JUMPDEST PUSH1 0x60 DUP2 MSTORE PUSH1 0x20 ADD SWAP1 PUSH1 0x1 SWAP1 SUB SWAP1 DUP2 PUSH2 0x22F9 JUMPI SWAP1 POP JUMPDEST POP SWAP5 POP DUP1 PUSH8 0xFFFFFFFFFFFFFFFF DUP2 GT ISZERO PUSH2 0x232B JUMPI PUSH2 0x232A PUSH2 0x3214 JUMP JUMPDEST JUMPDEST PUSH1 0x40 MLOAD SWAP1 DUP1 DUP3 MSTORE DUP1 PUSH1 0x20 MUL PUSH1 0x20 ADD DUP3 ADD PUSH1 0x40 MSTORE DUP1 ISZERO PUSH2 0x235E JUMPI DUP2 PUSH1 0x20 ADD JUMPDEST PUSH1 0x60 DUP2 MSTORE PUSH1 0x20 ADD SWAP1 PUSH1 0x1 SWAP1 SUB SWAP1 DUP2 PUSH2 0x2349 JUMPI SWAP1 POP JUMPDEST POP SWAP4 POP DUP1 PUSH8 0xFFFFFFFFFFFFFFFF DUP2 GT ISZERO PUSH2 0x237B JUMPI PUSH2 0x237A PUSH2 0x3214 JUMP JUMPDEST JUMPDEST PUSH1 0x40 MLOAD SWAP1 DUP1 DUP3 MSTORE DUP1 PUSH1 0x20 MUL PUSH1 0x20 ADD DUP3 ADD PUSH1 0x40 MSTORE DUP1 ISZERO PUSH2 0x23AE JUMPI DUP2 PUSH1 0x20 ADD JUMPDEST PUSH1 0x60 DUP2 MSTORE PUSH1 0x20 ADD SWAP1 PUSH1 0x1 SWAP1 SUB SWAP1 DUP2 PUSH2 0x2399 JUMPI SWAP1 POP JUMPDEST POP SWAP3 POP DUP1 PUSH8 0xFFFFFFFFFFFFFFFF DUP2 GT ISZERO PUSH2 0x23CB JUMPI PUSH2 0x23CA PUSH2 0x3214 JUMP JUMPDEST JUMPDEST PUSH1 0x40 MLOAD SWAP1 DUP1 DUP3 MSTORE DUP1 PUSH1 0x20 MUL PUSH1 0x20 ADD DUP3 ADD PUSH1 0x40 MSTORE DUP1 ISZERO PUSH2 0x23FE JUMPI DUP2 PUSH1 0x20 ADD JUMPDEST PUSH1 0x60 DUP2 MSTORE PUSH1 0x20 ADD SWAP1 PUSH1 0x1 SWAP1 SUB SWAP1 DUP2 PUSH2 0x23E9 JUMPI SWAP1 POP JUMPDEST POP SWAP2 POP PUSH0 PUSH0 SWAP1 POP JUMPDEST DUP2 DUP2 LT ISZERO PUSH2 0x276E JUMPI PUSH0 PUSH1 0x5 DUP3 DUP2 SLOAD DUP2 LT PUSH2 0x2423 JUMPI PUSH2 0x2422 PUSH2 0x3EE4 JUMP JUMPDEST JUMPDEST SWAP1 PUSH0 MSTORE PUSH1 0x20 PUSH0 KECCAK256 ADD SLOAD SWAP1 POP PUSH0 PUSH1 0x2 PUSH0 DUP4 DUP2 MSTORE PUSH1 0x20 ADD SWAP1 DUP2 MSTORE PUSH1 0x20 ADD PUSH0 KECCAK256 PUSH1 0x40 MLOAD DUP1 PUSH1 0xC0 ADD PUSH1 0x40 MSTORE SWAP1 DUP2 PUSH0 DUP3 ADD SLOAD DUP2 MSTORE PUSH1 0x20 ADD PUSH1 0x1 DUP3 ADD DUP1 SLOAD PUSH2 0x2464 SWAP1 PUSH2 0x3AD8 JUMP JUMPDEST DUP1 PUSH1 0x1F ADD PUSH1 0x20 DUP1 SWAP2 DIV MUL PUSH1 0x20 ADD PUSH1 0x40 MLOAD SWAP1 DUP2 ADD PUSH1 0x40 MSTORE DUP1 SWAP3 SWAP2 SWAP1 DUP2 DUP2 MSTORE PUSH1 0x20 ADD DUP3 DUP1 SLOAD PUSH2 0x2490 SWAP1 PUSH2 0x3AD8 JUMP JUMPDEST DUP1 ISZERO PUSH2 0x24DB JUMPI DUP1 PUSH1 0x1F LT PUSH2 0x24B2 JUMPI PUSH2 0x100 DUP1 DUP4 SLOAD DIV MUL DUP4 MSTORE SWAP2 PUSH1 0x20 ADD SWAP2 PUSH2 0x24DB JUMP JUMPDEST DUP3 ADD SWAP2 SWAP1 PUSH0 MSTORE PUSH1 0x20 PUSH0 KECCAK256 SWAP1 JUMPDEST DUP2 SLOAD DUP2 MSTORE SWAP1 PUSH1 0x1 ADD SWAP1 PUSH1 0x20 ADD DUP1 DUP4 GT PUSH2 0x24BE JUMPI DUP3 SWAP1 SUB PUSH1 0x1F AND DUP3 ADD SWAP2 JUMPDEST POP POP POP POP POP DUP2 MSTORE PUSH1 0x20 ADD PUSH1 0x2 DUP3 ADD DUP1 SLOAD PUSH2 0x24F4 SWAP1 PUSH2 0x3AD8 JUMP JUMPDEST DUP1 PUSH1 0x1F ADD PUSH1 0x20 DUP1 SWAP2 DIV MUL PUSH1 0x20 ADD PUSH1 0x40 MLOAD SWAP1 DUP2 ADD PUSH1 0x40 MSTORE DUP1 SWAP3 SWAP2 SWAP1 DUP2 DUP2 MSTORE PUSH1 0x20 ADD DUP3 DUP1 SLOAD PUSH2 0x2520 SWAP1 PUSH2 0x3AD8 JUMP JUMPDEST DUP1 ISZERO PUSH2 0x256B JUMPI DUP1 PUSH1 0x1F LT PUSH2 0x2542 JUMPI PUSH2 0x100 DUP1 DUP4 SLOAD DIV MUL DUP4 MSTORE SWAP2 PUSH1 0x20 ADD SWAP2 PUSH2 0x256B JUMP JUMPDEST DUP3 ADD SWAP2 SWAP1 PUSH0 MSTORE PUSH1 0x20 PUSH0 KECCAK256 SWAP1 JUMPDEST DUP2 SLOAD DUP2 MSTORE SWAP1 PUSH1 0x1 ADD SWAP1 PUSH1 0x20 ADD DUP1 DUP4 GT PUSH2 0x254E JUMPI DUP3 SWAP1 SUB PUSH1 0x1F AND DUP3 ADD SWAP2 JUMPDEST POP POP POP POP POP DUP2 MSTORE PUSH1 0x20 ADD PUSH1 0x3 DUP3 ADD DUP1 SLOAD PUSH2 0x2584 SWAP1 PUSH2 0x3AD8 JUMP JUMPDEST DUP1 PUSH1 0x1F ADD PUSH1 0x20 DUP1 SWAP2 DIV MUL PUSH1 0x20 ADD PUSH1 0x40 MLOAD SWAP1 DUP2 ADD PUSH1 0x40 MSTORE DUP1 SWAP3 SWAP2 SWAP1 DUP2 DUP2 MSTORE PUSH1 0x20 ADD DUP3 DUP1 SLOAD PUSH2 0x25B0 SWAP1 PUSH2 0x3AD8 JUMP JUMPDEST DUP1 ISZERO PUSH2 0x25FB JUMPI DUP1 PUSH1 0x1F LT PUSH2 0x25D2 JUMPI PUSH2 0x100 DUP1 DUP4 SLOAD DIV MUL DUP4 MSTORE SWAP2 PUSH1 0x20 ADD SWAP2 PUSH2 0x25FB JUMP JUMPDEST DUP3 ADD SWAP2 SWAP1 PUSH0 MSTORE PUSH1 0x20 PUSH0 KECCAK256 SWAP1 JUMPDEST DUP2 SLOAD DUP2 MSTORE SWAP1 PUSH1 0x1 ADD SWAP1 PUSH1 0x20 ADD DUP1 DUP4 GT PUSH2 0x25DE JUMPI DUP3 SWAP1 SUB PUSH1 0x1F AND DUP3 ADD SWAP2 JUMPDEST POP POP POP POP POP DUP2 MSTORE PUSH1 0x20 ADD PUSH1 0x4 DUP3 ADD DUP1 SLOAD PUSH2 0x2614 SWAP1 PUSH2 0x3AD8 JUMP JUMPDEST DUP1 PUSH1 0x1F ADD PUSH1 0x20 DUP1 SWAP2 DIV MUL PUSH1 0x20 ADD PUSH1 0x40 MLOAD SWAP1 DUP2 ADD PUSH1 0x40 MSTORE DUP1 SWAP3 SWAP2 SWAP1 DUP2 DUP2 MSTORE PUSH1 0x20 ADD DUP3 DUP1 SLOAD PUSH2 0x2640 SWAP1 PUSH2 0x3AD8 JUMP JUMPDEST DUP1 ISZERO PUSH2 0x268B JUMPI DUP1 PUSH1 0x1F LT PUSH2 0x2662 JUMPI PUSH2 0x100 DUP1 DUP4 SLOAD DIV MUL DUP4 MSTORE SWAP2 PUSH1 0x20 ADD SWAP2 PUSH2 0x268B JUMP JUMPDEST DUP3 ADD SWAP2 SWAP1 PUSH0 MSTORE PUSH1 0x20 PUSH0 KECCAK256 SWAP1 JUMPDEST DUP2 SLOAD DUP2 MSTORE SWAP1 PUSH1 0x1 ADD SWAP1 PUSH1 0x20 ADD DUP1 DUP4 GT PUSH2 0x266E JUMPI DUP3 SWAP1 SUB PUSH1 0x1F AND DUP3 ADD SWAP2 JUMPDEST POP POP POP POP POP DUP2 MSTORE PUSH1 0x20 ADD PUSH1 0x5 DUP3 ADD PUSH0 SWAP1 SLOAD SWAP1 PUSH2 0x100 EXP SWAP1 DIV PUSH1 0xFF AND ISZERO ISZERO ISZERO ISZERO DUP2 MSTORE POP POP SWAP1 POP DUP1 PUSH0 ADD MLOAD DUP10 DUP5 DUP2 MLOAD DUP2 LT PUSH2 0x26C7 JUMPI PUSH2 0x26C6 PUSH2 0x3EE4 JUMP JUMPDEST JUMPDEST PUSH1 0x20 MUL PUSH1 0x20 ADD ADD DUP2 DUP2 MSTORE POP POP DUP1 PUSH1 0x20 ADD MLOAD DUP9 DUP5 DUP2 MLOAD DUP2 LT PUSH2 0x26EB JUMPI PUSH2 0x26EA PUSH2 0x3EE4 JUMP JUMPDEST JUMPDEST PUSH1 0x20 MUL PUSH1 0x20 ADD ADD DUP2 SWAP1 MSTORE POP DUP1 PUSH1 0x40 ADD MLOAD DUP8 DUP5 DUP2 MLOAD DUP2 LT PUSH2 0x270E JUMPI PUSH2 0x270D PUSH2 0x3EE4 JUMP JUMPDEST JUMPDEST PUSH1 0x20 MUL PUSH1 0x20 ADD ADD DUP2 SWAP1 MSTORE POP DUP1 PUSH1 0x60 ADD MLOAD DUP7 DUP5 DUP2 MLOAD DUP2 LT PUSH2 0x2731 JUMPI PUSH2 0x2730 PUSH2 0x3EE4 JUMP JUMPDEST JUMPDEST PUSH1 0x20 MUL PUSH1 0x20 ADD ADD DUP2 SWAP1 MSTORE POP DUP1 PUSH1 0x80 ADD MLOAD DUP6 DUP5 DUP2 MLOAD DUP2 LT PUSH2 0x2754 JUMPI PUSH2 0x2753 PUSH2 0x3EE4 JUMP JUMPDEST JUMPDEST PUSH1 0x20 MUL PUSH1 0x20 ADD ADD DUP2 SWAP1 MSTORE POP POP POP DUP1 DUP1 PUSH1 0x1 ADD SWAP2 POP POP PUSH2 0x2406 JUMP JUMPDEST POP POP SWAP1 SWAP2 SWAP3 SWAP4 SWAP5 JUMP JUMPDEST PUSH1 0x3 DUP2 DUP2 SLOAD DUP2 LT PUSH2 0x2786 JUMPI PUSH0 DUP1 REVERT JUMPDEST SWAP1 PUSH0 MSTORE PUSH1 0x20 PUSH0 KECCAK256 ADD PUSH0 SWAP2 POP SWAP1 POP SLOAD DUP2 JUMP JUMPDEST PUSH0 PUSH1 0x60 DUP1 PUSH1 0x60 DUP5 PUSH1 0x1 PUSH0 DUP3 DUP2 MSTORE PUSH1 0x20 ADD SWAP1 DUP2 MSTORE PUSH1 0x20 ADD PUSH0 KECCAK256 PUSH1 0x4 ADD PUSH0 SWAP1 SLOAD SWAP1 PUSH2 0x100 EXP SWAP1 DIV PUSH1 0xFF AND PUSH2 0x27FE JUMPI PUSH1 0x40 MLOAD PUSH32 0x8C379A000000000000000000000000000000000000000000000000000000000 DUP2 MSTORE PUSH1 0x4 ADD PUSH2 0x27F5 SWAP1 PUSH2 0x4102 JUMP JUMPDEST PUSH1 0x40 MLOAD DUP1 SWAP2 SUB SWAP1 REVERT JUMPDEST PUSH0 PUSH1 0x1 PUSH0 DUP9 DUP2 MSTORE PUSH1 0x20 ADD SWAP1 DUP2 MSTORE PUSH1 0x20 ADD PUSH0 KECCAK256 PUSH1 0x40 MLOAD DUP1 PUSH1 0xA0 ADD PUSH1 0x40 MSTORE SWAP1 DUP2 PUSH0 DUP3 ADD SLOAD DUP2 MSTORE PUSH1 0x20 ADD PUSH1 0x1 DUP3 ADD DUP1 SLOAD PUSH2 0x2834 SWAP1 PUSH2 0x3AD8 JUMP JUMPDEST DUP1 PUSH1 0x1F ADD PUSH1 0x20 DUP1 SWAP2 DIV MUL PUSH1 0x20 ADD PUSH1 0x40 MLOAD SWAP1 DUP2 ADD PUSH1 0x40 MSTORE DUP1 SWAP3 SWAP2 SWAP1 DUP2 DUP2 MSTORE PUSH1 0x20 ADD DUP3 DUP1 SLOAD PUSH2 0x2860 SWAP1 PUSH2 0x3AD8 JUMP JUMPDEST DUP1 ISZERO PUSH2 0x28AB JUMPI DUP1 PUSH1 0x1F LT PUSH2 0x2882 JUMPI PUSH2 0x100 DUP1 DUP4 SLOAD DIV MUL DUP4 MSTORE SWAP2 PUSH1 0x20 ADD SWAP2 PUSH2 0x28AB JUMP JUMPDEST DUP3 ADD SWAP2 SWAP1 PUSH0 MSTORE PUSH1 0x20 PUSH0 KECCAK256 SWAP1 JUMPDEST DUP2 SLOAD DUP2 MSTORE SWAP1 PUSH1 0x1 ADD SWAP1 PUSH1 0x20 ADD DUP1 DUP4 GT PUSH2 0x288E JUMPI DUP3 SWAP1 SUB PUSH1 0x1F AND DUP3 ADD SWAP2 JUMPDEST POP POP POP POP POP DUP2 MSTORE PUSH1 0x20 ADD PUSH1 0x2 DUP3 ADD DUP1 SLOAD PUSH2 0x28C4 SWAP1 PUSH2 0x3AD8 JUMP JUMPDEST DUP1 PUSH1 0x1F ADD PUSH1 0x20 DUP1 SWAP2 DIV MUL PUSH1 0x20 ADD PUSH1 0x40 MLOAD SWAP1 DUP2 ADD PUSH1 0x40 MSTORE DUP1 SWAP3 SWAP2 SWAP1 DUP2 DUP2 MSTORE PUSH1 0x20 ADD DUP3 DUP1 SLOAD PUSH2 0x28F0 SWAP1 PUSH2 0x3AD8 JUMP JUMPDEST DUP1 ISZERO PUSH2 0x293B JUMPI DUP1 PUSH1 0x1F LT PUSH2 0x2912 JUMPI PUSH2 0x100 DUP1 DUP4 SLOAD DIV MUL DUP4 MSTORE SWAP2 PUSH1 0x20 ADD SWAP2 PUSH2 0x293B JUMP JUMPDEST DUP3 ADD SWAP2 SWAP1 PUSH0 MSTORE PUSH1 0x20 PUSH0 KECCAK256 SWAP1 JUMPDEST DUP2 SLOAD DUP2 MSTORE SWAP1 PUSH1 0x1 ADD SWAP1 PUSH1 0x20 ADD DUP1 DUP4 GT PUSH2 0x291E JUMPI DUP3 SWAP1 SUB PUSH1 0x1F AND DUP3 ADD SWAP2 JUMPDEST POP POP POP POP POP DUP2 MSTORE PUSH1 0x20 ADD PUSH1 0x3 DUP3 ADD DUP1 SLOAD PUSH2 0x2954 SWAP1 PUSH2 0x3AD8 JUMP JUMPDEST DUP1 PUSH1 0x1F ADD PUSH1 0x20 DUP1 SWAP2 DIV MUL PUSH1 0x20 ADD PUSH1 0x40 MLOAD SWAP1 DUP2 ADD PUSH1 0x40 MSTORE DUP1 SWAP3 SWAP2 SWAP1 DUP2 DUP2 MSTORE PUSH1 0x20 ADD DUP3 DUP1 SLOAD PUSH2 0x2980 SWAP1 PUSH2 0x3AD8 JUMP JUMPDEST DUP1 ISZERO PUSH2 0x29CB JUMPI DUP1 PUSH1 0x1F LT PUSH2 0x29A2 JUMPI PUSH2 0x100 DUP1 DUP4 SLOAD DIV MUL DUP4 MSTORE SWAP2 PUSH1 0x20 ADD SWAP2 PUSH2 0x29CB JUMP JUMPDEST DUP3 ADD SWAP2 SWAP1 PUSH0 MSTORE PUSH1 0x20 PUSH0 KECCAK256 SWAP1 JUMPDEST DUP2 SLOAD DUP2 MSTORE SWAP1 PUSH1 0x1 ADD SWAP1 PUSH1 0x20 ADD DUP1 DUP4 GT PUSH2 0x29AE JUMPI DUP3 SWAP1 SUB PUSH1 0x1F AND DUP3 ADD SWAP2 JUMPDEST POP POP POP POP POP DUP2 MSTORE PUSH1 0x20 ADD PUSH1 0x4 DUP3 ADD PUSH0 SWAP1 SLOAD SWAP1 PUSH2 0x100 EXP SWAP1 DIV PUSH1 0xFF AND ISZERO ISZERO ISZERO ISZERO DUP2 MSTORE POP POP SWAP1 POP DUP1 PUSH0 ADD MLOAD DUP2 PUSH1 0x20 ADD MLOAD DUP3 PUSH1 0x40 ADD MLOAD DUP4 PUSH1 0x60 ADD MLOAD SWAP6 POP SWAP6 POP SWAP6 POP SWAP6 POP POP POP SWAP2 SWAP4 POP SWAP2 SWAP4 JUMP JUMPDEST DUP4 PUSH1 0x1 PUSH0 DUP3 DUP2 MSTORE PUSH1 0x20 ADD SWAP1 DUP2 MSTORE PUSH1 0x20 ADD PUSH0 KECCAK256 PUSH1 0x4 ADD PUSH0 SWAP1 SLOAD SWAP1 PUSH2 0x100 EXP SWAP1 DIV PUSH1 0xFF AND PUSH2 0x2A75 JUMPI PUSH1 0x40 MLOAD PUSH32 0x8C379A000000000000000000000000000000000000000000000000000000000 DUP2 MSTORE PUSH1 0x4 ADD PUSH2 0x2A6C SWAP1 PUSH2 0x4102 JUMP JUMPDEST PUSH1 0x40 MLOAD DUP1 SWAP2 SUB SWAP1 REVERT JUMPDEST PUSH0 DUP5 MLOAD GT PUSH2 0x2AB8 JUMPI PUSH1 0x40 MLOAD PUSH32 0x8C379A000000000000000000000000000000000000000000000000000000000 DUP2 MSTORE PUSH1 0x4 ADD PUSH2 0x2AAF SWAP1 PUSH2 0x3FE8 JUMP JUMPDEST PUSH1 0x40 MLOAD DUP1 SWAP2 SUB SWAP1 REVERT JUMPDEST PUSH0 DUP4 MLOAD GT PUSH2 0x2AFB JUMPI PUSH1 0x40 MLOAD PUSH32 0x8C379A000000000000000000000000000000000000000000000000000000000 DUP2 MSTORE PUSH1 0x4 ADD PUSH2 0x2AF2 SWAP1 PUSH2 0x4050 JUMP JUMPDEST PUSH1 0x40 MLOAD DUP1 SWAP2 SUB SWAP1 REVERT JUMPDEST DUP4 PUSH1 0x1 PUSH0 DUP8 DUP2 MSTORE PUSH1 0x20 ADD SWAP1 DUP2 MSTORE PUSH1 0x20 ADD PUSH0 KECCAK256 PUSH1 0x1 ADD SWAP1 DUP2 PUSH2 0x2B1C SWAP2 SWAP1 PUSH2 0x3D78 JUMP JUMPDEST POP DUP3 PUSH1 0x1 PUSH0 DUP8 DUP2 MSTORE PUSH1 0x20 ADD SWAP1 DUP2 MSTORE PUSH1 0x20 ADD PUSH0 KECCAK256 PUSH1 0x2 ADD SWAP1 DUP2 PUSH2 0x2B3E SWAP2 SWAP1 PUSH2 0x3D78 JUMP JUMPDEST POP DUP2 PUSH1 0x1 PUSH0 DUP8 DUP2 MSTORE PUSH1 0x20 ADD SWAP1 DUP2 MSTORE PUSH1 0x20 ADD PUSH0 KECCAK256 PUSH1 0x3 ADD SWAP1 DUP2 PUSH2 0x2B60 SWAP2 SWAP1 PUSH2 0x3D78 JUMP JUMPDEST POP DUP5 PUSH32 0xCB9333B4D858A1C4FEC6E4D81B483C71E36B773D592CE66502440FA84F5E1B79 DUP6 DUP6 DUP6 PUSH1 0x40 MLOAD PUSH2 0x2B95 SWAP4 SWAP3 SWAP2 SWAP1 PUSH2 0x406E JUMP JUMPDEST PUSH1 0x40 MLOAD DUP1 SWAP2 SUB SWAP1 LOG2 POP POP POP POP POP JUMP JUMPDEST DUP1 PUSH0 PUSH0 DUP3 DUP2 MSTORE PUSH1 0x20 ADD SWAP1 DUP2 MSTORE PUSH1 0x20 ADD PUSH0 KECCAK256 PUSH1 0x4 ADD PUSH0 SWAP1 SLOAD SWAP1 PUSH2 0x100 EXP SWAP1 DIV PUSH1 0xFF AND PUSH2 0x2C04 JUMPI PUSH1 0x40 MLOAD PUSH32 0x8C379A000000000000000000000000000000000000000000000000000000000 DUP2 MSTORE PUSH1 0x4 ADD PUSH2 0x2BFB SWAP1 PUSH2 0x3A8D JUMP JUMPDEST PUSH1 0x40 MLOAD DUP1 SWAP2 SUB SWAP1 REVERT JUMPDEST PUSH0 PUSH0 PUSH0 DUP5 DUP2 MSTORE PUSH1 0x20 ADD SWAP1 DUP2 MSTORE PUSH1 0x20 ADD PUSH0 KECCAK256 PUSH1 0x4 ADD PUSH0 PUSH2 0x100 EXP DUP2 SLOAD DUP2 PUSH1 0xFF MUL NOT AND SWAP1 DUP4 ISZERO ISZERO MUL OR SWAP1 SSTORE POP PUSH0 PUSH0 SWAP1 POP JUMPDEST PUSH1 0x3 DUP1 SLOAD SWAP1 POP DUP2 LT ISZERO PUSH2 0x2CE8 JUMPI DUP3 PUSH1 0x3 DUP3 DUP2 SLOAD DUP2 LT PUSH2 0x2C55 JUMPI PUSH2 0x2C54 PUSH2 0x3EE4 JUMP JUMPDEST JUMPDEST SWAP1 PUSH0 MSTORE PUSH1 0x20 PUSH0 KECCAK256 ADD SLOAD SUB PUSH2 0x2CDB JUMPI PUSH1 0x3 PUSH1 0x1 PUSH1 0x3 DUP1 SLOAD SWAP1 POP PUSH2 0x2C77 SWAP2 SWAP1 PUSH2 0x3F3E JUMP JUMPDEST DUP2 SLOAD DUP2 LT PUSH2 0x2C88 JUMPI PUSH2 0x2C87 PUSH2 0x3EE4 JUMP JUMPDEST JUMPDEST SWAP1 PUSH0 MSTORE PUSH1 0x20 PUSH0 KECCAK256 ADD SLOAD PUSH1 0x3 DUP3 DUP2 SLOAD DUP2 LT PUSH2 0x2CA5 JUMPI PUSH2 0x2CA4 PUSH2 0x3EE4 JUMP JUMPDEST JUMPDEST SWAP1 PUSH0 MSTORE PUSH1 0x20 PUSH0 KECCAK256 ADD DUP2 SWAP1 SSTORE POP PUSH1 0x3 DUP1 SLOAD DUP1 PUSH2 0x2CC3 JUMPI PUSH2 0x2CC2 PUSH2 0x3F71 JUMP JUMPDEST JUMPDEST PUSH1 0x1 SWAP1 SUB DUP2 DUP2 SWAP1 PUSH0 MSTORE PUSH1 0x20 PUSH0 KECCAK256 ADD PUSH0 SWAP1 SSTORE SWAP1 SSTORE PUSH2 0x2CE8 JUMP JUMPDEST DUP1 DUP1 PUSH1 0x1 ADD SWAP2 POP POP PUSH2 0x2C33 JUMP JUMPDEST POP DUP2 PUSH32 0xABC90EF5B12A4DE5CE7771FFCDF78DA9A15B9E38C4561012CD9BBC3DFA35476D PUSH1 0x40 MLOAD PUSH1 0x40 MLOAD DUP1 SWAP2 SUB SWAP1 LOG2 POP POP JUMP JUMPDEST PUSH0 PUSH1 0x60 DUP1 PUSH1 0x60 DUP1 DUP6 PUSH1 0x2 PUSH0 DUP3 DUP2 MSTORE PUSH1 0x20 ADD SWAP1 DUP2 MSTORE PUSH1 0x20 ADD PUSH0 KECCAK256 PUSH1 0x5 ADD PUSH0 SWAP1 SLOAD SWAP1 PUSH2 0x100 EXP SWAP1 DIV PUSH1 0xFF AND PUSH2 0x2D82 JUMPI PUSH1 0x40 MLOAD PUSH32 0x8C379A000000000000000000000000000000000000000000000000000000000 DUP2 MSTORE PUSH1 0x4 ADD PUSH2 0x2D79 SWAP1 PUSH2 0x3EC6 JUMP JUMPDEST PUSH1 0x40 MLOAD DUP1 SWAP2 SUB SWAP1 REVERT JUMPDEST PUSH0 PUSH1 0x2 PUSH0 DUP10 DUP2 MSTORE PUSH1 0x20 ADD SWAP1 DUP2 MSTORE PUSH1 0x20 ADD PUSH0 KECCAK256 PUSH1 0x40 MLOAD DUP1 PUSH1 0xC0 ADD PUSH1 0x40 MSTORE SWAP1 DUP2 PUSH0 DUP3 ADD SLOAD DUP2 MSTORE PUSH1 0x20 ADD PUSH1 0x1 DUP3 ADD DUP1 SLOAD PUSH2 0x2DB8 SWAP1 PUSH2 0x3AD8 JUMP JUMPDEST DUP1 PUSH1 0x1F ADD PUSH1 0x20 DUP1 SWAP2 DIV MUL PUSH1 0x20 ADD PUSH1 0x40 MLOAD SWAP1 DUP2 ADD PUSH1 0x40 MSTORE DUP1 SWAP3 SWAP2 SWAP1 DUP2 DUP2 MSTORE PUSH1 0x20 ADD DUP3 DUP1 SLOAD PUSH2 0x2DE4 SWAP1 PUSH2 0x3AD8 JUMP JUMPDEST DUP1 ISZERO PUSH2 0x2E2F JUMPI DUP1 PUSH1 0x1F LT PUSH2 0x2E06 JUMPI PUSH2 0x100 DUP1 DUP4 SLOAD DIV MUL DUP4 MSTORE SWAP2 PUSH1 0x20 ADD SWAP2 PUSH2 0x2E2F JUMP JUMPDEST DUP3 ADD SWAP2 SWAP1 PUSH0 MSTORE PUSH1 0x20 PUSH0 KECCAK256 SWAP1 JUMPDEST DUP2 SLOAD DUP2 MSTORE SWAP1 PUSH1 0x1 ADD SWAP1 PUSH1 0x20 ADD DUP1 DUP4 GT PUSH2 0x2E12 JUMPI DUP3 SWAP1 SUB PUSH1 0x1F AND DUP3 ADD SWAP2 JUMPDEST POP POP POP POP POP DUP2 MSTORE PUSH1 0x20 ADD PUSH1 0x2 DUP3 ADD DUP1 SLOAD PUSH2 0x2E48 SWAP1 PUSH2 0x3AD8 JUMP JUMPDEST DUP1 PUSH1 0x1F ADD PUSH1 0x20 DUP1 SWAP2 DIV MUL PUSH1 0x20 ADD PUSH1 0x40 MLOAD SWAP1 DUP2 ADD PUSH1 0x40 MSTORE DUP1 SWAP3 SWAP2 SWAP1 DUP2 DUP2 MSTORE PUSH1 0x20 ADD DUP3 DUP1 SLOAD PUSH2 0x2E74 SWAP1 PUSH2 0x3AD8 JUMP JUMPDEST DUP1 ISZERO PUSH2 0x2EBF JUMPI DUP1 PUSH1 0x1F LT PUSH2 0x2E96 JUMPI PUSH2 0x100 DUP1 DUP4 SLOAD DIV MUL DUP4 MSTORE SWAP2 PUSH1 0x20 ADD SWAP2 PUSH2 0x2EBF JUMP JUMPDEST DUP3 ADD SWAP2 SWAP1 PUSH0 MSTORE PUSH1 0x20 PUSH0 KECCAK256 SWAP1 JUMPDEST DUP2 SLOAD DUP2 MSTORE SWAP1 PUSH1 0x1 ADD SWAP1 PUSH1 0x20 ADD DUP1 DUP4 GT PUSH2 0x2EA2 JUMPI DUP3 SWAP1 SUB PUSH1 0x1F AND DUP3 ADD SWAP2 JUMPDEST POP POP POP POP POP DUP2 MSTORE PUSH1 0x20 ADD PUSH1 0x3 DUP3 ADD DUP1 SLOAD PUSH2 0x2ED8 SWAP1 PUSH2 0x3AD8 JUMP JUMPDEST DUP1 PUSH1 0x1F ADD PUSH1 0x20 DUP1 SWAP2 DIV MUL PUSH1 0x20 ADD PUSH1 0x40 MLOAD SWAP1 DUP2 ADD PUSH1 0x40 MSTORE DUP1 SWAP3 SWAP2 SWAP1 DUP2 DUP2 MSTORE PUSH1 0x20 ADD DUP3 DUP1 SLOAD PUSH2 0x2F04 SWAP1 PUSH2 0x3AD8 JUMP JUMPDEST DUP1 ISZERO PUSH2 0x2F4F JUMPI DUP1 PUSH1 0x1F LT PUSH2 0x2F26 JUMPI PUSH2 0x100 DUP1 DUP4 SLOAD DIV MUL DUP4 MSTORE SWAP2 PUSH1 0x20 ADD SWAP2 PUSH2 0x2F4F JUMP JUMPDEST DUP3 ADD SWAP2 SWAP1 PUSH0 MSTORE PUSH1 0x20 PUSH0 KECCAK256 SWAP1 JUMPDEST DUP2 SLOAD DUP2 MSTORE SWAP1 PUSH1 0x1 ADD SWAP1 PUSH1 0x20 ADD DUP1 DUP4 GT PUSH2 0x2F32 JUMPI DUP3 SWAP1 SUB PUSH1 0x1F AND DUP3 ADD SWAP2 JUMPDEST POP POP POP POP POP DUP2 MSTORE PUSH1 0x20 ADD PUSH1 0x4 DUP3 ADD DUP1 SLOAD PUSH2 0x2F68 SWAP1 PUSH2 0x3AD8 JUMP JUMPDEST DUP1 PUSH1 0x1F ADD PUSH1 0x20 DUP1 SWAP2 DIV MUL PUSH1 0x20 ADD PUSH1 0x40 MLOAD SWAP1 DUP2 ADD PUSH1 0x40 MSTORE DUP1 SWAP3 SWAP2 SWAP1 DUP2 DUP2 MSTORE PUSH1 0x20 ADD DUP3 DUP1 SLOAD PUSH2 0x2F94 SWAP1 PUSH2 0x3AD8 JUMP JUMPDEST DUP1 ISZERO PUSH2 0x2FDF JUMPI DUP1 PUSH1 0x1F LT PUSH2 0x2FB6 JUMPI PUSH2 0x100 DUP1 DUP4 SLOAD DIV MUL DUP4 MSTORE SWAP2 PUSH1 0x20 ADD SWAP2 PUSH2 0x2FDF JUMP JUMPDEST DUP3 ADD SWAP2 SWAP1 PUSH0 MSTORE PUSH1 0x20 PUSH0 KECCAK256 SWAP1 JUMPDEST DUP2 SLOAD DUP2 MSTORE SWAP1 PUSH1 0x1 ADD SWAP1 PUSH1 0x20 ADD DUP1 DUP4 GT PUSH2 0x2FC2 JUMPI DUP3 SWAP1 SUB PUSH1 0x1F AND DUP3 ADD SWAP2 JUMPDEST POP POP POP POP POP DUP2 MSTORE PUSH1 0x20 ADD PUSH1 0x5 DUP3 ADD PUSH0 SWAP1 SLOAD SWAP1 PUSH2 0x100 EXP SWAP1 DIV PUSH1 0xFF AND ISZERO ISZERO ISZERO ISZERO DUP2 MSTORE POP POP SWAP1 POP DUP1 PUSH0 ADD MLOAD DUP2 PUSH1 0x20 ADD MLOAD DUP3 PUSH1 0x40 ADD MLOAD DUP4 PUSH1 0x60 ADD MLOAD DUP5 PUSH1 0x80 ADD MLOAD SWAP7 POP SWAP7 POP SWAP7 POP SWAP7 POP SWAP7 POP POP POP SWAP2 SWAP4 SWAP6 SWAP1 SWAP3 SWAP5 POP JUMP JUMPDEST PUSH0 PUSH1 0x40 MLOAD SWAP1 POP SWAP1 JUMP JUMPDEST PUSH0 PUSH0 REVERT JUMPDEST PUSH0 PUSH0 REVERT JUMPDEST PUSH0 DUP2 SWAP1 POP SWAP2 SWAP1 POP JUMP JUMPDEST PUSH2 0x3054 DUP2 PUSH2 0x3042 JUMP JUMPDEST DUP2 EQ PUSH2 0x305E JUMPI PUSH0 PUSH0 REVERT JUMPDEST POP JUMP JUMPDEST PUSH0 DUP2 CALLDATALOAD SWAP1 POP PUSH2 0x306F DUP2 PUSH2 0x304B JUMP JUMPDEST SWAP3 SWAP2 POP POP JUMP JUMPDEST PUSH0 PUSH1 0x20 DUP3 DUP5 SUB SLT ISZERO PUSH2 0x308A JUMPI PUSH2 0x3089 PUSH2 0x303A JUMP JUMPDEST JUMPDEST PUSH0 PUSH2 0x3097 DUP5 DUP3 DUP6 ADD PUSH2 0x3061 JUMP JUMPDEST SWAP2 POP POP SWAP3 SWAP2 POP POP JUMP JUMPDEST PUSH2 0x30A9 DUP2 PUSH2 0x3042 JUMP JUMPDEST DUP3 MSTORE POP POP JUMP JUMPDEST PUSH0 DUP2 MLOAD SWAP1 POP SWAP2 SWAP1 POP JUMP JUMPDEST PUSH0 DUP3 DUP3 MSTORE PUSH1 0x20 DUP3 ADD SWAP1 POP SWAP3 SWAP2 POP POP JUMP JUMPDEST DUP3 DUP2 DUP4 MCOPY PUSH0 DUP4 DUP4 ADD MSTORE POP POP POP JUMP JUMPDEST PUSH0 PUSH1 0x1F NOT PUSH1 0x1F DUP4 ADD AND SWAP1 POP SWAP2 SWAP1 POP JUMP JUMPDEST PUSH0 PUSH2 0x30F1 DUP3 PUSH2 0x30AF JUMP JUMPDEST PUSH2 0x30FB DUP2 DUP6 PUSH2 0x30B9 JUMP JUMPDEST SWAP4 POP PUSH2 0x310B DUP2 DUP6 PUSH1 0x20 DUP7 ADD PUSH2 0x30C9 JUMP JUMPDEST PUSH2 0x3114 DUP2 PUSH2 0x30D7 JUMP JUMPDEST DUP5 ADD SWAP2 POP POP SWAP3 SWAP2 POP POP JUMP JUMPDEST PUSH0 PUSH1 0x80 DUP3 ADD SWAP1 POP PUSH2 0x3132 PUSH0 DUP4 ADD DUP8 PUSH2 0x30A0 JUMP JUMPDEST DUP2 DUP2 SUB PUSH1 0x20 DUP4 ADD MSTORE PUSH2 0x3144 DUP2 DUP7 PUSH2 0x30E7 JUMP JUMPDEST SWAP1 POP DUP2 DUP2 SUB PUSH1 0x40 DUP4 ADD MSTORE PUSH2 0x3158 DUP2 DUP6 PUSH2 0x30E7 JUMP JUMPDEST SWAP1 POP DUP2 DUP2 SUB PUSH1 0x60 DUP4 ADD MSTORE PUSH2 0x316C DUP2 DUP5 PUSH2 0x30E7 JUMP JUMPDEST SWAP1 POP SWAP6 SWAP5 POP POP POP POP POP JUMP JUMPDEST PUSH0 DUP2 ISZERO ISZERO SWAP1 POP SWAP2 SWAP1 POP JUMP JUMPDEST PUSH2 0x318B DUP2 PUSH2 0x3177 JUMP JUMPDEST DUP3 MSTORE POP POP JUMP JUMPDEST PUSH0 PUSH1 0xC0 DUP3 ADD SWAP1 POP PUSH2 0x31A4 PUSH0 DUP4 ADD DUP10 PUSH2 0x30A0 JUMP JUMPDEST DUP2 DUP2 SUB PUSH1 0x20 DUP4 ADD MSTORE PUSH2 0x31B6 DUP2 DUP9 PUSH2 0x30E7 JUMP JUMPDEST SWAP1 POP DUP2 DUP2 SUB PUSH1 0x40 DUP4 ADD MSTORE PUSH2 0x31CA DUP2 DUP8 PUSH2 0x30E7 JUMP JUMPDEST SWAP1 POP DUP2 DUP2 SUB PUSH1 0x60 DUP4 ADD MSTORE PUSH2 0x31DE DUP2 DUP7 PUSH2 0x30E7 JUMP JUMPDEST SWAP1 POP DUP2 DUP2 SUB PUSH1 0x80 DUP4 ADD MSTORE PUSH2 0x31F2 DUP2 DUP6 PUSH2 0x30E7 JUMP JUMPDEST SWAP1 POP PUSH2 0x3201 PUSH1 0xA0 DUP4 ADD DUP5 PUSH2 0x3182 JUMP JUMPDEST SWAP8 SWAP7 POP POP POP POP POP POP POP JUMP JUMPDEST PUSH0 PUSH0 REVERT JUMPDEST PUSH0 PUSH0 REVERT JUMPDEST PUSH32 0x4E487B7100000000000000000000000000000000000000000000000000000000 PUSH0 MSTORE PUSH1 0x41 PUSH1 0x4 MSTORE PUSH1 0x24 PUSH0 REVERT JUMPDEST PUSH2 0x324A DUP3 PUSH2 0x30D7 JUMP JUMPDEST DUP2 ADD DUP2 DUP2 LT PUSH8 0xFFFFFFFFFFFFFFFF DUP3 GT OR ISZERO PUSH2 0x3269 JUMPI PUSH2 0x3268 PUSH2 0x3214 JUMP JUMPDEST JUMPDEST DUP1 PUSH1 0x40 MSTORE POP POP POP JUMP JUMPDEST PUSH0 PUSH2 0x327B PUSH2 0x3031 JUMP JUMPDEST SWAP1 POP PUSH2 0x3287 DUP3 DUP3 PUSH2 0x3241 JUMP JUMPDEST SWAP2 SWAP1 POP JUMP JUMPDEST PUSH0 PUSH8 0xFFFFFFFFFFFFFFFF DUP3 GT ISZERO PUSH2 0x32A6 JUMPI PUSH2 0x32A5 PUSH2 0x3214 JUMP JUMPDEST JUMPDEST PUSH2 0x32AF DUP3 PUSH2 0x30D7 JUMP JUMPDEST SWAP1 POP PUSH1 0x20 DUP2 ADD SWAP1 POP SWAP2 SWAP1 POP JUMP JUMPDEST DUP3 DUP2 DUP4 CALLDATACOPY PUSH0 DUP4 DUP4 ADD MSTORE POP POP POP JUMP JUMPDEST PUSH0 PUSH2 0x32DC PUSH2 0x32D7 DUP5 PUSH2 0x328C JUMP JUMPDEST PUSH2 0x3272 JUMP JUMPDEST SWAP1 POP DUP3 DUP2 MSTORE PUSH1 0x20 DUP2 ADD DUP5 DUP5 DUP5 ADD GT ISZERO PUSH2 0x32F8 JUMPI PUSH2 0x32F7 PUSH2 0x3210 JUMP JUMPDEST JUMPDEST PUSH2 0x3303 DUP5 DUP3 DUP6 PUSH2 0x32BC JUMP JUMPDEST POP SWAP4 SWAP3 POP POP POP JUMP JUMPDEST PUSH0 DUP3 PUSH1 0x1F DUP4 ADD SLT PUSH2 0x331F JUMPI PUSH2 0x331E PUSH2 0x320C JUMP JUMPDEST JUMPDEST DUP2 CALLDATALOAD PUSH2 0x332F DUP5 DUP3 PUSH1 0x20 DUP7 ADD PUSH2 0x32CA JUMP JUMPDEST SWAP2 POP POP SWAP3 SWAP2 POP POP JUMP JUMPDEST PUSH0 PUSH0 PUSH0 PUSH1 0x60 DUP5 DUP7 SUB SLT ISZERO PUSH2 0x334F JUMPI PUSH2 0x334E PUSH2 0x303A JUMP JUMPDEST JUMPDEST PUSH0 DUP5 ADD CALLDATALOAD PUSH8 0xFFFFFFFFFFFFFFFF DUP2 GT ISZERO PUSH2 0x336C JUMPI PUSH2 0x336B PUSH2 0x303E JUMP JUMPDEST JUMPDEST PUSH2 0x3378 DUP7 DUP3 DUP8 ADD PUSH2 0x330B JUMP JUMPDEST SWAP4 POP POP PUSH1 0x20 DUP5 ADD CALLDATALOAD PUSH8 0xFFFFFFFFFFFFFFFF DUP2 GT ISZERO PUSH2 0x3399 JUMPI PUSH2 0x3398 PUSH2 0x303E JUMP JUMPDEST JUMPDEST PUSH2 0x33A5 DUP7 DUP3 DUP8 ADD PUSH2 0x330B JUMP JUMPDEST SWAP3 POP POP PUSH1 0x40 DUP5 ADD CALLDATALOAD PUSH8 0xFFFFFFFFFFFFFFFF DUP2 GT ISZERO PUSH2 0x33C6 JUMPI PUSH2 0x33C5 PUSH2 0x303E JUMP JUMPDEST JUMPDEST PUSH2 0x33D2 DUP7 DUP3 DUP8 ADD PUSH2 0x330B JUMP JUMPDEST SWAP2 POP POP SWAP3 POP SWAP3 POP SWAP3 JUMP JUMPDEST PUSH0 PUSH1 0x20 DUP3 ADD SWAP1 POP PUSH2 0x33EF PUSH0 DUP4 ADD DUP5 PUSH2 0x30A0 JUMP JUMPDEST SWAP3 SWAP2 POP POP JUMP JUMPDEST PUSH0 PUSH1 0xA0 DUP3 ADD SWAP1 POP PUSH2 0x3408 PUSH0 DUP4 ADD DUP9 PUSH2 0x30A0 JUMP JUMPDEST DUP2 DUP2 SUB PUSH1 0x20 DUP4 ADD MSTORE PUSH2 0x341A DUP2 DUP8 PUSH2 0x30E7 JUMP JUMPDEST SWAP1 POP DUP2 DUP2 SUB PUSH1 0x40 DUP4 ADD MSTORE PUSH2 0x342E DUP2 DUP7 PUSH2 0x30E7 JUMP JUMPDEST SWAP1 POP DUP2 DUP2 SUB PUSH1 0x60 DUP4 ADD MSTORE PUSH2 0x3442 DUP2 DUP6 PUSH2 0x30E7 JUMP JUMPDEST SWAP1 POP PUSH2 0x3451 PUSH1 0x80 DUP4 ADD DUP5 PUSH2 0x3182 JUMP JUMPDEST SWAP7 SWAP6 POP POP POP POP POP POP JUMP JUMPDEST PUSH0 DUP2 MLOAD SWAP1 POP SWAP2 SWAP1 POP JUMP JUMPDEST PUSH0 DUP3 DUP3 MSTORE PUSH1 0x20 DUP3 ADD SWAP1 POP SWAP3 SWAP2 POP POP JUMP JUMPDEST PUSH0 DUP2 SWAP1 POP PUSH1 0x20 DUP3 ADD SWAP1 POP SWAP2 SWAP1 POP JUMP JUMPDEST PUSH2 0x348D DUP2 PUSH2 0x3042 JUMP JUMPDEST DUP3 MSTORE POP POP JUMP JUMPDEST PUSH0 PUSH2 0x349E DUP4 DUP4 PUSH2 0x3484 JUMP JUMPDEST PUSH1 0x20 DUP4 ADD SWAP1 POP SWAP3 SWAP2 POP POP JUMP JUMPDEST PUSH0 PUSH1 0x20 DUP3 ADD SWAP1 POP SWAP2 SWAP1 POP JUMP JUMPDEST PUSH0 PUSH2 0x34C0 DUP3 PUSH2 0x345B JUMP JUMPDEST PUSH2 0x34CA DUP2 DUP6 PUSH2 0x3465 JUMP JUMPDEST SWAP4 POP PUSH2 0x34D5 DUP4 PUSH2 0x3475 JUMP JUMPDEST DUP1 PUSH0 JUMPDEST DUP4 DUP2 LT ISZERO PUSH2 0x3505 JUMPI DUP2 MLOAD PUSH2 0x34EC DUP9 DUP3 PUSH2 0x3493 JUMP JUMPDEST SWAP8 POP PUSH2 0x34F7 DUP4 PUSH2 0x34AA JUMP JUMPDEST SWAP3 POP POP PUSH1 0x1 DUP2 ADD SWAP1 POP PUSH2 0x34D8 JUMP JUMPDEST POP DUP6 SWAP4 POP POP POP POP SWAP3 SWAP2 POP POP JUMP JUMPDEST PUSH0 PUSH1 0x20 DUP3 ADD SWAP1 POP DUP2 DUP2 SUB PUSH0 DUP4 ADD MSTORE PUSH2 0x352A DUP2 DUP5 PUSH2 0x34B6 JUMP JUMPDEST SWAP1 POP SWAP3 SWAP2 POP POP JUMP JUMPDEST PUSH0 DUP2 MLOAD SWAP1 POP SWAP2 SWAP1 POP JUMP JUMPDEST PUSH0 DUP3 DUP3 MSTORE PUSH1 0x20 DUP3 ADD SWAP1 POP SWAP3 SWAP2 POP POP JUMP JUMPDEST PUSH0 DUP2 SWAP1 POP PUSH1 0x20 DUP3 ADD SWAP1 POP SWAP2 SWAP1 POP JUMP JUMPDEST PUSH0 DUP3 DUP3 MSTORE PUSH1 0x20 DUP3 ADD SWAP1 POP SWAP3 SWAP2 POP POP JUMP JUMPDEST PUSH0 PUSH2 0x3575 DUP3 PUSH2 0x30AF JUMP JUMPDEST PUSH2 0x357F DUP2 DUP6 PUSH2 0x355B JUMP JUMPDEST SWAP4 POP PUSH2 0x358F DUP2 DUP6 PUSH1 0x20 DUP7 ADD PUSH2 0x30C9 JUMP JUMPDEST PUSH2 0x3598 DUP2 PUSH2 0x30D7 JUMP JUMPDEST DUP5 ADD SWAP2 POP POP SWAP3 SWAP2 POP POP JUMP JUMPDEST PUSH0 PUSH2 0x35AE DUP4 DUP4 PUSH2 0x356B JUMP JUMPDEST SWAP1 POP SWAP3 SWAP2 POP POP JUMP JUMPDEST PUSH0 PUSH1 0x20 DUP3 ADD SWAP1 POP SWAP2 SWAP1 POP JUMP JUMPDEST PUSH0 PUSH2 0x35CC DUP3 PUSH2 0x3532 JUMP JUMPDEST PUSH2 0x35D6 DUP2 DUP6 PUSH2 0x353C JUMP JUMPDEST SWAP4 POP DUP4 PUSH1 0x20 DUP3 MUL DUP6 ADD PUSH2 0x35E8 DUP6 PUSH2 0x354C JUMP JUMPDEST DUP1 PUSH0 JUMPDEST DUP6 DUP2 LT ISZERO PUSH2 0x3623 JUMPI DUP5 DUP5 SUB DUP10 MSTORE DUP2 MLOAD PUSH2 0x3604 DUP6 DUP3 PUSH2 0x35A3 JUMP JUMPDEST SWAP5 POP PUSH2 0x360F DUP4 PUSH2 0x35B6 JUMP JUMPDEST SWAP3 POP PUSH1 0x20 DUP11 ADD SWAP10 POP POP PUSH1 0x1 DUP2 ADD SWAP1 POP PUSH2 0x35EB JUMP JUMPDEST POP DUP3 SWAP8 POP DUP8 SWAP6 POP POP POP POP POP POP SWAP3 SWAP2 POP POP JUMP JUMPDEST PUSH0 PUSH1 0x80 DUP3 ADD SWAP1 POP DUP2 DUP2 SUB PUSH0 DUP4 ADD MSTORE PUSH2 0x364D DUP2 DUP8 PUSH2 0x34B6 JUMP JUMPDEST SWAP1 POP DUP2 DUP2 SUB PUSH1 0x20 DUP4 ADD MSTORE PUSH2 0x3661 DUP2 DUP7 PUSH2 0x35C2 JUMP JUMPDEST SWAP1 POP DUP2 DUP2 SUB PUSH1 0x40 DUP4 ADD MSTORE PUSH2 0x3675 DUP2 DUP6 PUSH2 0x35C2 JUMP JUMPDEST SWAP1 POP DUP2 DUP2 SUB PUSH1 0x60 DUP4 ADD MSTORE PUSH2 0x3689 DUP2 DUP5 PUSH2 0x35C2 JUMP JUMPDEST SWAP1 POP SWAP6 SWAP5 POP POP POP POP POP JUMP JUMPDEST PUSH0 PUSH0 PUSH0 PUSH0 PUSH1 0x80 DUP6 DUP8 SUB SLT ISZERO PUSH2 0x36AC JUMPI PUSH2 0x36AB PUSH2 0x303A JUMP JUMPDEST JUMPDEST PUSH0 PUSH2 0x36B9 DUP8 DUP3 DUP9 ADD PUSH2 0x3061 JUMP JUMPDEST SWAP5 POP POP PUSH1 0x20 DUP6 ADD CALLDATALOAD PUSH8 0xFFFFFFFFFFFFFFFF DUP2 GT ISZERO PUSH2 0x36DA JUMPI PUSH2 0x36D9 PUSH2 0x303E JUMP JUMPDEST JUMPDEST PUSH2 0x36E6 DUP8 DUP3 DUP9 ADD PUSH2 0x330B JUMP JUMPDEST SWAP4 POP POP PUSH1 0x40 DUP6 ADD CALLDATALOAD PUSH8 0xFFFFFFFFFFFFFFFF DUP2 GT ISZERO PUSH2 0x3707 JUMPI PUSH2 0x3706 PUSH2 0x303E JUMP JUMPDEST JUMPDEST PUSH2 0x3713 DUP8 DUP3 DUP9 ADD PUSH2 0x330B JUMP JUMPDEST SWAP3 POP POP PUSH1 0x60 DUP6 ADD CALLDATALOAD PUSH8 0xFFFFFFFFFFFFFFFF DUP2 GT ISZERO PUSH2 0x3734 JUMPI PUSH2 0x3733 PUSH2 0x303E JUMP JUMPDEST JUMPDEST PUSH2 0x3740 DUP8 DUP3 DUP9 ADD PUSH2 0x330B JUMP JUMPDEST SWAP2 POP POP SWAP3 SWAP6 SWAP2 SWAP5 POP SWAP3 POP JUMP JUMPDEST PUSH0 PUSH0 PUSH0 PUSH0 PUSH1 0x80 DUP6 DUP8 SUB SLT ISZERO PUSH2 0x3764 JUMPI PUSH2 0x3763 PUSH2 0x303A JUMP JUMPDEST JUMPDEST PUSH0 DUP6 ADD CALLDATALOAD PUSH8 0xFFFFFFFFFFFFFFFF DUP2 GT ISZERO PUSH2 0x3781 JUMPI PUSH2 0x3780 PUSH2 0x303E JUMP JUMPDEST JUMPDEST PUSH2 0x378D DUP8 DUP3 DUP9 ADD PUSH2 0x330B JUMP JUMPDEST SWAP5 POP POP PUSH1 0x20 DUP6 ADD CALLDATALOAD PUSH8 0xFFFFFFFFFFFFFFFF DUP2 GT ISZERO PUSH2 0x37AE JUMPI PUSH2 0x37AD PUSH2 0x303E JUMP JUMPDEST JUMPDEST PUSH2 0x37BA DUP8 DUP3 DUP9 ADD PUSH2 0x330B JUMP JUMPDEST SWAP4 POP POP PUSH1 0x40 DUP6 ADD CALLDATALOAD PUSH8 0xFFFFFFFFFFFFFFFF DUP2 GT ISZERO PUSH2 0x37DB JUMPI PUSH2 0x37DA PUSH2 0x303E JUMP JUMPDEST JUMPDEST PUSH2 0x37E7 DUP8 DUP3 DUP9 ADD PUSH2 0x330B JUMP JUMPDEST SWAP3 POP POP PUSH1 0x60 DUP6 ADD CALLDATALOAD PUSH8 0xFFFFFFFFFFFFFFFF DUP2 GT ISZERO PUSH2 0x3808 JUMPI PUSH2 0x3807 PUSH2 0x303E JUMP JUMPDEST JUMPDEST PUSH2 0x3814 DUP8 DUP3 DUP9 ADD PUSH2 0x330B JUMP JUMPDEST SWAP2 POP POP SWAP3 SWAP6 SWAP2 SWAP5 POP SWAP3 POP JUMP JUMPDEST PUSH0 PUSH1 0x60 DUP3 ADD SWAP1 POP PUSH2 0x3833 PUSH0 DUP4 ADD DUP7 PUSH2 0x30A0 JUMP JUMPDEST PUSH2 0x3840 PUSH1 0x20 DUP4 ADD DUP6 PUSH2 0x30A0 JUMP JUMPDEST PUSH2 0x384D PUSH1 0x40 DUP4 ADD DUP5 PUSH2 0x30A0 JUMP JUMPDEST SWAP5 SWAP4 POP POP POP POP JUMP JUMPDEST PUSH0 PUSH0 PUSH0 PUSH0 PUSH0 PUSH1 0xA0 DUP7 DUP9 SUB SLT ISZERO PUSH2 0x386E JUMPI PUSH2 0x386D PUSH2 0x303A JUMP JUMPDEST JUMPDEST PUSH0 PUSH2 0x387B DUP9 DUP3 DUP10 ADD PUSH2 0x3061 JUMP JUMPDEST SWAP6 POP POP PUSH1 0x20 DUP7 ADD CALLDATALOAD PUSH8 0xFFFFFFFFFFFFFFFF DUP2 GT ISZERO PUSH2 0x389C JUMPI PUSH2 0x389B PUSH2 0x303E JUMP JUMPDEST JUMPDEST PUSH2 0x38A8 DUP9 DUP3 DUP10 ADD PUSH2 0x330B JUMP JUMPDEST SWAP5 POP POP PUSH1 0x40 DUP7 ADD CALLDATALOAD PUSH8 0xFFFFFFFFFFFFFFFF DUP2 GT ISZERO PUSH2 0x38C9 JUMPI PUSH2 0x38C8 PUSH2 0x303E JUMP JUMPDEST JUMPDEST PUSH2 0x38D5 DUP9 DUP3 DUP10 ADD PUSH2 0x330B JUMP JUMPDEST SWAP4 POP POP PUSH1 0x60 DUP7 ADD CALLDATALOAD PUSH8 0xFFFFFFFFFFFFFFFF DUP2 GT ISZERO PUSH2 0x38F6 JUMPI PUSH2 0x38F5 PUSH2 0x303E JUMP JUMPDEST JUMPDEST PUSH2 0x3902 DUP9 DUP3 DUP10 ADD PUSH2 0x330B JUMP JUMPDEST SWAP3 POP POP PUSH1 0x80 DUP7 ADD CALLDATALOAD PUSH8 0xFFFFFFFFFFFFFFFF DUP2 GT ISZERO PUSH2 0x3923 JUMPI PUSH2 0x3922 PUSH2 0x303E JUMP JUMPDEST JUMPDEST PUSH2 0x392F DUP9 DUP3 DUP10 ADD PUSH2 0x330B JUMP JUMPDEST SWAP2 POP POP SWAP3 SWAP6 POP SWAP3 SWAP6 SWAP1 SWAP4 POP JUMP JUMPDEST PUSH0 PUSH1 0xA0 DUP3 ADD SWAP1 POP DUP2 DUP2 SUB PUSH0 DUP4 ADD MSTORE PUSH2 0x3954 DUP2 DUP9 PUSH2 0x34B6 JUMP JUMPDEST SWAP1 POP DUP2 DUP2 SUB PUSH1 0x20 DUP4 ADD MSTORE PUSH2 0x3968 DUP2 DUP8 PUSH2 0x35C2 JUMP JUMPDEST SWAP1 POP DUP2 DUP2 SUB PUSH1 0x40 DUP4 ADD MSTORE PUSH2 0x397C DUP2 DUP7 PUSH2 0x35C2 JUMP JUMPDEST SWAP1 POP DUP2 DUP2 SUB PUSH1 0x60 DUP4 ADD MSTORE PUSH2 0x3990 DUP2 DUP6 PUSH2 0x35C2 JUMP JUMPDEST SWAP1 POP DUP2 DUP2 SUB PUSH1 0x80 DUP4 ADD MSTORE PUSH2 0x39A4 DUP2 DUP5 PUSH2 0x35C2 JUMP JUMPDEST SWAP1 POP SWAP7 SWAP6 POP POP POP POP POP POP JUMP JUMPDEST PUSH0 PUSH1 0xA0 DUP3 ADD SWAP1 POP PUSH2 0x39C3 PUSH0 DUP4 ADD DUP9 PUSH2 0x30A0 JUMP JUMPDEST DUP2 DUP2 SUB PUSH1 0x20 DUP4 ADD MSTORE PUSH2 0x39D5 DUP2 DUP8 PUSH2 0x30E7 JUMP JUMPDEST SWAP1 POP DUP2 DUP2 SUB PUSH1 0x40 DUP4 ADD MSTORE PUSH2 0x39E9 DUP2 DUP7 PUSH2 0x30E7 JUMP JUMPDEST SWAP1 POP DUP2 DUP2 SUB PUSH1 0x60 DUP4 ADD MSTORE PUSH2 0x39FD DUP2 DUP6 PUSH2 0x30E7 JUMP JUMPDEST SWAP1 POP DUP2 DUP2 SUB PUSH1 0x80 DUP4 ADD MSTORE PUSH2 0x3A11 DUP2 DUP5 PUSH2 0x30E7 JUMP JUMPDEST SWAP1 POP SWAP7 SWAP6 POP POP POP POP POP POP JUMP JUMPDEST PUSH32 0x4B6E6F776C65646765206261736520656E74727920646F6573206E6F74206578 PUSH0 DUP3 ADD MSTORE PUSH32 0x6973740000000000000000000000000000000000000000000000000000000000 PUSH1 0x20 DUP3 ADD MSTORE POP JUMP JUMPDEST PUSH0 PUSH2 0x3A77 PUSH1 0x23 DUP4 PUSH2 0x30B9 JUMP JUMPDEST SWAP2 POP PUSH2 0x3A82 DUP3 PUSH2 0x3A1D JUMP JUMPDEST PUSH1 0x40 DUP3 ADD SWAP1 POP SWAP2 SWAP1 POP JUMP JUMPDEST PUSH0 PUSH1 0x20 DUP3 ADD SWAP1 POP DUP2 DUP2 SUB PUSH0 DUP4 ADD MSTORE PUSH2 0x3AA4 DUP2 PUSH2 0x3A6B JUMP JUMPDEST SWAP1 POP SWAP2 SWAP1 POP JUMP JUMPDEST PUSH32 0x4E487B7100000000000000000000000000000000000000000000000000000000 PUSH0 MSTORE PUSH1 0x22 PUSH1 0x4 MSTORE PUSH1 0x24 PUSH0 REVERT JUMPDEST PUSH0 PUSH1 0x2 DUP3 DIV SWAP1 POP PUSH1 0x1 DUP3 AND DUP1 PUSH2 0x3AEF JUMPI PUSH1 0x7F DUP3 AND SWAP2 POP JUMPDEST PUSH1 0x20 DUP3 LT DUP2 SUB PUSH2 0x3B02 JUMPI PUSH2 0x3B01 PUSH2 0x3AAB JUMP JUMPDEST JUMPDEST POP SWAP2 SWAP1 POP JUMP JUMPDEST PUSH32 0x5469746C652063616E6E6F7420626520656D7074790000000000000000000000 PUSH0 DUP3 ADD MSTORE POP JUMP JUMPDEST PUSH0 PUSH2 0x3B3C PUSH1 0x15 DUP4 PUSH2 0x30B9 JUMP JUMPDEST SWAP2 POP PUSH2 0x3B47 DUP3 PUSH2 0x3B08 JUMP JUMPDEST PUSH1 0x20 DUP3 ADD SWAP1 POP SWAP2 SWAP1 POP JUMP JUMPDEST PUSH0 PUSH1 0x20 DUP3 ADD SWAP1 POP DUP2 DUP2 SUB PUSH0 DUP4 ADD MSTORE PUSH2 0x3B69 DUP2 PUSH2 0x3B30 JUMP JUMPDEST SWAP1 POP SWAP2 SWAP1 POP JUMP JUMPDEST PUSH32 0x436F6E74656E742063616E6E6F7420626520656D707479000000000000000000 PUSH0 DUP3 ADD MSTORE POP JUMP JUMPDEST PUSH0 PUSH2 0x3BA4 PUSH1 0x17 DUP4 PUSH2 0x30B9 JUMP JUMPDEST SWAP2 POP PUSH2 0x3BAF DUP3 PUSH2 0x3B70 JUMP JUMPDEST PUSH1 0x20 DUP3 ADD SWAP1 POP SWAP2 SWAP1 POP JUMP JUMPDEST PUSH0 PUSH1 0x20 DUP3 ADD SWAP1 POP DUP2 DUP2 SUB PUSH0 DUP4 ADD MSTORE PUSH2 0x3BD1 DUP2 PUSH2 0x3B98 JUMP JUMPDEST SWAP1 POP SWAP2 SWAP1 POP JUMP JUMPDEST PUSH0 DUP2 SWAP1 POP DUP2 PUSH0 MSTORE PUSH1 0x20 PUSH0 KECCAK256 SWAP1 POP SWAP2 SWAP1 POP JUMP JUMPDEST PUSH0 PUSH1 0x20 PUSH1 0x1F DUP4 ADD DIV SWAP1 POP SWAP2 SWAP1 POP JUMP JUMPDEST PUSH0 DUP3 DUP3 SHL SWAP1 POP SWAP3 SWAP2 POP POP JUMP JUMPDEST PUSH0 PUSH1 0x8 DUP4 MUL PUSH2 0x3C34 PUSH32 0xFFFFFFFFFFFFFFFFFFFFFFFFFFFFFFFFFFFFFFFFFFFFFFFFFFFFFFFFFFFFFFFF DUP3 PUSH2 0x3BF9 JUMP JUMPDEST PUSH2 0x3C3E DUP7 DUP4 PUSH2 0x3BF9 JUMP JUMPDEST SWAP6 POP DUP1 NOT DUP5 AND SWAP4 POP DUP1 DUP7 AND DUP5 OR SWAP3 POP POP POP SWAP4 SWAP3 POP POP POP JUMP JUMPDEST PUSH0 DUP2 SWAP1 POP SWAP2 SWAP1 POP JUMP JUMPDEST PUSH0 PUSH2 0x3C79 PUSH2 0x3C74 PUSH2 0x3C6F DUP5 PUSH2 0x3042 JUMP JUMPDEST PUSH2 0x3C56 JUMP JUMPDEST PUSH2 0x3042 JUMP JUMPDEST SWAP1 POP SWAP2 SWAP1 POP JUMP JUMPDEST PUSH0 DUP2 SWAP1 POP SWAP2 SWAP1 POP JUMP JUMPDEST PUSH2 0x3C92 DUP4 PUSH2 0x3C5F JUMP JUMPDEST PUSH2 0x3CA6 PUSH2 0x3C9E DUP3 PUSH2 0x3C80 JUMP JUMPDEST DUP5 DUP5 SLOAD PUSH2 0x3C05 JUMP JUMPDEST DUP3 SSTORE POP POP POP POP JUMP JUMPDEST PUSH0 PUSH0 SWAP1 POP SWAP1 JUMP JUMPDEST PUSH2 0x3CBD PUSH2 0x3CAE JUMP JUMPDEST PUSH2 0x3CC8 DUP2 DUP5 DUP5 PUSH2 0x3C89 JUMP JUMPDEST POP POP POP JUMP JUMPDEST JUMPDEST DUP2 DUP2 LT ISZERO PUSH2 0x3CEB JUMPI PUSH2 0x3CE0 PUSH0 DUP3 PUSH2 0x3CB5 JUMP JUMPDEST PUSH1 0x1 DUP2 ADD SWAP1 POP PUSH2 0x3CCE JUMP JUMPDEST POP POP JUMP JUMPDEST PUSH1 0x1F DUP3 GT ISZERO PUSH2 0x3D30 JUMPI PUSH2 0x3D01 DUP2 PUSH2 0x3BD8 JUMP JUMPDEST PUSH2 0x3D0A DUP5 PUSH2 0x3BEA JUMP JUMPDEST DUP2 ADD PUSH1 0x20 DUP6 LT ISZERO PUSH2 0x3D19 JUMPI DUP2 SWAP1 POP JUMPDEST PUSH2 0x3D2D PUSH2 0x3D25 DUP6 PUSH2 0x3BEA JUMP JUMPDEST DUP4 ADD DUP3 PUSH2 0x3CCD JUMP JUMPDEST POP POP JUMPDEST POP POP POP JUMP JUMPDEST PUSH0 DUP3 DUP3 SHR SWAP1 POP SWAP3 SWAP2 POP POP JUMP JUMPDEST PUSH0 PUSH2 0x3D50 PUSH0 NOT DUP5 PUSH1 0x8 MUL PUSH2 0x3D35 JUMP JUMPDEST NOT DUP1 DUP4 AND SWAP2 POP POP SWAP3 SWAP2 POP POP JUMP JUMPDEST PUSH0 PUSH2 0x3D68 DUP4 DUP4 PUSH2 0x3D41 JUMP JUMPDEST SWAP2 POP DUP3 PUSH1 0x2 MUL DUP3 OR SWAP1 POP SWAP3 SWAP2 POP POP JUMP JUMPDEST PUSH2 0x3D81 DUP3 PUSH2 0x30AF JUMP JUMPDEST PUSH8 0xFFFFFFFFFFFFFFFF DUP2 GT ISZERO PUSH2 0x3D9A JUMPI PUSH2 0x3D99 PUSH2 0x3214 JUMP JUMPDEST JUMPDEST PUSH2 0x3DA4 DUP3 SLOAD PUSH2 0x3AD8 JUMP JUMPDEST PUSH2 0x3DAF DUP3 DUP3 DUP6 PUSH2 0x3CEF JUMP JUMPDEST PUSH0 PUSH1 0x20 SWAP1 POP PUSH1 0x1F DUP4 GT PUSH1 0x1 DUP2 EQ PUSH2 0x3DE0 JUMPI PUSH0 DUP5 ISZERO PUSH2 0x3DCE JUMPI DUP3 DUP8 ADD MLOAD SWAP1 POP JUMPDEST PUSH2 0x3DD8 DUP6 DUP3 PUSH2 0x3D5D JUMP JUMPDEST DUP7 SSTORE POP PUSH2 0x3E3F JUMP JUMPDEST PUSH1 0x1F NOT DUP5 AND PUSH2 0x3DEE DUP7 PUSH2 0x3BD8 JUMP JUMPDEST PUSH0 JUMPDEST DUP3 DUP2 LT ISZERO PUSH2 0x3E15 JUMPI DUP5 DUP10 ADD MLOAD DUP3 SSTORE PUSH1 0x1 DUP3 ADD SWAP2 POP PUSH1 0x20 DUP6 ADD SWAP5 POP PUSH1 0x20 DUP2 ADD SWAP1 POP PUSH2 0x3DF0 JUMP JUMPDEST DUP7 DUP4 LT ISZERO PUSH2 0x3E32 JUMPI DUP5 DUP10 ADD MLOAD PUSH2 0x3E2E PUSH1 0x1F DUP10 AND DUP3 PUSH2 0x3D41 JUMP JUMPDEST DUP4 SSTORE POP JUMPDEST PUSH1 0x1 PUSH1 0x2 DUP9 MUL ADD DUP9 SSTORE POP POP POP JUMPDEST POP POP POP POP POP POP JUMP JUMPDEST PUSH0 PUSH1 0x40 DUP3 ADD SWAP1 POP DUP2 DUP2 SUB PUSH0 DUP4 ADD MSTORE PUSH2 0x3E5F DUP2 DUP6 PUSH2 0x30E7 JUMP JUMPDEST SWAP1 POP DUP2 DUP2 SUB PUSH1 0x20 DUP4 ADD MSTORE PUSH2 0x3E73 DUP2 DUP5 PUSH2 0x30E7 JUMP JUMPDEST SWAP1 POP SWAP4 SWAP3 POP POP POP JUMP JUMPDEST PUSH32 0x50726F6A65637420646F6573206E6F7420657869737400000000000000000000 PUSH0 DUP3 ADD MSTORE POP JUMP JUMPDEST PUSH0 PUSH2 0x3EB0 PUSH1 0x16 DUP4 PUSH2 0x30B9 JUMP JUMPDEST SWAP2 POP PUSH2 0x3EBB DUP3 PUSH2 0x3E7C JUMP JUMPDEST PUSH1 0x20 DUP3 ADD SWAP1 POP SWAP2 SWAP1 POP JUMP JUMPDEST PUSH0 PUSH1 0x20 DUP3 ADD SWAP1 POP DUP2 DUP2 SUB PUSH0 DUP4 ADD MSTORE PUSH2 0x3EDD DUP2 PUSH2 0x3EA4 JUMP JUMPDEST SWAP1 POP SWAP2 SWAP1 POP JUMP JUMPDEST PUSH32 0x4E487B7100000000000000000000000000000000000000000000000000000000 PUSH0 MSTORE PUSH1 0x32 PUSH1 0x4 MSTORE PUSH1 0x24 PUSH0 REVERT JUMPDEST PUSH32 0x4E487B7100000000000000000000000000000000000000000000000000000000 PUSH0 MSTORE PUSH1 0x11 PUSH1 0x4 MSTORE PUSH1 0x24 PUSH0 REVERT JUMPDEST PUSH0 PUSH2 0x3F48 DUP3 PUSH2 0x3042 JUMP JUMPDEST SWAP2 POP PUSH2 0x3F53 DUP4 PUSH2 0x3042 JUMP JUMPDEST SWAP3 POP DUP3 DUP3 SUB SWAP1 POP DUP2 DUP2 GT ISZERO PUSH2 0x3F6B JUMPI PUSH2 0x3F6A PUSH2 0x3F11 JUMP JUMPDEST JUMPDEST SWAP3 SWAP2 POP POP JUMP JUMPDEST PUSH32 0x4E487B7100000000000000000000000000000000000000000000000000000000 PUSH0 MSTORE PUSH1 0x31 PUSH1 0x4 MSTORE PUSH1 0x24 PUSH0 REVERT JUMPDEST PUSH32 0x4E616D652063616E6E6F7420626520656D707479000000000000000000000000 PUSH0 DUP3 ADD MSTORE POP JUMP JUMPDEST PUSH0 PUSH2 0x3FD2 PUSH1 0x14 DUP4 PUSH2 0x30B9 JUMP JUMPDEST SWAP2 POP PUSH2 0x3FDD DUP3 PUSH2 0x3F9E JUMP JUMPDEST PUSH1 0x20 DUP3 ADD SWAP1 POP SWAP2 SWAP1 POP JUMP JUMPDEST PUSH0 PUSH1 0x20 DUP3 ADD SWAP1 POP DUP2 DUP2 SUB PUSH0 DUP4 ADD MSTORE PUSH2 0x3FFF DUP2 PUSH2 0x3FC6 JUMP JUMPDEST SWAP1 POP SWAP2 SWAP1 POP JUMP JUMPDEST PUSH32 0x456D61696C2063616E6E6F7420626520656D7074790000000000000000000000 PUSH0 DUP3 ADD MSTORE POP JUMP JUMPDEST PUSH0 PUSH2 0x403A PUSH1 0x15 DUP4 PUSH2 0x30B9 JUMP JUMPDEST SWAP2 POP PUSH2 0x4045 DUP3 PUSH2 0x4006 JUMP JUMPDEST PUSH1 0x20 DUP3 ADD SWAP1 POP SWAP2 SWAP1 POP JUMP JUMPDEST PUSH0 PUSH1 0x20 DUP3 ADD SWAP1 POP DUP2 DUP2 SUB PUSH0 DUP4 ADD MSTORE PUSH2 0x4067 DUP2 PUSH2 0x402E JUMP JUMPDEST SWAP1 POP SWAP2 SWAP1 POP JUMP JUMPDEST PUSH0 PUSH1 0x60 DUP3 ADD SWAP1 POP DUP2 DUP2 SUB PUSH0 DUP4 ADD MSTORE PUSH2 0x4086 DUP2 DUP7 PUSH2 0x30E7 JUMP JUMPDEST SWAP1 POP DUP2 DUP2 SUB PUSH1 0x20 DUP4 ADD MSTORE PUSH2 0x409A DUP2 DUP6 PUSH2 0x30E7 JUMP JUMPDEST SWAP1 POP DUP2 DUP2 SUB PUSH1 0x40 DUP4 ADD MSTORE PUSH2 0x40AE DUP2 DUP5 PUSH2 0x30E7 JUMP JUMPDEST SWAP1 POP SWAP5 SWAP4 POP POP POP POP JUMP JUMPDEST PUSH32 0x437573746F6D657220646F6573206E6F74206578697374000000000000000000 PUSH0 DUP3 ADD MSTORE POP JUMP JUMPDEST PUSH0 PUSH2 0x40EC PUSH1 0x17 DUP4 PUSH2 0x30B9 JUMP JUMPDEST SWAP2 POP PUSH2 0x40F7 DUP3 PUSH2 0x40B8 JUMP JUMPDEST PUSH1 0x20 DUP3 ADD SWAP1 POP SWAP2 SWAP1 POP JUMP JUMPDEST PUSH0 PUSH1 0x20 DUP3 ADD SWAP1 POP DUP2 DUP2 SUB PUSH0 DUP4 ADD MSTORE PUSH2 0x4119 DUP2 PUSH2 0x40E0 JUMP JUMPDEST SWAP1 POP SWAP2 SWAP1 POP JUMP JUMPDEST PUSH32 0x437573746F6D65722063616E6E6F7420626520656D7074790000000000000000 PUSH0 DUP3 ADD MSTORE POP JUMP JUMPDEST PUSH0 PUSH2 0x4154 PUSH1 0x18 DUP4 PUSH2 0x30B9 JUMP JUMPDEST SWAP2 POP PUSH2 0x415F DUP3 PUSH2 0x4120 JUMP JUMPDEST PUSH1 0x20 DUP3 ADD SWAP1 POP SWAP2 SWAP1 POP JUMP JUMPDEST PUSH0 PUSH1 0x20 DUP3 ADD SWAP1 POP DUP2 DUP2 SUB PUSH0 DUP4 ADD MSTORE PUSH2 0x4181 DUP2 PUSH2 0x4148 JUMP JUMPDEST SWAP1 POP SWAP2 SWAP1 POP JUMP INVALID LOG2 PUSH5 0x6970667358 0x22 SLT KECCAK256 PUSH25 0xF2B80311425159FF891283E509DF6D0FF961EE391860C02CB5 STATICCALL SWAP11 0xC6 0x22 SHR SUB PUSH5 0x736F6C6343 STOP ADDMOD 0x1E STOP CALLER "
				},
				"gasEstimates": {
					"creation": {
						"codeDepositCost": "3366000",
						"executionCost": "3745",
						"totalCost": "3369745"
					},
					"external": {
						"createCustomer(string,string,string)": "infinite",
						"createKnowledgeBase(string,string,string)": "infinite",
						"createProject(string,string,string,string)": "infinite",
						"customerIds(uint256)": "infinite",
						"customers(uint256)": "infinite",
						"deleteCustomer(uint256)": "infinite",
						"deleteKnowledgeBase(uint256)": "infinite",
						"deleteProject(uint256)": "infinite",
						"getAllCustomerIds()": "infinite",
						"getAllCustomers()": "infinite",
						"getAllKnowledgeBase()": "infinite",
						"getAllKnowledgeBaseIds()": "infinite",
						"getAllProjectIds()": "infinite",
						"getAllProjectsWithCustomerInformation()": "infinite",
						"getCounts()": "infinite",
						"getCustomer(uint256)": "infinite",
						"getKnowledgeBase(uint256)": "infinite",
						"getProject(uint256)": "infinite",
						"knowledgeBase(uint256)": "infinite",
						"knowledgeBaseIds(uint256)": "infinite",
						"projectIds(uint256)": "infinite",
						"projects(uint256)": "infinite",
						"updateCustomer(uint256,string,string,string)": "infinite",
						"updateKnowledgeBase(uint256,string,string,string)": "infinite",
						"updateProject(uint256,string,string,string,string)": "infinite"
					}
				},
				"methodIdentifiers": {
					"createCustomer(string,string,string)": "55b059e8",
					"createKnowledgeBase(string,string,string)": "1f5fdd0b",
					"createProject(string,string,string,string)": "a26ac375",
					"customerIds(uint256)": "5580288b",
					"customers(uint256)": "c0abda2a",
					"deleteCustomer(uint256)": "56d7548f",
					"deleteKnowledgeBase(uint256)": "ed8de1af",
					"deleteProject(uint256)": "4cd0cb28",
					"getAllCustomerIds()": "ddaa91e1",
					"getAllCustomers()": "7da67ba8",
					"getAllKnowledgeBase()": "582dc196",
					"getAllKnowledgeBaseIds()": "b1a76029",
					"getAllProjectIds()": "4ac64766",
					"getAllProjectsWithCustomerInformation()": "e0dc79e6",
					"getCounts()": "a5373899",
					"getCustomer(uint256)": "eb876f27",
					"getKnowledgeBase(uint256)": "05708f1f",
					"getProject(uint256)": "f0f3f2c8",
					"knowledgeBase(uint256)": "44480784",
					"knowledgeBaseIds(uint256)": "e35d1472",
					"projectIds(uint256)": "48c35ad4",
					"projects(uint256)": "107046bd",
					"updateCustomer(uint256,string,string,string)": "ebf898f2",
					"updateKnowledgeBase(uint256,string,string,string)": "6f4afa08",
					"updateProject(uint256,string,string,string,string)": "bef9549c"
				}
			},
			"storageLayout": {
				"storage": [
					{
						"astId": 42,
						"contract": "contracts/no_forma.sol:SimplifiedNoForma",
						"label": "knowledgeBase",
						"offset": 0,
						"slot": "0",
						"type": "t_mapping(t_uint256,t_struct(KnowledgeBase)13_storage)"
					},
					{
						"astId": 47,
						"contract": "contracts/no_forma.sol:SimplifiedNoForma",
						"label": "customers",
						"offset": 0,
						"slot": "1",
						"type": "t_mapping(t_uint256,t_struct(Customer)24_storage)"
					},
					{
						"astId": 52,
						"contract": "contracts/no_forma.sol:SimplifiedNoForma",
						"label": "projects",
						"offset": 0,
						"slot": "2",
						"type": "t_mapping(t_uint256,t_struct(Project)37_storage)"
					},
					{
						"astId": 55,
						"contract": "contracts/no_forma.sol:SimplifiedNoForma",
						"label": "knowledgeBaseIds",
						"offset": 0,
						"slot": "3",
						"type": "t_array(t_uint256)dyn_storage"
					},
					{
						"astId": 58,
						"contract": "contracts/no_forma.sol:SimplifiedNoForma",
						"label": "customerIds",
						"offset": 0,
						"slot": "4",
						"type": "t_array(t_uint256)dyn_storage"
					},
					{
						"astId": 61,
						"contract": "contracts/no_forma.sol:SimplifiedNoForma",
						"label": "projectIds",
						"offset": 0,
						"slot": "5",
						"type": "t_array(t_uint256)dyn_storage"
					}
				],
				"types": {
					"t_array(t_uint256)dyn_storage": {
						"base": "t_uint256",
						"encoding": "dynamic_array",
						"label": "uint256[]",
						"numberOfBytes": "32"
					},
					"t_bool": {
						"encoding": "inplace",
						"label": "bool",
						"numberOfBytes": "1"
					},
					"t_mapping(t_uint256,t_struct(Customer)24_storage)": {
						"encoding": "mapping",
						"key": "t_uint256",
						"label": "mapping(uint256 => struct SimplifiedNoForma.Customer)",
						"numberOfBytes": "32",
						"value": "t_struct(Customer)24_storage"
					},
					"t_mapping(t_uint256,t_struct(KnowledgeBase)13_storage)": {
						"encoding": "mapping",
						"key": "t_uint256",
						"label": "mapping(uint256 => struct SimplifiedNoForma.KnowledgeBase)",
						"numberOfBytes": "32",
						"value": "t_struct(KnowledgeBase)13_storage"
					},
					"t_mapping(t_uint256,t_struct(Project)37_storage)": {
						"encoding": "mapping",
						"key": "t_uint256",
						"label": "mapping(uint256 => struct SimplifiedNoForma.Project)",
						"numberOfBytes": "32",
						"value": "t_struct(Project)37_storage"
					},
					"t_string_storage": {
						"encoding": "bytes",
						"label": "string",
						"numberOfBytes": "32"
					},
					"t_struct(Customer)24_storage": {
						"encoding": "inplace",
						"label": "struct SimplifiedNoForma.Customer",
						"members": [
							{
								"astId": 15,
								"contract": "contracts/no_forma.sol:SimplifiedNoForma",
								"label": "id",
								"offset": 0,
								"slot": "0",
								"type": "t_uint256"
							},
							{
								"astId": 17,
								"contract": "contracts/no_forma.sol:SimplifiedNoForma",
								"label": "name",
								"offset": 0,
								"slot": "1",
								"type": "t_string_storage"
							},
							{
								"astId": 19,
								"contract": "contracts/no_forma.sol:SimplifiedNoForma",
								"label": "email",
								"offset": 0,
								"slot": "2",
								"type": "t_string_storage"
							},
							{
								"astId": 21,
								"contract": "contracts/no_forma.sol:SimplifiedNoForma",
								"label": "phone",
								"offset": 0,
								"slot": "3",
								"type": "t_string_storage"
							},
							{
								"astId": 23,
								"contract": "contracts/no_forma.sol:SimplifiedNoForma",
								"label": "exists",
								"offset": 0,
								"slot": "4",
								"type": "t_bool"
							}
						],
						"numberOfBytes": "160"
					},
					"t_struct(KnowledgeBase)13_storage": {
						"encoding": "inplace",
						"label": "struct SimplifiedNoForma.KnowledgeBase",
						"members": [
							{
								"astId": 4,
								"contract": "contracts/no_forma.sol:SimplifiedNoForma",
								"label": "id",
								"offset": 0,
								"slot": "0",
								"type": "t_uint256"
							},
							{
								"astId": 6,
								"contract": "contracts/no_forma.sol:SimplifiedNoForma",
								"label": "title",
								"offset": 0,
								"slot": "1",
								"type": "t_string_storage"
							},
							{
								"astId": 8,
								"contract": "contracts/no_forma.sol:SimplifiedNoForma",
								"label": "group",
								"offset": 0,
								"slot": "2",
								"type": "t_string_storage"
							},
							{
								"astId": 10,
								"contract": "contracts/no_forma.sol:SimplifiedNoForma",
								"label": "content",
								"offset": 0,
								"slot": "3",
								"type": "t_string_storage"
							},
							{
								"astId": 12,
								"contract": "contracts/no_forma.sol:SimplifiedNoForma",
								"label": "exists",
								"offset": 0,
								"slot": "4",
								"type": "t_bool"
							}
						],
						"numberOfBytes": "160"
					},
					"t_struct(Project)37_storage": {
						"encoding": "inplace",
						"label": "struct SimplifiedNoForma.Project",
						"members": [
							{
								"astId": 26,
								"contract": "contracts/no_forma.sol:SimplifiedNoForma",
								"label": "id",
								"offset": 0,
								"slot": "0",
								"type": "t_uint256"
							},
							{
								"astId": 28,
								"contract": "contracts/no_forma.sol:SimplifiedNoForma",
								"label": "name",
								"offset": 0,
								"slot": "1",
								"type": "t_string_storage"
							},
							{
								"astId": 30,
								"contract": "contracts/no_forma.sol:SimplifiedNoForma",
								"label": "customer",
								"offset": 0,
								"slot": "2",
								"type": "t_string_storage"
							},
							{
								"astId": 32,
								"contract": "contracts/no_forma.sol:SimplifiedNoForma",
								"label": "status",
								"offset": 0,
								"slot": "3",
								"type": "t_string_storage"
							},
							{
								"astId": 34,
								"contract": "contracts/no_forma.sol:SimplifiedNoForma",
								"label": "details",
								"offset": 0,
								"slot": "4",
								"type": "t_string_storage"
							},
							{
								"astId": 36,
								"contract": "contracts/no_forma.sol:SimplifiedNoForma",
								"label": "exists",
								"offset": 0,
								"slot": "5",
								"type": "t_bool"
							}
						],
						"numberOfBytes": "192"
					},
					"t_uint256": {
						"encoding": "inplace",
						"label": "uint256",
						"numberOfBytes": "32"
					}
				}
			},
			"userdoc": {
				"kind": "user",
				"methods": {},
				"version": 1
			}
		}
	}
}